:100000000C944C040C9474040C9474040C947404B8
:100010000C9474040C9474040C9474040C94740480
:100020000C9474040C9474040C9474040C94740470
:100030000C9474040C9474040C9474040C94740460
:100040000C94ED100C9474040C945D110C94371105
:100050000C9474040C9474040C9474040C94740440
:100060000C948F110C947404232D2D2D2D2D2D2DDA
:100070002D2D2D2D2D2D2D2D2D2D2D2D2D2D2D2DB0
:100080002D2D2D2D2D2D2D2D2D2D2D2D2D002309FB
:10009000636F6C6F726E616D653A20002309267381
:1000A000747269703A2000230926282A73747269D1
:1000B00070293A20002309706572635F6C69743A95
:1000C00020200023096E756D706978656C733A2085
:1000D000002309666C617368206F6E3A202000234C
:1000E000096379636C655F6D733A20200023096DA5
:1000F0006F64653A202020202020002309636F6C64
:100100006F723A202020202000230973697A655FEE
:100110006F663A20202000230926746869733A200C
:100120002020202000205D202D2D2D2D2D2D2D2D4A
:100130002D2D2D00232D2D2D2D2D2D2D2D2D2D2033
:10014000534C494E464F3A205B2000230021494E34
:1001500056414C49445F494E5055543A0056414C23
:1001600055455F4D495353494E470056414C5545FF
:100170005F4552524F52004152420044454641555C
:100180004C54005241494E424F570050554C534534
:1001900000464C41534800535445414459004F4692
:1001A00046002300232D2D2D2D2D2D2D2D2D2D2DD4
:1001B0002D2D2D2D2D2D2D2D2D2D2D2D2D2D2D2D6F
:1001C0002D2D2D2D2D2D2D2D2D2D2D2D2D2D2D2D5F
:1001D0002D2D2D2D2D2D2D00232044657363726947
:1001E0007074696F6E2028444553432920202020D5
:1001F00020203A2000232043757272656E742056C9
:10020000657273696F6E2028564552292020203A66
:100210002000232043757272656E742053746174DC
:10022000696F6E2049442028534944293A2000230D
:100230002D2D2D2D2D2D2D2D2D2D2D2D2D2D2D2DEE
:100240002D2D2D2D2D2D2D2D2D2D2D2D2D2D2D2DDE
:100250002D2D2D2D2D2D2D2D2D2D2D2D2D2D2D2DCE
:100260002D2D0023205479706520273E48454C50A1
:10027000272020666F72206D6F726520646574613F
:10028000696C2E00204020002F002F002320434FB8
:100290004D50494C4544204F4E3A200023205645AE
:1002A0005253494F4E20444154453A20332F313464
:1002B0002F32303235002320526564204279657236
:1002C000202020206769746875622E636F6D2F6D22
:1002D000697A726169746800232D2D2D2D2D2D2DC5
:1002E0002D2D2D2D2D2D2D2D2D2D2D2D2D2D2D2D3E
:1002F0002D2D2D2D2D2D2D2D2D2D2D2D2D2D2D2D2E
:100300002D2D2D2D2D2D2D2D2D2D2D002320534E1A
:100310003A0023205549443A002320002320534E1D
:1003200049504520763420666F72204172647569A9
:100330006E6F00232D2D2D2D2D2D2D2D2D2D2D2DA1
:100340002D2D2D2D2D2D2D2D2D2D2D2D2D2D2D2DDD
:100350002D2D2D2D2D2D2D2D2D2D2D2D2D2D2D2DCD
:100360002D2D2D2D2D2D00232323232348454144BE
:1003700045522323232323002323232323524541B0
:1003800044592323232323005349445F3E5F3234DF
:100390000042494E0030003100232D2D2D2D2D2DF2
:1003A0002D2D2D2D2D2D2D2D2D2D2D2D2D2D2D2D7D
:1003B0002D2D2D2D2D2D2D2D2D2D2D2D2D2D2D2D6D
:1003C0002D2D2D2D2D2D2D2D2D2D2D2D00230023CB
:1003D0002020204D6178204F7574707574204C6515
:1003E0006E6774683A2000232020204D61782053E6
:1003F0004944204C656E6774683A20002320202011
:100400004D6178204E756D626572206F6620546F65
:100410006B656E733A2000232020204D61782049BF
:100420006E70757420537472696E67204C656E67C8
:1004300074683A200023202020546F6B656E206979
:10044000732020204944454E5449464945523A5666
:10045000414C55453A554E495453202077686572B2
:100460006520554E495453206973206F7074696F2D
:100470006E616C200023202020524553504F4E5374
:1004800045533A20204041303A3132333A415242CA
:100490002020204044363A313A42494E20204053F1
:1004A00049443A3239323900232020204558414D01
:1004B000504C45533A2020203E41303A3F202020E6
:1004C0002020202020203E44363A312020202020A9
:1004D000203E5349443A323932390023202020004B
:1004E0004436002320202000534C5800534C540025
:1004F000534C5000534C4D00534C4300534C42005E
:100500002320202000232020200023202020436FB0
:100510006D6D616E6473206172653A002320202046
:100520003E203D20737461727420202040203D20C5
:1005300072657370202023203D20636F6D6D656EA2
:1005400074202021203D206572726F7200232020CC
:10055000204C6561642063686172616374657273C5
:10056000206172653A0023202020466F726D61740D
:100570003A20203E434D443A56414C55453C435267
:100580003E3C4C463E00232053657269616C20431B
:100590006F6E74726F6C20496E73747275637469D8
:1005A0006F6E7300232D2D2D2D2D2D2D2D2D2D2DE9
:1005B0002D2D2D2D2D2D2D2D2D2D2D2D2D2D2D2D6B
:1005C0002D2D2D2D2D2D2D2D2D2D2D2D2D2D2D2D5B
:1005D0002D2D2D2D2D2D2D0023004F55545F4F46D1
:1005E0005F52414E474500425954455F534554546C
:1005F000494E475F455252003F5F4D495353494E64
:1006000047004E4F4E455F464F554E44002C004428
:100610004154415F4C454E4754485F45525200306B
:100620007800554E4B4E4F574E5F434D445F4552F9
:10063000520049324600493252004932570049328D
:1006400042004932530049324100534C494E464F13
:1006500000534C583300534C583200534C5831001F
:10066000534C543300534C543200534C54310053C8
:100670004C503300534C503200534C503100534CCB
:100680004D3300534C4D3200534C4D3100534C43CD
:100690003300534C433200534C433100534C4233EC
:1006A00000534C423200534C423100443500443434
:1006B00000443300443200413300413200413100F4
:1006C00041300052414D005245424F4F54003F00CF
:1006D00048454C50004245455000424C494E4B0065
:1006E000444553430056455200534944005549443C
:1006F00000534E003A00400021002000FFF9F3EDC6
:10070000E7E1DCD7D1CCC7C2BEB9B4B0ACA8A3A0D6
:100710009C9894918D8A8683807D7A7774716E6BB4
:10072000696664615F5D5A58565452504E4C4A484F
:1007300047454342403E3D3B3A3937363533323107
:10074000302E2D2C2B2A292827262524232322212D
:10075000201F1E1E1D1C1C1B1A1A191818171716ED
:1007600016151514141313121211111010100F0F67
:100770000F0E0E0E0D0D0D0C0C0C0B0B0B0B0A0AB5
:100780000A0A0909090908080808080707070707E6
:100790000706060606060606050505050505050500
:1007A000040404040404040404040303030303030F
:1007B0000303030303030303020202020202020211
:1007C000020202020202020202020202010101010D
:1007D0000101010101010101010101010101010109
:1007E00001010101010101010101010101010101F9
:1007F00001010101010101010100000000000000F0
:10080000240027002A0000000000250028002B00FB
:10081000000000002300260029000404040404044E
:10082000040402020202020203030303030301029F
:10083000040810204080010204081020010204086E
:10084000102000000008000201000003040700005F
:1008500000000000000000424C41434B0057484953
:1008600054450056494F4C455400494E4449474F62
:1008700000424C5545004151554100475245454EB7
:100880000059454C4C4F57004F52414E474500527E
:1008900045440000BB12BD2911241FBECFEFD8E094
:1008A000DEBFCDBF11E0A0E0B1E0E2EDF5E602C0B1
:1008B00005900D92A63DB107D9F724E0A6EDB1E071
:1008C00001C01D92A536B207E1F714E0CBE4D4E0F5
:1008D00004C02197FE010E947B2ECA34D107C9F7BC
:1008E0000E9462140C94DC320C940000CF93DF93CE
:1008F000A7ECB2E0C0E0DC2FDD0F4D2F50E0C817B1
:10090000F9F09D91292F30E0E4E035952795EA959F
:10091000E1F79F702A3080F4205D9A3078F4905D82
:10092000460F571FFA012083E1E0ED0FE60FF72F86
:10093000F11D9083CF5FDFCF295CEFCF995CF0CFC3
:10094000640F751FFB011082DF91CF91089530E095
:1009500020E041E2E1E0F0E02630310514F4F0E07F
:10096000E0E0B901625F7F4FE60FF71F4093570049
:10097000E491DC01ED93CD012F5F3F4F293031052C
:1009800049F70895833081F028F4813099F082305E
:10099000A9F008958730A9F08830C9F08430B1F407
:1009A000809180008F7D03C0809180008F7780933D
:1009B0008000089584B58F7784BD089584B58F7DB8
:1009C000FBCF8091B0008F778093B0000895809125
:1009D000B0008F7DF9CFCF93DF93282F30E0F9015E
:1009E000EE5BF74F8491F901E25DF74FD491F90185
:1009F000E65EF74FC491CC23A1F081110E94C2049E
:100A0000EC2FF0E0EE0FFF1FE05FF74FA591B491E0
:100A1000EC91ED2381E090E009F480E0DF91CF914B
:100A2000089580E090E0FACF1F93CF93DF93282FB3
:100A300030E0F901EE5BF74F8491F901E25DF74F89
:100A4000D491F901E65EF74FC491CC23A9F0162F9B
:100A500081110E94C204EC2FF0E0EE0FFF1FEA5F4D
:100A6000F74FA591B4918FB7F894EC91111108C08C
:100A7000D095DE23DC938FBFDF91CF911F91089536
:100A8000DE2BF8CFCF93DF9390E0FC01E25DF74FD0
:100A90002491865E974FFC0184918823D1F090E0E9
:100AA000880F991FFC01E450F84FA591B491FC0107
:100AB000EA5FF74FC591D49161110EC09FB7F894CA
:100AC0008C91E22FE0958E238C932881E223E8839A
:100AD0009FBFDF91CF9108958FB7F894EC91E22BEF
:100AE000EC938FBFF6CF8E50806480937C00809112
:100AF0007A00806480937A0080917A0086FDFCCF32
:100B0000809178009091790008953FB7F894809192
:100B1000730290917402A0917502B091760226B58D
:100B2000A89B05C02F3F19F00196A11DB11D3FBF25
:100B3000BA2FA92F982F8827BC01CD01620F711DF4
:100B4000811D911D42E0660F771F881F991F4A95EE
:100B5000D1F708952FB7F89460916F0270917002E9
:100B600080917102909172022FBF089508950895A7
:100B70000895AF92BF92CF92DF92EF92FF920F93C0
:100B80001F93CF93DF936C017B018B01040F151F23
:100B9000EB015E01AE18BF08C017D10759F069918B
:100BA000D601ED91FC910190F081E02DC6010995EF
:100BB000892B79F7C501DF91CF911F910F91FF909C
:100BC000EF90DF90CF90BF90AF900895FC01538DD0
:100BD000448D252F30E0842F90E0821B930B541717
:100BE00010F0CF96089501970895FC01918D828DA4
:100BF000981761F0A28DAE0FBF2FB11D5D968C913D
:100C0000928D9F5F9F73928F90E008958FEF9FEF7B
:100C100008950F931F930E94AA056093EF027093AB
:100C2000F0028093F1029093F20287EE92E00E942C
:100C3000F50597FF1DC00E94AA050091EF021091D3
:100C4000F0022091F1023091F202601B710B820BD5
:100C5000930B0091EB021091EC022091ED02309188
:100C6000EE026017710782079307F8F28FEF9FEF8C
:100C70001F910F910895FC01918D828D981731F08D
:100C8000828DE80FF11D858D90E008958FEF9FEF25
:100C90000895FC01918D228D892F90E0805C9F4FFB
:100CA000821B91098F73992708958F929F92AF921B
:100CB000BF92CF92DF92EF92FF9287EE92E00E9476
:100CC0004906892B21F10E9485054B015C018AE0D0
:100CD000C82ED12CE12CF12C0E94850568197909C8
:100CE0008A099B09683E734081059105A8F321E0BC
:100CF000C21AD108E108F10888EE880E83E0981E38
:100D0000A11CB11CC114D104E104F10429F7FF9026
:100D1000EF90DF90CF90BF90AF909F908F9008950D
:100D200087EE92E00E94490621E0892B09F420E039
:100D3000822F0895FC01A48DA80FB92FB11DA35ACD
:100D4000BF4F2C91848D90E001968F739927848FEB
:100D5000A689B7892C93A089B1898C91837080640E
:100D60008C93938D848D981306C00288F389E02DAF
:100D700080818F7D80830895EF92FF920F931F9360
:100D8000CF93DF93EC0181E0888F9B8D8C8D98133E
:100D90001AC0E889F989808185FF15C09FB7F8944A
:100DA000EE89FF896083E889F98980818370806496
:100DB00080839FBF81E090E0DF91CF911F910F91E1
:100DC000FF90EF900895F62E0B8D10E00F5F1F4FF0
:100DD0000F731127E02E8C8D8E110CC00FB607FCFF
:100DE000FACFE889F989808185FFF5CFCE010E948D
:100DF0009A06F1CFEB8DEC0FFD2FF11DE35AFF4F5B
:100E0000F0829FB7F8940B8FEA89FB89808180621A
:100E1000CFCF0F931F93CF93DF938C01D0E0C0E02F
:100E2000F801EC0FFD1F6491662341F087EE92E01C
:100E30000E94BC06892B11F02196F2CFCE01DF91E2
:100E4000CF911F910F910895CF93DF93EC01888D7F
:100E50008823B9F0AA89BB89E889F9898C9185FD35
:100E600003C0808186FD0DC00FB607FCF7CF8C91C3
:100E700085FFF2CF808185FFEDCFCE010E949A06DB
:100E8000E9CFDF91CF9108958F929F92AF92BF9259
:100E9000CF92DF92EF92FF921F93CF93DF93FC01EB
:100EA0004A01AA24BB24C82DC32ED42EE52EFF242C
:100EB0001C2DD22F8085882361F0889E400111244B
:100EC000C92D8C9D600111241D2D829FD0011124FC
:100ED000DB2FA685E184F2849385A91322C0CB0180
:100EE000880F991F680F791F6E0D7F1DA385A60FB0
:100EF000B72FB11DCC93A485A60FB72FB11D1C939E
:100F00008585680F711DFB01D083DF91CF911F9103
:100F1000FF90EF90DF90CF90BF90AF909F908F9019
:100F20000895660F771F660F771F6E0D7F1D252FA3
:100F3000332744275527882349F090E0829F70018A
:100F4000839FF00C929FF00C11242F2DA60FB72F2A
:100F5000B11D2C93CBCFFF920F931F93CF93DF93B1
:100F6000EC01FF24F394F60E28852F1581F10985F5
:100F70001A85215041F16F3FE1F430E050E040E04C
:100F80006FEF7FEF80E090E00E94552EB901F801ED
:100F90004C815D81CF01801B910B84179507B0F4C4
:100FA0004081469FC001479F900D11249083319648
:100FB000EFCF8F2D90E0982F88270197622F70E058
:100FC0000E94412EE4CF70E060E0E1CFF886DF912F
:100FD000CF911F910F91FF900895CF92DF92EF92E2
:100FE000FF920F931F93CF93DF93CDB7DEB729976F
:100FF0000FB6F894DEBF0FBECDBF8C01DC01199691
:101000008D919C91892B09F473C00E948505F8018C
:10101000C784D088E188F2886C157D058E059F0510
:1010200020F46787708B818B928BF801C784D088FE
:10103000E188F2886C197D098E099F096C32714034
:101040008105910510F3F894D80114968D919C9127
:1010500015979A8389831996ED91FC917F01BFEFD3
:10106000EB1AFB0A80818987F80190810388F48953
:10107000E02DD80155968C91992309F448C09081B0
:10108000982B98879081809589238F838F818C837B
:1010900088E08B8358856F8149853B812C818981CC
:1010A0009A81D701508347FD252F3A952083262F1B
:1010B00039F0441F00C000006083000000C0F2CF80
:1010C00038E04D9160830000019761F7D801549694
:1010D000FC93EE93539749873B832C839A838983B0
:1010E00078940E948505F8016787708B818B928BBD
:1010F00029960FB6F894DEBF0FBECDBFDF91CF911A
:101100001F910F91FF90EF90DF90CF900895908105
:10111000982B98879081809589238F838F818E83E8
:1011200088E08D8358856F8149853D812E81898135
:101130009A81D701508347FD252F00C000C020832E
:1011400000C000C000C000C000C060830000262FA7
:101150003A9541F0441F000000C000C000C000C02C
:1011600000C0E8CF38E04D9100C0608300C0019717
:1011700009F7D8015496FC93EE93539749873D8322
:101180002E83ACCF2091F801260F3327331F213255
:101190003105ECF420919D02FC0190E080E02430C8
:1011A00069F082E00895A091F8012191AC014852C4
:1011B0005E4FA40FB52FB11D2C930196861798F39F
:1011C0008091F801680F6093F80180E0089581E054
:1011D000089510929D0281E080939C021092770204
:1011E00061E082E10E94140561E083E10E94140540
:1011F000E9EBF0E080818E7F808380818D7F80832A
:1012000088E48093B80085E48093BC000895CF9370
:10121000DF9391E09093D7018823B9F0C091B80093
:10122000D091BA008091BC008A7B8093BC0060E0C2
:1012300082E10E94140560E083E10E9414050E948F
:10124000E908D093BA00C093B800DF91CF91089518
:101250008F929F92AF92BF92CF92DF92EF92FF92C6
:101260000F931F93CF93DF93D091C602D13208F032
:10127000D7C0182FC091C5020E9485056B017C0163
:1012800080919D0281116BC082E080939D0210933A
:101290009C028FEF80939B0210929A02D093990246
:1012A000A5EAB2E0E9E7F2E080E0D81391C010923D
:1012B000780280917802CC0FC82BC093780280917D
:1012C0007702813009F088C0109277020E9485056C
:1012D0006B017C01809178028093BB0080919F021A
:1012E0009091A002A091A102B091A202892B8A2B19
:1012F0008B2BA1F00E94850500919F021091A00206
:101300002091A1023091A2026C197D098E099F09DA
:10131000061717072807390708F442C08091BC0058
:1013200083FDD8CF85EC8093BC000E9485056B01BE
:101330007C0180919D02823009F450C080919B0213
:101340008F3F09F46FC080919B02803209F46CC01A
:1013500080919B02803309F469C084E026C08091AB
:101360009F029091A002A091A102B091A202892BAC
:101370008A2B8B2B09F484CF0E94850580909F02D5
:101380009090A002A090A102B090A2026C197D09D9
:101390008E099F0986169706A806B90608F070CF31
:1013A00080919E020E94070985E01092A40210928B
:1013B000C6021092A302DF91CF911F910F91FF906F
:1013C000EF90DF90CF90BF90AF909F908F90089557
:1013D0009D9191938F5F69CF85EEA5CF80919F02FC
:1013E0009091A002A091A102B091A202892B8A2B18
:1013F0008B2B09F49ECF0E94850500919F021091CE
:10140000A0022091A1023091A2026C197D098E09DF
:101410009F09061717072807390708F08ACFC0CF9A
:1014200081E0C3CF80E0C1CF82E0BFCF83E0BDCFFA
:101430000895E091200280911F02E81730F4F0E057
:10144000EF5DFD4F808190E008958FEF9FEF08954D
:101450009091200280911F022FEF3FEF981748F4E0
:10146000E92FF0E0EF5DFD4F208130E09F5F90932A
:101470002002C901089580911F0290912002891BCA
:10148000990B0895CF92DF92EF92FF920F931F93E3
:10149000CF93DF937C01CB018A012091A302222309
:1014A00089F0EB016B01C40ED51ECC15DD0569F08A
:1014B0006991D701ED91FC910190F081E02DC70178
:1014C0000995F3CF642F0E94C208C801DF91CF9124
:1014D0001F910F91FF90EF90DF90CF900895CF93E1
:1014E000DF931F92CDB7DEB769832091A302222339
:1014F000F9F02091C602203258F021E030E0FC01E2
:101500003383228390E080E00F90DF91CF910895A4
:101510008091A402E82FF0E0EB55FD4F9981908374
:101520008F5F8093A4028093C60281E090E0ECCFAD
:1015300061E0CE0101960E94C208F7CF90E080E002
:101540000895CF93DF93EC01FE0164912196662309
:1015500029F087EE92E00E94BC06F6CFDF91CF9192
:1015600008950F931F93CF93DF938C01C4E6D0E0CF
:10157000F80161918F01CE010E94A42D2196CB36F6
:10158000D105B1F787E090E0DF91CF911F910F91E6
:1015900008950F931F93CF93DF9309E111E0D0E0FB
:1015A000C0E0F80161918F01CE010E94A42DF801E5
:1015B00031978081882371F0C631D10549F460E00C
:1015C00087E190E0DF91CF911F910F910C94A42DB2
:1015D0002196E7CFDF91CF911F910F910895FC01E4
:1015E00001900020E9F73197AF01481B590BBC016E
:1015F00087EE92E00C94B90589E791E00C94EF0A2C
:10160000CF93DF930E940907EC010E94FC0A8C0F24
:101610009D1FDF91CF910895CF93DF93FC0144810B
:1016200055816081718187EE92E00E94B905EC01DD
:101630000E94FC0A8C0F9D1FDF91CF9108958F921D
:101640009F92AF92BF920F931F93CF93DF93CDB72B
:10165000DEB7A1970FB6F894DEBF0FBECDBF19A2BB
:10166000423008F44AE08E010F5D1F4F842E912C0A
:10167000B12CA12CA50194010E94C22DE62FB90125
:10168000CA01EA30F4F4E05DD801EE938D01232B1A
:10169000242B252B79F790E080E0109719F0CD01ED
:1016A0000E94EF0AA1960FB6F894DEBF0FBECDBF21
:1016B000DF91CF911F910F91BF90AF909F908F902E
:1016C0000895E95CE1CFCF93DF93BC0190E080E027
:1016D0004AE00E941F0BEC010E94FC0A8C0F9D1F28
:1016E000DF91CF910895CF93DF93682F70E090E062
:1016F00080E04AE00E941F0BEC010E94FC0A8C0F64
:101700009D1FDF91CF910895CF93DF93BC01990F77
:10171000880B990B4AE00E941F0BEC010E94FC0A07
:101720008C0F9D1FDF91CF910895CF93DF930E947F
:10173000EF0AEC010E94FC0A8C0F9D1FDF91CF91F4
:101740000895CF93DF9387E693E00E94000B83E335
:1017500093E00E94000B8CE193E00E94000B89E172
:1017600093E00E94000B82E193E00E94090780E071
:1017700091E00E94950B8CE093E00E9409078BE0BA
:1017800094E00E940C0B88ED92E00E94000B86EB27
:1017900092E00E94000B8CE992E00E94000B8CE822
:1017A00092E00E940907CDE1D4E0698170E090E009
:1017B00080E04AE00E941F0B8AE892E00E9409073D
:1017C0006A8170E090E080E04AE00E941F0B88E8A8
:1017D00092E00E940907688170E06053784F072EFD
:1017E000000C880B990B4AE00E941F0B84E892E0E2
:1017F0000E9409076B8170E090E080E04AE00E945F
:101800001F0B8C810E94730B83E692E00E94000BF9
:101810008FE292E00E94000B82E192E00E940907B1
:1018200089E191E00E94950B85EF91E00E94090704
:1018300087E194E00E940C0B88ED91E00E9409077B
:1018400081E194E00E940C0B84EA91E00E94000B7D
:1018500082EA91E0DF91CF910C94000B0F931F93DC
:10186000CF93DF93CDB7DEB72C970FB6F894DEBFDA
:101870000FBECDBF8C018BE491E00E94000B84E38E
:1018800091E00E940907F801608170E090E080E03B
:101890004AE00E941F0B85E291E00E94000B87E165
:1018A00091E00E940907C8010E94630B89E091E062
:1018B0000E94090785E290E00E94630B8BEF90E0A5
:1018C0000E940907F801658576858785908940E142
:1018D0000E941F0B0E94FC0A8DEE90E00E940907F7
:1018E000F80181850E94730B8FED90E00E9409073B
:1018F000F801828D938D0E94630B81ED90E00E9430
:101900000907F801848D90E00E94840B83EC90E03D
:101910000E940907F80180850E94730B85EB90E017
:101920000E940907F801818D0E94730B87EA90E0FD
:101930000E940907C80103960E94630B8CE990E09E
:101940000E940907F801838194810E94630BF801CA
:1019500065817681CE0101960E94112C8EE890E07F
:101960000E940907CE0101960E94950B88E690E03F
:101970000E94000B2C960FB6F894DEBF0FBECDBFB1
:10198000DF91CF911F910F910895FC01808191818A
:10199000009711F00C946D2A08950F931F93CF9325
:1019A000DF938C01EB01FC01808191810097E1F0D4
:1019B0006881798161157105A9F0428153812C817B
:1019C0003D814217530770F00E9418308C819D8131
:1019D000F801958384831D821C82DF91CF911F9132
:1019E0000F9108950E946D2A88819981F801918351
:1019F00080838A819B81938382838C819D8195835F
:101A00008483198218821B821A82E5CF0F931F9359
:101A1000CF93DF93EC0188819981009759F02A8157
:101A20003B812617370730F081E0DF91CF911F917E
:101A30000F9108958B016F5F7F4F0E94292F0097B0
:101A400059F0998388831B830A832C813D81232B42
:101A500059F7FC011082E8CF80E0E7CFEF92FF92C8
:101A60000F931F93CF93DF93EC017B01FB01019058
:101A70000020E9F731978F01061B170BB8010E9470
:101A8000060D28813981811113C02115310519F006
:101A9000C9010E946D2A198218821D821C821B8234
:101AA0001A82DF91CF911F910F91FF90EF900895CF
:101AB0001D830C83B701C901DF91CF911F910F9155
:101AC000FF90EF900C941830EF92FF920F931F93BA
:101AD000CF93DF936115710541F480E0DF91CF91E1
:101AE0001F910F91FF90EF90089541155105B1F0AE
:101AF0007B01EC010C811D81040F151FB8010E94B0
:101B0000060D882351F3288139818C819D81B7018D
:101B1000820F931F0E9418301D830C8381E0DECF5B
:101B2000EF92FF920F931F93CF93DF93CDB7DEB762
:101B300028970FB6F894DEBF0FBECDBF7C01CB0156
:101B40004AE08E010F5F1F4FB8010E94302CF80150
:101B500001900020E9F73197AF01401B510BB8010C
:101B6000C7010E94640D28960FB6F894DEBF0FBE21
:101B7000CDBFDF91CF911F910F91FF90EF9008950E
:101B80006115710551F0FB0101900020E9F73197D3
:101B9000AF01461B570B0C94640D80E008950F9322
:101BA0001F93CF93DF93CDB7DEB768970FB6F89446
:101BB000DEBF0FBECDBF8C016BE671E0CE0101969A
:101BC0000E94112CBE016F5F7F4FC8010E94C00DA3
:101BD00068960FB6F894DEBF0FBECDBFDF91CF91F0
:101BE0001F910F9108950F931F93CF93DF93CDB75C
:101BF000DEB768970FB6F894DEBF0FBECDBFE09199
:101C00004702F0914802309719F02081211119C044
:101C10008C016DE571E0CE0101960E94112CBE0190
:101C20006F5F7F4FC8010E94C00D81E068960FB6BC
:101C3000F894DEBF0FBECDBFDF91CF911F910F9102
:101C4000089580E0F3CF0F931F93CF93DF9300D0DD
:101C5000CDB7DEB78C0160914502709146020E94BB
:101C6000C00D64EF76E0CE0101960E94112CBE01FA
:101C70006F5F7F4FC8010E94C00D0F900F90DF91E2
:101C8000CF911F910F910895FB014481558160818F
:101C900071810C94640D0F931F93CF93DF9300D049
:101CA0001F92CDB7DEB78C016AEF76E0CE010196C8
:101CB0000E94112CBE016F5F7F4FC8010E94C00DB2
:101CC000B8018FEF93E00E94440E0F900F900F9099
:101CD000DF91CF911F910F910895EF92FF920F9393
:101CE0001F93CF93DF93EC01198218821B821A8213
:101CF0001D821C8261157105E1F08B01FB010190D1
:101D00000020E9F731977F01E61AF70AB7010E9430
:101D1000060D28813981811113C02115310519F073
:101D2000C9010E946D2A198218821D821C821B82A1
:101D30001A82DF91CF911F910F91FF90EF9008953C
:101D4000FD82EC82B801C901DF91CF911F910F9103
:101D5000FF90EF900C94183085ED8093BC0080913B
:101D60009F029091A002A091A102B091A2020796B9
:101D7000A11DB11D23E0B695A795979587952A9546
:101D8000D1F72091BC0024FD03C010929D0208955C
:101D900040919F025091A0026091A1027091A20215
:101DA000452B462B472B69F30097A105B10541F060
:101DB0002AE22A95F1F700C00197A109B109E1CF04
:101DC00080919E020C940709AF92BF92DF92EF922E
:101DD000FF920F931F93CF93DF938C0186E190E0E6
:101DE0000E94D129EC01D80112964C911297842FB0
:101DF00090E01196DC9011971896EC901982188655
:101E00001F86188A198A1A8ABC0126E0769567957A
:101E10002A95E1F76E879C0154E0369527955A95EF
:101E2000E1F723702B879695879596958795837014
:101E30008C8743704D8781E0888383E090E026178C
:101E400011F084E090E0F12CE89E5001E99EB00C86
:101E5000F89EB00C1124BD82AC82C5010E94D1292C
:101E60009A878987009709F45BC0A50170E060E05C
:101E70000E941130FB82EA82ED2CF12CFF82EE826F
:101E80008981882341F061E08D2D0E94420560E048
:101E90008D2D0E941405F701E65EF74FE491F0E006
:101EA000EE0FFF1FEA5FF74F859194919C8B8B8B10
:101EB000F701E25DF74FE491ED8BF801D483C38322
:101EC0008E819F8197FD07C061E00E94420560E01E
:101ED0008E810E94140581E08983D8011396ED91CB
:101EE000FC914481558170E060E0818592850E947B
:101EF00011306FEFF801838194810E94AB070E943B
:101F00005506D80113968D919C91DF91CF911F9129
:101F10000F91FF90EF90DF90BF90AF900C94ED0782
:101F20001D821C821B821A82A7CF1F93CF93DF933F
:101F3000CDB7DEB7A3970FB6F894DEBF0FBECDBF07
:101F4000182F6BE771E0CE0148960E946D0E6BE78B
:101F500071E0CE014E960E946D0ECE0148960E9411
:101F6000230EE12FF0E0EE0FFF1FE35AFD4F8081BB
:101F700091811B8A1A8A1D8A1C8A1F8A1E8A4AE03E
:101F8000BE016F5F7F4F0E94742CBE016F5F7F4F59
:101F9000CE0142960E942E0DBE016E5E7F4FCE0195
:101FA00048960E94440ECE0142960E94C50C64EFF2
:101FB00076E0CE0101960E94112CBE016F5F7F4F2B
:101FC000CE0148960E94C00D67E771E0CE010196F0
:101FD0000E94112CBE016F5F7F4FCE0148960E9478
:101FE000C00DCE0148960E944B0ECE014E960E9427
:101FF000C50CCE0148960E94C50CA3960FB6F89466
:10200000DEBF0FBECDBFDF91CF911F910895AF927C
:10201000BF92CF92DF92EF92FF920F931F93CF93D5
:10202000DF93CDB7DEB76A970FB6F894DEBF0FBE69
:10203000CDBF87EE92E00E944906181619060CF0F3
:1020400057C087EE92E00E94F5058093440280918C
:1020500044028E3309F09AC081E08093D6016BE789
:1020600071E0CE0101960E946D0EBE016F5F7F4F41
:1020700085E094E00E94CD0CCE0101960E94C50C33
:102080006BE771E0CE0101960E946D0E0E94090679
:1020900097FD0FC08A30910561F0898F1A8E41E05B
:1020A00050E0BE01675E7F4FCE0101960E94640D35
:1020B000EDCFBE016F5F7F4F85E094E00E94CD0CB5
:1020C000CE0101960E94C50CC0900504D090060474
:1020D000C114D10441F00091090410910A04760161
:1020E00001151105B9F481E080936D021092D601BB
:1020F0006A960FB6F894DEBF0FBECDBFDF91CF91C9
:102100001F910F91FF90EF90DF90CF90BF90AF9015
:102110000895750157018FEFA81AB80AF701808159
:10212000082E000C990B0E94FF2B892B91F7015070
:1021300011090C0D1D1DF8018081082E000C990B52
:102140000E94FF2B892B31F00E151F0518F001504E
:102150001109F1CFA8014F5F5F4F4E195F095093EE
:102160000A0440930904CE14DF0420F4B701C60129
:102170000E940830E0910504F09106048091090462
:1021800090910A04E80FF91F1082ADCF80914402AC
:10219000082E000C990B0E94FF2B892B09F049CFC8
:1021A0006DE471E0CE0101960E94112C1092D601CF
:1021B00010926D02CE0101960E94EF0A60914402D6
:1021C00087EE92E00E94BC060E94FC0A32CF0E9479
:1021D000900681110C94071008951F920F920FB66C
:1021E0000F9211242F933F938F939F93AF93BF939D
:1021F00080916F0290917002A0917102B091720271
:1022000030916E0223E0230F2D3758F50196A11D62
:10221000B11D20936E0280936F0290937002A09381
:102220007102B09372028091730290917402A09136
:102230007502B09176020196A11DB11D80937302C3
:1022400090937402A0937502B0937602BF91AF9100
:102250009F918F913F912F910F900FBE0F901F90E4
:10226000189526E8230F0296A11DB11DD2CF1F920B
:102270000F920FB60F9211242F933F934F935F93BA
:102280006F937F938F939F93AF93BF93EF93FF933E
:1022900087EE92E00E949A06FF91EF91BF91AF9175
:1022A0009F918F917F916F915F914F913F912F916E
:1022B0000F900FBE0F901F9018951F920F920FB6A0
:1022C0000F9211242F938F939F93EF93FF93E0919D
:1022D000F702F091F8028081E091FD02F091FE0298
:1022E00082FD1BC09081809100038F5F8F732091CE
:1022F0000103821741F0E0910003F0E0E951FD4F46
:10230000958F80930003FF91EF919F918F912F9173
:102310000F900FBE0F901F9018958081F4CF1F92E1
:102320000F920FB60F9211242F933F934F935F9309
:102330006F937F938F939F93AF93BF93EF93FF938D
:102340008091B900887F803609F44AC0F0F5883260
:1023500009F4A7C018F5803109F49BC0B8F48823AC
:1023600009F4F9C0883009F494C0FF91EF91BF914E
:10237000AF919F918F917F916F915F914F913F911D
:102380002F910F900FBE0F901F901895883109F470
:1023900088C0803251F780939B0214C0803409F4C6
:1023A0009DC040F48033B9F38833F9F680939B02E3
:1023B00085ECB0C0803509F485C0883509F496C035
:1023C000883499F60E94AC0ED0CF883909F48CC0BD
:1023D00038F5883729F050F4883611F0803729F61F
:1023E00083E080939D0210921A0257C0883809F446
:1023F0007BC0803919F0803809F0B7CF80911A027C
:10240000803208F071C0E0911A0281E08E0F809353
:102410001A028091BB00F0E0E650FE4F80833DC081
:10242000803B39F0E0F4803A09F479C0883A09F049
:102430009CCF84E080939D021092F9011092F801E4
:10244000E0911D02F0911E0209958091F801811121
:102450000FC081E08093F8011092D80109C0803C40
:1024600009F4A6CF883C09F4A3CF883B09F07DCFBF
:10247000E091F90181E08E0F8093F901F0E0E852DC
:10248000FE4F80818093BB009091F9018091F8010B
:1024900029C0809178028093BB0085EC8093BC00BA
:1024A00064CF90919A0280919902981758F5E09123
:1024B0009A0281E08E0F80939A02F0E0E758FD4F78
:1024C0008081E9CFE0919A0281E08E0F80939A0299
:1024D0008091BB00F0E0E758FD4F808390919A0215
:1024E000809199029817C8F285E8D8CFE0919A02B6
:1024F00081E08E0F80939A028091BB00F0E0E75854
:10250000FD4F808380919C0281115CCF81E080939C
:10251000770284EA8093BC0010929D0226CF85EC5E
:102520008093BC0010929D0280911A02803230F498
:10253000E0911A02F0E0E650FE4F108260911A021C
:1025400070E0E0911B02F0911C028AEF91E0099586
:1025500010921A020ACF10929B0234CFFC01908194
:1025600090539A3008F090E0818180532AE0929F46
:10257000800D112408951F93CF93DF93E7EEF2E0CF
:102580001382128288EE93E0A0E0B0E0848395830A
:10259000A683B78329E531E03183208325EC30E041
:1025A0003587248724EC30E03787268720EC30E01D
:1025B000318B208B21EC30E0338B228B22EC30E00E
:1025C000358B248B26EC30E0378B268B118E128EC8
:1025D000138E148EE4E8F3E01382128284839583D1
:1025E000A683B7838BE691E0918380838DE891E0A9
:1025F0000E94AE12CDE1D4E0888313E0198388E80D
:1026000091E00E94AE128A8380E991E00E94AE12AE
:102610008B8383E991E00E94AE128C8386E991E07E
:102620000E94AE128D8369E971E087E194E00E9417
:102630006D0E6DE971E081E194E00E946D0E68EA33
:1026400071E08BE094E00E946D0E6BE771E085E035
:1026500094E00E946D0E6BE771E08FEF93E00E94B3
:102660006D0EE0E9F3E091E0908387E08183A2E5DD
:10267000A283978370E17087118612868FEF83871C
:102680008487158616861786108A118A128A138AFD
:10269000148A158A168A178A108E64E6618F48EEAE
:1026A00053E0538F428F148E158E168E178E10A204
:1026B00011A212A213A214A226E538E036832583C4
:1026C000B2E0B5A3B8E0B6A3A7A394A775A716A6D2
:1026D00017A680AB81AB12AA13AA14AA15AA16AA30
:1026E00017AA10AE11AE12AE13AE14AE15AE66AF91
:1026F0005093D0034093CF031092D1031092D20392
:102700001092D3031092D4031092D5031092D603E3
:102710001092D7031092D8031092D90333A722A79F
:102720001093DA03E9E0E093DB03A093DC039093DA
:10273000E1037093E2031092E3031092E4038093A9
:10274000E5038093E6031092E7031092E8031092EA
:10275000E9031092EA031092EB031092EC0310923B
:10276000ED031092EE031092EF031092F00310921B
:10277000F1031092F2036093F3035093F503409337
:10278000F4031092F6031092F7031092F8031092DC
:10279000F9031092FA031092FB031092FC031092BB
:1027A000FD031092FE033093E0032093DF03E9E57D
:1027B000F4E08FE898E09183808380E090E0AFEFD1
:1027C000B0E082839383A483B583E3E5F4E088E8F3
:1027D00098E09183808380E095E5AFEFB0E082835D
:1027E0009383A483B583EDE4F4E081E898E09183DA
:1027F000808380E09FEFAFEFB0E082839383A48378
:10280000B583E7E4F4E08BE798E09183808380E090
:102810009FEFA0E0B0E082839383A483B583E1E4DB
:10282000F4E086E798E0918380838FEF9FEFA0E04C
:10283000B0E082839383A483B583EBE3F4E081E784
:1028400098E0918380838FEF90E0A0E0B0E08283F6
:102850009383A483B583E5E3F4E08AE698E091836B
:1028600080838FEF90E0A3E3B0E082839383A4831F
:10287000B583EFE2F4E083E698E0918380838FEF05
:1028800090E0DC0182839383A483B583E9E2F4E0E2
:102890008DE598E0918380838FEF9FEFAFEFB0E0FD
:1028A00082839383A483B583E3E2F4E087E598E031
:1028B000918380831282138214821582DF91CF91DB
:1028C0001F910895CF93DF93CDB7DEB7C154D109DF
:1028D0000FB6F894DEBF0FBECDBF789484B582608A
:1028E00084BD84B5816084BD85B5826085BD85B5B4
:1028F000816085BD80916E00816080936E00109232
:1029000081008091810082608093810080918100AC
:10291000816080938100809180008160809380003D
:102920008091B10084608093B1008091B00081609B
:102930008093B00080917A00846080937A008091C7
:102940007A00826080937A0080917A00816080931F
:102950007A0080917A00806880937A001092C1009A
:1029600060E08EE00E94420560E08FE00E94420538
:1029700060E080E10E94420560E081E10E94420542
:1029800061E082E00E94420561E083E00E9442052E
:1029900061E084E00E94420561E085E00E9442051A
:1029A00061E086E00E94420561E087E00E94420506
:1029B00061E088E00E94420561E089E00E944205F2
:1029C00061E08DE00E94420560E082E00E94140513
:1029D00060E083E00E94140560E084E00E9414053A
:1029E00060E085E00E94140560E086E00E94140526
:1029F00060E08DE00E941405E091F702F091F8028A
:102A000082E08083E091F302F091F4021082E09181
:102A1000F502F091F60280E180831092FF02E091CE
:102A2000FB02F091FC0286E08083E091F902F091D4
:102A3000FA02808180618083E091F902F091FA02CC
:102A4000808188608083E091F902F091FA028081B0
:102A500080688083E091F902F091FA0280818F7D95
:102A6000808382E390E0A0E0B0E08093EB0290935B
:102A7000EC02A093ED02B093EE02109220021092AD
:102A80001F021092A4021092C6020E94E90886EB6F
:102A900095E090931E0280931D0287EB95E0909342
:102AA0001C0280931B0261E670E08FEF93E00E94AE
:102AB000060D61E470E085E094E00E94060D0DB71C
:102AC0001EB7CE0101960E94A704DE011196E0E038
:102AD000F1E09E01265F3F4F8D91982F92959F7058
:102AE0008F709A3008F0E1C0905D90838A3008F0D2
:102AF000DEC0805D81833296A217B30769F710921A
:102B000012010FB6F8941EBF0FBE0DBF6BE771E048
:102B1000CE01C2960E946D0ECE0182960E94A7043D
:102B2000CFA0D12CF12CE12CFE2CED2CDC2CCC24D4
:102B300088A5C80ED11CE11CF11CFE2CED2CDC2C50
:102B4000CC2489A5C80ED11CE11CF11CFE2CED2C57
:102B5000DC2CCC248AA5C80ED11CE11CF11C6BE72F
:102B600071E0CE018C960E946D0E81E2E4EBF1E003
:102B7000DE01119601900D928A95E1F7F601EF7151
:102B8000FF2721E030E02C0F3D1FE20FF31F808173
:102B900088AF19AE41E050E0BE01685C7F4FCE01C6
:102BA0008C960E94640D35E0F694E794D794C79410
:102BB0003A95D1F7C114D104E104F104F9F6BE014C
:102BC000645D7F4FCE01C2960E94CD0CCE018C96E3
:102BD0000E94C50CBE016E5C7F4F8BE094E00E94AA
:102BE000CD0CCE01C2960E94C50C87E090E00E94F9
:102BF000D1298C0190936702809366020E94AA05F6
:102C0000609368027093690280936A0290936B02EA
:102C1000F12CE12CC7010E949C2D8F3F09F049C087
:102C20003FEFE31AF30A4AE0E416F10499F7DD24D2
:102C3000D394580124E6E22EF12CC7010E949C2D6A
:102C4000D5018D935D01BFEFEB1AFB0AEBE6EE16A3
:102C5000F10499F7D8018C9184508B3F60F184E0A6
:102C60008C9381E0F8019181913029F081E081839A
:102C700080E1828381E0D80113969C911397923072
:102C800041F082E013968C9313978EE114968C9307
:102C900081E0F8019581933081F083E0858381E0C4
:102CA0008683C8010E94B10A0AC0995C1ECF895C64
:102CB00021CFD12CBECF80E0D5CF8111F2CFE091D2
:102CC0006602F09167028081843011F4DD2009F101
:102CD00084E0808381E0818390E1928392E093831A
:102CE00092E3948393E09583868310E000E060E0B4
:102CF000C8010E94A42D0F5F1F4F0115F4E01F07AC
:102D0000B1F70E94C90A80916602909167020E9401
:102D1000B10A99E1E92E91E0F92E10E000E0C80136
:102D20000E949C2DD7018D937D01882331F00631BF
:102D3000110509F0A7C0109230010E94A10B00916B
:102D4000660210916702F80182818093980380E9FE
:102D500093E00E94E40ED80114968C918093BD03F9
:102D600085EB93E00E94E40E80E2F82EF092C0031F
:102D700060E28091B8039091B9030E94AB07F8011B
:102D800086818093E2038AED93E00E94E40EF09244
:102D9000E50360E28091DD039091DE030E94AB07C2
:102DA00010926C020E94AA0560933701709338015B
:102DB0008093390190933A0188E793E00E94000BD9
:102DC0003E01F2E26F0E711C9E012F5F3F4F190111
:102DD00080916D02882309F4D1C781E0809332018C
:102DE0006BE771E08FEF93E00E942E0D8091050458
:102DF000909106040E94EE2F2C019DAF8CAF6BE7E3
:102E000071E085E094E00E942E0D4114510409F414
:102E10009AC76AEF76E0CE01C2960E94112C9924DF
:102E20009394BE016E5C7F4FCE01CC960E94182C0D
:102E30008C01009709F487C7DC018C91882389F302
:102E400064EF76E0CE01C8960E94112CC8010E9462
:102E5000EE2F9FAF8EAF9BAF8AAF10E0BE01685CD4
:102E60007F4FCE01CA960E94182C212F30E0220FEE
:102E7000331F2B5B3D4F009741F0F9019183808315
:102E80001F5FECCF0F5F1F4F4ACFD9011D921C92DD
:102E90000091450210914602D12C7801ED0CF11CF5
:102EA000F7018081882369F0809344028091440275
:102EB000082E000C990B0E94E62FD7018C93D39417
:102EC000ECCF61EF76E0C8010E94082C892BD9F481
:102ED0006BE771E0CE0182960E946D0ECE01829664
:102EE0000E94230ECE0101960E94A7046BE074E0BD
:102EF000CE0182960E94440ECE0182960E944B0E15
:102F0000CE01829618C06DEE76E0C8010E94082CB2
:102F1000892BE1F46BE771E0C1010E946D0EC101E4
:102F20000E94230E60E071E0C1010E94C00DC1014A
:102F30000E944B0EC1010E94C50C8EAD9FAD0E9438
:102F40006D2A8AAD9BAD0E946D2A6BCF69EE76E04B
:102F5000C8010E94082C892B09F04FC06BE771E073
:102F6000CE0182960E946D0ECE0182960E94230EA3
:102F7000CE0182960E94F30D882319F0109232013F
:102F8000BBCF00914702109148026EEC76E0C80179
:102F90000E94082C69E171E0892B61F1F801019030
:102FA0000020E9F73197E01BF10B7897D8F4F8018E
:102FB000D1019801295E3F4F81918D93882319F0AB
:102FC000E217F307C9F748E150E0B10189E191E068
:102FD0000E941F300E94C90A69E171E0C3010E948A
:102FE000C00D8ACF1092320168E873E0C1010E94DF
:102FF000112CB101CE018296F2CF65EE76E0C801C8
:103000000E94082C892B71F46BE771E0C1010E94CA
:103010006D0EC1010E94230E67E174E0C1010E94A0
:10302000440E85CF60EE76E0C8010E94082C892B03
:1030300059F46BE771E0C1010E946D0EC1010E945D
:10304000230E61E174E0EACF6AED76E0C8010E94E8
:10305000082C892B09F04CC06BE771E0C3010E947A
:103060006D0EC3010E94230EC3010E94F30D88233D
:1030700019F01092320138C08091470290914802B5
:103080000E94E12B6C01990FEE08FF08C0925302D9
:10309000D0925402E0925502F092560290925B0256
:1030A0000E94AA05609357027093580280935902B8
:1030B00090935A0260934F02709350028093510292
:1030C000909352022AE0A101C701B6010E94522C3E
:1030D000F10101900020E9F73197AF01421953093E
:1030E000B101C3010E94640DC3010E944B0E44C490
:1030F00065ED76E0C8010E94082C892B09F04CC0D0
:103100006BE771E0C3010E946D0EC3010E94230EA4
:10311000C3010E94F30D8111ACCF009147021091C1
:1031200048026EEC76E0C8010E94082C892B39F425
:1031300080915C028823B9F067E973E016C067E903
:1031400073E0C8010E94082C892B19F490925C024C
:10315000F3CF65E973E0C8010E94082C892B09F0C0
:10316000CBC410925C0265E973E0C1010E94112C8E
:10317000B101C3010E94C00D64EF76E0C1010E945D
:10318000112CB101C3010E94C00D61E973E0C101BE
:103190000E94112CB101A7C460ED76E0C8010E9425
:1031A000082C892B41F06EEC76E0C8010E94082CB7
:1031B000892B09F055C10E94A10B88ED95E00E9472
:1031C000000B84EA95E00E94000B86E895E00E94DF
:1031D000000B86E695E00E94000B8DE495E00E94CE
:1031E000000B8CE195E00E94000B8AE095E00E94C4
:1031F000000B85E095E00E94090780ED96E00E94B3
:10320000A10A8AEF96E00E94A10A89EE96E00E9448
:10321000A10A8AEF96E00E94A10A85EE96E00E943C
:10322000A10A8AEF96E00E94A10A85ED96E00E942D
:10323000A10A8AEF96E00E94A10A80EE96E00E9421
:10324000A10A8AEF96E00E94A10A8AED96E00E9408
:10325000A10A8AEF96E00E94A10A87EC96E00E94FC
:10326000A10A0E94FC0A80E095E00E9409078CEF09
:1032700094E00E94A10A8AEF96E00E94A10A88EFDA
:1032800094E00E94A10A8AEF96E00E94A10A84EFCE
:1032900094E00E94A10A8AEF96E00E94A10A80EFC2
:1032A00094E00E94A10A8AEF96E00E94A10A8CEEA7
:1032B00094E00E94A10A8AEF96E00E94A10A88EE9B
:1032C00094E00E94A10A8AEF96E00E94A10A0E945F
:1032D000FC0A83EE94E00E94090780EC96E00E94CD
:1032E000A10A8AEF96E00E94A10A8DEB96E00E9467
:1032F000A10A8AEF96E00E94A10A8AEB96E00E945A
:10330000A10A8AEF96E00E94A10A87EB96E00E944C
:10331000A10A8AEF96E00E94A10A84EB96E00E943F
:10332000A10A8AEF96E00E94A10A81EB96E00E9432
:10333000A10A8AEF96E00E94A10A8EEA96E00E9416
:10334000A10A8AEF96E00E94A10A8BEA96E00E9409
:10335000A10A8AEF96E00E94A10A80EE94E00E9402
:10336000A10A0E94FC0A8BED94E00E94090786E402
:1033700096E00E94A10A8AEF96E00E94A10A82E4E8
:1033800096E00E94A10A8AEF96E00E94A10A8EE3CD
:1033900096E00E94A10A8AEF96E00E94A10A8AE3C1
:1033A00096E00E94A10A8AEF96E00E94A10A86E3B5
:1033B00096E00E94A10A8AEF96E00E94A10A82E3A9
:1033C00096E00E94A10A0E94FC0A88EA94E00E940A
:1033D000000B85E794E00E94000B85E394E00E94D7
:1033E000000B87E194E00E94090780E490E00E94CE
:1033F000840B8CEF93E00E94090785E090E00E9427
:10340000840B87EE93E00E94090787E190E00E9419
:10341000840B8FEC93E00E94090780E690E00E9405
:10342000840B8DEC93E00E94000B89E993E00E94ED
:10343000000B80E993E00E942E0C85EB93E00E9444
:103440002E0C8AED93E00E942E0C60ED76E0C30115
:103450000E94112C6FEA71E0C1010E946D0E67CDD0
:1034600067EC76E0C8010E94082C892B39F587EEBD
:1034700092E00E942407E091F902F091FA02808123
:103480008F7E8083E091F902F091FA028081877F3C
:103490008083E091F902F091FA0280818F77808336
:1034A000E091F902F091FA0280818F7D8083809112
:1034B0000103809300030C9400003FCD63EC76E0A1
:1034C000C8010E94082C892BB9F46BE771E0C10197
:1034D0000E946D0EC1010E94230E80915F049091A5
:1034E0006004009711F485E694E0B301681B790B42
:1034F000C1010E94900D1BCD60EC76E0C8010E94D6
:10350000082C892B21F480E00E94950F16CD6DEBDD
:1035100076E0C8010E94082C892B11F481E0F4CFD9
:103520006AEB76E0C8010E94082C892B11F482E036
:10353000EBCF67EB76E0C8010E94082C892B11F4D1
:1035400083E0E2CF64EB76E0C8010E94082C892B6F
:1035500021F482E00E94EC22F0CC61EB76E0C8011D
:103560000E94082C892B11F483E0F4CF6EEA76E0F8
:10357000C8010E94082C892B11F484E0EBCF6BEA80
:1035800076E0C8010E94082C892B11F485E0E2CF77
:1035900066EA76E0C8010E94082C892B21F481E0BC
:1035A0000E942325CACC61EA76E0C8010E94082C5B
:1035B000892B11F482E0F4CF6CE976E0C8010E9417
:1035C000082C892B11F483E0EBCF67E976E0C80182
:1035D0000E94082C892B21F481E00E949C27ADCC0D
:1035E00062E976E0C8010E94082C892B11F482E080
:1035F000F4CF6DE876E0C8010E94082C892B11F405
:1036000083E0EBCF68E876E0C8010E94082C892BA4
:1036100021F481E00E940A2490CC63E876E0C8019E
:103620000E94082C892B11F482E0F4CF6EE776E03B
:10363000C8010E94082C892B11F483E0EBCF69E7C5
:1036400076E0C8010E94082C892B21F481E00E94B9
:10365000692373CC64E776E0C8010E94082C892BAB
:1036600011F482E0F4CF6FE676E0C8010E94082CE6
:10367000892B11F483E0EBCF6AE676E0C8010E9463
:10368000082C892B21F481E00E94E02656CC65E6C7
:1036900076E0C8010E94082C892B11F482E0F4CF57
:1036A00060E676E0C8010E94082C892B11F483E0C3
:1036B000EBCF6BE576E0C8010E94082C892B21F442
:1036C00081E00E94C62539CC66E576E0C8010E94FB
:1036D000082C892B11F482E0F4CF61E576E0C80173
:1036E0000E94082C892B11F483E0EBCF6AE476E08A
:1036F000C8010E94082C892BA9F46BE771E0C10175
:103700000E946D0EC1010E94230E80E993E00E9489
:103710002E0C85EB93E00E942E0C8AED93E00E9424
:103720002E0C05CC66E476E0C8010E94082C892B9B
:1037300069F56BE771E0C3010E946D0EC3010E9441
:10374000230EC3010E94F30D811193CC0091470217
:10375000109148026EEC76E0C8010E94082C60913E
:103760004202892B79F0C8010E94E12B8F3F91051D
:1037700031F028F0109232016AED75E008CD8093A7
:103780004202682FC3010E94C122AECC62E476E0FF
:10379000C8010E94082C892B21F56BE771E0C30159
:1037A0000E946D0EC3010E94230EC3010E94F30DFF
:1037B00081115FCC00914702109148026EEC76E0D7
:1037C000C8010E94082C60914102892BD9F2C801DE
:1037D0000E94E12B8F3F910509F060F68093410232
:1037E000D0CF6EE376E0C8010E94082C892B51F5FA
:1037F0006BE771E0C3010E946D0EC3010E94230EAE
:10380000C3010E94F30D811134CC00914702109145
:1038100048026EEC76E0C8010E94082C60914302D9
:10382000892B09F4AFCFC8010E94E12B9FEF980FBD
:10383000913128F01092320167EE75E0A8CC8093A8
:1038400043029FCF6AE376E0C8010E94082C892BCF
:1038500009F494C066E376E0C8010E94082C892B25
:1038600009F450C162E376E0C8010E94082C892B5C
:1038700009F057C06BE771E0CE018C960E946D0E87
:10388000CE018C960E94230ECE018C960E94F30DE1
:10389000882349F010923201CE018C960E944B0E83
:1038A000CE018C9648CB6EEC76E0809147029091E9
:1038B00048020E94082C892B79F500E011E09092D3
:1038C000A3021093C5021092A4021092C60281E0D6
:1038D0000E942809811110C0612FCE018C960E9490
:1038E000C1226DE076E0C3010E94112CB301CE012C
:1038F0008C960E94C00D0F5F1F5F103801F762E0C9
:1039000076E00111C9CFC1010E94112CB101CE0195
:103910008C960E94C00DC0CF1092320168EF75E006
:10392000F2CF109232016BE771E0C3010E946D0E7D
:10393000B801C3010E94C00D64EF76E0C1010E948E
:10394000112CB101C3010E94C00D62E276E0C101F9
:103950000E94112CB101C3010E94C00D6AEF76E0F4
:10396000C1010E94112CB101C3010E94C00DB3011D
:103970008FEF93E00E94440EC301DDCA6BE771E054
:10398000C3010E946D0EC3010E94230EE091470205
:10399000F091480280818CA781818DA71EA6C3016A
:1039A0000E94F30D811165CB0091470210914802EE
:1039B0006EEC76E0C8010E94082C892B69F5EDB603
:1039C000FEB680914302282F30E0220F331F2F5F75
:1039D0003F4FEDB7FEB7E21BF30B0FB6F894FEBFF7
:1039E0000FBEEDBF0DB71EB70F5F1F4FB8010E948E
:1039F00076046FE176E0C1010E94112CB101C30190
:103A00000E94C00DB801C3010E94C00D0FB6F8940A
:103A1000FEBE0FBEEDBE68CB6FE176E0CE018C96A8
:103A20000E94082C892B09F067C0D8011296FD016D
:103A300001900020E9F73197EA1BFB0B209143022C
:103A400021962FAF2197822F90E0880F991FE817BA
:103A5000F90709F04CC07801F7ECCF2EF2E0DF2E29
:103A60005601D70112968C918823D1F0B2E0EB0E6B
:103A7000F11CF701F1812296FFAF2297FF2381F01D
:103A80000E946622882E22968FAD22970E9466227F
:103A90008294E0EF8E22880ED5018D925D01E1CFF8
:103AA000809142029092A3028093C5021092A402D8
:103AB0001092C6026091410284E893E00E946F0A6E
:103AC000F12C2196BFAD2197BF1549F0F601619108
:103AD0006F0184E893E00E946F0AF394F2CF81E0D3
:103AE0000E942809B801C3010E94C00DFDCA1092AE
:103AF00032016FE076E04BCB10923201C3010E949D
:103B0000CF0DF2CAADB6BEB66BE771E0C3010E943D
:103B10006D0EC3010E94230E009142029092A302F7
:103B20000093C5021092A4021092C6026091410255
:103B300084E893E00E946F0A81E00E9428091091B6
:103B400043020E9485056B017C0180919D028111D9
:103B500068C0113208F010E290929D0290929C028F
:103B6000FFEFF0939B0210929A028FEF810F8093E8
:103B700099029092780280917802000F082B0093AE
:103B8000780280917702813009F085C01092770227
:103B90000E9485056B017C01809178028093BB00B7
:103BA00080919F029091A002A091A102B091A202E7
:103BB000892B8A2B8B2BA1F00E94850520919F02D7
:103BC0003091A0024091A1025091A2026C197D098E
:103BD0008E099F09261737074807590708F442C07E
:103BE0008091BC0083FDD8CF25EC2093BC000E94BF
:103BF00085056B017C0180919D02813009F44FC0E5
:103C000080919A02811710F410919A02A9E7B2E00C
:103C1000E1E2F2E080E0811751F19D9191938F5F95
:103C2000FACF80919F029091A002A091A102B09141
:103C3000A202892B8A2B8B2B09F487CF0E94850542
:103C400020919F023091A0024091A1025091A202C6
:103C50006C197D098E099F092617370748075907F0
:103C600008F073CF80919E020E94070910E0109225
:103C7000200210931F0210E0F09043021F1588F5F8
:103C800084E893E00E94280AE12FF0E0E953FD4F19
:103C900080831F5FF1CF35EE3093BC00A8CF8091B9
:103CA0009F029091A002A091A102B091A202892B43
:103CB0008A2B8B2B09F49FCF0E94850520919F02B0
:103CC0003091A0024091A1025091A2026C197D098D
:103CD0008E099F09261737074807590708F08BCF29
:103CE000C1CF81E00E9428098F2D90E0880F991F95
:103CF00001964DB75EB7481B590B0FB6F8945EBFDF
:103D00000FBE4DBF0DB71EB70F5F1F4FB8018F2DF0
:103D10000E9476046FE176E0C1010E94112CB1018E
:103D2000C3010E94C00DB801C3010E94C00DC301B0
:103D30000E944B0EC3010E94C50C0FB6F894BEBE84
:103D40000FBEADBEFAC8809132018111DBC088EF91
:103D500096E00E94A10A8FEF93E00E940C0B6BE7A4
:103D600071E08FEF93E00E942E0D8CAD9DAD0E940F
:103D70006D2AC2010E946D2A10926D020E94AA054E
:103D800000913701109138012091390130913A01A9
:103D9000061717072807390708F013C30E94AA055A
:103DA0006B5F7F4F8F4F9F4F609337017093380148
:103DB0008093390190933A0180915B02882321F12D
:103DC0000E94AA05009157021091580220915902B1
:103DD00030915A026B017C01C01AD10AE20AF30A3F
:103DE00000915302109154022091550230915602D5
:103DF0000C151D052E053F0508F087C060E08DE01D
:103E00000E94140510925B0286E00E94EB04209150
:103E10005C022111A1C060E0892B09F0A6C000E975
:103E200013E05524539488248A94912CD8011A962F
:103E30008C911A97882371F05C961C925C971D9662
:103E40004D915D916D917C915097F801418B528B12
:103E5000638B748BD80119969C91199791118FC01F
:103E6000F801118A128A138A148A81111286F801C4
:103E70008185843029F48285882309F47AC11286E9
:103E8000D8011896BC90189759966C9170E090E004
:103E900080E00E94A12C20E030E048EC52E40E9437
:103EA000812E6B017C016B2D70E090E080E00E9420
:103EB000A12C9B01AC01C701B6010E94DE2C0E941F
:103EC000F32E462EB61608F44B2CD12CC12CE42C24
:103ED000F12CCE14DF0408F00BC2F8018381948129
:103EE000DC0112962D913C91C216D30638F421893B
:103EF000328943895489B6010E944407BFEFCB1A27
:103F0000DB0AE5CF86EF96E024CF00914F021091B7
:103F100050022091510230915202601B710B820BB2
:103F2000930B6B3F71058105910508F46DCF8DE012
:103F30000E94EB0461E0892B09F060E08DE00E94B3
:103F400014050E94AA0560934F027093500280935B
:103F500051029093520258CF20919903225022305F
:103F600040F0892B09F05BCF61E086E00E941405E8
:103F700056CF2091AC03222309F44DCFF2CF9130DC
:103F800009F085C01D964D915D916D917C91509782
:103F9000F801418B528B638B748B882309F467CFB4
:103FA0001286F8018185833009F061CF8285811105
:103FB0005DCF0E94AA05D8015D96CD90DD90ED9071
:103FC000FC909097C616D706E806F90608F4ACC030
:103FD0005A96CD90DC90D694C794F12CE12C0E9497
:103FE000AA05F801258D368D478D50A1C21AD30A36
:103FF000E40AF50AA7019601260F371F481F591F2B
:10400000AFEFB0E00E94E42D228D338D36952795D9
:1040100050E040E00E94C22DE22FD8015C968C91C6
:104020008111E095D8011D964C911D971E965C91CB
:104030001E971F968C91F0E0E450F94FE4912E2FDB
:1040400030E0A82FB0E00E94262EC72ED82EE92EF1
:10405000FF247601DD24CC24A52FB0E00E94262E7B
:104060006627C62AD72AE82AF92AA42FB0E00E9498
:10407000262E672F782F892F9927C60ED71EE81E68
:10408000F91EF801C18AD28AE38AF48AF0CE92300E
:1040900009F087CF882311F01A961C920E94AA0576
:1040A000F801C58CD68CE78CF0A06C157D058E05CB
:1040B0009F0508F476CF0E94AA05D8015D96CD90A1
:1040C000DD90ED90FC909097C616D706E806F906AD
:1040D00008F067CF5C968C915C978823C9F0F80153
:1040E000118A128A138A148A8525D8015C968C93CA
:1040F0000E94AA05F801228D338D36952795620F0F
:10410000731F811D911D658F768F878F90A349CF77
:104110001D964D915D916D917C915097F801418B69
:10412000528B638B748BE0CF0E94AA05D8015D96F9
:10413000CD90DD90ED90FC909097C616D706E806DE
:10414000F90608F094CE5C968C915C9785255C9678
:104150008C930E94AA05F801228D338D3695279500
:10416000620F731F811D911D658F768F878F90A3BE
:104170007ECE0E94AA05D8015D96CD90DD90ED908F
:10418000FC9090976C157D058E059F0508F0A0C0EA
:104190005A96CD90DC90F12CE12C0E94AA05F801F2
:1041A000258D368D478D50A1C21AD30AE40AF50A2F
:1041B000A7019601260F371F481F591FAFEFB0E028
:1041C0000E94E42D228D338D50E040E00E94C22DEC
:1041D0002095822F6BE20E94352EF82F35ED482F67
:1041E0003403700111242E0D3F2D311DE22EEE0CF3
:1041F0002E0D220FE22EF12C9701AFEFB0E00E94BE
:10420000262E672F782F892F99272FEF30E040E057
:1042100050E0261B370B480B590B0E94E42DA72EAC
:10422000B82EC92EDD24EA2DD401AE19BF092FEF17
:1042300030E00E94742E672F782F892F99272FEF57
:1042400030E040E050E0261B370B480B590BAFEF36
:10425000B0E00E94E42DBB27A92F982F872F482F6D
:10426000F23089F040F4FF2321F0F13071F1FA2DA2
:1042700040E0EFEF0BC0F33029F1F430C1F7E82F45
:10428000FFEF40E003C0F82F4FEFE0E08E2F90E00B
:10429000B0E0A0E0DC019927882750E070E060E002
:1042A000762F652F542F4427840F951FA61FB71F05
:1042B0008F0F911DA11DB11DF801818B928BA38BD6
:1042C000B48BDECD4A2DFFEFE0CFF0E04FEFDECF35
:1042D0000E94AA05D8015A962D913C91620F731F36
:1042E000811D911DF801658F768F878F90A3C8CDB2
:1042F000F80180858E151F04A1F098F083819481C8
:10430000DC0112962D913C91E216F30630F420E088
:1043100030E0A901B7010E944407BFEFEB1AFB0A86
:10432000E7CF81899289A389B489458956896789AC
:10433000708D84179507A607B70729F05782858BDC
:10434000968BA78BB08FD8011B968C911B971C96D0
:104350009C911C97891729F017965C9217971C96C9
:104360008C930E94AA05F801C1A0D2A0E3A0F4A0FA
:104370006C197D098E099F09693873418105910582
:1043800018F0D80117965C92F8018781882389F08C
:1043900017820E94AA05D80191966D937D938D9303
:1043A0009C9394970E945506F801838194810E9402
:1043B000ED070B5D1F4F2FEF33E02017310709F09A
:1043C00035CD0E94AA05009133011091340120914E
:1043D000350130913601061717072807390710F500
:1043E0000E94AA05675E7F4F8F4F9F4F60933301F6
:1043F000709334018093350190933601809165026A
:104400008130C9F140F08230F1F1833009F443C0CA
:104410001092650207C08EE00E94730590935E02C1
:1044200080935D0280916C028823D9F00E94AA05D6
:10443000009168021091690220916A0230916B022A
:10444000601B710B820B930B6131774281059105E3
:1044500040F080916602909167020E94B10A10922A
:104460006C020E949006882311F40C94E8160E94B6
:1044700007100C94E8168FE00E9473059093600279
:1044800080935F02CFCF80E10E9473059093620218
:1044900080936102C7CF81E10E947305909364020B
:1044A00080936302BFCFCF93DF93FC012185261752
:1044B00051F0EC0181E0828761870E94AA056D8F2F
:1044C0007E8F8F8F98A3DF91CF910895982F80EDE5
:1044D000890F8A3070F08FEB890F863018F489ECE1
:1044E000890F08958FE9890F863010F489EAF8CF93
:1044F00080E00895CF93DF93FC01C081D1812097A4
:1045000061F08991882349F0082E000C990B0E94D4
:10451000E62FFE0131978083F4CFDF91CF9108958C
:10452000EF92FF920F931F93CF93DF93CDB7DEB738
:104530002E970FB6F894DEBF0FBECDBF7C01CB0126
:10454000BA012AE08E010F5F1F4FA8010E943B2C89
:10455000F80101900020E9F73197AF01401B510BA2
:10456000B801C7010E94640D2E960FB6F894DEBF05
:104570000FBECDBFDF91CF911F910F91FF90EF90B4
:104580000895EF92FF920F931F93CF93DF9300D084
:1045900000D0CDB7DEB77C01862F4AE08E010F5FD9
:1045A0001F4FB80190E00E94302CF80101900020CC
:1045B000E9F73197AF01401B510BB801C7010E94C9
:1045C000640D0F900F900F900F90DF91CF911F917E
:1045D0000F91FF90EF900895EF92FF921F93CF936A
:1045E000DF93CDB7DEB760970FB6F894DEBF0FBE8E
:1045F000CDBF182F6BE771E0CE010B960E946D0EB8
:10460000CE010B960E94230ECE010B960E94F30D55
:104610008823B1F010923201CE010B960E944B0E0E
:10462000CE010B960E94C50C60960FB6F894DEBFC3
:104630000FBECDBFDF91CF911F91FF90EF900895F6
:10464000E0904702F09048026EEC76E0C7010E94CD
:10465000082C892B19F5812F0E94EB04BC01CE0197
:104660000B960E94900D64EF76E0CE0101960E94B9
:10467000112CBE016F5F7F4FCE010B960E94C00DC3
:1046800061E973E0CE0101960E94112CBE016F5FBB
:104690007F4FCE010B960E94C00DBECF67E973E03D
:1046A000C7010E94082C61E0892B41F065E973E0A5
:1046B000C7010E94082C892B29F460E0812F0E94F9
:1046C0001405C9CF10923201CE010B960E94CF0D76
:1046D000A3CFCF92DF92FF920F931F93CF93DF93DD
:1046E000CDB7DEB72E970FB6F894DEBF0FBECDBFA5
:1046F000182F6BE771E0CE0107960E946D0ECE0178
:1047000007960E94230ECE0107960E94F30DF82E05
:104710008823C1F010923201CE0107960E944B0E01
:10472000CE0107960E94C50C2E960FB6F894DEBFF8
:104730000FBECDBFDF91CF911F910F91FF90DF9002
:10474000CF900895C0904702D09048026EEC76E07A
:10475000C6010E94082C892B09F1B601CE010196F1
:104760000E946D0E50E040E0BE01635F7F4F898183
:104770009A810E94F62A062FED85FE85308133232B
:10478000F9F0CE0101960E94C50CF110C5CF109230
:104790003201CE0107960E94CF0DBECF212F2150AE
:1047A000330BC90125E2289FF001299FF00D112448
:1047B000E057FC4F618DCE0107960E94C122ACCF1D
:1047C000462F572FBC014536510561057105CCF6C2
:1047D000CE0107960E949022212F2150330BC90150
:1047E00025E2289FF001299FF00D1124E057FC4F8E
:1047F000018F053608F004E6018F25E2289FF001BD
:10480000299FF00D1124E057FC4F81E08783FF249E
:10481000F394B7CF8F929F92AF92BF92CF92DF92D5
:10482000EF92FF920F931F93CF93DF93CDB7DEB735
:1048300062970FB6F894DEBF0FBECDBF182F6BE79F
:1048400071E0CE010D960E946D0ECE010D960E9474
:10485000230ECE010D960E94F30DB82E212F21506C
:10486000330B79018823C1F11092320164EF76E0B5
:10487000CE0101960E94112CBE016F5F7F4FCE01C9
:104880000D960E94C00D85E28E9DF0018F9DF00D6A
:104890001124E057FC4F81856EE971E0882381F097
:1048A00067E971E0813061F061E971E0823041F0E7
:1048B0006BE871E0833021F0843031F463E871E01B
:1048C000CE0101960E94112CBE016F5F7F4FCE0179
:1048D0000D960E94C00D9CC00091470210914802A5
:1048E0006EEC76E0C8010E94082C892B49F1B801D2
:1048F000CE0101960E946D0ECE0101960E947A2291
:1049000025E22E9DC0012F9D900D11249C01205762
:104910003C4F690109811A816BE771E0C8010E946F
:10492000082C892BD9F410E0612FC6010E94532274
:10493000612FCE010D960E94C122BB24B39433C0D7
:1049400085E28E9DF0018F9DF00D1124E057FC4F04
:104950006185CE010D960E94C12288CF6EE971E07B
:10496000C8010E94082C892BF1F267E971E0C801A7
:104970000E94082C892B09F43FC061E971E0C8014D
:104980000E94082C892BD1F16BE871E0C8010E94CC
:10499000082C892BA9F163E871E0C8010E94082C5A
:1049A00014E0892B09F2CE0101960E94C50CB110CA
:1049B0005DCF50E040E0BE016F5F7F4F80914702C6
:1049C000909148020E94F62A4B015C01E981FA812C
:1049D0008081811117C035E083169104A104B104D0
:1049E00088F4B501A401CE010D960E949022682D95
:1049F000C6010E9453223ACF11E096CF12E094CF25
:104A000013E092CF10923201CE010D960E94CF0D8D
:104A1000CE010D960E944B0ECE010D960E94C50C44
:104A200062960FB6F894DEBF0FBECDBFDF91CF9177
:104A30001F910F91FF90EF90DF90CF90BF90AF90BC
:104A40009F908F900895CF92DF92EF92FF920F93F5
:104A50001F93CF93DF93CDB7DEB72E970FB6F894A1
:104A6000DEBF0FBECDBF182F6BE771E0CE010796FA
:104A70000E946D0ECE0107960E94230ECE0107966E
:104A80000E94F30D082F8823C9F010923201CE0145
:104A900007960E944B0ECE0107960E94C50C2E96DB
:104AA0000FB6F894DEBF0FBECDBFDF91CF911F913F
:104AB0000F91FF90EF90DF90CF900895E090470224
:104AC000F09048026EEC76E0C7010E94082C892B1A
:104AD00001F1B701CE0101960E946D0E50E040E059
:104AE000BE01635F7F4F89819A810E94F62AED851E
:104AF000FE852081222319F1CE0101960E94C50C6A
:104B00000111C5CF10923201CE0107960E94CF0D40
:104B1000BECF212F2150330BC90125E2289FF00180
:104B2000299FF00D1124E057FC4F0380F481E02D04
:104B300060856150CE0107960E94C122A8CF6B010B
:104B40007C013FEFC316D104E104F10429F024F005
:104B5000C12CD12C7601CA94B701A601CE010796CB
:104B60000E949022212F2150330BC90125E2289F5A
:104B7000F001299FF00D1124E057FC4FC3866C2DE6
:104B8000838194810E94AB0701E0B6CFCF92DF9280
:104B9000EF92FF920F931F93CF93DF93CDB7DEB7C2
:104BA0002E970FB6F894DEBF0FBECDBF082F6BE770
:104BB00071E0CE0107960E946D0ECE0107960E940D
:104BC000230ECE0107960E94F30D182F8823C9F0FB
:104BD00010923201CE0107960E944B0ECE0107962D
:104BE0000E94C50C2E960FB6F894DEBF0FBECDBF47
:104BF000DF91CF911F910F91FF90EF90DF90CF90B9
:104C00000895E0904702F09048026EEC76E0C7010C
:104C10000E94082C892B01F1B701CE0101960E9458
:104C20006D0E50E040E0BE01635F7F4F89819A8145
:104C30000E94F62AED85FE8540814423E9F0CE01ED
:104C400001960E94C50C1111C5CF10923201CE0100
:104C500007960E94CF0DBECF0150110B85E2809FB9
:104C6000F001819FF00D1124E057FC4F6085CE01CB
:104C700007960E94C122AECF6B017C012FEFC216B6
:104C8000D104E104F10429F024F0C12CD12C7601E7
:104C9000CA941C141D041E041F0424F0C12CD12C22
:104CA0007601C394B701A601CE0107960E94902217
:104CB0000150110B25E2209FC001219F900D11246E
:104CC000DC01A057BC4F7D0118968C911897C8162F
:104CD00009F464C01396ED91FC914481558170E014
:104CE00060E0818592850E9411300E945506F7018F
:104CF000838194810E94ED07D7011396ED90FC907B
:104D0000E114F10489F0F701818592850E946D2AF2
:104D1000D70116968D919C9197FD03C060E00E948B
:104D20004205C7010E946D2A85E2809FF001819FA4
:104D3000F00D1124E057FC4FC0868081813081F551
:104D4000E0916602F0916702C28225E2209FC001D5
:104D5000219F900D11248C0100571C4FC8010E9407
:104D6000E40EFF24F394F0926C020E94AA05609373
:104D700068027093690280936A0290936B02F80153
:104D80006185C8010E945322F80185859685A78513
:104D9000B089818B928BA38BB48BF78211E04FCFBC
:104DA000823031F4E0916602F0916702C482CDCF87
:104DB000833059F6E0916602F0916702C682C5CF52
:104DC000BF92CF92DF92EF92FF920F931F93CF93F8
:104DD000DF93CDB7DEB72F970FB6F894DEBF0FBEC7
:104DE000CDBFB82E6BE771E0CE0108960E946D0E24
:104DF000CE0108960E94230ECE0108960E94F30D64
:104E0000F82E8823D1F010923201CE0108960E942C
:104E10004B0ECE0108960E94C50C2F960FB6F89443
:104E2000DEBF0FBECDBFDF91CF911F910F91FF90DD
:104E3000EF90DF90CF90BF900895C0904702D09040
:104E400048026EEC76E0C6010E94082C8E010F5FCE
:104E50001F4F892BF1F0B601C8010E946D0E50E082
:104E600040E0BE01625F7F4F89819A810E94F62AED
:104E7000EE85FF854081442361F1C8010E94C50C85
:104E8000F110C3CF10923201CE0108960E94CF0DCF
:104E9000BCCF2B2D2150330BC90125E2289FF001F7
:104EA000299FF00D1124E057FC4F4AE0B801828D94
:104EB000938D0E94742CF80101900020E9F731973E
:104EC000AF01401B510BB801CE0108960E94640D42
:104ED0009CCF6B017C0131E1C31637E2D306E104BC
:104EE000F10434F090E1C92E97E2D92EE12CF12C97
:104EF00084E6C816D104E104F1042CF484E6C82E3B
:104F0000D12CE12CF12CB701A601CE0108960E940C
:104F100090222B2D2150330BC90125E2289FF0014F
:104F2000299FF00D1124E057FC4FD38EC28E81E0F3
:104F30008783FF24F394A1CF2F923F924F925F92E9
:104F40006F927F928F929F92AF92BF92CF92DF9299
:104F5000EF92FF920F931F93CF93DF93CDB7DEB7FE
:104F6000A7970FB6F894DEBF0FBECDBF382E6BE704
:104F700071E0CE014E960E946D0ECE014E960E94BB
:104F8000230ECE014E960E94F30D282E882319F190
:104F900010923201CE014E960E944B0ECE014E96DB
:104FA0000E94C50CA7960FB6F894DEBF0FBECDBF0A
:104FB000DF91CF911F910F91FF90EF90DF90CF90F5
:104FC000BF90AF909F908F907F906F905F904F9029
:104FD0003F902F90089500914702109148026EEC87
:104FE00076E0C8010E94082C892B09F459C1B80148
:104FF000CE0148960E946D0ECE0148960E947A22FC
:1050000081E4482E81E0582E320145E2832D815003
:10501000990B9C01429FC001439F900D1124805722
:105020009C4F7C01ADE0EA0EF11C6C01B1E1CB0EAE
:10503000D11CFC013796FDA3ECA35E01FDE0AF0E91
:10504000B11C9C012B5F3F4F3FA32EA3F3010191A5
:1050500011913F01D8018D909C90B401888D998D5C
:105060000E94082C892B09F058C0B401CE0101968A
:105070000E94112CF8018281938124813581D7010E
:105080008C9311969C93119712962C9312971396CA
:105090003C93F6018083918322833383E1E0ACA1CA
:1050A000BDA1EC933F932F939F938F932CE731E017
:1050B0003F932F931F928BE08F93BF92AF920E94EA
:1050C0002E30B501CE014E960E94C00D64EF76E001
:1050D000CE0101960E94112CBE016F5F7F4FCE0161
:1050E0004E960E94C00DD8018D919C91EEA1FFA11A
:1050F00091838083B401CE0101960E94112CBE01E0
:105100006F5F7F4FCE014E960E94C00D0FB6F89490
:10511000DEBF0FBECDBF2224239435E5631631E0F8
:10512000730609F093CFCE0148960E94C50C21105A
:1051300031CF6091470270914802CE010D960E94D6
:105140006D0E50E040E0BE01685E7F4F8D859E850C
:105150000E94F62A6B017C01E88DF98D80818823FD
:1051600031F0C114D104E104F10409F48CC0C1147C
:10517000D104E10441E0F4060CF085C08BE090E03E
:105180000E94D1298C01FF92EF92DF92CF928CE79F
:1051900091E09F938F931F928BE08F931F930F93B8
:1051A0000E942E30B801CE014E960E94C00D0FB65F
:1051B000F894DEBF0FBECDBF0115110519F0C8016F
:1051C0000E946D2AA32DA150BB0B8D0185E28A9F01
:1051D000F0018B9FF00D1124E057FC4FC586D68659
:1051E000E786F08AC18AD28AE38AF48A81E08783DB
:1051F0004F01B5E08B0E911CD201ED91FD912D0177
:1052000082819381A481B581C816D906EA06FB067E
:1052100029F5A080B180F401B182A082B501CE0150
:1052200001960E94112C64EF76E0CE0101960E9457
:10523000112CBE016F5F7F4FCE014E960E94C00DB4
:10524000B501CE0101960E94112CBE016F5F7F4F08
:10525000CE014E960E94C00D22242394F5E54F16F0
:10526000F1E05F0649F621100EC085E2809FF00153
:10527000819FF00D1124E057FC4F86E598E096835E
:10528000858322242394CE010D960E94C50C211003
:1052900081CE10923201CE014E960E94CF0D7ACE71
:1052A0008BE090E00E94D1298C01832D8150990BD5
:1052B0007C0185E28E9DF0018F9DF00D1124E05759
:1052C000FC4FDF011D9613968C9113978F931296C6
:1052D0008C9112978F9311968C918F9385858F93D4
:1052E0008CE791E09F938F931F928BE08F931F9396
:1052F0000F930E942E30B801CE014E960E94C00D31
:105300000FB6F894DEBF0FBECDBF0115110519F021
:10531000C8010E946D2A85E28E9DF0018F9DF00DDF
:105320001124E057FC4F05811681B801CE0101968A
:105330000E94112C66E578E0CE0101960E94082CAF
:10534000892B09F427CE64EF76E0CE0101960E9406
:10535000112CBE016F5F7F4FCE014E960E94C00D93
:10536000B801CE0101960E94112CBE016F5F7F4FE4
:10537000CE014E960E94C00D0DCE8FEF93E00E949D
:10538000C50C85E094E00E94C50C8BE094E00E947F
:10539000C50C81E194E00E94C50C87E194E00C9477
:1053A000C50C0F931F93CF93DF938230910510F4B8
:1053B00082E090E0E0916104F091620430E020E04E
:1053C000B0E0A0E0309799F42115310509F44AC006
:1053D000281B390B24303105D8F58A819B81611552
:1053E000710589F1FB0193838283FE0111C0408125
:1053F00051810281138148175907E0F04817590776
:1054000099F4109761F012960C93129713961C93CF
:105410003296CF01DF91CF911F910F9108950093A4
:10542000610410936204F4CF2115310551F0421745
:10543000530738F0A901DB019A01BD01DF01F80132
:10544000C1CFEF01F9CF9093620480936104CDCF77
:10545000FE01E20FF31F81939193225031093983AA
:105460002883D7CF20915F0430916004232B41F42F
:1054700020913D0130913E013093600420935F0400
:1054800020913B0130913C012115310541F42DB7AC
:105490003EB740913F0150914001241B350BE091F4
:1054A0005F04F0916004E217F307A0F42E1B3F0B9A
:1054B0002817390778F0AC014E5F5F4F2417350786
:1054C00048F04E0F5F1F5093600440935F04819338
:1054D00091939FCFF0E0E0E09CCFCF93DF930097D4
:1054E000E9F0FC01329713821282A0916104B0911D
:1054F0006204ED0130E020E01097A1F420813181B9
:10550000820F931F20915F043091600428173907A0
:1055100009F061C0F0936004E0935F04DF91CF91E4
:105520000895EA01CE17DF07E8F54A815B819E0105
:1055300041155105B1F7E901FB83EA83499159917E
:10554000C40FD51FEC17FD0761F48081918102968D
:10555000840F951FE90199838883828193819B83BE
:105560008A83F0E0E0E012968D919C91139700976A
:10557000B9F52D913C911197CD010296820F931FA1
:1055800020915F04309160042817390739F630976D
:1055900051F51092620410926104B0936004A093DC
:1055A0005F04BCCFD383C28340815181840F951F98
:1055B000C817D90761F44E5F5F4F88819981480F02
:1055C000591F518340838A819B8193838283211554
:1055D000310509F0B0CFF0936204E09361049ECFEF
:1055E000FD01DC01C0CF13821282D7CFB0E0A0E072
:1055F000ECEFFAE20C94F02D5C016B017A0161157D
:10560000710519F0FB0191838083E114F10449F0E5
:10561000C7010297839728F060E070E0CB019CC03F
:105620005E01E5012196F5011081812F90E00E9435
:10563000FF2B892BA9F71D3209F056C02196F501E1
:10564000118101E0E114F10409F4AEC0F0E1EF16BC
:10565000F10409F08EC0103341F488818F7D8835C4
:1056600009F083C0198122960260E0E1EE2EF12C50
:1056700088248A94982CA82CFFE0BF2E20E060E0BC
:1056800070E0CB0127010F2C000C66087708FE01A3
:1056900050ED352E310E39E0331538F43FEB310F34
:1056A0003A31A0F549EC342E310E3E141F04BCF5FE
:1056B0002F3FB9F086169706A806B90670F1A30128
:1056C00092010E94B22D232D30E050E040E0620FA5
:1056D000731F841F951F6217730784079507E8F0EF
:1056E00021E021961081D3CF1B3221F4E5012296CF
:1056F000F501118100E0A6CF78E0E72EF12C882497
:105700008A94982CA82C6FE1B62EB8CF3FE9310FC0
:105710003A3128F439EA332EC7CF2FEFE2CFC11444
:10572000D10431F02223E9F02197F601D183C0831F
:1057300000FF07C090958095709561957F4F8F4FC2
:105740009F4F2F3F49F482E290E09093640480934E
:1057500063046FEF7FEFCB01CDB7DEB7E1E10C94CF
:105760000C2E01FFE5CF2297E0CF10E3E114F10406
:1057700019F23AE0E316F104E9F080E1E816F104E9
:1057800009F473CFE8E0EE16F10409F4B8CF6FEF37
:105790007FEFCB0197010F2C000C440B550B0E949F
:1057A000C22D49015A016ACF103309F456CF9AE04D
:1057B000E92EF12C89E9882E982CA82C89E1B82EA5
:1057C0005DCFFC0188279927E89421912032E9F3E5
:1057D000293010F02E30C8F32B3241F02D3239F43D
:1057E000689404C00E944A2C820F911D219120537D
:1057F0002A30C0F31EF4909581959F4F0895911122
:105800000C948E2C803219F089508550C8F7089579
:10581000FB01DC018D91059080190110D9F3990BE2
:105820000895FB01DC0105900D920020E1F7089539
:10583000FC01A081B181AD01109681F03D91FB0189
:10584000019003160110E1F7C9F7002011F4D0010F
:1058500002C01E921196FC01A083B183CA01089573
:10586000BB274A3031F4992322F4BDE2909581950B
:105870009F4F0C94752CBB272A3051F4992342F486
:10588000BDE290958095709561957F4F8F4F9F4FAA
:105890000C94532C7AE0979F902D879F802D910D2B
:1058A00011240895BB27FA01A62F621771058105FF
:1058B0009105330B30FB66F0AA27660F771F881F10
:1058C000991FAA1FA21710F0A21B63953850A9F7C1
:1058D000A05DAA3308F0A95DA19336F7B111B19389
:1058E0001082CA010C94912CBB27FB015527AA27D3
:1058F000880F991FAA1FA41710F0A41B839550515D
:10590000B9F7A05DAA3308F0A95DA193009779F7D4
:10591000B111B1931192CB010C94912C9927882746
:105920000895DC01FC01672F71917723E1F732972D
:1059300004C07C916D9370836291AE17BF07C8F36A
:105940000895E89409C097FB3EF490958095709572
:1059500061957F4F8F4F9F4F9923A9F0F92F96E9BB
:10596000BB279395F695879577956795B795F11130
:10597000F8CFFAF4BB0F11F460FF1BC06F5F7F4FCD
:105980008F4F9F4F16C0882311F096E911C07723DF
:1059900021F09EE8872F762F05C0662371F096E8E8
:1059A000862F70E060E02AF09A95660F771F881FB7
:1059B000DAF7880F9695879597F908950E94F12C4C
:1059C0000C94622D0E94542D38F00E945B2D20F023
:1059D000952311F00C944B2D0C94512D11240C9403
:1059E000962D0E94732D70F3959FC1F3950F50E093
:1059F000551F629FF001729FBB27F00DB11D639F81
:105A0000AA27F00DB11DAA1F649F6627B00DA11D26
:105A1000661F829F2227B00DA11D621F739FB00DCC
:105A2000A11D621F839FA00D611D221F749F33273C
:105A3000A00D611D231F849F600D211D822F762FD5
:105A40006A2F11249F5750409AF0F1F088234AF0B2
:105A5000EE0FFF1FBB1F661F771F881F915050401E
:105A6000A9F79E3F510580F00C944B2D0C94962D78
:105A70005F3FE4F3983ED4F3869577956795B795A5
:105A8000F795E7959F5FC1F7FE2B880F911D9695BF
:105A9000879597F9089597F99F6780E870E060E02F
:105AA00008959FEF80EC089500240A9416161706B7
:105AB00018060906089500240A94121613061406FF
:105AC00005060895092E0394000C11F4882352F062
:105AD000BB0F40F4BF2B11F460FF04C06F5F7F4F1A
