:100000000C9461040C9489040C9489040C94890464
:100010000C9489040C9489040C9489040C9489042C
:100020000C9489040C9489040C9489040C9489041C
:100030000C9489040C9489040C9489040C9489040C
:100040000C9406110C9489040C9476110C945011A4
:100050000C9489040C9489040C9489040C948904EC
:100060000C94A8110C948904232D2D2D2D2D2D2DAC
:100070002D2D2D2D2D2D2D2D2D2D2D2D2D2D2D2DB0
:100080002D2D2D2D2D2D2D2D2D2D2D2D2D002309FB
:10009000636F6C6F726E616D653A20002309267381
:1000A000747269703A2000230926282A73747269D1
:1000B00070293A20002309706572635F6C69743A95
:1000C00020200023096E756D706978656C733A2085
:1000D000002309666C617368206F6E3A202000234C
:1000E000096379636C655F6D733A20200023096DA5
:1000F0006F64653A202020202020002309636F6C64
:100100006F723A202020202000230973697A655FEE
:100110006F663A20202000230926746869733A200C
:100120002020202000205D202D2D2D2D2D2D2D2D4A
:100130002D2D2D00232D2D2D2D2D2D2D2D2D2D2033
:10014000534C494E464F3A205B2000230021494E34
:1001500056414C49445F494E5055543A0056414C23
:1001600055455F4D495353494E470056414C5545FF
:100170005F4552524F52004152420044454641555C
:100180004C54005241494E424F570050554C534534
:1001900000464C41534800535445414459004F4692
:1001A00046002300232D2D2D2D2D2D2D2D2D2D2DD4
:1001B0002D2D2D2D2D2D2D2D2D2D2D2D2D2D2D2D6F
:1001C0002D2D2D2D2D2D2D2D2D2D2D2D2D2D2D2D5F
:1001D0002D2D2D2D2D2D2D00232044657363726947
:1001E0007074696F6E2028444553432920202020D5
:1001F00020203A2000232043757272656E742056C9
:10020000657273696F6E2028564552292020203A66
:100210002000232043757272656E742053746174DC
:10022000696F6E2049442028534944293A2000230D
:100230002D2D2D2D2D2D2D2D2D2D2D2D2D2D2D2DEE
:100240002D2D2D2D2D2D2D2D2D2D2D2D2D2D2D2DDE
:100250002D2D2D2D2D2D2D2D2D2D2D2D2D2D2D2DCE
:100260002D2D0023205479706520273E48454C50A1
:10027000272020666F72206D6F726520646574613F
:10028000696C2E00204020002F002F002320434FB8
:100290004D50494C4544204F4E3A200023205645AE
:1002A0005253494F4E20444154453A2031322F3564
:1002B0002F32303233002320526564204279657238
:1002C000202020206769746875622E636F6D2F6D22
:1002D000697A726169746800232D2D2D2D2D2D2DC5
:1002E0002D2D2D2D2D2D2D2D2D2D2D2D2D2D2D2D3E
:1002F0002D2D2D2D2D2D2D2D2D2D2D2D2D2D2D2D2E
:100300002D2D2D2D2D2D2D2D2D2D2D002320534E1A
:100310003A0023205549443A002320002320534E1D
:1003200049504520763420666F72204172647569A9
:100330006E6F00232D2D2D2D2D2D2D2D2D2D2D2DA1
:100340002D2D2D2D2D2D2D2D2D2D2D2D2D2D2D2DDD
:100350002D2D2D2D2D2D2D2D2D2D2D2D2D2D2D2DCD
:100360002D2D2D2D2D2D00232323232348454144BE
:100370004552232323232300230953686F77696E93
:10038000673A20002320537461636B204C696768CF
:100390007420537461727475702053657175656E45
:1003A00063650023232323235245414459232323F8
:1003B0002323005349445F3E5F32340042494E00DC
:1003C00030003100232D2D2D2D2D2D2D2D2D2D2DBA
:1003D0002D2D2D2D2D2D2D2D2D2D2D2D2D2D2D2D4D
:1003E0002D2D2D2D2D2D2D2D2D2D2D2D2D2D2D2D3D
:1003F0002D2D2D2D2D2D2D002300232020204D616E
:1004000078204F7574707574204C656E6774683A07
:100410002000232020204D617820534944204C6542
:100420006E6774683A2000232020204D6178204EAA
:10043000756D626572206F6620546F6B656E733ADE
:100440002000232020204D617820496E7075742093
:10045000537472696E67204C656E6774683A200049
:1004600023202020546F6B656E2069732020204963
:1004700044454E5449464945523A56414C55453AF1
:10048000554E4954532020776865726520554E4972
:100490005453206973206F7074696F6E616C200013
:1004A00023202020524553504F4E5345533A20208D
:1004B0004041303A3132333A4152422020204044C8
:1004C000363A313A42494E2020405349443A323973
:1004D000323900232020204558414D504C45533A95
:1004E0002020203E41303A3F202020202020202084
:1004F000203E44363A312020202020203E534944DB
:100500003A3239323900232020200044360023209B
:10051000202000534C5800534C5400534C5000536F
:100520004C4D00534C4300534C42002320202000EC
:10053000232020200023202020436F6D6D616E64F6
:1005400073206172653A00232020203E203D2073F5
:100550007461727420202040203D207265737020E9
:100560002023203D20636F6D6D656E742020212057
:100570003D206572726F7200232020204C656164FB
:100580002063686172616374657273206172653A99
:100590000023202020466F726D61743A20203E4374
:1005A0004D443A56414C55453C43523E3C4C463EE8
:1005B00000232053657269616C20436F6E74726F03
:1005C0006C20496E737472756374696F6E73002367
:1005D0002D2D2D2D2D2D2D2D2D2D2D2D2D2D2D2D4B
:1005E0002D2D2D2D2D2D2D2D2D2D2D2D2D2D2D2D3B
:1005F0002D2D2D2D2D2D2D2D2D2D2D2D2D2D2D2D2B
:100600002D2D0023004F55545F4F465F52414E47FA
:100610004500425954455F53455454494E475F4540
:100620005252003F5F4D495353494E47004E4F4E83
:10063000455F464F554E44002C00444154415F4CA9
:10064000454E4754485F45525200307800554E4B56
:100650004E4F574E5F434D445F455252004932461C
:100660000049325200493257004932420049325360
:100670000049324100534C494E464F00534C5833C9
:1006800000534C583200534C583100534C543300F3
:10069000534C543200534C543100534C503300539C
:1006A0004C503200534C503100534C4D3300534C9E
:1006B0004D3200534C4D3100534C433300534C43A7
:1006C0003200534C433100534C423300534C4232BE
:1006D00000534C423100443500443400443300445C
:1006E000320041330041320041310041300052417B
:1006F0004D005245424F4F54003F0048454C50007A
:100700004245455000424C494E4B0044455343003E
:10071000564552005349440055494400534E003A4F
:1007200000400021002000FFF9F3EDE7E1DCD7D124
:10073000CCC7C2BEB9B4B0ACA8A3A09C9894918D0C
:100740008A8683807D7A7774716E6B696664615F77
:100750005D5A58565452504E4C4A484745434240C1
:100760003E3D3B3A39373635333231302E2D2C2B46
:100770002A29282726252423232221201F1E1E1D47
:100780001C1C1B1A1A1918181717161615151414ED
:100790001313121211111010100F0F0F0E0E0E0D59
:1007A0000D0D0C0C0C0B0B0B0B0A0A0A0A0909099C
:1007B00009080808080807070707070706060606C6
:1007C00006060605050505050505050404040404DB
:1007D00004040404040303030303030303030303E4
:1007E00003030302020202020202020202020202E6
:1007F00002020202020202010101010101010101E2
:1008000001010101010101010101010101010101D8
:1008100001010101010101010101010101010101C8
:100820000101010100000000000000240027002A4F
:100830000000000000250028002B0000000000231D
:100840000026002900040404040404040402020233
:100850000202020303030303030102040810204001
:10086000800102040810200102040810200000008A
:10087000080002010000030407000000000000005F
:100880000000424C41434B005748495445005649EB
:100890004F4C455400494E4449474F00424C554542
:1008A000004151554100475245454E0059454C4C79
:1008B0004F57004F52414E47450052454400D41215
:1008C0009B2A11241FBECFEFD8E0DEBFCDBF11E0C1
:1008D000A0E0B1E0EEE8F7E602C005900D92A63D7B
:1008E000B107D9F724E0A6EDB1E001C01D92A5360D
:1008F000B207E1F714E0C0E6D4E004C02197FE019E
:100900000E94592FCF35D107C9F70E947A140C9451
:10091000BA330C940000CF93DF93A7ECB2E0C0E0B1
:10092000DC2FDD0F4D2F50E0C817F9F09D91292FD6
:1009300030E0E4E035952795EA95E1F79F702A309D
:1009400080F4205D9A3078F4905D460F571FFA01CD
:100950002083E1E0ED0FE60FF72FF11D9083CF5FCD
:10096000DFCF295CEFCF995CF0CF640F751FFB01DF
:100970001082DF91CF91089530E020E041E2E1E084
:10098000F0E02630310514F4F0E0E0E0B901625FF8
:100990007F4FE60FF71F40935700E491DC01ED9382
:1009A000CD012F5F3F4F2930310549F7089583303E
:1009B00081F028F4813099F08230A9F008958730D1
:1009C000A9F08830C9F08430B1F4809180008F7D27
:1009D00003C0809180008F7780938000089584B554
:1009E0008F7784BD089584B58F7DFBCF8091B00053
:1009F0008F778093B00008958091B0008F7DF9CFFC
:100A0000CF93DF93282F30E0F901E359F74F84911A
:100A1000F901E75AF74FD491F901EB5BF74FC49115
:100A2000CC23A1F081110E94D704EC2FF0E0EE0F4F
:100A3000FF1FE55CF74FA591B491EC91ED2381E0A8
:100A400090E009F480E0DF91CF91089580E090E09C
:100A5000FACF1F93CF93DF93282F30E0F901E359AA
:100A6000F74F8491F901E75AF74FD491F901EB5B05
:100A7000F74FC491CC23A9F0162F81110E94D704FF
:100A8000EC2FF0E0EE0FFF1FEF5CF74FA591B49154
:100A90008FB7F894EC91111108C0D095DE23DC9348
:100AA0008FBFDF91CF911F910895DE2BF8CFCF93A9
:100AB000DF9390E0FC01E75AF74F24918B5B974F4F
:100AC000FC0184918823D1F090E0880F991FFC01EC
:100AD000E95DF74FA591B491FC01EF5CF74FC5912B
:100AE000D49161110EC09FB7F8948C91E22FE095DC
:100AF0008E238C932881E223E8839FBFDF91CF91DF
:100B000008958FB7F894EC91E22BEC938FBFF6CF5A
:100B10008E50806480937C0080917A008064809302
:100B20007A0080917A0086FDFCCF809178009091C8
:100B3000790008953FB7F894809173029091740200
:100B4000A0917502B091760226B5A89B05C02F3FF3
:100B500019F00196A11DB11D3FBFBA2FA92F982FE3
:100B60008827BC01CD01620F711D811D911D42E0DE
:100B7000660F771F881F991F4A95D1F708958F92A6
:100B80009F92AF92BF92CF92DF92EF92FF924B0172
:100B90005C010E949A056B017C010E949A056C1908
:100BA0007D098E099F09683E734081059105A8F370
:100BB00021E0821A9108A108B10888EEC80E83E0EE
:100BC000D81EE11CF11C81149104A104B10429F781
:100BD000FF90EF90DF90CF90BF90AF909F908F905D
:100BE00008952FB7F89460916F0270917002809110
:100BF0007102909172022FBF08950895089508958B
:100C0000AF92BF92CF92DF92EF92FF920F931F931A
:100C1000CF93DF936C017B018B01040F151FEB0158
:100C20005E01AE18BF08C017D10759F06991D6010F
:100C3000ED91FC910190F081E02DC6010995892B81
:100C400079F7C501DF91CF911F910F91FF90EF9040
:100C5000DF90CF90BF90AF900895FC01538D448DED
:100C6000252F30E0842F90E0821B930B541710F057
:100C7000CF96089501970895FC01918D828D981764
:100C800061F0A28DAE0FBF2FB11D5D968C91928D3C
:100C90009F5F9F73928F90E008958FEF9FEF08956D
:100CA0000F931F930E94F1056093EF027093F0027F
:100CB0008093F1029093F20287EE92E00E943C064C
:100CC00097FF1DC00E94F1050091EF021091F00204
:100CD0002091F1023091F202601B710B820B930B99
:100CE0000091EB021091EC022091ED023091EE02A6
:100CF0006017710782079307F8F28FEF9FEF1F913C
:100D00000F910895FC01918D828D981731F0828D9D
:100D1000E80FF11D858D90E008958FEF9FEF089506
:100D2000FC01918D228D892F90E0805C9F4F821B6A
:100D300091098F739927089587EE92E00E9490069B
:100D4000892B31F06AE070E080E090E00C94BF0500
:100D5000089587EE92E00E94900621E0892B09F425
:100D600020E0822F0895FC01A48DA80FB92FB11D9A
:100D7000A35ABF4F2C91848D90E001968F739927D1
:100D8000848FA689B7892C93A089B1898C918370AF
:100D900080648C93938D848D981306C00288F389A8
:100DA000E02D80818F7D80830895EF92FF920F93D5
:100DB0001F93CF93DF93EC0181E0888F9B8D8C8D07
:100DC00098131AC0E889F989808185FF15C09FB7FB
:100DD000F894EE89FF896083E889F98980818370BE
:100DE000806480839FBF81E090E0DF91CF911F916D
:100DF0000F91FF90EF900895F62E0B8D10E00F5F8E
:100E00001F4F0F731127E02E8C8D8E110CC00FB663
:100E100007FCFACFE889F989808185FFF5CFCE01FB
:100E20000E94B306F1CFEB8DEC0FFD2FF11DE35ABD
:100E3000FF4FF0829FB7F8940B8FEA89FB8980817E
:100E40008062CFCF0F931F93CF93DF938C01D0E0BD
:100E5000C0E0F801EC0FFD1F6491662341F087EEBE
:100E600092E00E94D506892B11F02196F2CFCE0197
:100E7000DF91CF911F910F910895CF93DF93EC01F4
:100E8000888D8823B9F0AA89BB89E889F9898C9172
:100E900085FD03C0808186FD0DC00FB607FCF7CF2E
:100EA0008C9185FFF2CF808185FFEDCFCE010E942E
:100EB000B306E9CFDF91CF9108958F929F92AF92C1
:100EC000BF92CF92DF92EF92FF921F93CF93DF9367
:100ED000FC014A01AA24BB24C82DC32ED42EE52E22
:100EE000FF241C2DD22F8085882361F0889E40012D
:100EF0001124C92D8C9D600111241D2D829FD001CC
:100F00001124DB2FA685E184F2849385A91322C0E6
:100F1000CB01880F991F680F791F6E0D7F1DA38568
:100F2000A60FB72FB11DCC93A485A60FB72FB11D67
:100F30001C938585680F711DFB01D083DF91CF91D4
:100F40001F91FF90EF90DF90CF90BF90AF909F9058
:100F50008F900895660F771F660F771F6E0D7F1DA8
:100F6000252F332744275527882349F090E0829F77
:100F70007001839FF00C929FF00C11242F2DA60F6F
:100F8000B72FB11D2C93CBCFFF920F931F93CF930D
:100F9000DF93EC01FF24F394F60E28852F1581F1E1
:100FA00009851A85215041F16F3FE1F430E050E0AE
:100FB00040E06FEF7FEF80E090E00E94332FB901B7
:100FC000F8014C815D81CF01801B910B841795073F
:100FD000B0F44081469FC001479F900D112490833B
:100FE0003196EFCF8F2D90E0982F88270197622FB1
:100FF00070E00E941F2FE4CF70E060E0E1CFF88640
:10100000DF91CF911F910F91FF900895CF92DF92C2
:10101000EF92FF920F931F93CF93DF93CDB7DEB77D
:1010200029970FB6F894DEBF0FBECDBF8C01DC014F
:1010300019968D919C91892B09F473C00E949A0591
:10104000F801C784D088E188F2886C157D058E058B
:101050009F0520F46787708B818B928BF801C78482
:10106000D088E188F2886C197D098E099F096C325D
:1010700071408105910510F3F894D80114968D9173
:101080009C9115979A8389831996ED91FC917F0124
:10109000BFEFEB1AFB0A80818987F80190810388F2
:1010A000F489E02DD80155968C91992309F448C014
:1010B0009081982B98879081809589238F838F8149
:1010C0008C8388E08B8358856F8149853B812C8197
:1010D00089819A81D701508347FD252F3A95208336
:1010E000262F39F0441F00C000006083000000C0BC
:1010F000F2CF38E04D9160830000019761F7D8018D
:101100005496FC93EE93539749873B832C839A83A1
:10111000898378940E949A05F8016787708B818B88
:10112000928B29960FB6F894DEBF0FBECDBFDF912C
:10113000CF911F910F91FF90EF90DF90CF90089586
:101140009081982B98879081809589238F838F81B8
:101150008E8388E08D8358856F8149853D812E81FE
:1011600089819A81D701508347FD252F00C000C097
:10117000208300C000C000C000C000C06083000029
:10118000262F3A9541F0441F000000C000C000C067
:1011900000C000C0E8CF38E04D9100C0608300C0BF
:1011A000019709F7D8015496FC93EE93539749871A
:1011B0003D832E83ACCF2091F801260F3327331FB8
:1011C00021323105ECF420919D02FC0190E080E099
:1011D000243069F082E00895A091F8012191AC01DA
:1011E00048525E4FA40FB52FB11D2C930196861760
:1011F00098F38091F801680F6093F80180E00895FA
:1012000081E0089510929D0281E080939C021092EB
:10121000770261E082E10E94290561E083E10E949A
:101220002905E9EBF0E080818E7F808380818D7FCE
:10123000808388E48093B80085E48093BC0008959F
:10124000CF93DF9391E09093D7018823B9F0C091B9
:10125000B800D091BA008091BC008A7B8093BC001A
:1012600060E082E10E94290560E083E10E94290597
:101270000E940209D093BA00C093B800DF91CF91C9
:1012800008958F929F92AF92BF92CF92DF92EF928A
:10129000FF920F931F93CF93DF93D091C602D13269
:1012A00008F0D7C0182FC091C5020E949A056B01A3
:1012B0007C0180919D0281116BC082E080939D0230
:1012C00010939C028FEF80939B0210929A02D0930E
:1012D0009902A5EAB2E0E9E7F2E080E0D81391C014
:1012E0001092780280917802CC0FC82BC0937802BC
:1012F00080917702813009F088C0109277020E94B5
:101300009A056B017C01809178028093BB008091EB
:101310009F029091A002A091A102B091A202892BFC
:101320008A2B8B2BA1F00E949A0500919F021091AD
:10133000A0022091A1023091A2026C197D098E09B0
:101340009F09061717072807390708F442C080913C
:10135000BC0083FDD8CF85EC8093BC000E949A0529
:101360006B017C0180919D02823009F450C0809114
:101370009B028F3F09F46FC080919B02803209F479
:101380006CC080919B02803309F469C084E026C060
:1013900080919F029091A002A091A102B091A2021F
:1013A000892B8A2B8B2B09F484CF0E949A0580907D
:1013B0009F029090A002A090A102B090A2026C198E
:1013C0007D098E099F0986169706A806B90608F0BA
:1013D00070CF80919E020E94200985E01092A402A5
:1013E0001092C6021092A302DF91CF911F910F912C
:1013F000FF90EF90DF90CF90BF90AF909F908F9035
:1014000008959D9191938F5F69CF85EEA5CF8091CF
:101410009F029091A002A091A102B091A202892BFB
:101420008A2B8B2B09F49ECF0E949A0500919F0274
:101430001091A0022091A1023091A2026C197D09A5
:101440008E099F09061717072807390708F08ACF62
:10145000C0CF81E0C3CF80E0C1CF82E0BFCF83E0C7
:10146000BDCF0895E091200280911F02E81730F46B
:10147000F0E0EF5DFD4F808190E008958FEF9FEFEA
:1014800008959091200280911F022FEF3FEF98174F
:1014900048F4E92FF0E0EF5DFD4F208130E09F5FE1
:1014A00090932002C901089580911F02909120021B
:1014B000891B990B0895CF92DF92EF92FF920F93C1
:1014C0001F93CF93DF937C01CB018A012091A3026C
:1014D000222389F0EB016B01C40ED51ECC15DD056E
:1014E00069F06991D701ED91FC910190F081E02DB7
:1014F000C7010995F3CF642F0E94DB08C801DF9173
:10150000CF911F910F91FF90EF90DF90CF900895B2
:10151000CF93DF931F92CDB7DEB769832091A302EB
:101520002223F9F02091C602203258F021E030E069
:10153000FC013383228390E080E00F90DF91CF9114
:1015400008958091A402E82FF0E0EB55FD4F9981BA
:1015500090838F5F8093A4028093C60281E090E025
:10156000ECCF61E0CE0101960E94DB08F7CF90E05E
:1015700080E00895CF93DF93EC01FE016491219602
:10158000662329F087EE92E00E94D506F6CFDF9120
:10159000CF9108950F931F93CF93DF938C01C4E6EF
:1015A000D0E0F80161918F01CE010E94822E219638
:1015B000CB36D105B1F787E090E0DF91CF911F9155
:1015C0000F9108950F931F93CF93DF9309E111E0DB
:1015D000D0E0C0E0F80161918F01CE010E94822E1F
:1015E000F80131978081882371F0C631D10549F423
:1015F00060E087E190E0DF91CF911F910F910C9413
:10160000822E2196E7CFDF91CF911F910F91089500
:10161000FC0101900020E9F73197AF01481B590BFD
:10162000BC0187EE92E00C94000689E791E00C94EF
:10163000080BCF93DF930E942207EC010E94150B49
:101640008C0F9D1FDF91CF910895CF93DF93FC0105
:10165000448155816081718187EE92E00E9400068D
:10166000EC010E94150B8C0F9D1FDF91CF91089507
:101670008F929F92AF92BF920F931F93CF93DF935E
:10168000CDB7DEB7A1970FB6F894DEBF0FBECDBFC2
:1016900019A2423008F44AE08E010F5D1F4F842EDC
:1016A000912CB12CA12CA50194010E94A02EE62F13
:1016B000B901CA01EA30F4F4E05DD801EE938D017E
:1016C000232B242B252B79F790E080E0109719F03D
:1016D000CD010E94080BA1960FB6F894DEBF0FBE95
:1016E000CDBFDF91CF911F910F91BF90AF909F9091
:1016F0008F900895E95CE1CFCF93DF93BC0190E038
:1017000080E04AE00E94380BEC010E94150B8C0F20
:101710009D1FDF91CF910895CF93DF93682F70E0E5
:1017200090E080E04AE00E94380BEC010E94150B2B
:101730008C0F9D1FDF91CF910895CF93DF93BC0154
:10174000990F880B990B4AE00E94380BEC010E941C
:10175000150B8C0F9D1FDF91CF910895CF93DF93D1
:101760000E94080BEC010E94150B8C0F9D1FDF914E
:10177000CF910895CF93DF9387E693E00E94190BF2
:1017800083E393E00E94190B8CE193E00E94190B14
:1017900089E193E00E94190B82E193E00E94220705
:1017A00080E091E00E94AE0B8CE093E00E94220763
:1017B0008BE094E00E94250B88ED92E00E94190BCB
:1017C00086EB92E00E94190B8CE992E00E94190BC3
:1017D0008CE892E00E942207CDE1D4E0698170E0BC
:1017E00090E080E04AE00E94380B8AE892E00E9494
:1017F00022076A8170E090E080E04AE00E94380BA6
:1018000088E892E00E942207688170E06053784F78
:10181000072E000C880B990B4AE00E94380B84E8D5
:1018200092E00E9422076B8170E090E080E04AE045
:101830000E94380B8C810E948C0B83E692E00E9400
:10184000190B8FE292E00E94190B82E192E00E9454
:10185000220789E191E00E94AE0B85EF91E00E94A2
:10186000220787E194E00E94250B88ED91E00E9419
:10187000220781E194E00E94250B84EA91E00E9416
:10188000190B82EA91E0DF91CF910C94190B0F9321
:101890001F93CF93DF93CDB7DEB72C970FB6F89495
:1018A000DEBF0FBECDBF8C018BE491E00E94190B0F
:1018B00084E391E00E942207F801608170E090E0EB
:1018C00080E04AE00E94380B85E291E00E94190B0B
:1018D00087E191E00E942207C8010E947C0B89E009
:1018E00091E00E94220785E290E00E947C0B8BEF42
:1018F00090E00E942207F8016585768587859089AA
:1019000040E10E94380B0E94150B8DEE90E00E9482
:101910002207F80181850E948C0B8FED90E00E94D8
:101920002207F801828D938D0E947C0B81ED90E05F
:101930000E942207F801848D90E00E949D0B83ECA9
:1019400090E00E942207F80180850E948C0B85EBB5
:1019500090E00E942207F801818D0E948C0B87EA9B
:1019600090E00E942207C80103960E947C0B8CE93C
:1019700090E00E942207F801838194810E947C0BF1
:10198000F80165817681CE0101960E94EF2C8EE8E8
:1019900090E00E942207CE0101960E94AE0B88E6DD
:1019A00090E00E94190B2C960FB6F894DEBF0FBE84
:1019B000CDBFDF91CF911F910F910895FC018081E0
:1019C0009181009711F00C944B2B08950F931F9366
:1019D000CF93DF938C01EB01FC0180819181009713
:1019E000E1F06881798161157105A9F04281538127
:1019F0002C813D814217530770F00E94F6308C8194
:101A00009D81F801958384831D821C82DF91CF9193
:101A10001F910F9108950E944B2B88819981F801A5
:101A2000918380838A819B81938382838C819D8132
:101A300095838483198218821B821A82E5CF0F93C3
:101A40001F93CF93DF93EC0188819981009759F020
:101A50002A813B812617370730F081E0DF91CF9153
:101A60001F910F9108958B016F5F7F4F0E94073088
:101A7000009759F0998388831B830A832C813D81C9
:101A8000232B59F7FC011082E8CF80E0E7CFEF92DB
:101A9000FF920F931F93CF93DF93EC01198218826B
:101AA0001B821A821D821C8261157105E1F08B0177
:101AB000FB0101900020E9F731977F01E61AF70A50
:101AC000B7010E941F0D28813981811113C0211592
:101AD000310519F0C9010E944B2B198218821D8211
:101AE0001C821B821A82DF91CF911F910F91FF9070
:101AF000EF900895FD82EC82B801C901DF91CF918A
:101B00001F910F91FF90EF900C94F630EF92FF929F
:101B10000F931F93CF93DF93EC017B01FB010190A7
:101B20000020E9F731978F01061B170BB8010E94BF
:101B30001F0D28813981811113C02115310519F03C
:101B4000C9010E944B2B198218821D821C821B82A4
:101B50001A82DF91CF911F910F91FF90EF9008951E
:101B60001D830C83B701C901DF91CF911F910F91A4
:101B7000FF90EF900C94F630EF92FF920F931F932B
:101B8000CF93DF936115710541F480E0DF91CF9130
:101B90001F910F91FF90EF90089541155105B1F0FD
:101BA0007B01EC010C811D81040F151FB8010E94FF
:101BB0001F0D882351F3288139818C819D81B701C4
:101BC000820F931F0E94F6301D830C8381E0DECFCD
:101BD000EF92FF920F931F93CF93DF93CDB7DEB7B2
:101BE00028970FB6F894DEBF0FBECDBF7C01CB01A6
:101BF0004AE08E010F5F1F4FB8010E940E2DF801C1
:101C000001900020E9F73197AF01401B510BB8015B
:101C1000C7010E94BC0D28960FB6F894DEBF0FBE18
:101C2000CDBFDF91CF911F910F91FF90EF9008955D
:101C30006115710551F0FB0101900020E9F7319722
:101C4000AF01461B570B0C94BC0D80E008950F9319
:101C50001F93CF93DF93CDB7DEB768970FB6F89495
:101C6000DEBF0FBECDBF8C016BE671E0CE010196E9
:101C70000E94EF2CBE016F5F7F4FC8010E94180EBB
:101C800068960FB6F894DEBF0FBECDBFDF91CF913F
:101C90001F910F9108950F931F93CF93DF93CDB7AB
:101CA000DEB768970FB6F894DEBF0FBECDBFE091E8
:101CB0004702F0914802309719F02081211119C094
:101CC0008C016DE571E0CE0101960E94EF2CBE0102
:101CD0006F5F7F4FC8010E94180E81E068960FB6B3
:101CE000F894DEBF0FBECDBFDF91CF911F910F9152
:101CF000089580E0F3CF0F931F93CF93DF9300D02D
:101D0000CDB7DEB78C0160914502709146020E940A
:101D1000180E6FE177E0CE0101960E94EF2CBE0114
:101D20006F5F7F4FC8010E94180E0F900F90DF91D8
:101D3000CF911F910F910895FB01448155816081DE
:101D400071810C94BC0D0F931F93CF93DF9300D040
:101D50001F92CDB7DEB78C0165E277E0CE01019628
:101D60000E94EF2CBE016F5F7F4FC8010E94180ECA
:101D7000B8018FEF93E00E949C0E0F900F900F9090
:101D8000DF91CF911F910F91089585ED8093BC0055
:101D900080919F029091A002A091A102B091A20215
:101DA0000796A11DB11D23E0B695A7959795879538
:101DB0002A95D1F72091BC0024FD03C010929D020A
:101DC000089540919F025091A0026091A1027091EC
:101DD000A202452B462B472B69F30097A105B105BD
:101DE00041F02AE22A95F1F700C00197A109B10953
:101DF000E1CF80919E020C942009AF92BF92DF92B6
:101E0000EF92FF920F931F93CF93DF938C0186E1A4
:101E100090E00E94AF2AEC01D80112964C911297E3
:101E2000842F90E01196DC9011971896EC9019820F
:101E300018861F86188A198A1A8ABC0126E07695A8
:101E400067952A95E1F76E879C0154E036952795B2
:101E50005A95E1F723702B879695879596958795E8
:101E600083708C8743704D8781E0888383E090E0A6
:101E7000261711F084E090E0F12CE89E5001E99ED5
:101E8000B00CF89EB00C1124BD82AC82C5010E943A
:101E9000AF2A9A878987009709F45BC0A50170E093
:101EA00060E00E94EF30FB82EA82ED2CF12CFF8291
:101EB000EE828981882341F061E08D2D0E945705D3
:101EC00060E08D2D0E942905F701EB5BF74FE4914F
:101ED000F0E0EE0FFF1FEF5CF74F859194919C8B24
:101EE0008B8BF701E75AF74FE491ED8BF801D48320
:101EF000C3838E819F8197FD07C061E00E945705D3
:101F000060E08E810E94290581E08983D8011396C3
:101F1000ED91FC914481558170E060E0818592856E
:101F20000E94EF306FEFF801838194810E94C40713
:101F30000E949C06D80113968D919C91DF91CF91C0
:101F40001F910F91FF90EF90DF90BF90AF900C9496
:101F500006081D821C821B821A82A7CF1F93CF9373
:101F6000DF93CDB7DEB7A3970FB6F894DEBF0FBEF1
:101F7000CDBF182F6BE771E0CE0148960E94470D48
:101F80006BE771E0CE014E960E94470DCE01489658
:101F90000E947B0EE12FF0E0EE0FFF1FE35AFD4F92
:101FA000808191811B8A1A8A1D8A1C8A1F8A1E8A37
:101FB0004AE0BE016F5F7F4F0E94522DBE016F5FEE
:101FC0007F4FCE0142960E94860DBE016E5E7F4F0E
:101FD000CE0148960E949C0ECE0142960E94DE0CD5
:101FE0006FE177E0CE0101960E94EF2CBE016F5F9A
:101FF0007F4FCE0148960E94180E67E771E0CE0130
:1020000001960E94EF2CBE016F5F7F4FCE01489674
:102010000E94180ECE0148960E94A30ECE014E9645
:102020000E94DE0CCE0148960E94DE0CA3960FB6ED
:10203000F894DEBF0FBECDBFDF91CF911F91089501
:10204000AF92BF92CF92DF92EF92FF920F931F93C6
:10205000CF93DF93CDB7DEB76A970FB6F894DEBFA4
:102060000FBECDBF87EE92E00E94900618161906AB
:102070000CF057C087EE92E00E943C068093440229
:10208000809144028E3309F09AC081E08093D6019A
:102090006BE771E0CE0101960E94470DBE016F5FB4
:1020A0007F4F85E094E00E94E60CCE0101960E94ED
:1020B000DE0C6BE771E0CE0101960E94470D0E9495
:1020C000500697FD0FC08A30910561F0898F1A8EF6
:1020D00041E050E0BE01675E7F4FCE0101960E9455
:1020E000BC0DEDCFBE016F5F7F4F85E094E00E9495
:1020F000E60CCE0101960E94DE0CC0900504D09043
:102100000604C114D10441F00091090410910A049D
:10211000760101151105B9F481E080936D021092EA
:10212000D6016A960FB6F894DEBF0FBECDBFDF9121
:10213000CF911F910F91FF90EF90DF90CF90BF90C4
:10214000AF900895750157018FEFA81AB80AF701EB
:102150008081082E000C990B0E94DD2C892B91F7B1
:10216000015011090C0D1D1DF8018081082E000C75
:10217000990B0E94DD2C892B31F00E151F0518F0EC
:1021800001501109F1CFA8014F5F5F4F4E195F0950
:1021900050930A0440930904CE14DF0420F4B701DD
:1021A000C6010E94E630E0910504F091060480919A
:1021B000090490910A04E80FF91F1082ADCF8091B5
:1021C0004402082E000C990B0E94DD2C892B09F08B
:1021D00049CF6DE471E0CE0101960E94EF2C109280
:1021E000D60110926D02CE0101960E94080B6091FB
:1021F000440287EE92E00E94D5060E94150B32CF72
:102200000E94A90681110C94201008951F920F922C
:102210000FB60F9211242F933F938F939F93AF93F9
:10222000BF9380916F0290917002A0917102B09162
:10223000720230916E0223E0230F2D3758F501967C
:10224000A11DB11D20936E0280936F0290937002C6
:10225000A0937102B0937202809173029091740204
:10226000A0917502B09176020196A11DB11D8093D7
:10227000730290937402A0937502B0937602BF919B
:10228000AF919F918F913F912F910F900FBE0F9023
:102290001F90189526E8230F0296A11DB11DD2CFDD
:1022A0001F920F920FB60F9211242F933F934F93CB
:1022B0005F936F937F938F939F93AF93BF93EF93AE
:1022C000FF9387EE92E00E94B306FF91EF91BF91DA
:1022D000AF919F918F917F916F915F914F913F91BE
:1022E0002F910F900FBE0F901F9018951F920F9275
:1022F0000FB60F9211242F938F939F93EF93FF9319
:10230000E091F702F091F8028081E091FD02F091F6
:10231000FE0282FD1BC09081809100038F5F8F734E
:1023200020910103821741F0E0910003F0E0E951B0
:10233000FD4F958F80930003FF91EF919F918F91B7
:102340002F910F900FBE0F901F9018958081F4CFA2
:102350001F920F920FB60F9211242F933F934F931A
:102360005F936F937F938F939F93AF93BF93EF93FD
:10237000FF938091B900887F803609F44AC0F0F558
:10238000883209F4A7C018F5803109F49BC0B8F46D
:10239000882309F4F9C0883009F494C0FF91EF91C3
:1023A000BF91AF919F918F917F916F915F914F916D
:1023B0003F912F910F900FBE0F901F90189588316D
:1023C00009F488C0803251F780939B0214C0803496
:1023D00009F49DC040F48033B9F38833F9F6809353
:1023E0009B0285ECB0C0803509F485C0883509F4BE
:1023F00096C0883499F60E94C50ED0CF883909F46A
:102400008CC038F5883729F050F4883611F08037C1
:1024100029F683E080939D0210921A0257C08838F3
:1024200009F47BC0803919F0803809F0B7CF80916A
:102430001A02803208F071C0E0911A0281E08E0F1A
:1024400080931A028091BB00F0E0E650FE4F80833B
:102450003DC0803B39F0E0F4803A09F479C0883A15
:1024600009F09CCF84E080939D021092F9011092B4
:10247000F801E0911D02F0911E0209958091F8018A
:1024800081110FC081E08093F8011092D80109C03A
:10249000803C09F4A6CF883C09F4A3CF883B09F01F
:1024A0007DCFE091F90181E08E0F8093F901F0E09A
:1024B000E852FE4F80818093BB009091F90180919A
:1024C000F80129C0809178028093BB0085EC80934D
:1024D000BC0064CF90919A0280919902981758F5A8
:1024E000E0919A0281E08E0F80939A02F0E0E75823
:1024F000FD4F8081E9CFE0919A0281E08E0F8093B9
:102500009A028091BB00F0E0E758FD4F80839091E4
:102510009A02809199029817C8F285E8D8CFE09185
:102520009A0281E08E0F80939A028091BB00F0E0C6
:10253000E758FD4F808380919C0281115CCF81E040
:102540008093770284EA8093BC0010929D0226CF8C
:1025500085EC8093BC0010929D0280911A0280321B
:1025600030F4E0911A02F0E0E650FE4F10826091E4
:102570001A0270E0E0911B02F0911C028AEF91E0D8
:10258000099510921A020ACF10929B0234CFFC01D7
:10259000908190539A3008F090E0818180532AE036
:1025A000929F800D11240895CF93DF93E7EEF2E020
:1025B0001382128288EE93E0A0E0B0E084839583DA
:1025C000A683B78329E531E03183208325EC30E011
:1025D0003587248724EC30E03787268720EC30E0ED
:1025E000318B208B21EC30E0338B228B22EC30E0DE
:1025F000358B248B26EC30E0378B268B118E128E98
:10260000138E148EE4E8F3E01382128284839583A0
:10261000A683B7838BE691E0918380838DE891E078
:102620000E94C712CDE1D4E088838CE0898388E8DA
:1026300091E00E94C7128A8380E991E00E94C7124C
:102640008B8383E991E00E94C7128C8386E991E035
:102650000E94C7128D8369E971E087E194E00E94CE
:10266000470D6DE971E081E194E00E94470D68EA51
:1026700071E08BE094E00E94470D6BE771E085E02C
:1026800094E00E94470D6BE771E08FEF93E00E94AA
:10269000470DE0E9F3E091E0908387E08183A2E5D4
:1026A000A283978370E17087118612868FEF8387EC
:1026B0008487158616861786108A118A128A138ACD
:1026C000148A158A168A178A108E64E6618F48EE7E
:1026D00053E0538F428F148E158E168E178E10A2D4
:1026E00011A212A213A214A221E838E03683258396
:1026F000B2E0B5A3B8E0B6A3A7A394A775A716A6A2
:1027000017A680AB81AB12AA13AA14AA15AA16AAFF
:1027100017AA10AE11AE12AE13AE14AE15AE66AF60
:102720005093D0034093CF031092D1031092D20361
:102730001092D3031092D4031092D5031092D603B3
:102740001092D7031092D8031092D90333A722A76F
:10275000E3E0E093DA03E9E0E093DB03A093DC033A
:102760009093E1037093E2031092E3031092E40369
:102770008093E5038093E6031092E7031092E80349
:102780001092E9031092EA031092EB031092EC030B
:102790001092ED031092EE031092EF031092F003EB
:1027A0001092F1031092F2036093F3035093F50338
:1027B0004093F4031092F6031092F7031092F8037B
:1027C0001092F9031092FA031092FB031092FC038B
:1027D0001092FD031092FE033093E0032093DF0379
:1027E000E9E5F4E08AEB98E09183808380E090E073
:1027F000AFEFB0E082839383A483B583E3E5F4E095
:1028000083EB98E09183808380E095E5AFEFB0E0C3
:1028100082839383A483B583EDE4F4E08CEA98E0AB
:102820009183808380E09FEFAFEFB0E0828393835A
:10283000A483B583E7E4F4E086EA98E0918380839B
:1028400080E09FEFA0E0B0E082839383A483B58310
:10285000E1E4F4E081EA98E0918380838FEF9FEFD9
:10286000A0E0B0E082839383A483B583EBE3F4E03C
:102870008CE998E0918380838FEF90E0A0E0B0E056
:1028800082839383A483B583E5E3F4E085E998E04C
:10289000918380838FEF90E0A3E3B0E08283938302
:1028A000A483B583EFE2F4E08EE898E0918380831F
:1028B0008FEF90E0DC0182839383A483B583E9E208
:1028C000F4E088E898E0918380838FEF9FEFAFEF8B
:1028D000B0E082839383A483B583E3E2F4E082E8EB
:1028E00098E0918380831282138214821582DF9193
:1028F000CF910895CF93DF93CDB7DEB7C954D109F7
:102900000FB6F894DEBF0FBECDBF789484B5826059
:1029100084BD84B5816084BD85B5826085BD85B583
:10292000816085BD80916E00816080936E00109201
:10293000810080918100826080938100809181007C
:10294000816080938100809180008160809380000D
:102950008091B10084608093B1008091B00081606B
:102960008093B00080917A00846080937A00809197
:102970007A00826080937A0080917A0081608093EF
:102980007A0080917A00806880937A001092C1006A
:1029900060E08EE00E94570560E08FE00E945705DE
:1029A00060E080E10E94570560E081E10E945705E8
:1029B00061E082E00E94570561E083E00E945705D4
:1029C00061E084E00E94570561E085E00E945705C0
:1029D00061E086E00E94570561E087E00E945705AC
:1029E00061E088E00E94570561E089E00E94570598
:1029F00061E08DE00E94570560E082E00E942905B9
:102A000060E083E00E94290560E084E00E942905DF
:102A100060E085E00E94290560E086E00E942905CB
:102A200060E08DE00E942905E091F702F091F80244
:102A300082E08083E091F302F091F4021082E09151
:102A4000F502F091F60280E180831092FF02E0919E
:102A5000FB02F091FC0286E08083E091F902F091A4
:102A6000FA02808180618083E091F902F091FA029C
:102A7000808188608083E091F902F091FA02808180
:102A800080688083E091F902F091FA0280818F7D65
:102A9000808382E390E0A0E0B0E08093EB0290932B
:102AA000EC02A093ED02B093EE021092200210927D
:102AB0001F021092A4021092C6020E9402098DEF1A
:102AC00095E090931E0280931D028EEF95E0909307
:102AD0001C0280931B0261E670E08FEF93E00E947E
:102AE0001F0D61E470E085E094E00E941F0D0DB7BA
:102AF0001EB7CE0101960E94BC04DE011196E0E0F3
:102B0000F1E09E01265F3F4F8D91982F92959F7027
:102B10008F709A3008F0E7C0905D90838A3008F09B
:102B2000E4C0805D818332962A173B0769F71092D3
:102B300012010FB6F8941EBF0FBE0DBF9E01285C98
:102B40003F4F26963FAF2EAF26976BE771E0C90146
:102B50000E94470DCE0182960E94BC04CFA0D12CCA
:102B6000F12CE12CFE2CED2CDC2CCC2488A5C80EFD
:102B7000D11CE11CF11CFE2CED2CDC2CCC2489A5F5
:102B8000C80ED11CE11CF11CFE2CED2CDC2CCC243D
:102B90008AA5C80ED11CE11CF11C6BE771E0CE01C7
:102BA0008E960E94470D81E2E4EBF1E0DE01119682
:102BB00001900D928A95E1F7F601EF71FF2741E050
:102BC00050E04C0F5D1FE40FF51F80818EAF1FAEEC
:102BD00041E050E0BE01625C7F4FCE018E960E94C4
:102BE000BC0D15E0F694E794D794C7941A95D1F7E5
:102BF000C114D104E104F104F9F6BE01625D7F4F16
:102C0000CE01C8960E94E60CCE018E960E94DE0C84
:102C1000BE01685C7F4F8BE094E00E94E60CCE0121
:102C2000C8960E94DE0C87E090E00E94AF2A8C01DB
:102C300090936702809366020E94F1056093680298
:102C40007093690280936A0290936B02F12CE12CDD
:102C5000C7010E947A2E8F3F09F049C05FEFE51A45
:102C6000F50A8AE0E816F10499F7DD24D3945801B7
:102C7000B4E6EB2EF12CC7010E947A2ED5018D937C
:102C80005D01BFEFEB1AFB0AEBE6EE16F10499F7D4
:102C9000D8018C9184508B3F60F184E08C9381E06B
:102CA000F8019181913029F081E0818380E1828374
:102CB00081E0D80113969C911397923041F082E005
:102CC00013968C9313978EE114968C9381E0F80100
:102CD0009581933081F083E0858381E08683C8010C
:102CE0000E94CA0A0AC0995C18CF895C1BCFD12CFC
:102CF000BECF80E0D5CF8111F2CFE0916602F09196
:102D000067028081843011F4DD2009F184E0808342
:102D100081E0818390E1928392E093839CE39483AA
:102D200093E09583868310E000E060E0C8010E9494
:102D3000822E0F5F1F4F0115F4E01F07B1F70E94AD
:102D4000E20A80916602909167020E94CA0AA9E194
:102D5000EA2EA1E0FA2E10E000E0C8010E947A2ECF
:102D6000D7018D937D01882331F00631110509F0DB
:102D7000E7C0109230010E94BA0B009166021091D8
:102D80006702F80182818093980380E993E00E94B2
:102D9000FD0ED80114968C918093BD0385EB93E0D2
:102DA0000E94FD0EF80186818093E2038AED93E094
:102DB0000E94FD0E10926C0284E893E00E94190BB1
:102DC0008091590490915A049FA78EA780914D0439
:102DD00090914E0499AB88AB809147049091480440
:102DE0009BAB8AAB80913B0490913C049DAB8CAB38
:102DF00080912304909124049FAB8EAB80915B045F
:102E000090915C04A0915D04B0915E0489839A83E3
:102E1000AB83BC8380914F0490915004A0915104E6
:102E2000B09152048D839E83AF83B887809149040B
:102E300090914A04A0914B04B0914C0489879A87E1
:102E4000AB87BC8780913D0490913E04A0913F04E4
:102E5000B09140048D879E87AF87B88B8091250401
:102E600090912604A0912704B0912804898B9A8B15
:102E7000AB8BBC8B80919803D090BD03D81608F41F
:102E8000D82E8091E203D81608F4D82E8E01025D68
:102E90001F4F9E012F5F3F4F7901D8016D917D91AA
:102EA0008D01CE0182960E94EF2CF7014190519046
:102EB000619071907F0188E793E00E942207CE0124
:102EC00082960E94AE0B912C812CC82C8D14D8F5C3
:102ED000F0E9AF2EF3E0BF2ED50118966C91E62FE6
:102EE000E150FF0B61508E169F060CF46C2DD5013E
:102EF00013968D919C9170E0FC01228133816217C1
:102F0000730720F4A30192010E945D070E949C06B2
:102F1000D50113968D919C910E94060862E070E0A5
:102F200080E090E00E94BF05B5E2AB0EB11CEFEF70
:102F3000AE16E3E0BE0681F6FFEF8F1A9F0AC5CFFB
:102F40000F5F1F4F0ACF69E170E080E090E00E94C0
:102F5000BF0526962EAD3FAD26972017310709F005
:102F60009CCF0E94F10560933701709338018093E4
:102F7000390190933A0183EA93E00E94190B8E0184
:102F80000E5D1F4FAE014F5F5F4F3A0180916D02A2
:102F9000882309F4C6C781E0809332016BE771E0B2
:102FA0008FEF93E00E94860D8091050490910604B6
:102FB0000E94CC3028969FAF8EAF289724969FAF63
:102FC0008EAF24976BE771E085E094E00E94860D58
:102FD00028968EAD9FAD2897892B09F482C765E2AC
:102FE00077E0CE01C8960E94EF2C55245394BE0181
:102FF000685C7F4FCE018E5B9F4F0E94F62C7C0158
:10300000009709F46EC7DC018C91882381F36FE18E
:1030100077E0CE01CE960E94EF2CC7010E94CC3003
:103020002A969FAF8EAF2A9722969FAF8EAF229798
:10303000F12CBE01625C7F4FCE01805C9F4F0E94ED
:10304000F62C2F2D30E0220F331F2B5B3D4F0097C6
:1030500029F0F90191838083F394EBCFD9011D927C
:103060001C92E0904502F0904602B12C6701CB0C17
:10307000D11CF6018081882369F0809344028091FD
:103080004402082E000C990B0E94C430D6018C9388
:10309000B394ECCF6CE177E0C7010E94E62C892B5A
:1030A000A1F46BE771E0C8010E94470DC8010E94BE
:1030B0007B0EC3010E94BC046BE074E0C8010E9457
:1030C0009C0EC8010E94A30E2FC568E177E0C701DE
:1030D0000E94E62C892B01F56BE771E0C3010E9489
:1030E000470DC3010E947B0E60E071E0C3010E94A6
:1030F000180EC3010E94A30EC3010E94DE0C2A9683
:103100008EAD9FAD2A970E944B2B22968EAD9FAD20
:1031100022970E944B2B6BCF64E177E0C7010E949E
:10312000E62C892B09F049C06BE771E0C8010E94C9
:10313000470DC8010E947B0EC8010E944B0E8823D8
:1031400019F010923201BDCFE0904702F090480292
:1031500069EF76E0C7010E94E62C892B31F469E122
:1031600071E0C8010E94180EACCFF7010190002059
:10317000E9F73197EE19FF097897B0F4F701D30119
:103180009701295E3F4F81918D93882319F02E1767
:103190003F07C9F748E150E0B30189E191E00E949F
:1031A000FD300E94E20ADBCF1092320163EB73E044
:1031B000C3010E94EF2CB301D4CF60E177E0C701D7
:1031C0000E94E62C892B71F46BE771E0C3010E9429
:1031D000470DC3010E947B0E67E174E0C3010E94AA
:1031E0009C0E87CF6BE077E0C7010E94E62C892B0D
:1031F00059F46BE771E0C3010E94470DC3010E94BF
:103200007B0E61E174E0EACF65E077E0C7010E94E0
:10321000E62C892B09F046C06BE771E0C8010E94DB
:10322000470DC8010E947B0EC8010E944B0E811100
:1032300088CF80914702909148020E94BF2C6C0178
:10324000990FEE08FF08C0925302D0925402E09208
:103250005502F092560250925B020E94F105609373
:103260005702709358028093590290935A026093C8
:103270004F027093500280935102909352022AE0C1
:10328000A301C701B6010E94302DF3010190002077
:10329000E9F73197AF0146195709B301C8010E94F8
:1032A000BC0D0FCF60E077E0C7010E94E62C892BB0
:1032B00009F048C06BE771E0C8010E94470DC801E2
:1032C0000E947B0EC8010E944B0E81113ACFE09004
:1032D0004702F090480269EF76E0C7010E94E62CB1
:1032E000892B39F480915C028823B9F062EC73E099
:1032F00016C062EC73E0C7010E94E62C892B19F41A
:1033000050925C02F3CF60EC73E0C7010E94E62CA0
:10331000892B09F0BCC410925C0260EC73E0C3011D
:103320000E94EF2CB301C8010E94180E6FE177E0F4
:10333000C3010E94EF2CB301C8010E94180E6CEB70
:1033400073E036CF6BEF76E0C7010E94E62C892B45
:1033500041F069EF76E0C7010E94E62C892B09F065
:1033600055C10E94BA0B83E096E00E94190B8FECC6
:1033700095E00E94190B81EB95E00E94190B81E901
:1033800095E00E94190B88E795E00E94190B87E4ED
:1033900095E00E94190B85E395E00E94190B80E3EC
:1033A00095E00E9422078BEF96E00E94BA0A85E220
:1033B00097E00E94BA0A84E197E00E94BA0A85E287
:1033C00097E00E94BA0A80E197E00E94BA0A85E27B
:1033D00097E00E94BA0A80E097E00E94BA0A85E26C
:1033E00097E00E94BA0A8BE097E00E94BA0A85E251
:1033F00097E00E94BA0A85E097E00E94BA0A85E247
:1034000097E00E94BA0A82EF96E00E94BA0A0E94F0
:10341000150B8BE295E00E94220787E295E00E945F
:10342000BA0A85E297E00E94BA0A83E295E00E9418
:10343000BA0A85E297E00E94BA0A8FE195E00E94FD
:10344000BA0A85E297E00E94BA0A8BE195E00E94F1
:10345000BA0A85E297E00E94BA0A87E195E00E94E5
:10346000BA0A85E297E00E94BA0A83E195E00E94D9
:10347000BA0A85E297E00E94BA0A0E94150B8EE014
:1034800095E00E9422078BEE96E00E94BA0A85E240
:1034900097E00E94BA0A88EE96E00E94BA0A85E296
:1034A00097E00E94BA0A85EE96E00E94BA0A85E289
:1034B00097E00E94BA0A82EE96E00E94BA0A85E27C
:1034C00097E00E94BA0A8FED96E00E94BA0A85E260
:1034D00097E00E94BA0A8CED96E00E94BA0A85E253
:1034E00097E00E94BA0A89ED96E00E94BA0A85E246
:1034F00097E00E94BA0A86ED96E00E94BA0A85E239
:1035000097E00E94BA0A8BE095E00E94BA0A0E94F6
:10351000150B86E095E00E94220781E796E00E9465
:10352000BA0A85E297E00E94BA0A8DE696E00E9408
:10353000BA0A85E297E00E94BA0A89E696E00E94FC
:10354000BA0A85E297E00E94BA0A85E696E00E94F0
:10355000BA0A85E297E00E94BA0A81E696E00E94E4
:10356000BA0A85E297E00E94BA0A8DE596E00E94C9
:10357000BA0A0E94150B83ED94E00E94190B80EAB1
:1035800094E00E94190B80E694E00E94190B82E4FB
:1035900094E00E94220780E490E00E949D0B87E265
:1035A00094E00E94220785E090E00E949D0B82E15A
:1035B00094E00E94220787E190E00E949D0B8AEF31
:1035C00093E00E94220780E690E00E949D0B88EF26
:1035D00093E00E94190B84EC93E00E94190B80E9A0
:1035E00093E00E94470C85EB93E00E94470C8AED24
:1035F00093E00E94470C6BEF76E0C8010E94EF2C2D
:103600006FEA71E0C3010E94470D73CD62EF76E06F
:10361000C7010E94E62C892B39F587EE92E00E94C3
:103620003D07E091F902F091FA0280818F7E80835C
:10363000E091F902F091FA028081877F8083E09126
:10364000F902F091FA0280818F778083E091F9028C
:10365000F091FA0280818F7D8083809101038093B5
:1036600000030C9400004BCD6EEE76E0C7010E9483
:10367000E62C892BB9F46BE771E0C3010E94470D7A
:10368000C3010E947B0E80915F04909160040097BB
:1036900011F485E694E0B801681B790BC3010E9420
:1036A000E80D27CD6BEE76E0C7010E94E62C892B52
:1036B00021F480E00E94AE0F22CD68EE76E0C701D3
:1036C0000E94E62C892B11F481E0F4CF65EE76E0C0
:1036D000C7010E94E62C892B11F482E0EBCF62EE49
:1036E00076E0C7010E94E62C892B11F483E0E2CF3B
:1036F0006FED76E0C7010E94E62C892B21F482E071
:103700000E94CA23FCCC6CED76E0C7010E94E62C37
:10371000892B11F483E0F4CF69ED76E0C7010E94B4
:10372000E62C892B11F484E0EBCF66ED76E0C7013F
:103730000E94E62C892B11F485E0E2CF61ED76E062
:10374000C7010E94E62C892B21F481E00E9401260A
:10375000D6CC6CEC76E0C7010E94E62C892B11F4E4
:1037600082E0F4CF67EC76E0C7010E94E62C892B5B
:1037700011F483E0EBCF62EC76E0C7010E94E62C07
:10378000892B21F481E00E947A28B9CC6DEB76E098
:10379000C7010E94E62C892B11F482E0F4CF68EB7C
:1037A00076E0C7010E94E62C892B11F483E0EBCF71
:1037B00063EB76E0C7010E94E62C892B21F481E0BF
:1037C0000E94E8249CCC6EEA76E0C7010E94E62CB9
:1037D000892B11F482E0F4CF69EA76E0C7010E94F8
:1037E000E62C892B11F483E0EBCF64EA76E0C70185
:1037F0000E94E62C892B21F481E00E9447247FCC93
:103800006FE976E0C7010E94E62C892B11F482E073
:10381000F4CF6AE976E0C7010E94E62C892B11F407
:1038200083E0EBCF65E976E0C7010E94E62C892BA7
:1038300021F481E00E94BE2762CC60E976E0C701F6
:103840000E94E62C892B11F482E0F4CF6BE876E03D
:10385000C7010E94E62C892B11F483E0EBCF66E8C8
:1038600076E0C7010E94E62C892B21F481E00E94BA
:10387000A42645CC61E876E0C7010E94E62C892B9E
:1038800011F482E0F4CF6CE776E0C7010E94E62CE9
:10389000892B11F483E0EBCF65E776E0C7010E9446
:1038A000E62C892BA9F46BE771E0C3010E94470D58
:1038B000C3010E947B0E80E993E00E94470C85EBD8
:1038C00093E00E94470C8AED93E00E94470C11CCD4
:1038D00061E776E0C7010E94E62C892B69F56BE76A
:1038E00071E0C8010E94470DC8010E947B0EC8010B
:1038F0000E944B0E811125CCE0904702F0904802C7
:1039000069EF76E0C7010E94E62C60914202892BA4
:1039100079F0C7010E94BF2C8F3F910531F028F04C
:103920001092320165E076E043CC80934202682F2A
:10393000C8010E949F23C5CB6DE676E0C7010E94B7
:10394000E62C892B21F56BE771E0C8010E94470D39
:10395000C8010E947B0EC8010E944B0E8111F1CB61
:10396000E0904702F090480269EF76E0C7010E94BC
:10397000E62C60914102892BD9F2C7010E94BF2C2D
:103980008F3F910509F060F680934102D0CF69E640
:1039900076E0C7010E94E62C892B51F56BE771E0B8
:1039A000C8010E94470DC8010E947B0EC8010E94F9
:1039B0004B0E8111C6CBE0904702F090480269EFB0
:1039C00076E0C7010E94E62C60914302892B09F43E
:1039D000AFCFC7010E94BF2C9FEF980F913128F005
:1039E0001092320162E176E0E3CB809343029FCFF5
:1039F00065E676E0C7010E94E62C892B09F496C0A3
:103A000061E676E0C7010E94E62C892B09F445C1E6
:103A10006DE576E0C7010E94E62C892B09F059C0BC
:103A20006BE771E0CE018E960E94470DCE018E9617
:103A30000E947B0ECE018E960E944B0E882349F089
:103A400010923201CE018E960E94A30ECE018E9668
:103A500054CB69EF76E080914702909148020E9432
:103A6000E62C892B89F5E12CFF24F3945092A302D4
:103A7000F092C5021092A4021092C60281E00E9448
:103A80004109811110C06F2DCE018E960E949F2397
:103A900068E376E0C8010E94EF2CB801CE018E9653
:103AA0000E94180EE394F394B0E8FB12DFCF6DE2AE
:103AB00076E0E110C7CFC3010E94EF2CB301CE0125
:103AC0008E960E94180EBECF1092320163E276E00D
:103AD000F2CF109232016BE771E0C8010E94470DEE
:103AE000B701C8010E94180E6FE177E0C3010E9480
:103AF000EF2CB301C8010E94180E6DE476E0C301FB
:103B00000E94EF2CB301C8010E94180E65E277E015
:103B1000C3010E94EF2CB301C8010E94180EB80126
:103B20008FEF93E00E949C0EC801E7CA6BE771E03B
:103B3000C8010E94470DC8010E947B0EE091470218
:103B4000F091480280818EA781818FA718AAC801B1
:103B50000E944B0E8111F5CAE0904702F090480296
:103B600069EF76E0C7010E94E62C892B71F5CDB68E
:103B7000DEB680914302282F30E0220F331F2F5FE3
:103B80003F4FEDB7FEB7E21BF30B0FB6F894FEBF45
:103B90000FBEEDBF2DB73EB72F5F3F4F7901B90183
:103BA0000E948B046AE476E0C3010E94EF2CB3010B
:103BB000C8010E94180EB701C8010E94180E0FB666
:103BC000F894DEBE0FBECDBE7CCA6AE476E0CE01BC
:103BD0008E960E94E62C892B09F059C0D7011296C7
:103BE000FD0101900020E9F73197EA1BFB0B3090B3
:103BF0004302832D90E0880F991FE817F90709F019
:103C000041C0670157ECA52E52E0B52E4501D60103
:103C100012968C918823A9F0B2E0CB0ED11CF6014C
:103C20002180222071F00E944423482E822D0E9480
:103C30004423429440EF4422480ED4014D924D015A
:103C4000E6CF809142025092A3028093C502109267
:103C5000A4021092C6026091410284E893E00E949F
:103C6000880AD12C3D1449F0F50161915F0184E887
:103C700093E00E94880AD394F5CF81E00E94410925
:103C8000B7016FCA109232016AE376E091CA1092CE
:103C90003201C8010E94270E14CA2DB63EB66BE74A
:103CA00071E0C8010E94470DC8010E947B0EB090D0
:103CB00042025092A302B092C5021092A402109246
:103CC000C6026091410284E893E00E94880A81E084
:103CD0000E944109A09043020E949A056B017C0159
:103CE00080919D0281116BC0FA2CF0E2FA1510F45C
:103CF00030E2F32E50929D0250929C022FEF2093BF
:103D00009B0210929A028FEF8F0D8093990250922E
:103D1000780280917802BB0CB82AB0927802809128
:103D20007702813009F085C0109277020E949A05CF
:103D30004B015C01809178028093BB0080919F02CF
:103D40009091A002A091A102B091A202892B8A2B8E
:103D50008B2BA1F00E949A0520919F023091A00226
:103D60004091A1025091A202681979098A099B0920
:103D7000261737074807590708F442C08091BC004E
:103D800083FDD8CF35EC3093BC000E949A054B01DF
:103D90005C0180919D02813009F44FC080919A02AC
:103DA0008F1510F4F0909A02E9E7F2E0A1E2B2E098
:103DB00080E08F1551F191919D938F5FFACF8091A3
:103DC0009F029091A002A091A102B091A202892B22
:103DD0008A2B8B2B09F484CF0E949A0520919F0295
:103DE0003091A0024091A1025091A2026C197D096C
:103DF0008E099F09261737074807590708F070CF23
:103E000080919E020E942009F12C10922002F092D3
:103E10001F02F12CD0904302FD1488F584E893E052
:103E20000E94410AEF2DF0E0E953FD4F8083F394A7
:103E3000F1CF45EE4093BC00A8CF80919F029091B6
:103E4000A002A091A102B091A202892B8A2B8B2BF8
:103E500009F49FCF0E949A0520919F023091A00201
:103E60004091A1025091A202681979098A099B091F
:103E7000261737074807590708F08BCFC1CF81E0D5
:103E80000E9441098D2D90E0880F991F0196ADB7D2
:103E9000BEB7A81BB90B0FB6F894BEBF0FBEADBF1F
:103EA000EDB7FEB731967F01BF018D2D0E948B04C7
:103EB0006AE476E0C3010E94EF2CB301C8010E94BE
:103EC000180EB701C8010E94180EC8010E94A30E67
:103ED000C8010E94DE0C0FB6F8943EBE0FBE2DBE88
:103EE0000EC9809132018111E1C083E297E00E9406
:103EF000BA0A8FEF93E00E94250B6BE771E08FEF1A
:103F000093E00E94860D24968EAD9FAD24970E946B
:103F10004B2B28968EAD9FAD28970E944B2B10926D
:103F20006D020E94F105C0903701D0903801E090F9
:103F30003901F0903A01C616D706E806F90608F0EE
:103F40001EC30E94F1056B5F7F4F8F4F9F4F6093A1
:103F50003701709338018093390190933A01809131
:103F60005B02882321F10E94F105C0905702D09096
:103F70005802E0905902F0905A024B015C018C18F3
:103F80009D08AE08BF08C0905302D0905402E09044
:103F90005502F0905602C814D904EA04FB0408F054
:103FA00088C060E08DE00E94290510925B0286E0E7
:103FB0000E94000520915C022111A2C060E0892BC3
:103FC00009F0A7C080E9E82E83E0F82E99249394A5
:103FD0009BE2892ED7011A968C911A97882371F04B
:103FE0005C961C925C971D964D915D916D917C91B4
:103FF0005097F701418B528B638B748BD7011996C5
:104000009C91199791118FC0F701118A128A138A16
:10401000148A81111286F7018185843029F4828502
:10402000882309F47CC11286D7011896DC90189772
:1040300059966C9170E090E080E00E947F2D20E026
:1040400030E048EC52E40E945F2F1B012C016D2DE3
:1040500070E090E080E00E947F2D9B01AC01C201E6
:10406000B1010E94BC2D0E94D12F562ED61608F405
:104070005D2CB12CA12CC52CD12CAC14BD0408F0A6
:1040800014C2F70183819481DC0112962D913C9139
:10409000A216B30638F42189328943895489B501BF
:1040A0000E945D07BFEFAB1ABB0AE5CF81E297E044
:1040B0001ECFC0904F02D0905002E0905102F0907D
:1040C00052026C197D098E099F096B3F71058105AC
:1040D000910508F46CCF8DE00E94000561E0892B0A
:1040E00009F060E08DE00E9429050E94F1056093CF
:1040F0004F0270935002809351029093520257CF17
:10410000209199032250223040F0892B09F05ACF98
:1041100061E086E00E94290555CF2091AC0322235F
:1041200009F44CCFF2CF913009F087C01D964D9124
:104130005D916D917C915097F701418B528B638B10
:10414000748B882309F467CF1286F7018185833049
:1041500009F061CF828581115DCF0E94F105D70101
:104160005D962D913D914D915C9190972617370763
:104170004807590708F4AEC05A96AD90BC90B69463
:10418000A794D12CC12C0E94F105F701258D368D05
:10419000478D50A1A21AB30AC40AD50AA6019501F7
:1041A000260F371F481F591FAFEFB0E00E94C22EE5
:1041B000228D338D3695279550E040E00E94A02E49
:1041C000E22FD7015C968C918111E095D7011D9665
:1041D0004C911D971E965C911E971F968C91F0E056
:1041E000E95DF84FE4912E2F30E0A82FB0E00E9457
:1041F000042FBB27A92F982F872F2C01332422248B
:10420000A52FB0E00E94042F5B016C01AA24A22814
:10421000B328C428D528A42FB0E00E94042F672F0C
:10422000782F892F9927A60EB71EC81ED91EF70111
:10423000A18AB28AC38AD48AEECE923009F085CFA1
:10424000882311F01A961C920E94F105F701258D22
:10425000368D478D50A1621773078407950708F4C0
:1042600074CF0E94F105D7015D962D913D914D913E
:104270005C919097261737074807590708F065CFD4
:104280005C968C915C978823C9F0F701118A128A99
:10429000138A148A8925D7015C968C930E94F105B4
:1042A000F701228D338D36952795620F731F811D7F
:1042B000911D658F768F878F90A347CF1D964D9167
:1042C0005D916D917C915097F701418B528B638B7F
:1042D000748BE0CF0E94F105D7015D962D913D9141
:1042E0004D915C919097261737074807590708F0BA
:1042F00092CE5C968C915C9789255C968C930E94FB
:10430000F105F701228D338D36952795620F731FC6
:10431000811D911D658F768F878F90A37CCE0E9423
:10432000F105D7015D962D913D914D915C9190974E
:10433000621773078407950708F0A7C05A96AD90D7
:10434000BC90D12CC12C0E94F105F701258D368D32
:10435000478D50A1A21AB30AC40AD50AA601950135
:10436000260F371F481F591FAFEFB0E00E94C22E23
:10437000228D338D50E040E00E94A02E2095822FA8
:10438000682D0E94132F482E35ED482F3403F0017D
:1043900011242E0F3F2F311DE22FEE0F2E0F220F73
:1043A000E22FF0E09F01AFEFB0E00E94042F672FF3
:1043B000782F892F99272FEF30E040E050E0261B1F
:1043C000370B480B590B0E94C22EA72EB82EC92EB0
:1043D000DD245A2CAE1BBF0B2FEF30E00E94522F72
:1043E000672F782F892F99272FEF30E040E050E09A
:1043F000261B370B480B590BAFEFB0E00E94C22EC3
:10440000BB27A92F982F872F482F52E04516B9F0C8
:10441000541550F0442029F081E0481699F14A2CB7
:1044200040E055245A940EC0E3E04E1639F1F4E012
:104430004F12F5CF582E44244A9440E003C0482E32
:104440004FEF512C852D90E0B0E0A0E0DC019927E2
:10445000882750E070E060E0762F652F542F4427C6
:10446000840F951FA61FB71F840D911DA11DB11D9F
:10447000F701818B928BA38BB48BD6CD4A2D44242C
:104480004A94DFCF412C4FEFDDCF0E94F105D701D9
:104490005A962D913C91620F731F811D911DF7015A
:1044A000658F768F878F90A3BFCDF70180858C15A0
:1044B0001D04A1F098F083819481DC0112962D9166
:1044C0003C91C216D30630F420E030E0A901B601D9
:1044D0000E945D07BFEFCB1ADB0AE7CF8189928983
:1044E000A389B489458956896789708D8417950792
:1044F000A607B70729F09782858B968BA78BB08F7D
:10450000D7011B968C911B971C969C911C97891721
:1045100029F017969C9217971C968C930E94F10590
:10452000F70121A132A143A154A1621B730B840B9B
:10453000950B693873418105910518F0D7011796DD
:104540009C92F7018781882389F017820E94F105E8
:10455000D70191966D937D938D939C9394970E9430
:104560009C06F701838194810E940608F5E2EF0E14
:10457000F11C2FEF33E02E153F0509F02BCD0E94E3
:10458000F105C0903301D0903401E0903501F090F6
:104590003601C616D706E806F90610F50E94F105A1
:1045A000675E7F4F8F4F9F4F60933301709334014D
:1045B0008093350190933601809165028130C9F175
:1045C00040F08230F1F1833009F443C0109265026B
:1045D00007C08EE00E94880590935E0280935D0282
:1045E00080916C028823D9F00E94F105C090680286
:1045F000D0906902E0906A02F0906B026C197D091C
:104600008E099F09613177428105910540F08091C3
:104610006602909167020E94CA0A10926C020E9480
:10462000A906882311F40C94C6170E9420100C943C
:10463000C6178FE00E9488059093600280935F0206
:10464000CFCF80E10E94880590936202809361023F
:10465000C7CF81E10E948805909364028093630232
:10466000BFCFCF93DF93FC012185261751F0EC01DA
:1046700081E0828761870E94F1056D8F7E8F8F8F29
:1046800098A3DF91CF910895982F80ED890F8A30FC
:1046900070F08FEB890F863018F489EC890F08953C
:1046A0008FE9890F863010F489EAF8CF80E0089509
:1046B000CF93DF93FC01C081D181209761F0899174
:1046C000882349F0082E000C990B0E94C430FE018B
:1046D00031978083F4CFDF91CF910895EF92FF92CD
:1046E0000F931F93CF93DF93CDB7DEB72E970FB6FF
:1046F000F894DEBF0FBECDBF7C01CB01BA012AE02A
:104700008E010F5F1F4FA8010E94192DF801019023
:104710000020E9F73197AF01401B510BB801C701E9
:104720000E94BC0D2E960FB6F894DEBF0FBECDBF13
:10473000DF91CF911F910F91FF90EF900895EF922D
:10474000FF920F931F93CF93DF9300D000D0CDB78C
:10475000DEB77C01862F4AE08E010F5F1F4FB80144
:1047600090E00E940E2DF80101900020E9F73197AA
:10477000AF01401B510BB801C7010E94BC0D0F9047
:104780000F900F900F90DF91CF911F910F91FF909D
:10479000EF900895EF92FF921F93CF93DF93CDB7E1
:1047A000DEB760970FB6F894DEBF0FBECDBF182FEF
:1047B0006BE771E0CE010B960E94470DCE010B9680
:1047C0000E947B0ECE010B960E944B0E8823B1F007
:1047D00010923201CE010B960E94A30ECE010B96D1
:1047E0000E94DE0C60960FB6F894DEBF0FBECDBF00
:1047F000DF91CF911F91FF90EF900895E0904702D5
:10480000F090480269EF76E0C7010E94E62C892B00
:1048100019F5812F0E940005BC01CE010B960E9464
:10482000E80D6FE177E0CE0101960E94EF2CBE010A
:104830006F5F7F4FCE010B960E94180E6CEB73E0FA
:10484000CE0101960E94EF2CBE016F5F7F4FCE011B
:104850000B960E94180EBECF62EC73E0C7010E9457
:10486000E62C61E0892B41F060EC73E0C7010E9407
:10487000E62C892B29F460E0812F0E942905C9CFFD
:1048800010923201CE010B960E94270EA3CFCF9239
:10489000DF92FF920F931F93CF93DF93CDB7DEB7D5
:1048A0002E970FB6F894DEBF0FBECDBF182F6BE763
:1048B00071E0CE0107960E94470DCE0107960E9437
:1048C0007B0ECE0107960E944B0EF82E8823C1F076
:1048D00010923201CE0107960E94A30ECE010796D8
:1048E0000E94DE0C2E960FB6F894DEBF0FBECDBF31
:1048F000DF91CF911F910F91FF90DF90CF9008959E
:10490000C0904702D090480269EF76E0C6010E944D
:10491000E62C892B09F1B601CE0101960E94470DC4
:1049200050E040E0BE01635F7F4F89819A810E9421
:10493000D42B062FED85FE8530813323F9F0CE018F
:1049400001960E94DE0CF110C5CF10923201CE010B
:1049500007960E94270EBECF212F2150330BC9018D
:1049600025E2289FF001299FF00D1124E057FC4F0C
:10497000618DCE0107960E949F23ACCF462F572F03
:10498000BC014536510561057105CCF6CE0107968F
:104990000E946E23212F2150330BC90125E2289F4D
:1049A000F001299FF00D1124E057FC4F018F0536CF
:1049B00008F004E6018F25E2289FF001299FF00D01
:1049C0001124E057FC4F81E08783FF24F394B7CF95
:1049D0008F929F92AF92BF92CF92DF92EF92FF920F
:1049E0000F931F93CF93DF93CDB7DEB762970FB6C8
:1049F000F894DEBF0FBECDBF182F6BE771E0CE017C
:104A00000D960E94470DCE010D960E947B0ECE01A1
:104A10000D960E944B0EB82E212F2150330B790199
:104A20008823C1F1109232016FE177E0CE01019647
:104A30000E94EF2CBE016F5F7F4FCE010D960E944A
:104A4000180E85E28E9DF0018F9DF00D1124E05728
:104A5000FC4F81856EE971E0882381F067E971E0A0
:104A6000813061F061E971E0823041F06BE871E022
:104A7000833021F0843031F463E871E0CE01019697
:104A80000E94EF2CBE016F5F7F4FCE010D960E94FA
:104A9000180E9CC0009147021091480269EF76E021
:104AA000C8010E94E62C892B49F1B801CE0101967C
:104AB0000E94470DCE0101960E94582325E22E9DAB
:104AC000C0012F9D900D11249C0120573C4F69017E
:104AD00009811A816BE771E0C8010E94E62C892BDD
:104AE000D9F410E0612FC6010E943123612FCE015D
:104AF0000D960E949F23BB24B39433C085E28E9D04
:104B0000F0018F9DF00D1124E057FC4F6185CE011F
:104B10000D960E949F2388CF6EE971E0C8010E9424
:104B2000E62C892BF1F267E971E0C8010E94E62CBE
:104B3000892B09F43FC061E971E0C8010E94E62CAD
:104B4000892BD1F16BE871E0C8010E94E62C892B1A
:104B5000A9F163E871E0C8010E94E62C14E0892BFA
:104B600009F2CE0101960E94DE0CB1105DCF50E03B
:104B700040E0BE016F5F7F4F8091470290914802F5
:104B80000E94D42B4B015C01E981FA818081811163
:104B900017C035E083169104A104B10488F4B5016F
:104BA000A401CE010D960E946E23682DC6010E94BD
:104BB00031233ACF11E096CF12E094CF13E092CF99
:104BC00010923201CE010D960E94270ECE010D9655
:104BD0000E94A30ECE010D960E94DE0C62960FB6C7
:104BE000F894DEBF0FBECDBFDF91CF911F910F9123
:104BF000FF90EF90DF90CF90BF90AF909F908F90FD
:104C00000895CF92DF92EF92FF920F931F93CF936D
:104C1000DF93CDB7DEB72E970FB6F894DEBF0FBE89
:104C2000CDBF182F6BE771E0CE0107960E94470DAC
:104C3000CE0107960E947B0ECE0107960E944B0E76
:104C4000082F8823C9F010923201CE0107960E94E6
:104C5000A30ECE0107960E94DE0C2E960FB6F89496
:104C6000DEBF0FBECDBFDF91CF911F910F91FF909F
:104C7000EF90DF90CF900895E0904702F0904802C7
:104C800069EF76E0C7010E94E62C892B01F1B7019C
:104C9000CE0101960E94470D50E040E0BE01635FE7
:104CA0007F4F89819A810E94D42BED85FE852081DA
:104CB000222319F1CE0101960E94DE0C0111C5CF0D
:104CC00010923201CE0107960E94270EBECF212FEF
:104CD0002150330BC90125E2289FF001299FF00DD7
:104CE0001124E057FC4F0380F481E02D6085615072
:104CF000CE0107960E949F23A8CF6B017C013FEF56
:104D0000C316D104E104F10429F024F0C12CD12C04
:104D10007601CA94B701A601CE0107960E946E23C0
:104D2000212F2150330BC90125E2289FF001299F33
:104D3000F00D1124E057FC4FC3866C2D83819481C4
:104D40000E94C40701E0B6CFCF92DF92EF92FF92AC
:104D50000F931F93CF93DF93CDB7DEB72E970FB688
:104D6000F894DEBF0FBECDBF082F6BE771E0CE0118
:104D700007960E94470DCE0107960E947B0ECE013A
:104D800007960E944B0E182F8823C9F0109232010B
:104D9000CE0107960E94A30ECE0107960E94DE0C5C
:104DA0002E960FB6F894DEBF0FBECDBFDF91CF9128
:104DB0001F910F91FF90EF90DF90CF900895E090BA
:104DC0004702F090480269EF76E0C7010E94E62CA6
:104DD000892B01F1B701CE0101960E94470D50E0E9
:104DE00040E0BE01635F7F4F89819A810E94D42B8E
:104DF000ED85FE8540814423E9F0CE0101960E94B5
:104E0000DE0C1111C5CF10923201CE0107960E941F
:104E1000270EBECF0150110B85E2809FF001819FCC
:104E2000F00D1124E057FC4F6085CE0107960E94DB
:104E30009F23AECF6B017C012FEFC216D104E1049A
:104E4000F10429F024F0C12CD12C7601CA941C1451
:104E50001D041E041F0424F0C12CD12C7601C39420
:104E6000B701A601CE0107960E946E230150110BD7
:104E700025E2209FC001219F900D1124DC01A05745
:104E8000BC4F7D0118968C911897C81609F464C020
:104E90001396ED91FC914481558170E060E081852D
:104EA00092850E94EF300E949C06F70183819481D5
:104EB0000E940608D7011396ED90FC90E114F104CE
:104EC00089F0F701818592850E944B2BD7011696B8
:104ED0008D919C9197FD03C060E00E945705C7012A
:104EE0000E944B2B85E2809FF001819FF00D1124E1
:104EF000E057FC4FC0868081813081F5E0916602E9
:104F0000F0916702C28225E2209FC001219F900D8F
:104F100011248C0100571C4FC8010E94FD0EFF2474
:104F2000F394F0926C020E94F10560936802709312
:104F3000690280936A0290936B02F8016185C8014F
:104F40000E943123F80185859685A785B089818BDC
:104F5000928BA38BB48BF78211E04FCF823031F468
:104F6000E0916602F0916702C482CDCF833059F69A
:104F7000E0916602F0916702C682C5CFBF92CF92E0
:104F8000DF92EF92FF920F931F93CF93DF93CDB7F2
:104F9000DEB72F970FB6F894DEBF0FBECDBFB82E89
:104FA0006BE771E0CE0108960E94470DCE0108968E
:104FB0000E947B0ECE0108960E944B0EF82E88238D
:104FC000D1F010923201CE0108960E94A30ECE01BC
:104FD00008960E94DE0C2F960FB6F894DEBF0FBE27
:104FE000CDBFDF91CF911F910F91FF90EF90DF9098
:104FF000CF90BF900895C0904702D090480269EFCB
:1050000076E0C6010E94E62C8E010F5F1F4F892BB0
:10501000F1F0B601C8010E94470D50E040E0BE012A
:10502000625F7F4F89819A810E94D42BEE85FF8534
:105030004081442361F1C8010E94DE0CF110C3CF0E
:1050400010923201CE0108960E94270EBCCF2B2D64
:105050002150330BC90125E2289FF001299FF00D53
:105060001124E057FC4F4AE0B801828D938D0E94D5
:10507000522DF80101900020E9F73197AF01401B54
:10508000510BB801CE0108960E94BC0D9CCF6B015C
:105090007C0131E1C31637E2D306E104F10434F0B8
:1050A00090E1C92E97E2D92EE12CF12C84E6C816A6
:1050B000D104E104F1042CF484E6C82ED12CE12CB7
:1050C000F12CB701A601CE0108960E946E232B2D6C
:1050D0002150330BC90125E2289FF001299FF00DD3
:1050E0001124E057FC4FD38EC28E81E08783FF24CA
:1050F000F394A1CF2F923F924F925F926F927F9243
:105100008F929F92AF92BF92CF92DF92EF92FF92D7
:105110000F931F93CF93DF93CDB7DEB7A7970FB64B
:10512000F894DEBF0FBECDBF382E6BE771E0CE0125
:105130004E960E94470DCE014E960E947B0ECE01E8
:105140004E960E944B0E282E882319F110923201A0
:10515000CE014E960E94A30ECE014E960E94DE0C0A
:10516000A7960FB6F894DEBF0FBECDBFDF91CF91EB
:105170001F910F91FF90EF90DF90CF90BF90AF9075
:105180009F908F907F906F905F904F903F902F9067
:105190000895009147021091480269EF76E0C80136
:1051A0000E94E62C892B09F459C1B801CE0148961A
:1051B0000E94470DCE0148960E94582381E4482E54
:1051C00081E0582E320145E2832D8150990B9C01DC
:1051D000429FC001439F900D112480579C4F7C013A
:1051E000ADE0EA0EF11C6C01B1E1CB0ED11CFC016B
:1051F0003796FDA3ECA35E01FDE0AF0EB11C9C0150
:105200002B5F3F4F3FA32EA3F301019111913F016B
:10521000D8018D909C90B401888D998D0E94E62CC8
:10522000892B09F058C0B401CE0101960E94EF2CE1
:10523000F8018281938124813581D7018C93119665
:105240009C93119712962C93129713963C93F60108
:105250008083918322833383E1E0ACA1BDA1EC93F1
:105260003F932F939F938F932CE731E03F932F939E
:105270001F928BE08F93BF92AF920E940C31B501C9
:10528000CE014E960E94180E6FE177E0CE01019696
:105290000E94EF2CBE016F5F7F4FCE014E960E94A1
:1052A000180ED8018D919C91EEA1FFA1918380836E
:1052B000B401CE0101960E94EF2CBE016F5F7F4FBB
:1052C000CE014E960E94180E0FB6F894DEBF0FBEA8
:1052D000CDBF2224239435E5631631E0730609F02F
:1052E00093CFCE0148960E94DE0C211031CF609101
:1052F000470270914802CE010D960E94470D50E082
:1053000040E0BE01685E7F4F8D859E850E94D42B54
:105310006B017C01E88DF98D8081882331F0C11407
:10532000D104E104F10409F48CC0C114D104E104F6
:1053300041E0F4060CF085C08BE090E00E94AF2ABB
:105340008C01FF92EF92DF92CF928CE791E09F93D6
:105350008F931F928BE08F931F930F930E940C31BA
:10536000B801CE014E960E94180E0FB6F894DEBF1B
:105370000FBECDBF0115110519F0C8010E944B2BBE
:10538000A32DA150BB0B8D0185E28A9FF0018B9F5D
:10539000F00D1124E057FC4FC586D686E786F08ACB
:1053A000C18AD28AE38AF48A81E087834F01B5E01B
:1053B0008B0E911CD201ED91FD912D018281938183
:1053C000A481B581C816D906EA06FB0629F5A08096
:1053D000B180F401B182A082B501CE0101960E9494
:1053E000EF2C6FE177E0CE0101960E94EF2CBE0119
:1053F0006F5F7F4FCE014E960E94180EB501CE0111
:1054000001960E94EF2CBE016F5F7F4FCE014E963A
:105410000E94180E22242394F5E54F16F1E05F0652
:1054200049F621100EC085E2809FF001819FF00DAA
:105430001124E057FC4F81E898E09683858322246D
:105440002394CE010D960E94DE0C211081CE109285
:105450003201CE014E960E94270E7ACE8BE090E06C
:105460000E94AF2A8C01832D8150990B7C0185E22B
:105470008E9DF0018F9DF00D1124E057FC4FDF0150
:105480001D9613968C9113978F9312968C91129769
:105490008F9311968C918F9385858F938CE791E0F4
:1054A0009F938F931F928BE08F931F930F930E9474
:1054B0000C31B801CE014E960E94180E0FB6F8942A
:1054C000DEBF0FBECDBF0115110519F0C8010E9446
:1054D0004B2B85E28E9DF0018F9DF00D1124E0573E
:1054E000FC4F05811681B801CE0101960E94EF2C78
:1054F00061E878E0CE0101960E94E62C892B09F440
:1055000027CE6FE177E0CE0101960E94EF2CBE011D
:105510006F5F7F4FCE014E960E94180EB801CE01EC
:1055200001960E94EF2CBE016F5F7F4FCE014E9619
:105530000E94180E0DCE8FEF93E00E94DE0C85E0E6
:1055400094E00E94DE0C8BE094E00E94DE0C81E18E
:1055500094E00E94DE0C87E194E00C94DE0C0F9343
:105560001F93CF93DF938230910510F482E090E097
:10557000E0916104F091620430E020E0B0E0A0E04E
:10558000309799F42115310509F44AC0281B390BCD
:1055900024303105D8F58A819B816115710589F127
:1055A000FB0193838283FE0111C0408151810281FE
:1055B000138148175907E0F04817590799F41097D5
:1055C00061F012960C93129713961C933296CF01AA
:1055D000DF91CF911F910F91089500936104109373
:1055E0006204F4CF2115310551F04217530738F00A
:1055F000A901DB019A01BD01DF01F801C1CFEF0173
:10560000F9CF9093620480936104CDCFFE01E20F45
:10561000F31F819391932250310939832883D7CF87
:1056200020915F0430916004232B41F420913D01CF
:1056300030913E013093600420935F0420913B0140
:1056400030913C012115310541F42DB73EB7409111
:105650003F0150914001241B350BE0915F04F09114
:105660006004E217F307A0F42E1B3F0B281739073D
:1056700078F0AC014E5F5F4F2417350748F04E0FAE
:105680005F1F5093600440935F04819391939FCF79
:10569000F0E0E0E09CCFCF93DF930097E9F0FC01CE
:1056A000329713821282A0916104B0916204ED01DD
:1056B00030E020E01097A1F420813181820F931F08
:1056C00020915F04309160042817390709F061C008
:1056D000F0936004E0935F04DF91CF910895EA01B5
:1056E000CE17DF07E8F54A815B819E014115510520
:1056F000B1F7E901FB83EA8349915991C40FD51FA2
:10570000EC17FD0761F4808191810296840F951F4B
:10571000E90199838883828193819B838A83F0E066
:10572000E0E012968D919C9113970097B9F52D9119
:105730003C911197CD010296820F931F20915F0437
:10574000309160042817390739F6309751F51092D7
:10575000620410926104B0936004A0935F04BCCF14
:10576000D383C28340815181840F951FC817D90705
:1057700061F44E5F5F4F88819981480F591F5183B3
:1057800040838A819B81938382832115310509F0AF
:10579000B0CFF0936204E09361049ECFFD01DC0181
:1057A000C0CF13821282D7CFB0E0A0E0EAEDFBE2D7
:1057B0000C94CE2E5C016B017A016115710519F014
:1057C000FB0191838083E114F10449F0C701029742
:1057D000839728F060E070E0CB019CC05E01E5019A
:1057E0002196F5011081812F90E00E94DD2C892BFC
:1057F000A9F71D3209F056C02196F501118101E08B
:10580000E114F10409F4AEC0F0E1EF16F10409F07F
:105810008EC0103341F488818F7D883509F083C0B4
:10582000198122960260E0E1EE2EF12C88248A9400
:10583000982CA82CFFE0BF2E20E060E070E0CB01A8
:1058400027010F2C000C66087708FE0150ED352E5D
:10585000310E39E0331538F43FEB310F3A31A0F512
:1058600049EC342E310E3E141F04BCF52F3FB9F025
:1058700086169706A806B90670F1A30192010E9448
:10588000902E232D30E050E040E0620F731F841F04
:10589000951F6217730784079507E8F021E02196AA
:1058A0001081D3CF1B3221F4E5012296F50111813D
:1058B00000E0A6CF78E0E72EF12C88248A94982C7B
:1058C000A82C6FE1B62EB8CF3FE9310F3A3128F45A
:1058D00039EA332EC7CF2FEFE2CFC114D10431F014
:1058E0002223E9F02197F601D183C08300FF07C08E
:1058F00090958095709561957F4F8F4F9F4F2F3F6B
:1059000049F482E290E090936404809363046FEF23
:105910007FEFCB01CDB7DEB7E1E10C94EA2E01FFBA
:10592000E5CF2297E0CF10E3E114F10419F23AE059
:10593000E316F104E9F080E1E816F10409F473CF0D
:10594000E8E0EE16F10409F4B8CF6FEF7FEFCB017A
:1059500097010F2C000C440B550B0E94A02E4901FF
:105960005A016ACF103309F456CF9AE0E92EF12C90
:1059700089E9882E982CA82C89E1B82E5DCFFC01EE
:1059800088279927E89421912032E9F3293010F0F3
:105990002E30C8F32B3241F02D3239F4689404C014
:1059A0000E94282D820F911D219120532A30C0F38F
:1059B0001EF4909581959F4F089591110C946C2D34
:1059C000803219F089508550C8F70895FB01DC0139
:1059D0008D91059080190110D9F3990B0895FB0161
:1059E000DC0105900D920020E1F70895FC01A081F3
:1059F000B181AD01109681F03D91FB01019003163C
:105A00000110E1F7C9F7002011F4D00102C01E9285
:105A10001196FC01A083B183CA010895BB274A30C7
:105A200031F4992322F4BDE2909581959F4F0C9417
:105A3000532DBB272A3051F4992342F4BDE29095AF
:105A40008095709561957F4F8F4F9F4F0C94312DAE
:105A50007AE0979F902D879F802D910D11240895B6
:105A6000BB27FA01A62F6217710581059105330B3B
:105A700030FB66F0AA27660F771F881F991FAA1FA1
:105A8000A21710F0A21B63953850A9F7A05DAA33A6
:105A900008F0A95DA19336F7B111B1931082CA0144
:105AA0000C946F2DBB27FB015527AA27880F991F40
:105AB000AA1FA41710F0A41B83955051B9F7A05D3D
:105AC000AA3308F0A95DA193009779F7B111B193BA
:105AD0001192CB010C946F2D992788270895DC0132
