:100000000C9443040C946B040C946B040C946B04DC
:100010000C946B040C946B040C946B040C946B04A4
:100020000C946B040C946B040C946B040C946B0494
:100030000C946B040C946B040C946B040C946B0484
:100040000C9434110C946B040C94A4110C947E1138
:100050000C946B040C946B040C946B040C946B0464
:100060000C94D6110C946B04232D2D2D2D2D2D2D9C
:100070002D2D2D2D2D2D2D2D2D2D2D2D2D2D2D2DB0
:100080002D2D2D2D2D2D2D2D2D2D2D2D2D002309FB
:10009000636F6C6F726E616D653A20002309267381
:1000A000747269703A2000230926282A73747269D1
:1000B00070293A20002309706572635F6C69743A95
:1000C00020200023096E756D706978656C733A2085
:1000D000002309666C617368206F6E3A202000234C
:1000E000096379636C655F6D733A20200023096DA5
:1000F0006F64653A202020202020002309636F6C64
:100100006F723A202020202000230973697A655FEE
:100110006F663A20202000230926746869733A200C
:100120002020202000205D202D2D2D2D2D2D2D2D4A
:100130002D2D2D00232D2D2D2D2D2D2D2D2D2D2033
:10014000534C494E464F3A205B2000230021494E34
:1001500056414C49445F494E5055543A0056414C23
:1001600055455F4D495353494E470056414C5545FF
:100170005F4552524F5200415242002300232D2D21
:100180002D2D2D2D2D2D2D2D2D2D2D2D2D2D2D2D9F
:100190002D2D2D2D2D2D2D2D2D2D2D2D2D2D2D2D8F
:1001A0002D2D2D2D2D2D2D2D2D2D2D2D2D2D2D2D7F
:1001B0000023204465736372697074696F6E202830
:1001C00044455343292020202020203A200023208A
:1001D00043757272656E742056657273696F6E2016
:1001E00028564552292020203A20002320437572AA
:1001F00072656E742053746174696F6E2049442077
:1002000028534944293A2000232D2D2D2D2D2D2D05
:100210002D2D2D2D2D2D2D2D2D2D2D2D2D2D2D2D0E
:100220002D2D2D2D2D2D2D2D2D2D2D2D2D2D2D2DFE
:100230002D2D2D2D2D2D2D2D2D2D2D0023205479BF
:10024000706520273E48454C50272020666F72205D
:100250006D6F72652064657461696C2E00204020AA
:10026000002F002F002320434F4D50494C45442080
:100270004F4E3A2000232056455253494F4E2044BA
:100280004154453A2031312F31352F32303233004D
:1002900023205265642042796572202020206769FE
:1002A000746875622E636F6D2F6D697A72616974FF
:1002B0006800232D2D2D2D2D2D2D2D2D2D2D2D2D6A
:1002C0002D2D2D2D2D2D2D2D2D2D2D2D2D2D2D2D5E
:1002D0002D2D2D2D2D2D2D2D2D2D2D2D2D2D2D2D4E
:1002E0002D2D2D2D2D002320534E495045207634A1
:1002F00020666F722041726475696E6F00232D2D28
:100300002D2D2D2D2D2D2D2D2D2D2D2D2D2D2D2D1D
:100310002D2D2D2D2D2D2D2D2D2D2D2D2D2D2D2D0D
:100320002D2D2D2D2D2D2D2D2D2D2D2D2D2D2D2DFD
:1003300000232323232348454144455223232323D9
:100340002300230953686F77696E673A20002320E2
:10035000537461636B204C696768742053746172D5
:100360007475702053657175656E63650023232372
:100370002323524541445923232323230053494433
:100380005F3E5F32340042494E0030003100232D81
:100390002D2D2D2D2D2D2D2D2D2D2D2D2D2D2D2D8D
:1003A0002D2D2D2D2D2D2D2D2D2D2D2D2D2D2D2D7D
:1003B0002D2D2D2D2D2D2D2D2D2D2D2D2D2D2D2D6D
:1003C0002D002300232020204D6178204F7574706C
:1003D0007574204C656E6774683A200023202020D5
:1003E0004D617820534944204C656E6774683A200B
:1003F00000232020204D6178204E756D62657220AB
:100400006F6620546F6B656E733A200023202020A6
:100410004D617820496E70757420537472696E67EF
:10042000204C656E6774683A200023202020546FAA
:100430006B656E2069732020204944454E5449461F
:100440004945523A56414C55453A554E4954532028
:1004500020776865726520554E4954532069732092
:100460006F7074696F6E616C2000232020205245EC
:1004700053504F4E5345533A20204041303A313289
:10048000333A4152422020204044363A313A4249E0
:100490004E2020405349443A32393239002320203B
:1004A000204558414D504C45533A2020203E413084
:1004B0003A3F2020202020202020203E44363A3180
:1004C0002020202020203E5349443A32393239003E
:1004D00023202020004436002320202000534C58A5
:1004E00000534C5400534C5000534C4D00534C435C
:1004F00000534C42002320202000232020200023F2
:10050000202020436F6D6D616E6473206172653AC7
:1005100000232020203E203D20737461727420202F
:100520002040203D2072657370202023203D2063F1
:100530006F6D6D656E74202021203D206572726F95
:100540007200232020204C65616420636861726121
:100550006374657273206172653A0023202020461F
:100560006F726D61743A20203E434D443A56414CBF
:1005700055453C43523E3C4C463E00232053657259
:1005800069616C20436F6E74726F6C20496E737476
:1005900072756374696F6E7300232D2D2D2D2D2DB3
:1005A0002D2D2D2D2D2D2D2D2D2D2D2D2D2D2D2D7B
:1005B0002D2D2D2D2D2D2D2D2D2D2D2D2D2D2D2D6B
:1005C0002D2D2D2D2D2D2D2D2D2D2D2D0023004F9D
:1005D00055545F4F465F52414E474500425954457E
:1005E0005F53455454494E475F455252003F5F4D5B
:1005F000495353494E47004E4F4E455F464F554E67
:1006000044002C00444154415F4C454E4754485FE0
:1006100045525200307800554E4B4E4F574E5F4377
:100620004D445F455252004932460049325200491A
:100630003257004932420049325300493241005397
:100640004C494E464F00534C583300534C583200DF
:10065000534C583100534C543300534C54320053D4
:100660004C543100534C503300534C503200534CD7
:10067000503100534C4D3300534C4D3200534C4DD0
:100680003100534C433300534C433200534C4331FD
:1006900000534C423300534C423200534C42310021
:1006A00044350044340044330044320041330041B7
:1006B000320041310041300052414D005245424F1D
:1006C0004F54003F0048454C5000424545500042C1
:1006D0004C494E4B00444553430056455200534944
:1006E00044003A00400021002000FFF9F3EDE7E16B
:1006F000DCD7D1CCC7C2BEB9B4B0ACA8A3A09C987B
:1007000094918D8A8683807D7A7774716E6B696629
:1007100064615F5D5A58565452504E4C4A484745A2
:100720004342403E3D3B3A39373635333231302E45
:100730002D2C2B2A29282726252423232221201F5C
:100740001E1E1D1C1C1B1A1A191818171716161511
:100750001514141313121211111010100F0F0F0E85
:100760000E0E0D0D0D0C0C0C0B0B0B0B0A0A0A0ACE
:1007700009090909080808080807070707070706FD
:100780000606060606060505050505050505040415
:100790000404040404040404030303030303030321
:1007A0000303030303030202020202020202020223
:1007B000020202020202020202020101010101011F
:1007C0000101010101010101010101010101010119
:1007D0000101010101010101010101010101010109
:1007E00001010101010101000000000000002400DE
:1007F00027002A0000000000250028002B00000030
:100800000000230026002900040404040404040456
:1008100002020202020203030303030301020408AB
:10082000102040800102040810200102040810205A
:10083000000000080002010000030407000000009F
:100840000000000000424C41434B005748495445CA
:100850000056494F4C455400494E4449474F0042C9
:100860004C5545004151554100475245454E0059B0
:10087000454C4C4F57004F52414E4745005245445E
:1008800000000213192911241FBECFEFD8E0DEBFEC
:10089000CDBF11E0A0E0B1E0E2E8F4E602C00590CF
:1008A0000D92A639B107D9F724E0A6E9B1E001C05D
:1008B0001D92AF31B207E1F714E0C2E4D4E004C006
:1008C0002197FE010E94D32DC134D107C9F70E94A0
:1008D000A2140C9434320C940000CF93DF93A7E859
:1008E000B2E0C0E0DC2FDD0F4D2F50E0C817F9F06B
:1008F0009D91292F30E0E4E035952795EA95E1F7C1
:100900009F702A3080F4205D9A3078F4905D460F15
:10091000571FFA012083E1E0ED0FE60FF72FF11DDD
:100920009083CF5FDFCF295CEFCF995CF0CF640F6E
:10093000751FFB011082DF91CF91089508958330D8
:1009400081F028F4813099F08230A9F00895873041
:10095000A9F08830C9F08430B1F4809180008F7D97
:1009600003C0809180008F7780938000089584B5C4
:100970008F7784BD089584B58F7DFBCF8091B000C3
:100980008F778093B00008958091B0008F7DF9CF6C
:10099000CF93DF93282F30E0F901E05DF74F84918A
:1009A000F901E45EF74FD491F901E85FF74FC49184
:1009B000CC23A1F081110E949F04EC2FF0E0EE0FF8
:1009C000FF1FE250F84FA591B491EC91ED2381E027
:1009D00090E009F480E0DF91CF91089580E090E00D
:1009E000FACF1F93CF93DF93282F30E0F901E05D1A
:1009F000F74F8491F901E45EF74FD491F901E85F74
:100A0000F74FC491CC23A9F0162F81110E949F04A7
:100A1000EC2FF0E0EE0FFF1FEC50F84FA591B491D2
:100A20008FB7F894EC91111108C0D095DE23DC93B8
:100A30008FBFDF91CF911F910895DE2BF8CFCF9319
:100A4000DF9390E0FC01E45EF74F2491885F974FBD
:100A5000FC0184918823D1F090E0880F991FFC015C
:100A6000E651F84FA591B491FC01EC50F84FC591B7
:100A7000D49161110EC09FB7F8948C91E22FE0954C
:100A80008E238C932881E223E8839FBFDF91CF914F
:100A900008958FB7F894EC91E22BEC938FBFF6CFCB
:100AA0008E50806480937C0080917A008064809373
:100AB0007A0080917A0086FDFCCF80917800909139
:100AC000790008953FB7F8948091330290913402F1
:100AD000A0913502B091360226B5A89B05C02F3FE4
:100AE00019F00196A11DB11D3FBFBA2FA92F982F54
:100AF0008827BC01CD01620F711D811D911D42E04F
:100B0000660F771F881F991F4A95D1F708958F9216
:100B10009F92AF92BF92CF92DF92EF92FF924B01E2
:100B20005C010E9462056B017C010E9462056C19E8
:100B30007D098E099F09683E734081059105A8F3E0
:100B400021E0821A9108A108B10888EEC80E83E05E
:100B5000D81EE11CF11C81149104A104B10429F7F1
:100B6000FF90EF90DF90CF90BF90AF909F908F90CD
:100B700008952FB7F89460912F0270913002809100
:100B80003102909132022FBF089508950895AF92D7
:100B9000BF92CF92DF92EF92FF920F931F93CF936A
:100BA000DF936C017B018B01040F151FEB015E01CC
:100BB000AE18BF08C017D10759F06991D601ED9161
:100BC000FC910190F081E02DC6010995892B79F700
:100BD000C501DF91CF911F910F91FF90EF90DF90B2
:100BE000CF90BF90AF900895FC01538D448D252F79
:100BF00030E0842F90E0821B930B541710F0CF96B7
:100C0000089501970895FC01918D828D981761F0E8
:100C1000A28DAE0FBF2FB11D5D968C91928D9F5FFF
:100C20009F73928F90E008958FEF9FEF08950F9339
:100C30001F930E94B9056093AF027093B002809336
:100C4000B1029093B20287EA92E00E94030697FFF6
:100C50001DC00E94B9050091AF021091B002209111
:100C6000B1023091B202601B710B820B930B0091A9
:100C7000AB021091AC022091AD023091AE02601730
:100C8000710782079307F8F28FEF9FEF1F910F9183
:100C90000895FC01918D828D981731F0828DE80FB7
:100CA000F11D858D90E008958FEF9FEF0895FC0171
:100CB000918D228D892F90E0805C9F4F821B91093E
:100CC0008F739927089587EA92E00E945706892B2F
:100CD00031F06AE070E080E090E00C9487050895C0
:100CE00087EA92E00E94570621E0892B09F420E070
:100CF000822F0895FC01A48DA80FB92FB11DA35A0E
:100D0000BF4F2C91848D90E001968F739927848F2B
:100D1000A689B7892C93A089B1898C91837080644E
:100D20008C93938D848D981306C00288F389E02DEF
:100D300080818F7D80830895EF92FF920F931F93A0
:100D4000CF93DF93EC0181E0888F9B8D8C8D98137E
:100D50001AC0E889F989808185FF15C09FB7F8948A
:100D6000EE89FF896083E889F989808183708064D6
:100D700080839FBF81E090E0DF91CF911F910F9121
:100D8000FF90EF900895F62E0B8D10E00F5F1F4F30
:100D90000F731127E02E8C8D8E110CC00FB607FC3F
:100DA000FACFE889F989808185FFF5CFCE010E94CD
:100DB0007A06F1CFEB8DEC0FFD2FF11DE35AFF4FBB
:100DC000F0829FB7F8940B8FEA89FB89808180625B
:100DD000CFCF0F931F93CF93DF938C01D0E0C0E070
:100DE000F801EC0FFD1F6491662341F087EA92E061
:100DF0000E949C06892B11F02196F2CFCE01DF9143
:100E0000CF911F910F910895CF93DF93EC01888DBF
:100E10008823B9F0AA89BB89E889F9898C9185FD75
:100E200003C0808186FD0DC00FB607FCF7CF8C9103
:100E300085FFF2CF808185FFEDCFCE010E947A063B
:100E4000E9CFDF91CF9108958F929F92AF92BF9299
:100E5000CF92DF92EF92FF921F93CF93DF93FC012B
:100E60004A01AA24BB24C82DC32ED42EE52EFF246C
:100E70001C2DD22F8085882361F0889E400111248B
:100E8000C92D8C9D600111241D2D829FD00111243C
:100E9000DB2FA685E184F2849385A91322C0CB01C0
:100EA000880F991F680F791F6E0D7F1DA385A60FF0
:100EB000B72FB11DCC93A485A60FB72FB11D1C93DE
:100EC0008585680F711DFB01D083DF91CF911F9144
:100ED000FF90EF90DF90CF90BF90AF909F908F905A
:100EE0000895660F771F660F771F6E0D7F1D252FE4
:100EF000332744275527882349F090E0829F7001CB
:100F0000839FF00C929FF00C11242F2DA60FB72F6A
:100F1000B11D2C93CBCFFF920F931F93CF93DF93F1
:100F2000EC01FF24F394F60E28852F1581F1098535
:100F30001A85215041F16F3FE1F430E050E040E08C
:100F40006FEF7FEF80E090E00E94AD2DB901F801D6
:100F50004C815D81CF01801B910B84179507B0F404
:100F60004081469FC001479F900D11249083319688
:100F7000EFCF8F2D90E0982F88270197622F70E098
:100F80000E94992DE4CF70E060E0E1CFF886DF9118
:100F9000CF911F910F91FF900895CF92DF92EF9222
:100FA000FF920F931F93CF93DF93CDB7DEB72997AF
:100FB0000FB6F894DEBF0FBECDBF8C01DC011996D1
:100FC0008D919C91892B09F473C00E946205F801F0
:100FD000C784D088E188F2886C157D058E059F0551
:100FE00020F46787708B818B928BF801C784D0883F
:100FF000E188F2886C197D098E099F096C32714075
:101000008105910510F3F894D80114968D919C9167
:1010100015979A8389831996ED91FC917F01BFEF13
:10102000EB1AFB0A80818987F80190810388F48993
:10103000E02DD80155968C91992309F448C09081F0
:10104000982B98879081809589238F838F818C83BB
:1010500088E08B8358856F8149853B812C8189810C
:101060009A81D701508347FD252F3A952083262F5B
:1010700039F0441F00C000006083000000C0F2CFC0
:1010800038E04D9160830000019761F7D8015496D4
:10109000FC93EE93539749873B832C839A838983F0
:1010A00078940E946205F8016787708B818B928B20
:1010B00029960FB6F894DEBF0FBECDBFDF91CF915A
:1010C0001F910F91FF90EF90DF90CF900895908146
:1010D000982B98879081809589238F838F818E8329
:1010E00088E08D8358856F8149853D812E81898176
:1010F0009A81D701508347FD252F00C000C020836F
:1011000000C000C000C000C000C060830000262FE7
:101110003A9541F0441F000000C000C000C000C06C
:1011200000C0E8CF38E04D9100C0608300C0019757
:1011300009F7D8015496FC93EE93539749873D8362
:101140002E83ACCF2091B801260F3327331F2132D5
:101150003105ECF420915D02FC0190E080E0243048
:1011600069F082E00895A091B8012191AC01485640
:101170005E4FA40FB52FB11D2C930196861798F3DF
:101180008091B801680F6093B80180E0089581E014
:10119000089510925D0281E080935C021092370204
:1011A00061E082E10E94F10461E083E10E94F104C8
:1011B000E9EBF0E080818E7F808380818D7F80836A
:1011C00088E48093B80085E48093BC000895CF93B1
:1011D000DF9391E0909397018823B9F0C091B80014
:1011E000D091BA008091BC008A7B8093BC0060E003
:1011F00082E10E94F10460E083E10E94F1040E9418
:10120000C908D093BA00C093B800DF91CF91089578
:101210008F929F92AF92BF92CF92DF92EF92FF9206
:101220000F931F93CF93DF93D0918602D13208F0B2
:10123000D7C0182FC09185020E9462056B017C0106
:1012400080915D0281116BC082E080935D021093FA
:101250005C028FEF80935B0210925A02D093590286
:10126000A5E6B2E0E9E3F2E080E0D81391C0109285
:10127000380280913802CC0FC82BC093380280917D
:101280003702813009F088C0109237020E9462054F
:101290006B017C01809138028093BB0080915F02DA
:1012A00090916002A0916102B0916202892B8A2B19
:1012B0008B2BA1F00E94620500915F0210916002E9
:1012C00020916102309162026C197D098E099F099B
:1012D000061717072807390708F442C08091BC0099
:1012E00083FDD8CF85EC8093BC000E9462056B0122
:1012F0007C0180915D02823009F450C080915B02D4
:101300008F3F09F46FC080915B02803209F46CC09A
:1013100080915B02803309F469C084E026C080912B
:101320005F0290916002A0916102B0916202892BEC
:101330008A2B8B2B09F484CF0E94620580905F0278
:1013400090906002A0906102B09062026C197D09D9
:101350008E099F0986169706A806B90608F070CF71
:1013600080915E020E94E70885E01092640210926C
:10137000860210926302DF91CF911F910F91FF902F
:10138000EF90DF90CF90BF90AF909F908F90089597
:101390009D9191938F5F69CF85EEA5CF80915F027C
:1013A00090916002A0916102B0916202892B8A2B18
:1013B0008B2B09F49ECF0E94620500915F02109171
:1013C000600220916102309162026C197D098E09E0
:1013D0009F09061717072807390708F08ACFC0CFDB
:1013E00081E0C3CF80E0C1CF82E0BFCF83E0BDCF3B
:1013F0000895E091E0018091DF01E81730F4F0E01A
:10140000EF51FE4F808190E008958FEF9FEF089598
:101410009091E0018091DF012FEF3FEF981748F4A2
:10142000E92FF0E0EF51FE4F208130E09F5F909375
:10143000E001C90108958091DF019091E001891BCD
:10144000990B0895CF92DF92EF92FF920F931F9323
:10145000CF93DF937C01CB018A0120916302222389
:1014600089F0EB016B01C40ED51ECC15DD0569F0CA
:101470006991D701ED91FC910190F081E02DC701B8
:101480000995F3CF642F0E94A208C801DF91CF9184
:101490001F910F91FF90EF90DF90CF900895CF9321
:1014A000DF931F92CDB7DEB76983209163022223B9
:1014B000F9F020918602203258F021E030E0FC0162
:1014C0003383228390E080E00F90DF91CF910895E5
:1014D00080916402E82FF0E0EB59FD4F99819083F1
:1014E0008F5F809364028093860281E090E0ECCF6E
:1014F00061E0CE0101960E94A208F7CF90E080E063
:101500000895CF93DF93EC01FE0164912196662349
:1015100029F087EA92E00E949C06F6CFDF91CF91F6
:1015200008950F931F93CF93DF938C01C4E6D0E00F
:10153000F80161918F01CE010E94FC2C2196CB36DF
:10154000D105B1F787E090E0DF91CF911F910F9126
:1015500008950F931F93CF93DF9300E011E0D0E045
:10156000C0E0F80161918F01CE010E94FC2CF801CE
:1015700031978081882371F0C631D10549F460E04C
:1015800087E190E0DF91CF911F910F910C94FC2C9B
:101590002196E7CFDF91CF911F910F910895FC0124
:1015A00001900020E9F73197AF01481B590BBC01AE
:1015B00087EA92E00C94C70580E691E00C94CF0A8C
:1015C000CF93DF930E94E906EC010E94DC0A8C0FA6
:1015D0009D1FDF91CF910895CF93DF93FC0144814C
:1015E00055816081718187EA92E00E94C705EC0114
:1015F0000E94DC0A8C0F9D1FDF91CF9108958F927E
:101600009F92AF92BF920F931F93CF93DF93CDB76B
:10161000DEB7A1970FB6F894DEBF0FBECDBF19A2FB
:10162000423008F44AE08E010F5D1F4F842E912C4A
:10163000B12CA12CA50194010E941A2DE62FB9010D
:10164000CA01EA30F4F4E05DD801EE938D01232B5A
:10165000242B252B79F790E080E0109719F0CD012D
:101660000E94CF0AA1960FB6F894DEBF0FBECDBF81
:10167000DF91CF911F910F91BF90AF909F908F906E
:101680000895E95CE1CFCF93DF93BC0190E080E067
:101690004AE00E94FF0AEC010E94DC0A8C0F9D1FA9
:1016A000DF91CF910895CF93DF93682F70E090E0A2
:1016B00080E04AE00E94FF0AEC010E94DC0A8C0FE5
:1016C0009D1FDF91CF910895CF93DF93BC01990FB8
:1016D000880B990B4AE00E94FF0AEC010E94DC0A89
:1016E0008C0F9D1FDF91CF910895CF93DF930E94C0
:1016F000CF0AEC010E94DC0A8C0F9D1FDF91CF9175
:101700000895CF93DF9381E393E00E94E00A8DEF89
:1017100092E00E94E00A86EE92E00E94E00A82EBEC
:1017200092E00E94E00A80E992E00E94E00A85E7E8
:1017300092E00E94E00A85E692E00E94E906C7ED89
:10174000D3E0698170E090E080E04AE00E94FF0A07
:1017500083E692E00E94E9066A8170E090E080E012
:101760004AE00E94FF0A81E692E00E94E906688151
:1017700070E06053784F072E000C880B990B4AE0FD
:101780000E94FF0A8DE592E00E94E9066B8170E0FD
:1017900090E080E04AE00E94FF0A8C810E94530B97
:1017A0008CE392E00E94E00A88E092E00E94E00A66
:1017B0008BEE91E00E94E90680E091E00E94750BBB
:1017C0008EEC91E00E94E90681ED93E00E94EC0A24
:1017D00081EB91E00E94E9068BEC93E00E94EC0A19
:1017E0008DE791E00E94E00A8BE791E0DF91CF91D5
:1017F0000C94E00ACF93DF93EC018091C5039091A4
:10180000C6030097E9F06881798161157105B1F02F
:101810004091C7035091C8032C813D814217530763
:1018200068F00E94702F8C819D819093CA038093F1
:10183000C9031D821C82DF91CF9108950E94C529A2
:10184000888199819093C6038093C5038A819B8187
:101850009093C8038093C7038C819D819093CA03A2
:101860008093C903198218821B821A82E2CFFC017D
:1018700080819181009711F00C94C52908950F93F0
:101880001F93CF93DF93CDB7DEB72C970FB6F894A5
:10189000DEBF0FBECDBF8C018BE491E00E94E00A59
:1018A00084E391E00E94E906F801608170E090E035
:1018B00080E04AE00E94FF0A85E291E00E94E00A8F
:1018C00087E191E00E94E906C8010E94430B89E08C
:1018D00091E00E94E90685E290E00E94430B8BEFC5
:1018E00090E00E94E906F8016585768587859089F4
:1018F00040E10E94FF0A0E94DC0A8DEE90E00E9407
:10190000E906F80181850E94530B8FED90E00E945B
:10191000E906F801828D938D0E94430B81ED90E0E2
:101920000E94E906F801848D90E00E94640B83EC2C
:1019300090E00E94E906F80180850E94530B85EB38
:1019400090E00E94E906F801818D0E94530B87EA1E
:1019500090E00E94E906C80103960E94430B8CE9BF
:1019600090E00E94E906F801838194810E94430B74
:10197000F80165817681CE0101960E94692B8EE87F
:1019800090E00E94E906CE0101960E94750B88E660
:1019900090E00E94E00A2C960FB6F894DEBF0FBECE
:1019A000CDBFDF91CF911F910F9108950F931F939A
:1019B000CF93DF93EC0188819981009759F02A81B8
:1019C0003B812617370730F081E0DF91CF911F91DF
:1019D0000F9108958B016F5F7F4F0E94812E0097BA
:1019E00059F0998388831B830A832C813D81232BA3
:1019F00059F7FC011082E8CF80E0E7CFEF92FF9229
:101A00000F931F93CF93DF93EC017B01FB010190B8
:101A10000020E9F731978F01061B170BB8010E94D0
:101A2000D60C28813981811113C02115310519F097
:101A3000C9010E94C529198218821D821C821B823D
:101A40001A82DF91CF911F910F91FF90EF9008952F
:101A50001D830C83B701C901DF91CF911F910F91B5
:101A6000FF90EF900C94702FEF92FF920F931F93C3
:101A7000CF93DF936115710541F480E0DF91CF9141
:101A80001F910F91FF90EF90089541155105B1F00E
:101A90007B01EC010C811D81040F151FB8010E9410
:101AA000D60C882351F3288139818C819D81B7011F
:101AB000820F931F0E94702F1D830C8381E0DECF65
:101AC000EF92FF920F931F93CF93DF93CDB7DEB7C3
:101AD00028970FB6F894DEBF0FBECDBF7C01CB01B7
:101AE0004AE08E010F5F1F4FB8010E94882BF8015A
:101AF00001900020E9F73197AF01401B510BB8016D
:101B0000C7010E94340D28960FB6F894DEBF0FBEB1
:101B1000CDBFDF91CF911F910F91FF90EF9008956E
:101B20006115710551F0FB0101900020E9F7319733
:101B3000AF01461B570B0C94340D80E008950F93B2
:101B40001F93CF93DF93CDB7DEB768970FB6F894A6
:101B5000DEBF0FBECDBF8C016BE671E0CE010196FA
:101B60000E94692BBE016F5F7F4FC8010E94900DDC
:101B700068960FB6F894DEBF0FBECDBFDF91CF9150
:101B80001F910F9108950F931F93CF93DF93CDB7BC
:101B9000DEB768970FB6F894DEBF0FBECDBFE091F9
:101BA0000702F0910802309719F02081211119C025
:101BB0008C016DE571E0CE0101960E94692BBE019A
:101BC0006F5F7F4FC8010E94900D81E068960FB64D
:101BD000F894DEBF0FBECDBFDF91CF911F910F9163
:101BE000089580E0F3CF0F931F93CF93DF9300D03E
:101BF000CDB7DEB78C0160910502709106020E949C
:101C0000900D62EE76E0CE0101960E94692BBE0136
:101C10006F5F7F4FC8010E94900D0F900F90DF9172
:101C2000CF911F910F910895FB01448155816081EF
:101C300071810C94340D0F931F93CF93DF9300D0D9
:101C40001F92CDB7DEB78C0168EE76E0CE0101962B
:101C50000E94692BBE016F5F7F4FC8010E94900DEB
:101C6000B8018FEB93E00E94140E0F900F900F902D
:101C7000DF91CF911F910F910895EF92FF920F93F3
:101C80001F93CF93DF93EC01198218821B821A8273
:101C90001D821C8261157105E1F08B01FB01019031
:101CA0000020E9F731977F01E61AF70AB7010E9491
:101CB000D60C28813981811113C02115310519F005
:101CC000C9010E94C529198218821D821C821B82AB
:101CD0001A82DF91CF911F910F91FF90EF9008959D
:101CE000FD82EC82B801C901DF91CF911F910F9164
:101CF000FF90EF900C94702FEF92FF921F93CF9371
:101D0000DF93CDB7DEB760970FB6F894DEBF0FBE96
:101D1000CDBF182F62E671E0CE010B960E943D0EFA
:101D2000CE010B960E94F30DCE010B960E94C30DBF
:101D30008823B1F010921901CE010B960E941B0E60
:101D4000CE010B960E94370C60960FB6F894DEBF5A
:101D50000FBECDBFDF91CF911F91FF90EF900895FF
:101D6000E0900702F090080263EC76E0C7010E9461
:101D7000602B892B19F5812F0E94C804BC01CE016C
:101D80000B960E94600D62EE76E0CE0101960E94F5
:101D9000692BBE016F5F7F4FCE010B960E94900DA5
:101DA00066E873E0CE0101960E94692BBE016F5F69
:101DB0007F4FCE010B960E94900DBECF6CE873E072
:101DC000C7010E94602B61E0892B41F06AE873E053
:101DD000C7010E94602B892B29F460E0812F0E94AB
:101DE000F104C9CF10921901CE010B960E949F0DEC
:101DF000A3CF85ED8093BC0080915F02909160023B
:101E0000A0916102B09162020796A11DB11D23E06D
:101E1000B695A795979587952A95D1F72091BC00FF
:101E200024FD03C010925D02089540915F0250911D
:101E300060026091610270916202452B462B472B34
:101E400069F30097A105B10541F025E32A95F1F763
:101E500000000197A109B109E1CF80915E020C94C5
:101E6000E708AF92BF92DF92EF92FF920F931F931A
:101E7000CF93DF938C0186E190E00E942929EC0149
:101E8000D80112964C911297842F90E01196DC9015
:101E900011971896EC90198218861F86188A198A4D
:101EA0001A8ABC0126E0769567952A95E1F76E8738
:101EB0009C0154E0369527955A95E1F723702B87BE
:101EC000969587959695879583708C8743704D87F7
:101ED00081E0888383E090E0261711F084E090E0B1
:101EE000F12CE89E5001E99EB00CF89EB00C112434
:101EF000BD82AC82C5010E9429299A8789870097F3
:101F000009F45BC0A50170E060E00E94692FFB82CC
:101F1000EA82ED2CF12CFF82EE828981882341F048
:101F200061E08D2D0E941F0560E08D2D0E94F1045F
:101F3000F701E85FF74FE491F0E0EE0FFF1FEC5080
:101F4000F84F859194919C8B8B8BF701E45EF74F52
:101F5000E491ED8BF801D483C3838E819F8197FD3B
:101F600007C061E00E941F0560E08E810E94F104BD
:101F700081E08983D8011396ED91FC9144815581CC
:101F800070E060E0818592850E94692F6FEFF80113
:101F9000838194810E948B070E946306D801139667
:101FA0008D919C91DF91CF911F910F91FF90EF90B8
:101FB000DF90BF90AF900C94CD071D821C821B82D6
:101FC0001A82A7CF1F93CF93DF93CDB7DEB7A39726
:101FD0000FB6F894DEBF0FBECDBF182F62E671E0DA
:101FE000CE0148960E943D0E62E671E0CE014E960B
:101FF0000E943D0ECE0148960E94F30DE12FF0E0C5
:10200000EE0FFF1FE35EFD4F808191811B8A1A8ACC
:102010001D8A1C8A1F8A1E8A4AE0BE016F5F7F4F9D
:102020000E94CC2BBE016F5F7F4FCE0142960E9473
:10203000FE0CBE016E5E7F4FCE0148960E94140ECC
:10204000CE0142960E94370C62EE76E0CE010196F8
:102050000E94692BBE016F5F7F4FCE0148960E94A0
:10206000900D67E771E0CE0101960E94692BBE01D9
:102070006F5F7F4FCE0148960E94900DCE0148962B
:102080000E941B0ECE014E960E94370CCE01489640
:102090000E94370CA3960FB6F894DEBF0FBECDBFDB
:1020A000DF91CF911F910895AF92BF92CF92DF92AF
:1020B000EF92FF920F931F93CF93DF93CDB7DEB7CD
:1020C0006A970FB6F894DEBF0FBECDBF87EA92E0E5
:1020D0000E945706181619060CF051C087EA92E0C4
:1020E0000E94030680930402809104028E3309F05B
:1020F00094C081E08093960162E671E0CE01019682
:102100000E943D0ECE0101960E94FA0BCE0101966F
:102110000E94370C62E671E0CE0101960E943D0EEE
:102120000E94170697FD0FC08A30910561F0898FD4
:102130001A8E41E050E0BE01675E7F4FCE010196EE
:102140000E94340DEDCFCE0101960E94FA0BCE0114
:1021500001960E94370CC090C503D090C603C114ED
:10216000D10441F00091C9031091CA037601011511
:102170001105B9F481E080932D02109296016A96C0
:102180000FB6F894DEBF0FBECDBFDF91CF911F9188
:102190000F91FF90EF90DF90CF90BF90AF90089598
:1021A000750157018FEFA81AB80AF7018081082E30
:1021B000000C990B0E94572B892B91F701501109A4
:1021C0000C0D1D1DF8018081082E000C990B0E943A
:1021D000572B892B31F00E151F0518F001501109EE
:1021E000F1CFA8014F5F5F4F4E195F095093CA03AB
:1021F0004093C903CE14DF0420F4B701C6010E9446
:10220000602FE091C503F091C6038091C9039091BE
:10221000CA03E80FF91F1082ADCF80910402082E87
:10222000000C990B0E94572B892B09F04FCF6DE4BE
:1022300071E0CE0101960E94692B109296011092D6
:102240002D02CE0101960E94CF0A6091040287EA16
:1022500092E00E949C060E94DC0A38CF0E94700621
:1022600081110C94541008951F920F920FB60F9283
:1022700011242F933F938F939F93AF93BF9380919C
:102280002F0290913002A0913102B0913202309130
:102290002E0223E0230F2D3758F50196A11DB11D05
:1022A00020932E0280932F0290933002A09331024C
:1022B000B09332028091330290913402A0913502A2
:1022C000B09136020196A11DB11D80933302909307
:1022D0003402A0933502B0933602BF91AF919F9123
:1022E0008F913F912F910F900FBE0F901F901895D7
:1022F00026E8230F0296A11DB11DD2CF1F920F9287
:102300000FB60F9211242F933F934F935F936F93C8
:102310007F938F939F93AF93BF93EF93FF9387EA3E
:1023200092E00E947A06FF91EF91BF91AF919F9149
:102330008F917F916F915F914F913F912F910F906E
:102340000FBE0F901F9018951F920F920FB60F920D
:1023500011242F938F939F93EF93FF93E091B702F4
:10236000F091B8028081E091BD02F091BE0282FD41
:102370001BC090818091C0028F5F8F732091C1023A
:10238000821741F0E091C002F0E0E955FD4F958FD2
:102390008093C002FF91EF919F918F912F910F90A9
:1023A0000FBE0F901F9018958081F4CF1F920F924F
:1023B0000FB60F9211242F933F934F935F936F9318
:1023C0007F938F939F93AF93BF93EF93FF938091EE
:1023D000B900887F803609F44AC0F0F5883209F4E4
:1023E000A7C018F5803109F49BC0B8F4882309F41C
:1023F000F9C0883009F494C0FF91EF91BF91AF917B
:102400009F918F917F916F915F914F913F912F910C
:102410000F900FBE0F901F901895883109F488C057
:10242000803251F780935B0214C0803409F49DC060
:1024300040F48033B9F38833F9F680935B0285EC7E
:10244000B0C0803509F485C0883509F496C0883459
:1024500099F60E94F90ED0CF883909F48CC038F56E
:10246000883729F050F4883611F0803729F683E058
:1024700080935D021092DA0157C0883809F47BC05E
:10248000803919F0803809F0B7CF8091DA018032B5
:1024900008F071C0E091DA0181E08E0F8093DA01DB
:1024A0008091BB00F0E0E654FE4F80833DC0803B4E
:1024B00039F0E0F4803A09F479C0883A09F09CCF09
:1024C00084E080935D021092B9011092B801E0910E
:1024D000DD01F091DE0109958091B80181110FC0F5
:1024E00081E08093B8011092980109C0803C09F402
:1024F000A6CF883C09F4A3CF883B09F07DCFE091BB
:10250000B90181E08E0F8093B901F0E0E856FE4FEB
:1025100080818093BB009091B9018091B80129C05E
:10252000809138028093BB0085EC8093BC0064CF1F
:1025300090915A0280915902981758F5E0915A02E9
:1025400081E08E0F80935A02F0E0E75CFD4F8081BE
:10255000E9CFE0915A0281E08E0F80935A02809178
:10256000BB00F0E0E75CFD4F808390915A028091C0
:1025700059029817C8F285E8D8CFE0915A0281E055
:102580008E0F80935A028091BB00F0E0E75CFD4F14
:10259000808380915C0281115CCF81E0809337025F
:1025A00084EA8093BC0010925D0226CF85EC809374
:1025B000BC0010925D028091DA01803230F4E0912B
:1025C000DA01F0E0E654FE4F10826091DA0170E02B
:1025D000E091DB01F091DC018AEB91E0099510922A
:1025E000DA010ACF10925B0234CFFC019081905344
:1025F0009A3008F090E0818180532AE0929F800D0C
:1026000011240895CF93DF93E7EAF2E01382128258
:1026100088EE93E0A0E0B0E084839583A683B7833F
:1026200020E431E03183208325EC30E035872487B6
:1026300024EC30E03787268720EC30E0318B208B8C
:1026400021EC30E0338B228B22EC30E0358B248B75
:1026500026EC30E0378B268B118E128E138E148E63
:10266000E4E4F3E01382128284839583A683B78324
:1026700082E591E09183808384E791E00E94F512E6
:10268000C7EDD3E088838BE089838FE691E00E94D9
:10269000F5128A8387E791E00E94F5128B838AE71F
:1026A00091E00E94F5128C838DE791E00E94F51273
:1026B0008D8360E871E081ED93E00E943D0E64E857
:1026C00071E08BEC93E00E943D0E62E671E085ECD8
:1026D00093E00E943D0E62E671E08FEB93E00E9472
:1026E0003D0EE0E5F3E091E0908387E08183A2E591
:1026F000A283978370E17087118612868FEF83879C
:102700008487158616861786108A118A128A138A7C
:10271000148A158A168A178A108E64E6618F48EE2D
:1027200053E0538F428F148E158E168E178E10A283
:1027300011A212A213A214A224E438E03683258346
:10274000B2E0B5A3B8E0B6A3A7A394A775A716A651
:1027500017A680AB81AB12AA13AA14AA15AA16AAAF
:1027600017AA10AE11AE12AE13AE14AE15AE66AF10
:102770005093900340938F03109291031092920311
:102780001092930310929403109295031092960363
:1027900010929703109298031092990333A722A7DF
:1027A000E3E0E0939A03E9E0E0939B03A0939C03AA
:1027B0009093A1037093A2031092A3031092A40319
:1027C0008093A5038093A6031092A7031092A803F9
:1027D0001092A9031092AA031092AB031092AC03BB
:1027E0001092AD031092AE031092AF031092B0039B
:1027F0001092B1031092B2036093B3035093B503E8
:102800004093B4031092B6031092B7031092B8032A
:102810001092B9031092BA031092BB031092BC033A
:102820001092BD031092BE033093A00320939F0328
:10283000E3E1F4E08DE798E09183808380E090E02D
:10284000AFEFB0E082839383A483B583EDE0F4E03F
:1028500086E798E09183808380E095E5AFEFB0E074
:1028600082839383A483B583E7E0F4E08FE698E066
:102870009183808380E09FEFAFEFB0E0828393830A
:10288000A483B583E1E0F4E089E698E09183808356
:1028900080E09FEFA0E0B0E082839383A483B583C0
:1028A000EBEFF3E084E698E0918380838FEF9FEF76
:1028B000A0E0B0E082839383A483B583E5EFF3E0E7
:1028C0008FE598E0918380838FEF90E0A0E0B0E007
:1028D00082839383A483B583EFEEF3E088E598E0E9
:1028E000918380838FEF90E0A3E3B0E082839383B2
:1028F000A483B583E9EEF3E081E598E091838083DA
:102900008FEF90E0DC0182839383A483B583E3EEB1
:10291000F3E08BE498E0918380838FEF9FEFAFEF3C
:10292000B0E082839383A483B583EDEDF3E085E487
:1029300098E0918380831282138214821582DF9142
:10294000CF910895CF93DF93CDB7DEB7EE970FB653
:10295000F894DEBF0FBECDBF789484B5826084BD8D
:1029600084B5816084BD85B5826085BD85B5816093
:1029700085BD80916E00816080936E001092810011
:1029800080918100826080938100809181008160CC
:10299000809381008091800081608093800080918D
:1029A000B10084608093B1008091B0008160809319
:1029B000B00080917A00846080937A0080917A00E0
:1029C000826080937A0080917A00816080937A009F
:1029D00080917A00806880937A001092C10060E054
:1029E0008EE00E941F0560E08FE00E941F0560E0FE
:1029F00080E10E941F0560E081E10E941F0561E007
:102A000082E00E941F0561E083E00E941F0561E0F3
:102A100084E00E941F0561E085E00E941F0561E0DF
:102A200086E00E941F0561E087E00E941F0561E0CB
:102A300088E00E941F0561E089E00E941F0561E0B7
:102A40008DE00E941F0560E082E00E94F10460E0DA
:102A500083E00E94F10460E084E00E94F10460E001
:102A600085E00E94F10460E086E00E94F10460E0ED
:102A70008DE00E94F104E091B702F091B80282E08B
:102A80008083E091B302F091B4021082E091B5022C
:102A9000F091B60280E180831092BF02E091BB0208
:102AA000F091BC0286E08083E091B902F091BA0215
:102AB000808180618083E091B902F091BA028081C7
:102AC00088608083E091B902F091BA0280818068C9
:102AD0008083E091B902F091BA0280818F7D80837A
:102AE00082E390E0A0E0B0E08093AB029093AC0270
:102AF000A093AD02B093AE021092E0011092DF01FC
:102B000010926402109286020E94C90885EC95E03A
:102B10009093DE018093DD0186EC95E09093DC01DB
:102B20008093DB0161E670E08FEB93E00E94D60CAE
:102B300061E470E085EC93E00E94D60C0E94810B6A
:102B400087E090E00E9429298C01909327028093CE
:102B500026020E94B905609328027093290280938F
:102B60002A0290932B02F12CE12CC7010E94F42C35
:102B70008F3F09F045C02FEFE21AF20A3AE0E31660
:102B8000F10499F7DD24D394580174E6E72EF12C73
:102B9000C7010E94F42CD5018D935D01BFEFEB1AA4
:102BA000FB0AEBE6EE16F10499F7D8018C918450FC
:102BB0008B3F40F184E08C9381E0F801918191306A
:102BC00029F081E0818380E1828381E0D80113963E
:102BD0009C911397923041F082E013968C93139757
:102BE0008EE114968C9381E0F8019581933061F029
:102BF00083E0858381E08683C8010E94910A06C034
:102C0000D12CC2CF80E0D9CF8111F6CFE09126023E
:102C1000F09127028081843011F4DD2009F184E0F5
:102C2000808381E0818390E1928392E093839CE3AF
:102C3000948393E09583868310E000E060E0C80110
:102C40000E94FC2C0F5F1F4F0115F4E01F07B1F726
:102C50000E94A90A80912602909127020E94910A5F
:102C600060E0E62E61E0F62E10E000E0C8010E9470
:102C7000F42CD7018D937D01882331F006311105A5
:102C800009F0F1C01092170100912602109127025D
:102C9000F80182818093580380E593E00E94310F10
:102CA000D80114968C9180937D0385E793E00E9470
:102CB000310FF80186818093A2038AE993E00E9494
:102CC000310F10922C028EE493E00E94E00A809172
:102CD0001304909114049EA38DA3809107049091F6
:102CE000080498A78FA380910104909102049AA7E9
:102CF00089A78091F5039091F6039CA78BA78091FB
:102D0000DD039091DE039EA78DA78091150490911D
:102D10001604A0911704B091180489839A83AB8399
:102D2000BC838091090490910A04A0910B04B09196
:102D30000C048D839E83AF83B887809103049091A8
:102D40000404A0910504B091060489879A87AB8793
:102D5000BC878091F7039091F803A091F903B0919B
:102D6000FA038D879E87AF87B88B8091DF039091A0
:102D7000E003A091E103B091E203898B9A8BAB8BC6
:102D8000BC8B80915803F0907D03F81608F4F82E60
:102D90008091A203F81608F4F82E4E01F5E28F0E8A
:102DA000911C9E012F5F3F4F3BAF2AAFAE01415DAB
:102DB0005F4F59AF48AF89013E0159E1650E711C63
:102DC000D4016D917D914D01C3010E94692BEAAD43
:102DD000FBAD2190319041905190FBAFEAAF82E47E
:102DE00093E00E94E906C3010E94750BB12CA12C4F
:102DF000EA2CAF14D8F550E5C52E53E0D52ED601F8
:102E000018966C91E62FE150FF0B6150AE16BF068D
:102E10000CF46E2DD60113968D919C9170E0FC01FF
:102E2000228133816217730720F4A20191010E946D
:102E300024070E946306D60113968D919C910E94EF
:102E4000CD0762E070E080E090E00E948705B5E287
:102E5000CB0ED11CEFEBCE16E3E0DE0681F6FFEFE2
:102E6000AF1ABF0AC5CF0F5F1F4F00CF69E170E0F7
:102E700080E090E00E94870528AD39AD8216930668
:102E800009F09ECF0E94B90560931E0170931F0147
:102E900080932001909321018DE693E00E94E00A47
:102EA00080912D02882309F4DDC781E08093190108
:102EB00062E671E08FEB93E00E94FE0C8091C50307
:102EC0009091C6030E94462F1C019FAB8EAB62E619
:102ED00071E085EC93E00E94FE0C2114310409F4AA
:102EE000A6C768EE76E0CE018F960E94692B552426
:102EF0005394BE01615D7F4FCE01C6960E94702B38
:102F00007C01009709F493C7DC018C91882389F335
:102F100062EE76E0CE01C2960E94692BC7010E9444
:102F2000462F9BAF8AAF9DAB8CABF12CBE016E5C84
:102F30007F4FCE01C4960E94702B2F2D30E0220FC0
:102F4000331F2B5F3D4F009729F0F9019183808358
:102F5000F394ECCFD9011D921C92E0900502F09001
:102F60000602B12C6701CB0CD11CF60180818823AD
:102F700069F08093040280910402082E000C990BE2
:102F80000E943E2FD6018C93B394ECCF6EED76E089
:102F9000C7010E94602B892B09F049C062E671E0ED
:102FA000C3010E943D0EC3010E94F30DC3010E94A4
:102FB000C30D882319F010921901BBC0E0900702DD
:102FC000F090080263EC76E0C7010E94602B892B29
:102FD00031F460E071E0C3010E94900DAAC0F701D6
:102FE00001900020E9F73197EE19FF097897B0F4C6
:102FF000F701D8019701295E3F4F81918D93882376
:1030000019F0E217F307C9F748E150E0B80180E092
:1030100091E00E94772F0E94A90ADBCF109219013C
:103020006DE773E0C8010E94692BB801D4CF6AED47
:1030300076E0C7010E94602B892BE1F462E671E023
:10304000C8010E943D0EC8010E94F30D61ED73E0BE
:10305000C8010E94140EC8010E941B0EC8010E94E4
:10306000370C8AAD9BAD0E94C5298CA99DA90E94F1
:10307000C5293FCF65ED76E0C7010E94602B892B03
:1030800059F462E671E0C8010E943D0EC8010E9439
:10309000F30D6BEC73E0DCCF6FEC76E0C7010E94C0
:1030A000602B892B09F04AC062E671E0C3010E94DF
:1030B0003D0EC3010E94F30DC3010E94C30D811197
:1030C0007ACF80910702909108020E94392B6C01FF
:1030D000990FEE08FF08C0921302D0921402E092FA
:1030E0001502F092160250921B020E94B9056093DD
:1030F0001702709318028093190290931A0260933A
:103100000F027093100280931102909312022AE032
:10311000A801C701B6010E94AA2BF8010190002066
:10312000E9F73197AF01401B510BB801C3010E9471
:10313000340DC3010E941B0EC30191CF6AEC76E0EF
:10314000C7010E94602B892B09F04DC062E671E037
:10315000C3010E943D0EC3010E94F30DC3010E94F2
:10316000C30D811128CFE0900702F090080263ECB4
:1031700076E0C7010E94602B892B39F480911C02F4
:103180008823B1F06CE873E015C06CE873E0C70108
:103190000E94602B892B19F450921C02F3CF6AE82D
:1031A00073E0C7010E94602B892BB9F410921C02B6
:1031B0006AE873E0C8010E94692BB801C3010E944C
:1031C000900D62EE76E0C8010E94692BB801C30140
:1031D0000E94900D66E873E025CF10921901C3019B
:1031E0000E949F0DA6CF65EC76E0C7010E94602B80
:1031F000892B41F063EC76E0C7010E94602B892B9C
:1032000009F055C10E94810B8DEC95E00E94E00A07
:1032100089E995E00E94E00A8BE795E00E94E00AC8
:103220008BE595E00E94E00A82E495E00E94E00AC6
:1032300081E195E00E94E00A8FEF94E00E94E00AAD
:103240008AEF94E00E94E90685EC96E00E94810AEC
:1032500088EE96E00E94810A8EED96E00E94810A37
:1032600088EE96E00E94810A8AED96E00E94810A2B
:1032700088EE96E00E94810A8AEC96E00E94810A1C
:1032800088EE96E00E94810A85ED96E00E94810A10
:1032900088EE96E00E94810A8FEC96E00E94810AF7
:1032A00088EE96E00E94810A8CEB96E00E94810AEB
:1032B0000E94DC0A85EF94E00E94E90681EF94E029
:1032C0000E94810A88EE96E00E94810A8DEE94E0C9
:1032D0000E94810A88EE96E00E94810A89EE94E0BD
:1032E0000E94810A88EE96E00E94810A85EE94E0B1
:1032F0000E94810A88EE96E00E94810A81EE94E0A5
:103300000E94810A88EE96E00E94810A8DED94E089
:103310000E94810A88EE96E00E94810A0E94DC0ADF
:1033200088ED94E00E94E90685EB96E00E94810A10
:1033300088EE96E00E94810A82EB96E00E94810A64
:1033400088EE96E00E94810A8FEA96E00E94810A48
:1033500088EE96E00E94810A8CEA96E00E94810A3B
:1033600088EE96E00E94810A89EA96E00E94810A2E
:1033700088EE96E00E94810A86EA96E00E94810A21
:1033800088EE96E00E94810A83EA96E00E94810A14
:1033900088EE96E00E94810A80EA96E00E94810A07
:1033A00088EE96E00E94810A85ED94E00E94810AF1
:1033B0000E94DC0A80ED94E00E94E9068BE396E02F
:1033C0000E94810A88EE96E00E94810A87E396E0D7
:1033D0000E94810A88EE96E00E94810A83E396E0CB
:1033E0000E94810A88EE96E00E94810A8FE296E0B0
:1033F0000E94810A88EE96E00E94810A8BE296E0A4
:103400000E94810A88EE96E00E94810A87E296E097
:103410000E94810A0E94DC0A8DE994E00E94E00A81
:103420008AE694E00E94E00A8AE294E00E94E00AC0
:103430008CE094E00E94E90680E490E00E94640B36
:1034400081EF93E00E94E90685E090E00E94640B22
:103450008CED93E00E94E90687E190E00E94640B06
:1034600084EC93E00E94E90680E690E00E94640B01
:1034700082EC93E00E94E00A8EE893E00E94E00A6A
:1034800080E593E00E943F0C85E793E00E943F0CAB
:103490008AE993E00E943F0C65EC76E0C3010E944C
:1034A000692B61E971E0C8010E943D0ED4CD6CEB3F
:1034B00076E0C7010E94602B892B39F587EA92E0FC
:1034C0000E940407E091B902F091BA0280818F7ED8
:1034D0008083E091B902F091BA028081877F808376
:1034E000E091B902F091BA0280818F778083E091F8
:1034F000B902F091BA0280818F7D80838091C102F0
:103500008093C0020C940000ACCD68EB76E0C7015C
:103510000E94602B892BB9F462E671E0C8010E9419
:103520003D0EC8010E94F30D8091190490911A0478
:10353000009711F48FE194E0B301681B790BC80187
:103540000E94600D88CD65EB76E0C7010E94602B7C
:10355000892B21F480E00E94E20F83CD62EB76E0BC
:10356000C7010E94602B892B11F481E0F4CF6FEA30
:1035700076E0C7010E94602B892B11F482E0EBCF2B
:103580006CEA76E0C7010E94602B892B11F483E07E
:10359000E2CF69EA76E0C7010E94602B892B21F413
:1035A00082E00E947C0E5DCD66EA76E0C7010E9453
:1035B000602B892B11F483E0F4CF63EA76E0C70136
:1035C0000E94602B892B11F484E0EBCF60EA76E057
:1035D000C7010E94602B892B11F485E0E2CF6BE9D3
:1035E00076E0C7010E94602B892B21F481E00E94C4
:1035F0006E2437CD66E976E0C7010E94602B892BE7
:1036000011F482E0F4CF61E976E0C7010E94602BFB
:10361000892B11F483E0EBCF6CE876E0C7010E94C0
:10362000602B892B21F481E00E94E2261ACD67E805
:1036300076E0C7010E94602B892B11F482E0F4CF61
:1036400062E876E0C7010E94602B892B11F483E0C9
:10365000EBCF6DE776E0C7010E94602B892B21F448
:1036600081E00E943823FDCC68E776E0C7010E9424
:10367000602B892B11F482E0F4CF63E776E0C70179
:103680000E94602B892B11F483E0EBCF6EE676E08D
:10369000C7010E94602B892B21F481E00E94CD2379
:1036A000E0CC69E676E0C7010E94602B892B11F41B
:1036B00082E0F4CF64E676E0C7010E94602B892B9C
:1036C00011F483E0EBCF6FE576E0C7010E94602B39
:1036D000892B21F481E00E942626C3CC6AE576E09E
:1036E000C7010E94602B892B11F482E0F4CF65E5BD
:1036F00076E0C7010E94602B892B11F483E0EBCFA9
:1037000060E576E0C7010E94602B892B21F481E0FF
:103710000E941125A6CC6BE476E0C7010E94602BC5
:10372000892B11F482E0F4CF66E476E0C7010E94B1
:10373000602B892B11F483E0EBCF6FE376E0C701B8
:103740000E94602B892BE9F462E671E0CE010196BC
:103750000E943D0ECE0101960E94F30D80E593E09C
:103760000E943F0C85E793E00E943F0C8AE993E0BA
:103770000E943F0CCE0101960E941B0ECE010196C5
:103780006ECC6BE376E0C7010E94602B892B09F0B9
:103790003FC062E671E0CE0149960E943D0ECE0127
:1037A00049960E94F30DCE0149960E94C30D8823CD
:1037B00019F01092190127C0E0900702F09008025A
:1037C00063EC76E0C7010E94602B60910202892BB6
:1037D000B1F0C7010E94392B8F3F910569F060F06D
:1037E000109219016FEC75E0CE0101960E94692BD1
:1037F000BE016F5F7F4FD9C180930202682FCE0157
:1038000049960E940D23CE0149960E941B0E15C1B8
:1038100067E376E0C7010E94602B892B41F562E6E1
:1038200071E0CE0149960E943D0ECE0149960E945C
:10383000F30DCE0149960E94C30D8111BACFE090DD
:103840000702F090080263EC76E0C7010E94602B4B
:1038500060910102892B99F2C7010E94392B8F3F99
:10386000910511F008F0BCCF80930102C7CF63E34C
:1038700076E0C7010E94602B892B69F562E671E052
:10388000CE0149960E943D0ECE0149960E94F30D4D
:10389000CE0149960E94C30D81118BCFE0900702A3
:1038A000F090080263EC76E0C7010E94602B609103
:1038B0000302892B09F4A3CFC7010E94392B9FEF84
:1038C000980F913128F0109219016CED75E08CCFB2
:1038D0008093030293CF6FE276E0C7010E94602BD2
:1038E000892B09F4ADC06BE276E0C7010E94602B22
:1038F000892B09F46BC167E276E0C7010E94602B57
:10390000892B09F05FC062E671E0CE0185960E94C6
:103910003D0ECE0185960E94F30DCE0185960E9444
:10392000C30D882349F010921901CE0185960E949B
:103930001B0ECE01859693CB63EC76E08091070257
:10394000909108020E94602B892BB9F5E12CFF248D
:10395000F39450926302F0928502109264021092E6
:10396000860281E00E940809811113C06F2DCE01EB
:1039700085960E940D2362E076E0CE0149960E9472
:10398000692BBE01675E7F4FCE0185960E94900D28
:10399000E394F394B0E8FB12DCCF67EF75E0E1103D
:1039A000C4CFCE0101960E94692BBE016F5F7F4F8D
:1039B000CE0185960E94900DB8CF109219016DEE40
:1039C00075E0EFCF1092190162E671E0CE014996E1
:1039D0000E943D0EB701CE0149960E94900D62EE05
:1039E00076E0CE0101960E94692BBE016F5F7F4F8A
:1039F000CE0149960E94900D67E176E0CE010196D6
:103A00000E94692BBE016F5F7F4FCE0149960E94D5
:103A1000900D68EE76E0CE0101960E94692BBE0102
:103A20006F5F7F4FCE0149960E94900DBE01675E89
:103A30007F4F8FEB93E00E94140ECE0149960FCB7F
:103A400062E671E0CE0149960E943D0ECE01499694
:103A50000E94F30DE0910702F091080280818DA38E
:103A600081818EA31FA2CE0149960E94C30D8111B0
:103A7000A0CEC0900702D090080263EC76E0C601A9
:103A80000E94602B892B99F5CDB6DEB6809103029A
:103A9000282F30E0220F331F2F5F3F4FEDB7FEB7C7
:103AA000E21BF30B0FB6F894FEBF0FBEEDBF2DB7B0
:103AB0003EB72F5F3F4F7901B9010E946D0464E169
:103AC00076E0CE0101960E94692BBE016F5F7F4FA9
:103AD000CE0149960E94900DB701CE0149960E94F1
:103AE000900D0FB6F894DEBE0FBECDBE8CCE64E155
:103AF00076E0CE0185960E94602B892B09F05FC08D
:103B0000D6011296FD0101900020E9F73197EA1BDA
:103B1000FB0B309103023CAF832F90E0880F991F7D
:103B2000E817F90709F046C07601A7E8AA2EA2E037
:103B3000BA2E4501D70112968C918823A9F0B2E0E4
:103B4000EB0EF11CF7014180442071F00E94C82265
:103B50008EAF842D0E94C8229EAD9295907F890FD2
:103B6000D4018D934D01E6CF809102025092630201
:103B70008093850210926402109286026091010285
:103B800084E493E00E944F0AF12CBCADBF1549F0CC
:103B9000F50161915F0184E493E00E944F0AF39480
:103BA000F4CF81E00E940809B601CE0149960E9437
:103BB000900D29CE1092190164E076E015CE109296
:103BC0001901CE0149960E949F0D1DCE2DB73EB71B
:103BD0003DAF2CAF62E671E0CE0149960E943D0EEA
:103BE000CE0149960E94F30DB090020250926302FA
:103BF000B0928502109264021092860260910102D6
:103C000084E493E00E944F0A81E00E940809A0909A
:103C100003020E9462056B017C0180915D028111AB
:103C20006BC0FA2C30E23A1510F4F0E2FF2E5092FD
:103C30005D0250925C024FEF40935B0210925A0279
:103C40008FEF8F0D80935902509238028091380285
:103C5000BB0CB82AB092380280913702813009F04B
:103C600085C0109237020E9462054B015C01809171
:103C700038028093BB0080915F0290916002A09116
:103C80006102B0916202892B8A2B8B2BA1F00E94DA
:103C9000620520915F023091600240916102509173
:103CA0006202681979098A099B09261737074807AC
:103CB000590708F442C08091BC0083FDD8CF55EC71
:103CC0005093BC000E9462054B015C0180915D0233
:103CD000813009F44FC080915A028F1510F4F09092
:103CE0005A02A9E3B2E0E1EEF1E080E08F1551F174
:103CF0009D9191938F5FFACF80915F0290916002C6
:103D0000A0916102B0916202892B8A2B8B2B09F45E
:103D100084CF0E94620520915F0230916002409141
:103D20006102509162026C197D098E099F09261764
:103D300037074807590708F070CF80915E020E944C
:103D4000E708F12C1092E001F092DF01F12CD09005
:103D50000302FD1488F584E493E00E94080AEF2D25
:103D6000F0E0E957FD4F8083F394F1CF85EE809327
:103D7000BC00A8CF80915F0290916002A091610287
:103D8000B0916202892B8A2B8B2B09F49FCF0E9462
:103D9000620520915F023091600240916102509172
:103DA0006202681979098A099B09261737074807AB
:103DB000590708F08BCFC1CF81E00E9408098D2DF3
:103DC00090E0880F991F0196ADB7BEB7A81BB90B3D
:103DD0000FB6F894BEBF0FBEADBFEDB7FEB73196BC
:103DE0007F01BF018D2D0E946D0464E176E0CE015C
:103DF00001960E94692BBE016F5F7F4FCE014996ED
:103E00000E94900DB701CE0149960E94900DCE01FF
:103E100049960E941B0ECE0149960E94370C2CAD8C
:103E20003DAD0FB6F8943EBF0FBE2DBF1AC98091AD
:103E300019018111DCC086EE96E00E94810A8FEBA9
:103E400093E00E94EC0A62E671E08FEB93E00E943F
:103E5000FE0C8EA99FA90E94C529C1010E94C529F7
:103E600010922D020E94B905C0901E01D0901F0132
:103E7000E0902001F0902101C616D706E806F90669
:103E800008F014C30E94B9056B5F7F4F8F4F9F4F9F
:103E900060931E0170931F01809320019093210174
:103EA00080911B02882321F10E94B905C09017025E
:103EB000D0901802E0901902F0901A024B015C01B8
:103EC0008C189D08AE08BF08C0901302D090140251
:103ED000E0901502F0901602C814D904EA04FB041D
:103EE00008F088C060E08DE00E94F10410921B028F
:103EF00086E00E94C80420911C022111A2C060E04B
:103F0000892B09F0A7C060E5E62E63E0F62EBB24FE
:103F1000B3947BE2A72ED7011A968C911A97882327
:103F200071F05C961C925C971D964D915D916D9120
:103F30007C915097F701418B528B638B748BD70127
:103F400019969C91199791118FC0F701118A128AC5
:103F5000138A148A81111286F7018185843029F42D
:103F60008285882309F47AC11286D7011896DC90DD
:103F7000189759966C9170E090E080E00E94F92BC0
:103F800020E030E048EC52E40E94D92D1B012C01C6
:103F90006D2D70E090E080E00E94F92B9B01AC0158
:103FA000C201B1010E94362C0E944B2E562ED6160D
:103FB00008F45D2C912C812CC52CD12C8C149D04E3
:103FC00008F00AC2F70183819481DC0112962D91D9
:103FD0003C918216930638F42189328943895489A9
:103FE000B4010E942407BFEF8B1A9B0AE5CF84EE31
:103FF00096E023CFC0900F02D0901002E090110203
:10400000F09012026C197D098E099F096B3F7105B2
:104010008105910508F46CCF8DE00E94C80461E031
:10402000892B09F060E08DE00E94F1040E94B9053F
:1040300060930F027093100280931102909312020A
:1040400057CF209159032250223040F0892B09F09C
:104050005ACF61E086E00E94F10455CF20916C03B5
:10406000222309F44CCFF2CF913009F085C01D9680
:104070004D915D916D917C915097F701418B528BE1
:10408000638B748B882309F467CF1286F7018185CF
:10409000833009F061CF828581115DCF0E94B9051F
:1040A000D7015D962D913D914D915C91909726178A
:1040B00037074807590708F4ACC05A962D903C9032
:1040C00036942794512C412C0E94B905F701258D77
:1040D000368D478D50A1221A330A440A550AA2018F
:1040E0009101260F371F481F591FAFEFB0E00E9404
:1040F0003C2D228D338D3695279550E040E00E946F
:104100001A2DE22FD7015C968C918111E095D70191
:104110001D964C911D971E965C911E971F968C9133
:10412000F0E0E651F94FE4912E2F30E0A82FB0E0F7
:104130000E947E2D272E382E492E5524210133240E
:104140002224A52FB0E00E947E2D6627262A372A3A
:10415000482A592AA42FB0E00E947E2D672F782F7D
:10416000892F9927260E371E481E591EF701218ACE
:10417000328A438A548AF0CE923009F087CF88235E
:1041800011F01A961C920E94B905F701258D368D03
:10419000478D50A1621773078407950708F476CFFF
:1041A0000E94B905D7015D962D913D914D915C918D
:1041B0009097261737074807590708F067CF5C968E
:1041C0008C915C978823C9F0F701118A128A138AAF
:1041D000148A8B25D7015C968C930E94B905F70150
:1041E000228D338D36952795620F731F811D911D8A
:1041F000658F768F878F90A349CF1D964D915D91E6
:104200006D917C915097F701418B528B638B748B2E
:10421000E0CF0E94B905D7015D962D913D914D915A
:104220005C919097261737074807590708F094CEF6
:104230005C968C915C978B255C968C930E94B9055B
:10424000F701228D338D36952795620F731F811DDF
:10425000911D658F768F878F90A37ECE0E94B905C2
:10426000D7015D962D913D914D915C91909762178C
:1042700073078407950708F09FC05A962D903C90CD
:10428000512C412C0E94B905F701258D368D478DA3
:1042900050A1221A330A440A550AA2019101260F9D
:1042A000371F481F591FAFEFB0E00E943C2D228DF1
:1042B000338D50E040E00E941A2D2095822F6A2D08
:1042C0000E948D2DF82F35ED482F34036001112405
:1042D0002C0D3D2D311DC22ECC0C2C0D220FC22ECB
:1042E000D12C9601AFEFB0E00E947E2D672F782F82
:1042F000892F99272FEF30E040E050E0261B370B45
:10430000480B590B0E943C2D272E382E492E552440
:10431000E22DAC19BD092FEF30E00E94CC2D672FA4
:10432000782F892F99272FEF30E040E050E0261BAF
:10433000370B480B590BAFEFB0E00E943C2DBB2769
:10434000A92F982F872F482FF23089F040F4FF23B0
:1043500021F0F13071F1F22D40E0EFEF0BC0F330BE
:1043600029F1F430C1F7E82FFFEF40E003C0F82F48
:104370004FEFE0E08E2F90E0B0E0A0E0DC01992765
:10438000882750E070E060E0762F652F542F442797
:10439000840F951FA61FB71F8F0F911DA11DB11D63
:1043A000F701818B928BA38BB48BDFCD422DFFEF76
:1043B000E0CFF0E04FEFDECF0E94B905D7015A966B
:1043C0002D913C91620F731F811D911DF701658F27
:1043D000768F878F90A3C9CDF70180858C151D043A
:1043E000A1F098F083819481DC0112962D913C918B
:1043F000C216D30630F420E030E0A901B6010E94D5
:104400002407BFEFCB1ADB0AE7CF81899289A38902
:10441000B489458956896789708D84179507A607E1
:10442000B70729F0B782858B968BA78BB08FD70102
:104430001B968C911B971C969C911C97891729F0B1
:104440001796BC9217971C968C930E94B905F7019A
:1044500021A132A143A154A1621B730B840B950BC4
:10446000693873418105910518F0D7011796BC9200
:10447000F7018781882389F017820E94B905D70147
:1044800091966D937D938D939C9394970E94630670
:10449000F701838194810E94CD07F5E2EF0EF11CB4
:1044A0002FEB33E02E153F0509F035CD0E94B905FD
:1044B000C0901A01D0901B01E0901C01F0901D01EA
:1044C000C616D706E806F90610F50E94B905675E1C
:1044D0007F4F8F4F9F4F60931A0170931B01809302
:1044E0001C0190931D01809125028130C9F140F09B
:1044F0008230F1F1833009F443C01092250207C0E5
:104500008EE00E94500590931E0280931D028091C0
:104510002C028823D9F00E94B905C0902802D090BF
:104520002902E0902A02F0902B026C197D098E0975
:104530009F09613177428105910540F08091260203
:10454000909127020E94910A10922C020E947006FC
:10455000882311F40C9450170E9454100C94501797
:104560008FE00E9450059093200280931F02CFCFCE
:1045700080E10E9450059093220280932102C7CFD0
:1045800081E10E9450059093240280932302BFCFC3
:10459000982F80ED890F8A3070F08FEB890F86306D
:1045A00018F489EC890F08958FE9890F863010F48B
:1045B00089EAF8CF80E00895EF92FF920F931F935E
:1045C000CF93DF93CDB7DEB72E970FB6F894DEBF4B
:1045D0000FBECDBF7C01CB01BA012AE08E010F5F77
:1045E0001F4FA8010E94932BF80101900020E9F7CA
:1045F0003197AF01401B510BB801C7010E94340D28
:104600002E960FB6F894DEBF0FBECDBFDF91CF91CF
:104610001F910F91FF90EF900895EF92FF920F93EB
:104620001F93CF93DF9300D000D0CDB7DEB77C01CE
:10463000862F4AE08E010F5F1F4FB80190E00E9465
:10464000882BF80101900020E9F73197AF01401B5A
:10465000510BB801C7010E94340D0F900F900F90BD
:104660000F90DF91CF911F910F91FF90EF900895E0
:10467000EF92FF920F931F93CF93DF93CDB7DEB7E7
:104680002E970FB6F894DEBF0FBECDBF182F62E68F
:1046900071E0CE0109960E943D0ECE0109960E945E
:1046A000F30DCE0109960E94C30D8823B9F0109234
:1046B0001901CE0109960E941B0ECE0109960E9497
:1046C000370C2E960FB6F894DEBF0FBECDBFDF912C
:1046D000CF911F910F91FF90EF900895E090070206
:1046E000F090080263EC76E0C7010E94602B892BF2
:1046F00041F1C7010E94392B7C018530910508F0FA
:1047000045C0BC01CE0109960E94600D212F2150A9
:10471000330BC90125E2289F8001299F100D112428
:10472000005B1C4FF80181858E1519F281E08287AC
:10473000E1860E94B905F801658F768F878F90A377
:10474000B8CFE12FE150FF0B25E22E9F80012F9F74
:10475000100D1124005B1C4FF8016185CE010996F4
:104760000E940D23F80181858250833008F0A1CF8B
:1047700062EE76E0CE0101960E94692BBE016F5F6A
:104780007F4FCE0109960E94900D93CF1092190190
:10479000CE0109960E949F0D8CCFCF92DF92FF929F
:1047A0000F931F93CF93DF93CDB7DEB72E970FB63E
:1047B000F894DEBF0FBECDBF182F62E671E0CE01C8
:1047C00007960E943D0ECE0107960E94F30DCE0182
:1047D00007960E94C30DF82E8823C1F0109219018C
:1047E000CE0107960E941B0ECE0107960E94370C41
:1047F0002E960FB6F894DEBF0FBECDBFDF91CF91DE
:104800001F910F91FF90DF90CF900895C090070205
:10481000D090080263EC76E0C6010E94602B892BE1
:1048200009F1B601CE0101960E943D0E50E040E034
:10483000BE01635F7F4F89819A810E944E2A062FB5
:10484000ED85FE8530813323F9F0CE0101960E947B
:10485000370CF110C5CF10921901CE0107960E94B6
:104860009F0DBECF212F2150330BC90125E2289F78
:10487000F001299FF00D1124E05BFC4F618DCE010A
:1048800007960E940D23ACCF462F572FBC0145360B
:10489000510561057105CCF6CE0107960E94DC2218
:1048A000212F2150330BC90125E2289FF001299FB8
:1048B000F00D1124E05BFC4F018F053608F004E693
:1048C000018F25E2289FF001299FF00D1124E05B64
:1048D000FC4F81E08783FF24F394B7CFCF92DF9220
:1048E000EF92FF920F931F93CF93DF93CDB7DEB775
:1048F0002E970FB6F894DEBF0FBECDBF182F62E61D
:1049000071E0CE0107960E943D0ECE0107960E94EF
:10491000F30DCE0107960E94C30D082F8823C9F01E
:1049200010921901CE0107960E941B0ECE01079628
:104930000E94370C2E960FB6F894DEBF0FBECDBF87
:10494000DF91CF911F910F91FF90EF90DF90CF906B
:104950000895E0900702F090080263EC76E0C7014A
:104960000E94602B892B01F1B701CE0101960E94B4
:104970003D0E50E040E0BE01635F7F4F89819A8128
:104980000E944E2AED85FE852081222319F1CE0159
:1049900001960E94370C0111C5CF10921901CE016A
:1049A00007960E949F0DBECF212F2150330BC901C6
:1049B00025E2289FF001299FF00D1124E05BFC4FB8
:1049C0000380F481E02D60856150CE0107960E943E
:1049D0000D23A8CF6B017C013FEFC316D104E10486
:1049E000F10429F024F0C12CD12C7601CA94B7012E
:1049F000A601CE0107960E94DC22212F2150330B05
:104A0000C90125E2289FF001299FF00D1124E05BE8
:104A1000FC4FC3866C2D838194810E948B0701E03B
:104A2000B6CFCF92DF92EF92FF920F931F93CF9367
:104A3000DF93CDB7DEB72E970FB6F894DEBF0FBE6B
:104A4000CDBF082F62E671E0CE0107960E943D0EB1
:104A5000CE0107960E94F30DCE0107960E94C30D6A
:104A6000182F8823C9F010921901CE0107960E94D1
:104A70001B0ECE0107960E94370C2E960FB6F894A7
:104A8000DEBF0FBECDBFDF91CF911F910F91FF9081
:104A9000EF90DF90CF900895E0900702F090080229
:104AA00063EC76E0C7010E94602B892B01F1B7010E
:104AB000CE0101960E943D0E50E040E0BE01635FD2
:104AC0007F4F89819A810E944E2AED85FE85408123
:104AD0004423E9F0CE0101960E94370C1111C5CF95
:104AE00010921901CE0107960E949F0DBECF015072
:104AF000110B85E2809FF001819FF00D1124E05B96
:104B0000FC4F6085CE0107960E940D23AECF6B014E
:104B10007C012FEFC216D104E104F10429F024F046
:104B2000C12CD12C7601CA941C141D041E041F0430
:104B300024F0C12CD12C7601C394B701A601CE017B
:104B400007960E94DC220150110B25E2209FC00134
:104B5000219F900D1124DC01A05BBC4F7D011896B4
:104B60008C911897C81609F45FC01396ED91FC91CB
:104B70004481558170E060E0818592850E94692FB3
:104B80000E946306F701838194810E94CD07D701BB
:104B90001396ED90FC90E114F10489F0F701818502
:104BA00092850E94C529D70116968D919C9197FDFB
:104BB00003C060E00E941F05C7010E94C52985E26D
:104BC000809FF001819FF00D1124E05BFC4FC086B7
:104BD0008081813059F5E0912602F0912702C2824E
:104BE00025E2209FC001219F900D11248C01005BC4
:104BF0001C4FC8010E94310FFF24F394F0922C0245
:104C00000E94B905609328027093290280932A02BA
:104C100090932B02F80185859685A785B089818BB5
:104C2000928BA38BB48BF78211E054CF823031F496
:104C3000E0912602F0912702C482D2CF833081F620
:104C4000E0912602F0912702C682CACFBF92CF928E
:104C5000DF92EF92FF920F931F93CF93DF93CDB725
:104C6000DEB72F970FB6F894DEBF0FBECDBFB82EBC
:104C700062E671E0CE0108960E943D0ECE010896D4
:104C80000E94F30DCE0108960E94C30DF82E8823D2
:104C9000D1F010921901CE0108960E941B0ECE0190
:104CA00008960E94370C2F960FB6F894DEBF0FBE01
:104CB000CDBFDF91CF911F910F91FF90EF90DF90CB
:104CC000CF90BF900895C0900702D090080263EC87
:104CD00076E0C6010E94602B8E010F5F1F4F892B6B
:104CE000F1F0B601C8010E943D0E50E040E0BE0167
:104CF000625F7F4F89819A810E944E2AEE85FF85EF
:104D00004081442361F1C8010E94370CF110C3CFE8
:104D100010921901CE0108960E949F0DBCCF2B2D39
:104D20002150330BC90125E2289FF001299FF00D86
:104D30001124E05BFC4F4AE0B801828D938D0E9404
:104D4000CC2BF80101900020E9F73197AF01401B0F
:104D5000510BB801CE0108960E94340D9CCF6B0117
:104D60007C0131E1C31637E2D306E104F10434F0EB
:104D700090E1C92E97E2D92EE12CF12C84E6C816D9
:104D8000D104E104F1042CF484E6C82ED12CE12CEA
:104D9000F12CB701A601CE0108960E94DC222B2D32
:104DA0002150330BC90125E2289FF001299FF00D06
:104DB0001124E05BFC4FD38EC28E81E08783FF24F9
:104DC000F394A1CF2F923F924F925F926F927F9276
:104DD0008F929F92AF92BF92CF92DF92EF92FF920B
:104DE0000F931F93CF93DF93CDB7DEB7A7970FB67F
:104DF000F894DEBF0FBECDBF282E62E671E0CE0173
:104E00004E960E943D0ECE014E960E94F30DCE01AD
:104E10004E960E94C30D382E882319F11092190165
:104E2000CE014E960E941B0ECE014E960E94370C6C
:104E3000A7960FB6F894DEBF0FBECDBFDF91CF911E
:104E40001F910F91FF90EF90DF90CF90BF90AF90A8
:104E50009F908F907F906F905F904F903F902F909A
:104E60000895009107021091080263EC76E0C801F2
:104E70000E94602B892B09F460C1B801CE014896CD
:104E80000E943D0E088D198D0115110509F0C2C152
:104E900088E2482E81E0582E720145E2822D815031
:104EA000990B9C01429FC001439F900D1124805B90
:104EB0009C4F3C01ADE06A0E711C6C01B1E1CB0E60
:104EC000D11CFC013796FDA3ECA35E01FDE0AF0E03
:104ED000B11C9C012B5F3F4F3FA32EA3D7010D9127
:104EE0001D917D01F80180809180B401888D998D9C
:104EF0000E94602B892B09F05FC0B401CE0101969E
:104F00000E94692BD80112968C91129713969C914E
:104F1000139714962C91149715963C91F301808366
:104F2000918322833383D6018C9311969C9311979E
:104F300012962C93129713963C9341E0ECA1FDA19D
:104F400040833F932F939F938F9383E691E09F93AA
:104F50008F931F928BE08F93BF92AF920E94862F08
:104F6000B501CE014E960E94900D62EE76E0CE0124
:104F700001960E94692BBE016F5F7F4FCE014E9656
:104F80000E94900DF80180819181AEA1BFA18D9307
:104F90009C93B401CE0101960E94692BBE016F5F04
:104FA0007F4FCE014E960E94900D0FB6F894DEBF53
:104FB0000FBECDBF33243394FCE3EF16F1E0FF06C0
:104FC00009F08CCFCE0148960E94370C311028CFC3
:104FD0006091070270910802CE010D960E943D0E6D
:104FE00050E040E0BE01685E7F4F8D859E850E9447
:104FF0004E2A4B015C01E88DF98D8081882331F0C8
:1050000081149104A104B10409F48AC081149104AB
:10501000A10421E0B2060CF083C08BE090E00E9476
:1050200029298C01BF92AF929F928F9283E691E0E3
:105030009F938F931F928BE08F931F930F930E94E8
:10504000862FB801CE014E960E94900D0FB6F894AF
:10505000DEBF0FBECDBF0115110519F0C8010E94BA
:10506000C529A22DA150BB0B6D0185E28A9FF001DD
:105070008B9FF00D1124E05BFC4F85869686A786FA
:10508000B08A818A928AA38AB48A81E087833F01A9
:10509000B5E06B0E711CD201ED91FD912D01828165
:1050A0009381A481B58188169906AA06BB0629F5C5
:1050B00000811181F30111830083B801CE010196B3
:1050C0000E94692B62EE76E0CE0101960E94692B68
:1050D000BE016F5F7F4FCE014E960E94900DB801CA
:1050E000CE0101960E94692BBE016F5F7F4FCE01FA
:1050F0004E960E94900D33243394E414F50459F62F
:1051000031100EC085E28C9DF0018D9DF00D1124B3
:10511000E05BFC4F84E498E09683858333243394EA
:10512000CE010D960E94370C31107ACE10921901E3
:10513000CE014E960E949F0D73CE8BE090E00E94B0
:1051400029298C01822D8150990B1C0185E2829DB9
:10515000F001839DF00D1124E05BFC4FDF011D96F3
:1051600013968C9113978F9312968C9112978F931D
:1051700011968C918F9385858F9383E691E09F9311
:105180008F931F928BE08F931F930F930E94862F14
:10519000B801CE014E960E94900D0FB6F894DEBF76
:1051A0000FBECDBF0115110519F0C8010E94C52918
:1051B00085E2829DF001839DF00D1124E05BFC4FA0
:1051C00005811681B801CE0101960E94692B64E425
:1051D00078E0CE0101960E94602B892B09F420CE45
:1051E00062EE76E0CE0101960E94692BBE016F5FF0
:1051F0007F4FCE014E960E94900DB801CE010196D0
:105200000E94692BBE016F5F7F4FCE014E960E94B8
:10521000900D06CEF80181918F01882309F438CED4
:10522000082E000C990B0E943E2FF80131978083C5
:10523000F1CF8FEB93E00E94370C85EC93E00E9456
:10524000370C8BEC93E00E94370C81ED93E00C94CB
:10525000370C0F931F93CF93DF938230910510F497
:1052600082E090E0E0911B04F0911C0430E020E02B
:10527000B0E0A0E0309799F42115310509F44AC057
:10528000281B390B24303105D8F58A819B816115A3
:10529000710589F1FB0193838283FE0111C0408176
:1052A00051810281138148175907E0F048175907C7
:1052B00099F4109761F012960C93129713961C9321
:1052C0003296CF01DF91CF911F910F9108950093F6
:1052D0001B0410931C04F4CF2115310551F0421723
:1052E000530738F0A901DB019A01BD01DF01F80184
:1052F000C1CFEF01F9CF90931C0480931B04CDCF55
:10530000FE01E20FF31F81939193225031093983FB
:105310002883D7CF2091190430911A04232B41F40C
:10532000209124013091250130931A04209319040F
:1053300020912201309123012115310541F42DB72F
:105340003EB74091260150912701241B350BE09177
:105350001904F0911A04E217F307A0F42E1B3F0B77
:105360002817390778F0AC014E5F5F4F24173507D7
:1053700048F04E0F5F1F50931A0440931904819315
:1053800091939FCFF0E0E0E09CCFCF93DF93009725
:10539000E9F0FC01329713821282A0911B04B091B4
:1053A0001C04ED0130E020E01097A1F42081318150
:1053B000820F931F2091190430911A04281739077E
:1053C00009F061C0F0931A04E0931904DF91CF91C2
:1053D0000895EA01CE17DF07E8F54A815B819E0157
:1053E00041155105B1F7E901FB83EA8349915991D0
:1053F000C40FD51FEC17FD0761F4808191810296DF
:10540000840F951FE90199838883828193819B830F
:105410008A83F0E0E0E012968D919C9113970097BB
:10542000B9F52D913C911197CD010296820F931FF2
:105430002091190430911A042817390739F630974A
:1054400051F510921C0410921B04B0931A04A093FF
:105450001904BCCFD383C28340815181840F951F2F
:10546000C817D90761F44E5F5F4F88819981480F53
:10547000591F518340838A819B81938382832115A5
:10548000310509F0B0CFF0931C04E0931B049ECFCC
:10549000FD01DC01C0CF13821282D7CFB0E0A0E0C3
:1054A000E4E5FAE20C94482D5C016B017A01611588
:1054B000710519F0FB0191838083E114F10449F037
:1054C000C7010297839728F060E070E0CB019CC091
:1054D0005E01E5012196F5011081812F90E00E9487
:1054E000572B892BA9F71D3209F056C02196F501DB
:1054F000118101E0E114F10409F4AEC0F0E1EF160E
:10550000F10409F08EC0103341F488818F7D883515
:1055100009F083C0198122960260E0E1EE2EF12CA1
:1055200088248A94982CA82CFFE0BF2E20E060E00D
:1055300070E0CB0127010F2C000C66087708FE01F4
:1055400050ED352E310E39E0331538F43FEB310F85
:105550003A31A0F549EC342E310E3E141F04BCF54F
:105560002F3FB9F086169706A806B90670F1A30179
:1055700092010E940A2D232D30E050E040E0620F9E
:10558000731F841F951F6217730784079507E8F040
:1055900021E021961081D3CF1B3221F4E501229620
:1055A000F501118100E0A6CF78E0E72EF12C8824E8
:1055B0008A94982CA82C6FE1B62EB8CF3FE9310F12
:1055C0003A3128F439EA332EC7CF2FEFE2CFC11496
:1055D000D10431F02223E9F02197F601D183C08371
:1055E00000FF07C090958095709561957F4F8F4F14
:1055F0009F4F2F3F49F482E290E090931E048093E6
:105600001D046FEF7FEFCB01CDB7DEB7E1E10C9466
:10561000642D01FFE5CF2297E0CF10E3E114F10400
:1056200019F23AE0E316F104E9F080E1E816F1043A
:1056300009F473CFE8E0EE16F10409F4B8CF6FEF88
:105640007FEFCB0197010F2C000C440B550B0E94F0
:105650001A2D49015A016ACF103309F456CF9AE046
:10566000E92EF12C89E9882E982CA82C89E1B82EF6
:105670005DCFFC0188279927E89421912032E9F336
:10568000293010F02E30C8F32B3241F02D3239F48E
:10569000689404C00E94A22B820F911D2191205377
:1056A0002A30C0F31EF4909581959F4F0895911173
:1056B0000C94E62B803219F089508550C8F7089574
:1056C000FB01DC018D91059080190110D9F3990B34
:1056D0000895FB01DC0105900D920020E1F708958B
:1056E000FC01A081B181AD01109681F03D91FB01DB
:1056F000019003160110E1F7C9F7002011F4D00161
:1057000002C01E921196FC01A083B183CA010895C4
:10571000BB274A3031F4992322F4BDE2909581955C
:105720009F4F0C94CD2BBB272A3051F4992342F480
:10573000BDE290958095709561957F4F8F4F9F4FFB
:105740000C94AB2B7AE0979F902D879F802D910D25
:1057500011240895BB27FA01A62F62177105810550
:105760009105330B30FB66F0AA27660F771F881F61
:10577000991FAA1FA21710F0A21B63953850A9F712
:10578000A05DAA3308F0A95DA19336F7B111B193DA
:105790001082CA010C94E92BBB27FB015527AA27CD
:1057A000880F991FAA1FA41710F0A41B83955051AE
:1057B000B9F7A05DAA3308F0A95DA193009779F726
:1057C000B111B1931192CB010C94E92B9927882741
:1057D0000895DC01FC01672F71917723E1F732977F
:1057E00004C07C916D9370836291AE17BF07C8F3BC
:1057F0000895E89409C097FB3EF4909580957095C4
:1058000061957F4F8F4F9F4F9923A9F0F92F96E90C
:10581000BB279395F695879577956795B795F11181
:10582000F8CFFAF4BB0F11F460FF1BC06F5F7F4F1E
:105830008F4F9F4F16C0882311F096E911C0772330
:1058400021F09EE8872F762F05C0662371F096E839
:10585000862F70E060E02AF09A95660F771F881F08
:10586000DAF7880F9695879597F908950E94492C45
:105870000C94BA2C0E94AC2C38F00E94B32C20F06F
:10588000952311F00C94A32C0C94A92C11240C94A6
:10589000EE2C0E94CB2C70F3959FC1F3950F50E036
:1058A000551F629FF001729FBB27F00DB11D639FD2
:1058B000AA27F00DB11DAA1F649F6627B00DA11D78
:1058C000661F829F2227B00DA11D621F739FB00D1E
:1058D000A11D621F839FA00D611D221F749F33278E
:1058E000A00D611D231F849F600D211D822F762F27
:1058F0006A2F11249F5750409AF0F1F088234AF004
:10590000EE0FFF1FBB1F661F771F881F915050406F
:10591000A9F79E3F510580F00C94A32C0C94EE2C1B
:105920005F3FE4F3983ED4F3869577956795B795F6
:10593000F795E7959F5FC1F7FE2B880F911D969510
:10594000879597F9089597F99F6780E870E060E080
:1059500008959FEF80EC089500240A941616170608
:1059600018060906089500240A9412161306140650
:1059700005060895092E0394000C11F4882352F0B3
:10598000BB0F40F4BF2B11F460FF04C06F5F7F4F6B
:105990008F4F9F4F089557FD9058440F551F59F052
:1059A0005F3F71F04795880F97FB991F61F09F3F0C
:1059B00079F087950895121613061406551FF2CF35
:1059C0004695F1DF08C0161617061806991FF1CF85
:1059D00086957105610508940895E894BB276627AC
:1059E0007727CB0197F90895F999FECF92BD81BD34
:1059F000F89A992780B50895262FF999FECF1FBAF6
:105A000092BD81BD20BD0FB6F894FA9AF99A0FBEE7
:105A100001960895DB018F939F930E943C2DBF91C7
:105A2000AF91A29F800D911DA39F900DB29F900DED
:105A300011240895A1E21A2EAA1BBB1BFD010DC063
:105A4000AA1FBB1FEE1FFF1FA217B307E407F5072E
:105A500020F0A21BB30BE40BF50B661F771F881F0A
:105A6000991F1A9469F760957095809590959B01A0
:105A7000AC01BD01CF0108950E947E2DA59F900D20
:105A8000B49F900DA49F800D911D112408952F9215
:105A90003F924F925F926F927F928F929F92AF92BE
:105AA000BF92CF92DF92EF92FF920F931F93CF930B
:105AB000DF93CDB7DEB7CA1BDB0B0FB6F894DEBFA2
:105AC0000FBECDBF09942A88398848885F846E84C8
:105AD0007D848C849B84AA84B984C884DF80EE8012
