:100000000C94D2040C94FA040C94FA040C94FA04A0
:100010000C94FA040C94FA040C94FA040C94FA0468
:100020000C94FA040C94FA040C94FA040C94FA0458
:100030000C94FA040C94FA040C94FA040C94FA0448
:100040000C943A130C94FA040C94AA130C94841391
:100050000C94FA040C94FA040C94FA040C94FA0428
:100060000C94DC130C94FA04230023205F5F5F5F81
:100070005F5F5F5F5F5F5F5F5F5F5F5F5F5F5F5F90
:100080005F00232020202020534C33202320706940
:1000900078656C7320203A200023202020202053F4
:1000A0004C32202320706978656C7320203A200040
:1000B000232020202020534C312023207069786594
:1000C0006C7320203A2000232020202020536E69CA
:1000D00070655F56657273696F6E203A2000232049
:1000E0005F5F5F5F5F5F5F53455454494E47535FA7
:1000F0005F5F5F5F5F002D2D2D3E454E443C2D2DF3
:100100002D002069733A2000232046524545205295
:10011000414D2C20617420636865636B706F696E5C
:100120007420002069733A20002121212057415278
:100130004E494E47204C4F57205352414D202121CC
:1001400020465245452052414D2061742063686528
:10015000636B706F696E742000232D2D2D2D2D2D56
:100160002D2D2D2D2D2D2D2D2D2D2D2D2D2D2D2DBF
:100170002D2D2D2D2D2D2D2D2D2D2D2D2D2D0023E6
:1001800009636F6C6F726E616D653A2000230926FA
:1001900073747269703A2000230926282A737472D6
:1001A0006970293A20002309706572635F6C697475
:1001B0003A20200023096E756D706978656C733A7A
:1001C00020002309666C617368206F6E3A2020005E
:1001D00023096379636C655F6D733A2020002309FE
:1001E0006D6F64653A202020202020002309636F72
:1001F0006C6F723A202020202000230973697A65F1
:100200005F6F663A20202000230926746869733ADC
:10021000202020202000205D202D2D2D2D2D2D2D66
:100220002D2D2D2D00232D2D2D2D2D2D2D2D2D2D35
:1002300020534C494E464F3A205B20002300214971
:100240004E56414C49445F494E5055543A00564130
:100250004C55455F4D495353494E470056414C5507
:10026000455F4552524F5200415242002300232D18
:100270002D2D2D2D2D2D2D2D2D2D2D2D2D2D2D2DAE
:100280002D2D2D2D2D2D2D2D2D2D2D2D2D2D2D2D9E
:100290002D2D2D2D2D2D2D2D2D2D2D2D2D2D2D2D8E
:1002A0002D00204020002F002F002320434F4D50D1
:1002B000494C4544204F4E3A200023205645525386
:1002C000494F4E20444154453A2031312F31352F8A
:1002D0003230323300232052656420427965722027
:1002E0002020206769746875622E636F6D2F6D69B9
:1002F0007A726169746800232D2D2D2D2D2D2D2DE1
:100300002D2D2D2D2D2D2D2D2D2D2D2D2D2D2D2D1D
:100310002D2D2D2D2D2D2D2D2D2D2D2D2D2D2D2D0D
:100320002D2D2D2D2D2D2D2D2D2D002320534E49DE
:10033000504520763420666F722041726475696E74
:100340006F00232D2D2D2D2D2D2D2D2D2D2D2D2DD2
:100350002D2D2D2D2D2D2D2D2D2D2D2D2D2D2D2DCD
:100360002D2D2D2D2D2D2D2D2D2D2D2D2D2D2D2DBD
:100370002D2D2D2D2D002323232323484541444596
:1003800052232323232300232D2D2D2D2D2D2D2DE1
:100390002D2D2D2D2D2D2D2D2D2D2D2D2D2D2D2D8D
:1003A0002D2D2D2D2D2D2D2D2D2D2D2D2D2D2D2D7D
:1003B0002D2D2D2D2D2D2D2D2D2D002300232043D2
:1003C000757272656E742053746174696F6E204922
:1003D000442028534944293A200023002320202088
:1003E0004D6178204F7574707574204C656E67741C
:1003F000683A2000232020204D6178205349442072
:100400004C656E6774683A2000232020204D617887
:10041000204E756D626572206F6620546F6B656E3D
:10042000733A2000232020204D617820496E70759A
:100430007420537472696E67204C656E6774683AF5
:10044000200023202020546F6B656E2069732020CC
:10045000204944454E5449464945523A56414C5527
:10046000453A554E495453202077686572652055AA
:100470004E495453206973206F7074696F6E616CBC
:10048000200023202020524553504F4E5345533ACD
:1004900020204041303A3132333A4152422020202C
:1004A0004044363A313A42494E2020405349443A7A
:1004B0003239323900232020204558414D504C45D7
:1004C000533A2020203E41303A3F20202020202057
:1004D0002020203E44363A312020202020203E5348
:1004E00049443A3239323900232020200023202089
:1004F0002000443600232020200023202020436FAA
:100500006D6D616E6473206172653A002320202056
:100510003E203D20737461727420202040203D20D5
:1005200072657370202023203D20636F6D6D656EB2
:1005300074202021203D206572726F7200232020DC
:10054000204C6561642063686172616374657273D5
:10055000206172653A0023202020466F726D61741D
:100560003A20203E434D443A56414C55453C435277
:100570003E3C4C463E00232053657269616C20432B
:100580006F6E74726F6C20496E73747275637469E8
:100590006F6E7300232D2D2D2D2D2D2D2D2D2D2DF9
:1005A0002D2D2D2D2D2D2D2D2D2D2D2D2D2D2D2D7B
:1005B0002D2D2D2D2D2D2D2D2D2D2D2D2D2D2D2D6B
:1005C0002D2D2D2D2D2D2D00230023204E4F542079
:1005D000612076697267696E20454550524F4D0023
:1005E0002320495320612076697267696E20454552
:1005F00050524F4D0023205F5F53657475703A2051
:10060000436865636B696E6720454550524F4D3AAC
:10061000002320536176696E67204368616E6765C9
:10062000642053657474696E677300232052657388
:10063000657474696E6720534C32206E756D6C65FD
:1006400064732E002320526573657474696E67208D
:10065000534C32206E756D6C6564732E00232052EE
:100660006573657474696E6720534C31206E756DC7
:100670006C6564732E002320526573657474696E13
:100680006720534E4950455F56455253494F4E00DF
:1006900023205F5F454550524F4D20536574746968
:1006A0006E677320403A20002320446F696E6720F4
:1006B000537461636B204C69676874205374617272
:1006C0007475702053657175656E6365002323230F
:1006D00023235245414459232323232300534944D0
:1006E0005F3E5F32340042494E00300031004F55CA
:1006F000545F4F465F52414E474500425954455F53
:1007000053455454494E475F455252003F5F4D494F
:100710005353494E47004E4F4E455F464F554E444A
:10072000002C00444154415F4C454E4754485F45BE
:10073000525200307800554E4B4E4F574E5F434D4E
:10074000445F455252004932460049325200493214
:100750005700493242004932530049324100534C5C
:10076000494E464F00534C583300534C58320053B7
:100770004C583100534C543300534C543200534CBA
:10078000543100534C503300534C503200534C50B2
:100790003100534C4D3300534C4D3200534C4D31CE
:1007A00000534C433300534C433200534C4331000D
:1007B000534C423300534C423200534C42310044BC
:1007C00035004434004433004432004133004132A8
:1007D0000041310041300052414D005245424F4FDF
:1007E00054003F0048454C50004245455000424CA3
:1007F000494E4B004445534300564552005349442B
:10080000003A00400021002000FFF9F3EDE7E1DCB1
:10081000D7D1CCC7C2BEB9B4B0ACA8A3A09C9894A1
:10082000918D8A8683807D7A7774716E6B69666438
:10083000615F5D5A58565452504E4C4A48474543A2
:1008400042403E3D3B3A39373635333231302E2D3A
:100850002C2B2A29282726252423232221201F1E4A
:100860001E1D1C1C1B1A1A191818171716161515F9
:1008700014141313121211111010100F0F0F0E0E6B
:100880000E0D0D0D0C0C0C0B0B0B0B0A0A0A0A09B2
:1008900009090908080808080707070707070606DF
:1008A00006060606060505050505050505040404F6
:1008B0000404040404040403030303030303030301
:1008C0000303030303020202020202020202020203
:1008D00002020202020202020201010101010101FF
:1008E00001010101010101010101010101010101F8
:1008F00001010101010101010101010101010101E8
:100900000101010101010000000000000024002796
:10091000002A0000000000250028002B0000000035
:100920000023002600290004040404040404040233
:10093000020202020203030303030301020408107C
:100940002040800102040810200102040810200049
:10095000000008000201000003040700000000007E
:1009600000000000424C41434B00574849544500A9
:1009700056494F4C455400494E4449474F00424C5C
:100980005545004151554100475245454E00594596
:100990004C4C4F57004F52414E4745005245440082
:1009A0000815BD2911241FBECFEFD8E0DEBFCDBF93
:1009B00011E0A0E0B1E0EAECF5E602C005900D928E
:1009C000A63BB107D9F724E0A6EBB1E001C01D9228
:1009D000AF33B207E1F714E0C1EDD4E004C02197D2
:1009E000FE010E94772EC03DD107C9F70E94A816CC
:1009F0000C94D8320C940000CF93DF93A7EAB2E0B6
:100A0000C0E0DC2FDD0F4D2F50E0C817F9F09D91AD
:100A1000292F30E0E4E035952795EA95E1F79F70BE
:100A20002A3080F4205D9A3078F4905D460F571F8D
:100A3000FA012083E1E0ED0FE60FF72FF11D90831F
:100A4000CF5FDFCF295CEFCF995CF0CF640F751FCC
:100A5000FB011082DF91CF9108950895833081F0DA
:100A600028F4813099F08230A9F008958730A9F0F8
:100A70008830C9F08430B1F4809180008F7D03C04C
:100A8000809180008F7780938000089584B58F7760
:100A900084BD089584B58F7DFBCF8091B0008F77A2
:100AA0008093B00008958091B0008F7DF9CFCF93EF
:100AB000DF93282F30E0F901E15BF64F8491F901D3
:100AC000E55CF64FD491F901E95DF64FC491CC2372
:100AD000A1F081110E942E05EC2FF0E0EE0FFF1F18
:100AE000E35EF64FA591B491EC91ED2381E090E0A7
:100AF00009F480E0DF91CF91089580E090E0FACF93
:100B00001F93CF93DF93282F30E0F901E15BF64F7D
:100B10008491F901E55CF64FD491F901E95DF64F56
:100B2000C491CC23A9F0162F81110E942E05EC2F21
:100B3000F0E0EE0FFF1FED5EF64FA591B4918FB779
:100B4000F894EC91111108C0D095DE23DC938FBF8F
:100B5000DF91CF911F910895DE2BF8CFCF93DF93D4
:100B600090E0FC01E55CF64F2491895D964FFC0115
:100B700084918823D1F090E0880F991FFC01E75FF2
:100B8000F64FA591B491FC01ED5EF64FC591D4915D
:100B900061110EC09FB7F8948C91E22FE0958E23DF
:100BA0008C932881E223E8839FBFDF91CF91089542
:100BB0008FB7F894EC91E22BEC938FBFF6CF8E5069
:100BC000806480937C0080917A00806480937A00B6
:100BD00080917A0086FDFCCF809178009091790019
:100BE00008953FB7F8948091530290915402A091D8
:100BF0005502B091560226B5A89B05C02F3F19F0AB
:100C00000196A11DB11D3FBFBA2FA92F982F88278C
:100C1000BC01CD01620F711D811D911D42E0660F67
:100C2000771F881F991F4A95D1F708958F929F9239
:100C3000AF92BF92CF92DF92EF92FF924B015C0195
:100C40000E94F1056B017C010E94F1056C197D0980
:100C50008E099F09683E734081059105A8F321E044
:100C6000821A9108A108B10888EEC80E83E0D81E48
:100C7000E11CF11C81149104A104B10429F7FF9037
:100C8000EF90DF90CF90BF90AF909F908F9008959E
:100C90002FB7F89460914F027091500280915102E9
:100CA000909152022FBF089508950895AF92BF9278
:100CB000CF92DF92EF92FF920F931F93CF93DF9328
:100CC0006C017B018B01040F151FEB015E01AE1857
:100CD000BF08C017D10759F06991D601ED91FC9179
:100CE0000190F081E02DC6010995892B79F7C501A6
:100CF000DF91CF911F910F91FF90EF90DF90CF90F8
:100D0000BF90AF900895FC01538D448D252F30E0A6
:100D1000842F90E0821B930B541710F0CF96089508
:100D200001970895FC01918D828D981761F0A28D35
:100D3000AE0FBF2FB11D5D968C91928D9F5F9F73FB
:100D4000928F90E008958FEF9FEF08950F931F9378
:100D50000E9448066093CF027093D0028093D10224
:100D60009093D20287EC92E00E94920697FF1DC0FA
:100D70000E9448060091CF021091D0022091D1022A
:100D80003091D202601B710B820B930B0091CB024E
:100D90001091CC022091CD023091CE0260177107E4
:100DA00082079307F8F28FEF9FEF1F910F9108953D
:100DB000FC01918D828D981731F0828DE80FF11D25
:100DC000858D90E008958FEF9FEF0895FC01918D40
:100DD000228D892F90E0805C9F4F821B91098F7339
:100DE0009927089587EC92E00E94E606892B31F05E
:100DF0006AE070E080E090E00C941606089587ECBD
:100E000092E00E94E60621E0892B09F420E0822F7F
:100E10000895FC01A48DA80FB92FB11DA35ABF4F8F
:100E20002C91848D90E001968F739927848FA689E9
:100E3000B7892C93A089B1898C91837080648C933D
:100E4000938D848D981306C00288F389E02D8081EC
:100E50008F7D80830895EF92FF920F931F93CF931E
:100E6000DF93EC0181E0888F9B8D8C8D98131AC0E5
:100E7000E889F989808185FF15C09FB7F894EE89CC
:100E8000FF896083E889F989808183708064808329
:100E90009FBF81E090E0DF91CF911F910F91FF9074
:100EA000EF900895F62E0B8D10E00F5F1F4F0F731C
:100EB0001127E02E8C8D8E110CC00FB607FCFACFD7
:100EC000E889F989808185FFF5CFCE010E94090765
:100ED000F1CFEB8DEC0FFD2FF11DE35AFF4FF082A8
:100EE0009FB7F8940B8FEA89FB8980818062CFCF0E
:100EF0000F931F93CF93DF938C01D0E0C0E0F801F4
:100F0000EC0FFD1F6491662341F087EC92E00E9494
:100F10002B07892B11F02196F2CFCE01DF91CF91D3
:100F20001F910F910895CF93DF93EC01888D882353
:100F3000B9F0AA89BB89E889F9898C9185FD03C03C
:100F4000808186FD0DC00FB607FCF7CF8C9185FF21
:100F5000F2CF808185FFEDCFCE010E940907E9CF56
:100F6000DF91CF9108958F929F92AF92BF92CF92CF
:100F7000DF92EF92FF921F93CF93DF93FC014A0120
:100F8000AA24BB24C82DC32ED42EE52EFF241C2D4D
:100F9000D22F8085882361F0889E40011124C92DBD
:100FA0008C9D600111241D2D829FD0011124DB2F07
:100FB000A685E184F2849385A91322C0CB01880F12
:100FC000991F680F791F6E0D7F1DA385A60FB72F80
:100FD000B11DCC93A485A60FB72FB11D1C93858599
:100FE000680F711DFB01D083DF91CF911F91FF909E
:100FF000EF90DF90CF90BF90AF909F908F9008952B
:10100000660F771F660F771F6E0D7F1D252F332705
:1010100044275527882349F090E0829F7001839FE1
:10102000F00C929FF00C11242F2DA60FB72FB11D9D
:101030002C93CBCFFF920F931F93CF93DF93EC01B1
:10104000FF24F394F60E28852F1581F109851A8562
:10105000215041F16F3FE1F430E050E040E06FEFAC
:101060007FEF80E090E00E94512EB901F8014C81A1
:101070005D81CF01801B910B84179507B0F44081EF
:10108000469FC001479F900D112490833196EFCF6A
:101090008F2D90E0982F88270197622F70E00E9493
:1010A0003D2EE4CF70E060E0E1CFF886DF91CF9194
:1010B0001F910F91FF900895CF92DF92EF92FF92D0
:1010C0000F931F93CF93DF93CDB7DEB729970FB65A
:1010D000F894DEBF0FBECDBF8C01DC0119968D9157
:1010E0009C91892B09F473C00E94F105F801C78413
:1010F000D088E188F2886C157D058E059F0520F467
:101100006787708B818B928BF801C784D088E188C8
:10111000F2886C197D098E099F096C327140810536
:10112000910510F3F894D80114968D919C91159720
:101130009A8389831996ED91FC917F01BFEFEB1A99
:10114000FB0A80818987F80190810388F489E02D6A
:10115000D80155968C91992309F448C09081982B19
:1011600098879081809589238F838F818C8388E0F5
:101170008B8358856F8149853B812C8189819A8138
:10118000D701508347FD252F3A952083262F39F02C
:10119000441F00C000006083000000C0F2CF38E0B0
:1011A0004D9160830000019761F7D8015496FC933C
:1011B000EE93539749873B832C839A838983789452
:1011C0000E94F105F8016787708B818B928B2996BD
:1011D0000FB6F894DEBF0FBECDBFDF91CF911F9148
:1011E0000F91FF90EF90DF90CF9008959081982B12
:1011F00098879081809589238F838F818E8388E063
:101200008D8358856F8149853D812E8189819A81A1
:10121000D701508347FD252F00C000C0208300C0A8
:1012200000C000C000C000C060830000262F3A95B7
:1012300041F0441F000000C000C000C000C000C05A
:10124000E8CF38E04D9100C0608300C0019709F7F6
:10125000D8015496FC93EE93539749873D832E8390
:10126000ACCF2091D801260F3327331F213231050F
:10127000ECF420917D02FC0190E080E0243069F0E4
:1012800082E00895A091D8012191AC0148545E4FAD
:10129000A40FB52FB11D2C930196861798F380915A
:1012A000D801680F6093D80180E0089581E0089527
:1012B00010927D0281E080937C021092570261E0DF
:1012C00082E10E94800561E083E10E948005E9EBF4
:1012D000F0E080818E7F808380818D7F808388E4B1
:1012E0008093B80085E48093BC000895CF93DF938A
:1012F00091E09093B7018823B9F0C091B800D091E4
:10130000BA008091BC008A7B8093BC0060E082E1DF
:101310000E94800560E083E10E9480050E945809D8
:10132000D093BA00C093B800DF91CF9108958F9207
:101330009F92AF92BF92CF92DF92EF92FF920F9364
:101340001F93CF93DF93D091A602D13208F0D7C07C
:10135000182FC091A5020E94F1056B017C018091BC
:101360007D0281116BC082E080937D0210937C022C
:101370008FEF80937B0210927A02D0937902A5E8D6
:10138000B2E0E9E5F2E080E0D81391C01092580293
:1013900080915802CC0FC82BC093580280915702FD
:1013A000813009F088C0109257020E94F1056B014C
:1013B0007C01809158028093BB0080917F029091C4
:1013C0008002A0918102B0918202892B8A2B8B2B03
:1013D000A1F00E94F10500917F02109180022091FE
:1013E0008102309182026C197D098E099F090617CE
:1013F00017072807390708F442C08091BC0083FD15
:10140000D8CF85EC8093BC000E94F1056B017C0174
:1014100080917D02823009F450C080917B028F3F21
:1014200009F46FC080917B02803209F46CC0809116
:101430007B02803309F469C084E026C080917F027A
:1014400090918002A0918102B0918202892B8A2B17
:101450008B2B09F484CF0E94F10580907F0290903D
:101460008002A0908102B09082026C197D098E09E1
:101470009F0986169706A806B90608F070CF8091D6
:101480007E020E94760985E0109284021092A602E4
:1014900010928302DF91CF911F910F91FF90EF90F7
:1014A000DF90CF90BF90AF909F908F9008959D91C7
:1014B00091938F5F69CF85EEA5CF80917F02909148
:1014C0008002A0918102B0918202892B8A2B8B2B02
:1014D00009F49ECF0E94F10500917F0210918002D5
:1014E00020918102309182026C197D098E099F0939
:1014F000061717072807390708F08ACFC0CF81E001
:10150000C3CF80E0C1CF82E0BFCF83E0BDCF0895DD
:10151000E09100028091FF01E81730F4F0E0EF5F06
:10152000FD4F808190E008958FEF9FEF0895909197
:1015300000028091FF012FEF3FEF981748F4E92F49
:10154000F0E0EF5FFD4F208130E09F5F909300025D
:10155000C90108958091FF0190910002891B990BA8
:101560000895CF92DF92EF92FF920F931F93CF9344
:10157000DF937C01CB018A0120918302222389F031
:10158000EB016B01C40ED51ECC15DD0569F0699128
:10159000D701ED91FC910190F081E02DC7010995F3
:1015A000F3CF642F0E943109C801DF91CF911F91C1
:1015B0000F91FF90EF90DF90CF900895CF93DF933E
:1015C0001F92CDB7DEB76983209183022223F9F001
:1015D0002091A602203258F021E030E0FC01338354
:1015E000228390E080E00F90DF91CF910895809169
:1015F0008402E82FF0E0EB57FD4F998190838F5FD5
:10160000809384028093A60281E090E0ECCF61E0B9
:10161000CE0101960E943109F7CF90E080E0089555
:10162000CF93DF93EC01FE0164912196662329F0AC
:1016300087EC92E00E942B07F6CFDF91CF910895BF
:10164000FC0101900020E9F73197AF01481B590BCD
:10165000BC0187EC92E00C94560680E691E00C9475
:10166000200BCF93DF930E947807EC010E942D0B93
:101670008C0F9D1FDF91CF9108958F929F92AF9213
:10168000BF920F931F93CF93DF93CDB7DEB7A19790
:101690000FB6F894DEBF0FBECDBF19A2423008F4DA
:1016A0004AE08E010F5D1F4F842E912CB12CA12C8E
:1016B000A50194010E94BE2DE62FB901CA01EA30AE
:1016C000F4F4E05DD801EE938D01232B242B252B20
:1016D00079F790E080E0109719F0CD010E94200B7F
:1016E000A1960FB6F894DEBF0FBECDBFDF91CF91AC
:1016F0001F910F91BF90AF909F908F900895E95CDC
:10170000E1CF682F70E090E080E04AE00C943D0B60
:10171000CF93DF930E94810BEC010E942D0B8C0F65
:101720009D1FDF91CF910895CF93DF93EC018EED54
:1017300090E00E94310B87EC90E00E94780788814E
:101740000E94880B80EB90E00E9478078A810E94BB
:10175000880B89E990E00E9478078C810E94880BB1
:1017600082E890E00E9478078E810E94880B8AE6CA
:1017700090E00E94310B88E690E0DF91CF910C94CD
:10178000310BCF92DF92EF92FF92CF93DF936C01F8
:10179000990FEE08FF08F7FE1DC06DE287EC92E09E
:1017A0000E942B07EC0166277727CB016C197D0976
:1017B0008E099F094AE00E943D0BC80FD91F0E9465
:1017C0002D0B8C0F9D1FDF91CF91FF90EF90DF903D
:1017D000CF9008954AE0C701B6010E943D0BEC018D
:1017E000EECFFF920F931F93CF93DF9300D0CDB72F
:1017F000DEB7F82E8091390490913A04009711F4E5
:101800008FE394E08E010F5F1F4F081B190B003808
:101810001105ACF489E291E00E9478078F2D0E94B7
:10182000810B83E291E00E947807C8010E94C10BFE
:101830000E942D0B86EF90E00E94310BFFCF88E0D5
:1018400091E00E9478078F2D0E94810B82E091E049
:101850000E947807C8010E94C10B0F900F90DF9182
:10186000CF911F910F91FF900895CF93DF9386E75B
:1018700093E00E94310B82E493E00E94310B8BE2F3
:1018800093E00E94310B87EF92E00E94310B85EDCF
:1018900092E00E94310B8AEB92E00E94310B8AEABF
:1018A00092E00E947807C7EFD3E089810E94810B04
:1018B00088EA92E00E9478078A810E94810B86EA7A
:1018C00092E00E947807688170E06053784F072E9D
:1018D000000C880B990B4AE00E943D0B82EA92E0D3
:1018E0000E9478078B810E94810B8C810E94880B5B
:1018F0008EE692E00E94310B8CE692E0DF91CF9170
:101900000C94310BCF93DF93BC0190E080E04AE070
:101910000E943D0BEC010E942D0B8C0F9D1FDF914F
:10192000CF910895CF93DF930E94200BEC010E948A
:101930002D0B8C0F9D1FDF91CF91089588EC95E0C2
:101940000E94310B84E995E00E94310B86E795E017
:101950000E94310B86E595E00E94310B8DE395E006
:101960000E94310B8CE095E00E94310B8AEF94E0ED
:101970000E94310B85EF94E00E94780784ED97E098
:101980000E94100B87E098E00E94100B81ED97E019
:101990000E94100B87E098E00E94100B8EEC97E0FD
:1019A0000E94100B87E098E00E94100B8BEC97E0F0
:1019B0000E94100B87E098E00E94100B88EC97E0E3
:1019C0000E94100B87E098E00E94100B85EC97E0D6
:1019D0000E94100B87E098E00E94100B82EC97E0C9
:1019E0000E94100B87E098E00E94100B8FEB97E0AD
:1019F0000E94100B87E098E00E94100B82EF94E0A9
:101A00000E94100B0E942D0B8DEE94E00E9478072F
:101A10008DEF97E00E94100B87E098E00E94100B7A
:101A200089EF97E00E94100B87E098E00E94100B6E
:101A300084EF97E00E94100B87E098E00E94100B63
:101A40008EEE97E00E94100B0E942D0B88EE94E022
:101A50000E9478078AE597E00E94100B87E098E0E3
:101A60000E94100B86E597E00E94100B87E098E03B
:101A70000E94100B82E597E00E94100B87E098E02F
:101A80000E94100B8EE497E00E94100B87E098E014
:101A90000E94100B8AE497E00E94100B87E098E008
:101AA0000E94100B86E497E00E94100B0E942D0B01
:101AB00085EB94E00E94310B82E894E00E94310BA8
:101AC00082E494E00E94310B84E294E00E94780763
:101AD00080E490E00E94C10B89E094E00E947807C6
:101AE00085E090E00E94C10B84EF93E00E947807AC
:101AF00089E190E00E94C10B8CED93E00E94780791
:101B000080E690E00E94C10B8AED93E00E94310BC9
:101B10008DEB93E00E94780780E091E00E94920CA8
:101B20008BEB93E00E94310B87E893E00C94310B30
:101B30000F931F93CF93DF938C01C4E6D0E0F8019D
:101B400061918F01CE010E94A02D2196CB36D10547
:101B5000B1F787E090E0DF91CF911F910F91089549
:101B60000F931F93CF93DF9300E011E0D0E0C0E02C
:101B7000F80161918F01CE010E94A02DF8013197EB
:101B80008081882371F0C731D10549F460E088E194
:101B900090E0DF91CF911F910F910C94A02D219691
:101BA000E7CFDF91CF911F910F910895CF93DF93EE
:101BB000EC018091E5039091E6030097E9F06881DC
:101BC000798161157105B1F04091E7035091E80307
:101BD0002C813D814217530768F00E9414308C819C
:101BE0009D819093EA038093E9031D821C82DF911B
:101BF000CF9108950E94692A888199819093E60384
:101C00008093E5038A819B819093E8038093E703A7
:101C10008C819D819093EA038093E9031982188255
:101C20001B821A82E2CFFC0180819181009711F022
:101C30000C94692A08950F931F93CF93DF93CDB728
:101C4000DEB72C970FB6F894DEBF0FBECDBF8C0168
:101C50008CE392E00E94310B85E292E00E947807CB
:101C6000F80180810E94810B86E192E00E94310B95
:101C700088E092E00E947807C8010E94820C8AEFF7
:101C800091E00E94780785E290E00E94820C8CEE41
:101C900091E00E947807F8016585768587859089AF
:101CA00040E10E943D0B0E942D0B8EED91E00E94C1
:101CB0007807F80181850E94880B80ED91E00E94F1
:101CC0007807F801828D938D0E94820C82EC91E05E
:101CD0000E947807F801848D90E00E94C10B84EB8C
:101CE00091E00E947807F80180850E94880B86EABF
:101CF00091E00E947807F801818D0E94880B88E9A5
:101D000091E00E947807C80103960E94820C8DE83A
:101D100091E00E947807F801838194810E94820CEF
:101D2000F80165817681CE0101960E940D2C8FE726
:101D300091E00E947807CE0101960E94920C89E5FD
:101D400091E00E94310B2C960FB6F894DEBF0FBEC7
:101D5000CDBFDF91CF911F910F9108950F931F93E6
:101D6000CF93DF93EC0188819981009759F02A8104
:101D70003B812617370730F081E0DF91CF911F912B
:101D80000F9108958B016F5F7F4F0E94252F009761
:101D900059F0998388831B830A832C813D81232BEF
:101DA00059F7FC011082E8CF80E0E7CFEF92FF9275
:101DB0000F931F93CF93DF93EC01198218821B823C
:101DC0001A821D821C8261157105E1F08B01FB01F5
:101DD00001900020E9F731977F01E61AF70AB70171
:101DE0000E94AE0E28813981811113C02115310561
:101DF00019F0C9010E94692A198218821D821C8269
:101E00001B821A82DF91CF911F910F91FF90EF906B
:101E10000895FD82EC82B801C901DF91CF911F9135
:101E20000F91FF90EF900C941430EF92FF920F936C
:101E30001F93CF93DF93EC017B01FB010190002006
:101E4000E9F731978F01061B170BB8010E94AE0E00
:101E500028813981811113C02115310519F0C9017B
:101E60000E94692A198218821D821C821B821A8292
:101E7000DF91CF911F910F91FF90EF9008951D83F7
:101E80000C83B701C901DF91CF911F910F91FF9092
:101E9000EF900C941430EF92FF920F931F93CF9317
:101EA000DF936115710541F480E0DF91CF911F91BF
:101EB0000F91FF90EF90089541155105B1F07B010E
:101EC000EC010C811D81040F151FB8010E94AE0E9C
:101ED000882351F3288139818C819D81B701820F3C
:101EE000931F0E9414301D830C8381E0DECFEF929C
:101EF000FF920F931F93CF93DF93CDB7DEB7289751
:101F00000FB6F894DEBF0FBECDBF7C01CB014AE017
:101F10008E010F5F1F4FB8010E942C2CF801019019
:101F20000020E9F73197AF01401B510BB801C70101
:101F30000E944B0F28960FB6F894DEBF0FBECDBFA0
:101F4000DF91CF911F910F91FF90EF900895611550
:101F5000710551F0FB0101900020E9F73197AF01C5
:101F6000461B570B0C944B0F80E008950F931F9363
:101F7000CF93DF93CDB7DEB768970FB6F894DEBF87
:101F80000FBECDBF8C016CE572E0CE0101960E94C0
:101F90000D2CBE016F5F7F4FC8010E94A70F68968E
:101FA0000FB6F894DEBF0FBECDBFDF91CF911F916A
:101FB0000F9108950F931F93CF93DF93CDB7DEB7A3
:101FC00068970FB6F894DEBF0FBECDBFE091270231
:101FD000F0912802309719F02081211119C08C014D
:101FE0006EE472E0CE0101960E940D2CBE016F5F7F
:101FF0007F4FC8010E94A70F81E068960FB6F89442
:10200000DEBF0FBECDBFDF91CF911F910F9108951D
:1020100080E0F3CF0F931F93CF93DF9300D0CDB722
:10202000DEB78C0160912502709126020E94A70FF5
:1020300061E078E0CE0101960E940D2CBE016F5F39
:102040007F4FC8010E94A70F0F900F90DF91CF9193
:102050001F910F910895FB01448155816081718129
:102060000C944B0F0F931F93CF93DF9300D01F92CD
:10207000CDB7DEB78C0167E078E0CE0101960E9413
:102080000D2CBE016F5F7F4FC8010E94A70FB801E2
:102090008FED93E00E942B100F900F900F90DF9127
:1020A000CF911F910F910895CF93DF9300D000D06F
:1020B00000D0CDB7DEB762E671E0CE0101960E9496
:1020C000D60ECE0101960E940A1080E793E00E948E
:1020D0001B0E85E993E00E941B0E8AEB93E00E94A1
:1020E0001B0ECE0101960E943210CE0101960E9475
:1020F000130E26960FB6F894DEBF0FBECDBFDF914C
:10210000CF910895EF92FF921F93CF93DF93CDB7B6
:10211000DEB760970FB6F894DEBF0FBECDBF182FA5
:1021200062E671E0CE010B960E94D60ECE010B96B0
:102130000E940A10CE010B960E94DA0F8823B1F09C
:1021400010921901CE010B960E943210CE010B960F
:102150000E94130E60960FB6F894DEBF0FBECDBF7F
:10216000DF91CF911F91FF90EF900895E0902702AB
:10217000F090280262EE77E0C7010E94042C892BC0
:1021800019F5812F0E945705BC01CE010B960E94C4
:10219000770F61E078E0CE0101960E940D2CBE0120
:1021A0006F5F7F4FCE010B960E94A70F66EE76E021
:1021B000CE0101960E940D2CBE016F5F7F4FCE01B4
:1021C0000B960E94A70FBECF6CEE76E0C7010E946F
:1021D000042C61E0892B41F06AEE76E0C7010E9491
:1021E000042C892B29F460E0812F0E948005C9CF3F
:1021F00010921901CE010B960E94B60FA3CF85ED68
:102200008093BC0080917F0290918002A091810216
:10221000B09182020796A11DB11D23E0B695A79546
:10222000979587952A95D1F72091BC0024FD03C08E
:1022300010927D02089540917F025091800260913A
:10224000810270918202452B462B472B69F3009740
:10225000A105B10541F025E32A95F1F700000197AA
:10226000A109B109E1CF80917E020C947609AF9269
:10227000BF92DF92EF92FF920F931F93CF93DF9362
:102280008C0186E190E00E94CD29EC01D8011296E4
:102290004C911297842F90E01196DC90119718962C
:1022A000EC90198218861F86188A198A1A8ABC012E
:1022B00026E0769567952A95E1F76E879C0154E0B4
:1022C000369527955A95E1F723702B879695879534
:1022D0009695879583708C8743704D8781E08883BE
:1022E00083E090E0261711F084E090E0F12CE89E66
:1022F0005001E99EB00CF89EB00C1124BD82AC8256
:10230000C5010E94CD299A878987009709F45BC08F
:10231000A50170E060E00E940D30FB82EA82ED2CA6
:10232000F12CFF82EE828981882341F061E08D2DBE
:102330000E94AE0560E08D2D0E948005F701E95DE9
:10234000F64FE491F0E0EE0FFF1FED5EF64F859142
:1023500094919C8B8B8BF701E55CF64FE491ED8BB0
:10236000F801D483C3838E819F8197FD07C061E00C
:102370000E94AE0560E08E810E94800581E0898325
:10238000D8011396ED91FC914481558170E060E095
:10239000818592850E940D306FEFF80183819481D1
:1023A0000E941A080E94F206D80113968D919C9102
:1023B000DF91CF911F910F91FF90EF90DF90BF9031
:1023C000AF900C945C081D821C821B821A82A7CFDE
:1023D0001F93CF93DF93CDB7DEB7A3970FB6F894D3
:1023E000DEBF0FBECDBF182F62E671E0CE0148966A
:1023F0000E94D60E62E671E0CE014E960E94D60E85
:10240000CE0148960E940A10E12FF0E0EE0FFF1F68
:10241000E35CFD4F808191811B8A1A8A1D8A1C8A88
:102420001F8A1E8A4AE0BE016F5F7F4F0E94702C98
:10243000BE016F5F7F4FCE0142960E94150FBE0115
:102440006E5E7F4FCE0148960E942B10CE014296C1
:102450000E94130E61E078E0CE0101960E940D2CDF
:10246000BE016F5F7F4FCE0148960E94A70F68E6BE
:1024700072E0CE0101960E940D2CBE016F5F7F4F6E
:10248000CE0148960E94A70FCE0148960E943210B6
:10249000CE014E960E94130ECE0148960E94130E56
:1024A000A3960FB6F894DEBF0FBECDBFDF91CF91DC
:1024B0001F910895AF92BF92CF92DF92EF92FF9259
:1024C0000F931F93CF93DF93CDB7DEB76A970FB605
:1024D000F894DEBF0FBECDBF87EC92E00E94E60607
:1024E000181619060CF051C087EC92E00E94920673
:1024F00080932402809124028E3309F094C081E0FD
:102500008093B60162E671E0CE0101960E94D60E7C
:10251000CE0101960E94D60DCE0101960E94130EA7
:1025200062E671E0CE0101960E94D60E0E94A606D8
:1025300097FD0FC08A30910561F0898F1A8E41E0B6
:1025400050E0BE01675E7F4FCE0101960E944B0FA7
:10255000EDCFCE0101960E94D60DCE0101960E94CC
:10256000130EC090E503D090E603C114D10441F0EE
:102570000091E9031091EA03760101151105B9F400
:1025800081E080934D021092B6016A960FB6F894DE
:10259000DEBF0FBECDBFDF91CF911F910F91FF9096
:1025A000EF90DF90CF90BF90AF90089575015701E5
:1025B0008FEFA81AB80AF7018081082E000C990B3A
:1025C0000E94FB2B892B91F7015011090C0D1D1D49
:1025D000F8018081082E000C990B0E94FB2B892B9F
:1025E00031F00E151F0518F001501109F1CFA801A7
:1025F0004F5F5F4F4E195F095093EA034093E90321
:10260000CE14DF0420F4B701C6010E940430E0912B
:10261000E503F091E6038091E9039091EA03E80F66
:10262000F91F1082ADCF80912402082E000C990B67
:102630000E94FB2B892B09F04FCF6EE372E0CE0195
:1026400001960E940D2C1092B60110924D02CE01FF
:1026500001960E94200B6091240287EC92E00E9478
:102660002B070E942D0B38CF0E94FF0681110C947E
:102670005A1208951F920F920FB60F9211242F93A2
:102680003F938F939F93AF93BF9380914F0290910D
:102690005002A0915102B091520230914E0223E0BB
:1026A000230F2D3758F50196A11DB11D20934E0221
:1026B00080934F0290935002A0935102B093520224
:1026C0008091530290915402A0915502B09156020C
:1026D0000196A11DB11D8093530290935402A093C3
:1026E0005502B0935602BF91AF919F918F913F9148
:1026F0002F910F900FBE0F901F90189526E8230F73
:102700000296A11DB11DD2CF1F920F920FB60F924C
:1027100011242F933F934F935F936F937F938F93E6
:102720009F93AF93BF93EF93FF9387EC92E00E9448
:102730000907FF91EF91BF91AF919F918F917F9189
:102740006F915F914F913F912F910F900FBE0F901E
:102750001F9018951F920F920FB60F9211242F936E
:102760008F939F93EF93FF93E091D702F091D8025C
:102770008081E091DD02F091DE0282FD1BC090813C
:102780008091E0028F5F8F732091E102821741F008
:10279000E091E002F0E0E953FD4F958F8093E00275
:1027A000FF91EF919F918F912F910F900FBE0F90FE
:1027B0001F9018958081F4CF1F920F920FB60F9241
:1027C00011242F933F934F935F936F937F938F9336
:1027D0009F93AF93BF93EF93FF938091B900887F4E
:1027E000803609F44AC0F0F5883209F4A7C018F51C
:1027F000803109F49BC0B8F4882309F4F9C088300B
:1028000009F494C0FF91EF91BF91AF919F918F9187
:102810007F916F915F914F913F912F910F900FBEDC
:102820000F901F901895883109F488C0803251F7B5
:1028300080937B0214C0803409F49DC040F480333F
:10284000B9F38833F9F680937B0285ECB0C080350C
:1028500009F485C0883509F496C0883499F60E9439
:10286000FF10D0CF883909F48CC038F5883729F0AB
:1028700050F4883611F0803729F683E080937D028A
:102880001092FA0157C0883809F47BC0803919F0DA
:10289000803809F0B7CF8091FA01803208F071C01A
:1028A000E091FA0181E08E0F8093FA018091BB00E4
:1028B000F0E0E652FE4F80833DC0803B39F0E0F40B
:1028C000803A09F479C0883A09F09CCF84E080937B
:1028D0007D021092D9011092D801E091FD01F09192
:1028E000FE0109958091D80181110FC081E080938C
:1028F000D8011092B80109C0803C09F4A6CF883CE9
:1029000009F4A3CF883B09F07DCFE091D90181E0A4
:102910008E0F8093D901F0E0E854FE4F80818093C0
:10292000BB009091D9018091D80129C080915802B3
:102930008093BB0085EC8093BC0064CF90917A02B9
:1029400080917902981758F5E0917A0281E08E0F14
:1029500080937A02F0E0E75AFD4F8081E9CFE09161
:102960007A0281E08E0F80937A028091BB00F0E0C2
:10297000E75AFD4F808390917A02809179029817EF
:10298000C8F285E8D8CFE0917A0281E08E0F80937B
:102990007A028091BB00F0E0E75AFD4F808380917E
:1029A0007C0281115CCF81E08093570284EA80939E
:1029B000BC0010927D0226CF85EC8093BC00109263
:1029C0007D028091FA01803230F4E091FA01F0E06A
:1029D000E652FE4F10826091FA0170E0E091FB0137
:1029E000F091FC018AED91E009951092FA010ACF6D
:1029F00010927B0234CFFC01908190539A3008F002
:102A000090E0818180532AE0929F800D11240895E7
:102A1000CF93DF93E7ECF2E01382128288EE93E02B
:102A2000A0E0B0E084839583A683B78320E431E0FF
:102A30003183208325EC30E03587248724EC30E097
:102A40003787268720EC30E0318B208B21EC30E07B
:102A5000338B228B22EC30E0358B248B26EC30E05C
:102A6000378B268B118E128E138E148EE4E6F3E0D4
:102A70001382128284839583A683B78382E591E0D3
:102A80009183808384E791E00E94FB14C7EFD3E039
:102A900088838BE089838FE691E00E94FB148A8310
:102AA00087E791E00E94FB148B838AE791E00E9404
:102AB000FB148C838DE791E00E94FB148D8360E80A
:102AC00071E081EF93E00E94D60E64E871E08BEE36
:102AD00093E00E94D60E62E671E085EE93E00E94DC
:102AE000D60E62E671E08FED93E00E94D60EE0E72D
:102AF000F3E091E0908387E08183A2E5A28397834E
:102B000070E17087118612868FEF83878487158620
:102B100016861786108A118A128A138A148A158AD1
:102B2000168A178A108E64E6618F48EE53E0538F41
:102B3000428F148E158E168E178E10A211A212A21D
:102B400013A214A223E639E036832583B2E0B5A3AD
:102B5000B8E0B6A3A7A394A775A716A617A680AB3F
:102B600081AB12AA13AA14AA15AA16AA17AA10AE04
:102B700011AE12AE13AE14AE15AE66AF5093B003E5
:102B80004093AF031092B1031092B2031092B303BB
:102B90001092B4031092B5031092B6031092B703CB
:102BA0001092B8031092B90333A722A7E3E0E09391
:102BB000BA03E9E0E093BB03A093BC039093C10385
:102BC0007093C2031092C3031092C4038093C50391
:102BD0008093C6031092C7031092C8031092C903D2
:102BE0001092CA031092CB031092CC031092CD0323
:102BF0001092CE031092CF031092D0031092D10303
:102C00001092D2036093D3035093D5034093D4031F
:102C10001092D6031092D7031092D8031092D903C2
:102C20001092DA031092DB031092DC031092DD03A2
:102C30001092DE033093C0032093BF03E3E3F4E07C
:102C40008CE999E09183808380E090E0AFEFB0E081
:102C500082839383A483B583EDE2F4E085E999E070
:102C60009183808380E095E5AFEFB0E0828393832A
:102C7000A483B583E7E2F4E08EE899E09183808352
:102C800080E09FEFAFEFB0E082839383A483B583AE
:102C9000E1E2F4E088E899E09183808380E09FEFAF
:102CA000A0E0B0E082839383A483B583EBE1F4E0FA
:102CB00083E899E0918380838FEF9FEFA0E0B0E0FD
:102CC00082839383A483B583E5E1F4E08EE799E002
:102CD000918380838FEF90E0A0E0B0E082839383C4
:102CE000A483B583EFE0F4E087E799E091838083E4
:102CF0008FEF90E0A3E3B0E082839383A483B58356
:102D0000E9E0F4E080E799E0918380838FEF90E041
:102D1000DC0182839383A483B583E3E0F4E08AE655
:102D200099E0918380838FEF9FEFAFEFB0E08283D4
:102D30009383A483B583EDEFF3E084E699E0918378
:102D400080831282138214821582DF91CF910895BD
:102D5000CF93DF93CDB7DEB7E6970FB6F894DEBF1B
:102D60000FBECDBF789484B5826084BD84B5816088
:102D700084BD85B5826085BD85B5816085BD809146
:102D80006E00816080936E001092810080918100BE
:102D900082608093810080918100816080938100B6
:102DA000809180008160809380008091B100846078
:102DB0008093B1008091B00081608093B0008091D9
:102DC0007A00846080937A0080917A008260809398
:102DD0007A0080917A00816080937A0080917A00F5
:102DE000806880937A001092C10060E08EE00E94BB
:102DF000AE0560E08FE00E94AE0560E080E10E94D9
:102E0000AE0560E081E10E94AE0561E082E00E94D3
:102E1000AE0561E083E00E94AE0561E084E00E94BF
:102E2000AE0561E085E00E94AE0561E086E00E94AB
:102E3000AE0561E087E00E94AE0561E088E00E9497
:102E4000AE0561E089E00E94AE0561E08DE00E9480
:102E5000AE0560E082E00E94800560E083E00E94B1
:102E6000800560E084E00E94800560E085E00E94CB
:102E7000800560E086E00E94800560E08DE00E94B1
:102E80008005E091D702F091D80282E08083E09142
:102E9000D302F091D4021082E091D502F091D602D3
:102EA00080E180831092DF02E091DB02F091DC028E
:102EB00086E08083E091D902F091DA02808180611E
:102EC0008083E091D902F091DA028081886080836A
:102ED000E091D902F091DA02808180688083E091EC
:102EE000D902F091DA0280818F7D808382E390E0C5
:102EF000A0E0B0E08093CB029093CC02A093CD02EF
:102F0000B093CE02109200021092FF011092840240
:102F10001092A6020E94580984E596E09093FE0163
:102F20008093FD0185E596E09093FC018093FB0181
:102F300060E670E08FED93E00E94AE0E60E470E01A
:102F400085EE93E00E94AE0E81E00E94F10B0E949C
:102F5000350C87E090E00E94CD2990934702809342
:102F600046020E944806609348027093490280938B
:102F70004A0290934B0285EF95E00E94310B10E0DE
:102F800000E0C8010E94982D8F3F09F469C08AECC7
:102F900095E00E94310BD12C00914602109147021E
:102FA00080E996E00E9478074AE064E670E080E0FD
:102FB00090E00E943D0B0E942D0B580124E6E22E6A
:102FC000F12CC7010E94982DD5018D935D01BFEFB3
:102FD000EB1AFB0AEBE6EE16F10499F7D8018C9197
:102FE00084508B3F08F449C086E796E00E94310B7D
:102FF00084E0F801808381E0D80111969C919130A2
:1030000051F08DE596E00E94310B81E0F80181835B
:1030100080E1828381E0D80113969C91923051F037
:1030200084E496E00E94310B82E0F80183838EE114
:10303000848381E0D80115969C91933001F18BE255
:1030400096E00E94310B83E0F801858381E086835E
:1030500081E196E00E94310BC8010E94980D11C0D9
:103060000F5F1F4F0A30110509F08BCF80EE95E0FE
:103070000E94310BDD24D3948FCF80E0BDCF81112E
:10308000E7CF81E991E00E94920CC8010E94940B65
:10309000E0914602F09147028081843011F4DD20F6
:1030A00021F184E0808381E0818390E1928392E04A
:1030B00093839CE3948393E095838683CF010E945E
:1030C000940B10E000E060E0C8010E94A02D0F5FAB
:1030D0001F4F0115F4E01F07B1F70E94B00D80915A
:1030E0004602909147020E94980D90E0E92E91E0EF
:1030F000F92E10E000E0C8010E94982DD7018D93B1
:103100007D01882331F00731110509F0C5C0109207
:10311000180180914602909147020E94940B009101
:10312000460210914702F80182818093780380E77C
:1031300093E00E943711D80114968C9180939D03DF
:1031400085E993E00E943711F80186818093C203DC
:103150008AEB93E00E94371110924C0282E00E94A9
:10316000F10B0E949E0C0E94541088EA96E00E9487
:10317000310B8091350490913604A0913704B091C1
:10318000380489839A83AB83BC838091290490910E
:103190002A04A0912B04B0912C048D839E83AF83CD
:1031A000B8878091230490912404A0912504B091C4
:1031B000260489879A87AB87BC87809117049091F2
:1031C0001804A0911904B0911A048D879E87AF87C7
:1031D000B88B8091FF0390910004A0910104B091FD
:1031E0000204898B9A8BAB8BBC8B809178031091F6
:1031F0009D03181708F4182F8091C203181708F4BC
:10320000182F9E012F5F3F4F69014E0135E1830E5C
:10321000911C5601D6012D903D904D905D906D0111
:10322000712C612C062D6116D0F580E7E82E83E025
:10323000F82EF7016085262F2150330B615062165E
:1032400073060CF4602FD70113968D919C9170E05A
:10325000FC01228133816217730720F4A2019101DE
:103260000E94B3070E94F206D70113968D919C919C
:103270000E945C0862E070E080E090E00E94160628
:10328000B5E2EB0EF11CEFEDF3E0EE15FF0589F66C
:10329000FFEF6F1A7F0AC6CF0F5F1F4F2CCF69E178
:1032A00070E080E090E00E9416068C149D0409F006
:1032B000B1CF0E94480660931E0170931F01809356
:1032C0002001909321018DEC96E00E94310B3E018C
:1032D0002AE1620E711C80914D02882309F455C6C3
:1032E00081E08093190162E671E08FED93E00E9426
:1032F000150F8091E5039091E6030E94EA2F1C01CF
:103300009AAB89AB62E671E085EE93E00E94150FFF
:103310002114310409F414C667E078E0CE018A96DE
:103320000E940D2C99249394BE01665D7F4FCE01BF
:10333000C1960E94142C8C01009709F401C6DC018F
:103340008C91882389F361E078E0CE018D960E940C
:103350000D2CC8010E94EA2F9CAB8BAB98AB8FA7BA
:1033600010E0BE01635D7F4FCE018F960E94142C4A
:10337000212F30E0220F331F2B5D3D4F009729F0A6
:10338000F901918380831F5FECCFD9011D921C92BC
:103390000091250210912602D12C7801ED0CF11C30
:1033A000F7018081882369F08093240280912402B0
:1033B000082E000C990B0E94E22FD7018C93D39416
:1033C000ECCF6DEF77E0C8010E94042C892B09F047
:1033D0004CC062E671E0C3010E94D60EC3010E9498
:1033E0000A10C3010E94DA0F882319F01092190104
:1033F00010C0009127021091280262EE77E0C80108
:103400000E94042C892B49F460E071E0C3010E9402
:10341000A70FC3010E943210B1C3F8010190002030
:10342000E9F73197E01BF10B7997B0F4F801D5017A
:103430009801285E3F4F81918D93882319F0E21700
:10344000F307C9F749E150E0B50180E091E00E943F
:103450001B300E94B00DD8CF109219016DED76E0AF
:10346000C5010E940D2CB501D1CF69EF77E0C801ED
:103470000E94042C892BE1F462E671E0C5010E94F0
:10348000D60EC5010E940A1061EF73E0C5010E94CB
:103490002B10C5010E943210C5010E94130E8BA98A
:1034A0009CA90E94692A8FA598A90E94692A3CCFED
:1034B00064EF77E0C8010E94042C892B59F462E67E
:1034C00071E0C5010E94D60EC5010E940A106BEE84
:1034D00073E0DCCF6EEE77E0C8010E94042C892BEC
:1034E00009F046C062E671E0C3010E94D60EC30136
:1034F0000E940A10C3010E94DA0F811177CF8091D8
:103500002702909128020E94DD2B6C01990FEE0892
:10351000FF08C0923302D0923402E0923502F0925A
:10352000360290923B020E944806609337027093E5
:1035300038028093390290933A0260932F0270937D
:10354000300280933102909332022AE0A501C70134
:10355000B6010E944E2CF50101900020E9F7319749
:10356000AF014A195B09B501C3010E944B0F51CF4E
:1035700069EE77E0C8010E94042C892B09F048C04D
:1035800062E671E0C3010E94D60EC3010E940A10D8
:10359000C3010E94DA0F811129CF009127021091F7
:1035A000280262EE77E0C8010E94042C892B39F4CE
:1035B00080913C028823B9F06CEE76E016C06CEE88
:1035C00076E0C8010E94042C892B19F490923C02E9
:1035D000F3CF6AEE76E0C8010E94042C892B09F033
:1035E00085C310923C026AEE76E0C5010E940D2C64
:1035F000B501C3010E94A70F61E078E0C5010E94F8
:103600000D2CB501C3010E94A70F66EE76E028CF0E
:1036100064EE77E0C8010E94042C892B39F062EE39
:1036200077E0C8010E94042C892BD9F40E94350C44
:103630000E949E0C80E793E00E941B0E85E993E0B8
:103640000E941B0E8AEB93E00E941B0E64EE77E053
:10365000C3010E940D2C60EB71E0C5010E94D60EE3
:1036600018CF6BED77E0C8010E94042C892B39F547
:1036700087EC92E00E949307E091D902F091DA0280
:1036800080818F7E8083E091D902F091DA0280817F
:10369000877F8083E091D902F091DA0280818F7771
:1036A0008083E091D902F091DA0280818F7D80835E
:1036B0008091E1028093E0020C940000F0CE67ED6F
:1036C00077E0C8010E94042C892BB9F462E671E00E
:1036D000C5010E94D60EC5010E940A1080913904CE
:1036E00090913A04009711F48FE394E0B301681BC2
:1036F000790BC5010E94770FCCCE64ED77E0C8014D
:103700000E94042C892B21F480E00E94E811C7CE8E
:1037100061ED77E0C8010E94042C892B11F481E04F
:10372000F4CF6EEC77E0C8010E94042C892B11F4D1
:1037300082E0EBCF6BEC77E0C8010E94042C892B70
:1037400011F483E0E2CF68EC77E0C8010E94042C1A
:10375000892B21F482E00E948210A1CE65EC77E0F3
:10376000C8010E94042C892B11F483E0F4CF62EC91
:1037700077E0C8010E94042C892B11F484E0EBCF80
:103780006FEB77E0C8010E94042C892B11F485E0CF
:10379000E2CF6AEB77E0C8010E94042C892B21F468
:1037A00081E00E9412257BCE65EB77E0C8010E9484
:1037B000042C892B11F482E0F4CF60EB77E0C80190
:1037C0000E94042C892B11F483E0EBCF6BEA77E0A5
:1037D000C8010E94042C892B21F481E00E948627D5
:1037E0005ECE66EA77E0C8010E94042C892B11F4B2
:1037F00082E0F4CF61EA77E0C8010E94042C892BB3
:1038000011F483E0EBCF6CE977E0C8010E94042C4F
:10381000892B21F481E00E94DC2341CE67E977E027
:10382000C8010E94042C892B11F482E0F4CF62E9D4
:1038300077E0C8010E94042C892B11F483E0EBCFC0
:103840006DE877E0C8010E94042C892B21F481E007
:103850000E94712424CE68E877E0C8010E94042CFD
:10386000892B11F482E0F4CF63E877E0C8010E946D
:10387000042C892B11F483E0EBCF6EE777E0C801CD
:103880000E94042C892B21F481E00E94CA2607CED5
:1038900069E777E0C8010E94042C892B11F482E0CB
:1038A000F4CF64E777E0C8010E94042C892B11F45F
:1038B00083E0EBCF6FE677E0C8010E94042C892BF0
:1038C00021F481E00E94B525EACD6AE677E0C801DF
:1038D0000E94042C892B11F482E0F4CF65E677E096
:1038E000C8010E94042C892B11F483E0EBCF6EE514
:1038F00077E0C8010E94042C892B19F40E9454100F
:10390000CECD6AE577E0C8010E94042C892BA1F591
:1039100062E671E0C3010E94D60EC3010E940A1044
:10392000C3010E94DA0F811161CD0091270210912D
:10393000280262EE77E0C8010E94042C6091220206
:10394000892BB1F0C8010E94DD2B8F3F910569F0F2
:1039500060F0109219016EEE76E0CE0101960E94A1
:103960000D2CBE016F5F7F4F51CD80932202682FD7
:10397000C3010E94B1234DCD66E577E0C8010E94E6
:10398000042C892B21F562E671E0C3010E94D60E5A
:10399000C3010E940A10C3010E94DA0F811126CDD3
:1039A000009127021091280262EE77E0C8010E9480
:1039B000042C60912102892BD9F2C8010E94DD2BD1
:1039C0008F3F910509F028F680932102D0CF62E560
:1039D00077E0C8010E94042C892B51F562E671E062
:1039E000C3010E94D60EC3010E940A10C3010E94A7
:1039F000DA0F8111FBCC009127021091280262EEB0
:103A000077E0C8010E94042C60912302892B09F4FD
:103A1000AFCFC8010E94DD2B9FEF980F913128F0A6
:103A2000109219016BEF76E098CF809323029FCF1D
:103A30006EE477E0C8010E94042C892B09F4A0C031
:103A40006AE477E0C8010E94042C892B09F454C170
:103A500066E477E0C8010E94042C892B09F05AC063
:103A600062E671E0CE0184960E94D60ECE01849665
:103A70000E940A10CE0184960E94DA0F882349F032
:103A800010921901CE0184960E943210CE018496C4
:103A900004CD62EE77E080912702909128020E9487
:103AA000042C892B91F500E011E090928302109391
:103AB000A502109284021092A60281E00E9497094A
:103AC000811110C0612FCE0184960E94B12361E262
:103AD00077E0C3010E940D2CB301CE0184960E94B1
:103AE000A70F0F5F1F5F103801F766E177E0011144
:103AF000C9CFCE0101960E940D2CBE016F5F7F4F92
:103B0000CE0184960E94A70FBDCF109219016CE0E0
:103B100077E0EFCF1092190162E671E0C3010E94D5
:103B2000D60EB801C3010E94A70F61E078E0CE0174
:103B300001960E940D2CBE016F5F7F4FC3010E9452
:103B4000A70F66E377E0CE0101960E940D2CBE011F
:103B50006F5F7F4FC3010E94A70F67E078E0CE013F
:103B600001960E940D2CBE016F5F7F4FC3010E9422
:103B7000A70FB3018FED93E00E942B10C3018DCCF2
:103B800062E671E0C3010E94D60EC3010E940A10D2
:103B9000E0912702F091280280818CA381818DA37E
:103BA0001EA2C3010E94DA0F811120CC00912702CE
:103BB0001091280262EE77E0C8010E94042C892B44
:103BC00081F5EDB6FEB680912302282F30E0220F5A
:103BD000331F2F5F3F4FEDB7FEB7E21BF30B0FB65E
:103BE000F894FEBF0FBEEDBF0DB71EB70F5F1F4F9E
:103BF000B8010E94FC0463E377E0CE0101960E94C5
:103C00000D2CBE016F5F7F4FC3010E94A70FB8014B
:103C1000C3010E94A70F0FB6F894FEBE0FBEEDBE03
:103C2000F8CB63E377E0CE0184960E94042C892BC5
:103C300009F05CC0D8011296FD0101900020E9F75F
:103C40003197EA1BFB0B50902302852D90E0880FE3
:103C5000991FE817F90709F044C07801A7EACA2EAE
:103C6000A2E0DA2EDEAACDAAD70112968C91882383
:103C7000B9F0B2E0EB0EF11CF7014180442081F075
:103C80000E946C23882E842D0E946C238294F0EF76
:103C90008F22880EADA9BEA98D92BEABADABE4CF8D
:103CA00080912202909283028093A5021092840256
:103CB0001092A6026091210284E693E00E94DE0A3F
:103CC000F12C5F1449F0F60161916F0184E693E0F5
:103CD0000E94DE0AF394F5CF81E00E949709B801B3
:103CE00095CB1092190163E277E037CE109219015B
:103CF000C3010E94B60F8DCB4DB65EB662E671E091
:103D0000C3010E94D60EC3010E940A100091220234
:103D1000909283020093A502109284021092A60250
:103D20006091210284E693E00E94DE0A81E00E9415
:103D30009709109123020E94F1056B017C0180918B
:103D40007D02811168C0113208F010E290927D026C
:103D500090927C02FFEFF0937B0210927A028FEF39
:103D6000810F809379029092580280915802000F3F
:103D7000082B0093580280915702813009F085C0CA
:103D8000109257020E94F1056B017C01809158024C
:103D90008093BB0080917F0290918002A09181026C
:103DA000B0918202892B8A2B8B2BA1F00E94F10506
:103DB00020917F02309180024091810250918202D5
:103DC0006C197D098E099F0926173707480759077F
:103DD00008F442C08091BC0083FDD8CF25EC20932D
:103DE000BC000E94F1056B017C0180917D02813055
:103DF00009F44FC080917A02811710F410917A0271
:103E0000E9E5F2E0A1E0B2E080E0811751F19191A3
:103E10009D938F5FFACF80917F0290918002A09155
:103E20008102B0918202892B8A2B8B2B09F487CFD8
:103E30000E94F10520917F02309180024091810221
:103E4000509182026C197D098E099F092617370748
:103E50004807590708F073CF80917E020E947609C7
:103E600010E0109200021093FF0110E0F090230286
:103E70001F1588F584E693E00E94970AE12FF0E091
:103E8000E955FD4F80831F5FF1CF35EE3093BC00C5
:103E9000A8CF80917F0290918002A0918102B09181
:103EA0008202892B8A2B8B2B09F49FCF0E94F1056C
:103EB00020917F02309180024091810250918202D4
:103EC0006C197D098E099F0926173707480759077E
:103ED00008F08BCFC1CF81E00E9497098F2D90E031
:103EE000880F991F01964DB75EB7481B590B0FB647
:103EF000F8945EBF0FBE4DBF0DB71EB70F5F1F4FCB
:103F0000B8018F2D0E94FC0463E377E0CE01019697
:103F10000E940D2CBE016F5F7F4FC3010E94A70F4F
:103F2000B801C3010E94A70FC3010E943210C30150
:103F30000E94130E0FB6F8945EBE0FBE4DBEAFCA00
:103F4000809119018111E7C085E098E00E94100B73
:103F50004091E3035091E4036091DF037091E0032B
:103F600087EC92E00E9456060E942D0B62E671E0FB
:103F70008FED93E00E94150F89A99AA90E94692AE2
:103F8000C1010E94692A10924D020E9448060091C8
:103F90001E0110911F01209120013091210106176F
:103FA00017072807390708F01DC30E9448066B5FF2
:103FB0007F4F8F4F9F4F60931E0170931F0180931F
:103FC00020019093210180913B02882321F10E94DE
:103FD0004806009137021091380220913902309141
:103FE0003A026B017C01C01AD10AE20AF30A00917D
:103FF00033021091340220913502309136020C15B3
:104000001D052E053F0508F089C060E08DE00E9487
:10401000800510923B0286E00E94570520913C02E9
:104020002111A3C060E0892B09F0A8C000E713E0CC
:104030005524539488248A94912C7BE2272ED8010E
:104040001A968C911A97882371F05C961C925C9753
:104050001D964D915D916D917C915097F801418B2A
:10406000528B638B748BD80119969C91199791117F
:104070008FC0F801118A128A138A148A811112865C
:10408000F8018185843029F48285882309F47AC176
:104090001286D80118963C90189759966C9170E04A
:1040A00090E080E00E949D2C20E030E048EC52E45B
:1040B0000E947D2E6B017C01632D70E090E080E01A
:1040C0000E949D2C9B01AC01C701B6010E94DA2C15
:1040D0000E94EF2E462E361608F4432CD12CC12C0C
:1040E000E42CF12CCE14DF0408F013C2F801838114
:1040F0009481DC0112962D913C91C216D30638F4BE
:104100002189328943895489B6010E94B307BFEFE0
:10411000CB1ADB0AE5CF83E098E018CF00912F029D
:10412000109130022091310230913202601B710BEC
:10413000820B930B6B3F71058105910508F46BCFE2
:104140008DE00E94570561E0892B09F060E08DE069
:104150000E9480050E94480660932F0270933002EF
:10416000809331029093320256CF209179032250EE
:10417000223040F0892B09F059CF61E086E00E949F
:10418000800554CF20918C03222309F44BCFF2CF2A
:10419000913009F085C01D964D915D916D917C9196
:1041A0005097F801418B528B638B748B882309F4F1
:1041B00067CF1286F8018185833009F061CF82854F
:1041C00081115DCF0E944806D8015D96CD90DD90AB
:1041D000ED90FC909097C616D706E806F90608F40D
:1041E000ACC05A96CD90DC90D694C794F12CE12CBB
:1041F0000E944806F801258D368D478D50A1C21AC0
:10420000D30AE40AF50AA7019601260F371F481FB3
:10421000591FAFEFB0E00E94E02D228D338D36950F
:10422000279550E040E00E94BE2DE22FD8015C9619
:104230008C918111E095D8011D964C911D971E9689
:104240005C911E971F968C91F0E0E75FF74FE49129
:104250002E2F30E0A82FB0E00E94222EC72ED82E9D
:10426000E92EFF247601DD24CC24A52FB0E00E94A6
:10427000222E6627C62AD72AE82AF92AA42FB0E0D8
:104280000E94222E672F782F892F9927C60ED71EBE
:10429000E81EF91EF801C18AD28AE38AF48AF0CEB8
:1042A000923009F087CF882311F01A961C920E9451
:1042B0004806F801C58CD68CE78CF0A06C157D05FE
:1042C0008E059F0508F476CF0E944806D8015D96BA
:1042D000CD90DD90ED90FC909097C616D706E8063D
:1042E000F90608F067CF5C968C915C978823C9F03B
:1042F000F801118A128A138A148A8525D8015C96DE
:104300008C930E944806F801228D338D36952795AF
:10431000620F731F811D911D658F768F878F90A30C
:1043200049CF1D964D915D916D917C915097F8010B
:10433000418B528B638B748BE0CF0E944806D8016F
:104340005D96CD90DD90ED90FC909097C616D706C7
:10435000E806F90608F094CE5C968C915C9785256A
:104360005C968C930E944806F801228D338D369519
:104370002795620F731F811D911D658F768F878F23
:1043800090A37ECE0E944806D8015D96CD90DD9028
:10439000ED90FC9090976C157D058E059F0508F0BB
:1043A000A8C05A96CD90DC90F12CE12C0E944806D2
:1043B000F801258D368D478D50A1C21AD30AE40A23
:1043C000F50AA7019601260F371F481F591FAFEFA7
:1043D000B0E00E94E02D228D338D50E040E00E943D
:1043E000BE2D2095822F622D0E94312E382E35ED64
:1043F000482F3403F00111242E0F3F2F311DE22FDF
:10440000EE0F2E0F220FE22FF0E09F01AFEFB0E092
:104410000E94222E672F782F892F99272FEF30E0C7
:1044200040E050E0261B370B480B590B0E94E02D53
:10443000C72ED82EE92EFF244C2CD401AE1BBF0B67
:104440002FEF30E00E94702E672F782F892F992749
:104450002FEF30E040E050E0261B370B480B590BA4
:10446000AFEFB0E00E94E02DBB27A92F982F872F38
:10447000482F52E03516B9F0531550F0332029F08B
:1044800081E0381699F13C2C40E044244A940EC057
:10449000E3E03E1639F1F4E03F12F5CF482E332425
:1044A0003A9440E003C0382E4FEF412C842D90E029
:1044B000B0E0A0E0DC019927882750E070E060E0E0
:1044C000762F652F542F4427840F951FA61FB71FE3
:1044D000830D911DA11DB11DF801818B928BA38BC2
:1044E000B48BD7CD4C2D33243A94DFCF312C4FEF02
:1044F000DDCF0E944806D8015A962D913C91620F5B
:10450000731F811D911DF801658F768F878F90A392
:10451000C0CDF80180858E151F04A1F098F083812D
:104520009481DC0112962D913C91E216F30630F451
:1045300020E030E0A901B7010E94B307BFEFEB1AFA
:10454000FB0AE7CF81899289A389B4894589568975
:104550006789708D84179507A607B70729F05782DA
:10456000858B968BA78BB08FD8011B968C911B9750
:104570001C969C911C97891729F017965C921797A7
:104580001C968C930E944806F801C1A0D2A0E3A01B
:10459000F4A06C197D098E099F0969387341810562
:1045A000910518F0D80117965C92F801878188234D
:1045B00089F017820E944806D80191966D937D93E9
:1045C0008D939C9394970E94F206F80183819481C5
:1045D0000E945C080B5D1F4F2FED33E02017310761
:1045E00009F02DCD0E94480600911A0110911B017F
:1045F00020911C0130911D01061717072807390764
:1046000020F50E944806675E7F4F8F4F9F4F609353
:104610001A0170931B0180931C0190931D018091DE
:104620004502813009F440C048F0823009F444C0AA
:10463000833009F449C01092450207C08EE00E9401
:10464000DF0590933E0280933D0280914C028823C7
:1046500009F10E94480600914802109149022091F8
:104660004A0230914B02601B710B820B930B61313C
:1046700077428105910570F0809146029091470242
:104680000E94940B80914602909147020E94980DDF
:1046900010924C020E94FF06882311F40C946B19AF
:1046A0000E945A120C946B198FE00E94DF059093C0
:1046B000400280933F02C9CF80E10E94DF059093C2
:1046C000420280934102C1CF81E10E94DF059093B5
:1046D000440280934302B9CF982F80ED890F8A302E
:1046E00070F08FEB890F863018F489EC890F0895EC
:1046F0008FE9890F863010F489EAF8CF80E00895B9
:10470000EF92FF920F931F93CF93DF93CDB7DEB756
:104710002E970FB6F894DEBF0FBECDBF7C01CB0144
:10472000BA012AE08E010F5F1F4FA8010E94372CAB
:10473000F80101900020E9F73197AF01401B510BC0
:10474000B801C7010E944B0F2E960FB6F894DEBF3A
:104750000FBECDBFDF91CF911F910F91FF90EF90D2
:104760000895EF92FF920F931F93CF93DF9300D0A2
:1047700000D0CDB7DEB77C01862F4AE08E010F5FF7
:104780001F4FB80190E00E942C2CF80101900020EE
:10479000E9F73197AF01401B510BB801C7010E94E7
:1047A0004B0F0F900F900F900F90DF91CF911F91B3
:1047B0000F91FF90EF900895EF92FF920F931F9348
:1047C000CF93DF93CDB7DEB72E970FB6F894DEBF49
:1047D0000FBECDBF182F62E671E0CE0109960E9490
:1047E000D60ECE0109960E940A10CE0109960E94AB
:1047F000DA0F8823B9F010921901CE0109960E94B0
:104800003210CE0109960E94130E2E960FB6F89420
:10481000DEBF0FBECDBFDF91CF911F910F91FF90F3
:10482000EF900895E0902702F090280262EE77E082
:10483000C7010E94042C892B41F1C7010E94DD2B86
:104840007C018530910508F045C0BC01CE01099678
:104850000E94770F212F2150330BC90125E2289F99
:104860008001299F100D112400591C4FF8018185EA
:104870008E1519F281E08287E1860E944806F801D0
:10488000658F768F878F90A3B8CFE12FE150FF0B14
:1048900025E22E9F80012F9F100D112400591C4FDF
:1048A000F8016185CE0109960E94B123F801818546
:1048B0008250833008F0A1CF61E078E0CE0101960C
:1048C0000E940D2CBE016F5F7F4FCE0109960E94A2
:1048D000A70F93CF10921901CE0109960E94B60F2F
:1048E0008CCFCF92DF92FF920F931F93CF93DF93E2
:1048F000CDB7DEB72E970FB6F894DEBF0FBECDBF93
:10490000182F62E671E0CE0107960E94D60ECE0106
:1049100007960E940A10CE0107960E94DA0FF82E21
:104920008823C1F010921901CE0107960E9432101F
:10493000CE0107960E94130E2E960FB6F894DEBF96
:104940000FBECDBFDF91CF911F910F91FF90DF90F0
:10495000CF900895C0902702D090280262EE77E0B1
:10496000C6010E94042C892B09F1B601CE010196E3
:104970000E94D60E50E040E0BE01635F7F4F898108
:104980009A810E94F22A062FED85FE85308133231D
:10499000F9F0CE0101960E94130EF110C5CF1092CE
:1049A0001901CE0107960E94B60FBECF212F2150CC
:1049B000330BC90125E2289FF001299FF00D112436
:1049C000E059FC4F618DCE0107960E94B123ACCF18
:1049D000462F572FBC014536510561057105CCF6B0
:1049E000CE0107960E948023212F2150330BC9014D
:1049F00025E2289FF001299FF00D1124E059FC4F7A
:104A0000018F053608F004E6018F25E2289FF001AA
:104A1000299FF00D1124E059FC4F81E08783FF248A
:104A2000F394B7CFCF92DF92EF92FF920F931F9341
:104A3000CF93DF93CDB7DEB72E970FB6F894DEBFD6
:104A40000FBECDBF182F62E671E0CE0107960E941F
:104A5000D60ECE0107960E940A10CE0107960E943C
:104A6000DA0F082F8823C9F010921901CE0107969A
:104A70000E943210CE0107960E94130E2E960FB69A
:104A8000F894DEBF0FBECDBFDF91CF911F910F9184
:104A9000FF90EF90DF90CF900895E0902702F09084
:104AA000280262EE77E0C7010E94042C892B01F1F5
:104AB000B701CE0101960E94D60E50E040E0BE0143
:104AC000635F7F4F89819A810E94F22AED85FE857E
:104AD0002081222319F1CE0101960E94130E0111AB
:104AE000C5CF10921901CE0107960E94B60FBECF16
:104AF000212F2150330BC90125E2289FF001299F66
:104B0000F00D1124E059FC4F0380F481E02D608505
:104B10006150CE0107960E94B123A8CF6B017C01A2
:104B20003FEFC316D104E104F10429F024F0C12CB5
:104B3000D12C7601CA94B701A601CE0107960E9436
:104B40008023212F2150330BC90125E2289FF0013A
:104B5000299FF00D1124E059FC4FC3866C2D8381F1
:104B600094810E941A0801E0B6CFCF92DF92EF92B3
:104B7000FF920F931F93CF93DF93CDB7DEB72E979E
:104B80000FB6F894DEBF0FBECDBF082F62E671E00E
:104B9000CE0107960E94D60ECE0107960E940A10FB
:104BA000CE0107960E94DA0F182F8823C9F01092C1
:104BB0001901CE0107960E943210CE0107960E947D
:104BC000130E2E960FB6F894DEBF0FBECDBFDF9149
:104BD000CF911F910F91FF90EF90DF90CF900895AC
:104BE000E0902702F090280262EE77E0C7010E9471
:104BF000042C892B01F1B701CE0101960E94D60E3B
:104C000050E040E0BE01635F7F4F89819A810E943E
:104C1000F22AED85FE8540814423E9F0CE0101961C
:104C20000E94130E1111C5CF10921901CE010796E3
:104C30000E94B60FBECF0150110B85E2809FF0019C
:104C4000819FF00D1124E059FC4F6085CE0107963D
:104C50000E94B123AECF6B017C012FEFC216D104AD
:104C6000E104F10429F024F0C12CD12C7601CA947E
:104C70001C141D041E041F0424F0C12CD12C760129
:104C8000C394B701A601CE0107960E94802301506C
:104C9000110B25E2209FC001219F900D1124DC0102
:104CA000A059BC4F7D0118968C911897C81609F42D
:104CB0005FC01396ED91FC914481558170E060E0F6
:104CC000818592850E940D300E94F206F701838152
:104CD00094810E945C08D7011396ED90FC90E1143A
:104CE000F10489F0F701818592850E94692AD70134
:104CF00016968D919C9197FD03C060E00E94AE05D1
:104D0000C7010E94692A85E2809FF001819FF00D12
:104D10001124E059FC4FC0868081813059F5E09123
:104D20004602F0914702C28225E2209FC001219FE6
:104D3000900D11248C0100591C4FC8010E9437119D
:104D4000FF24F394F0924C020E94480660934802BC
:104D50007093490280934A0290934B02F801858533
:104D60009685A785B089818B928BA38BB48BF782B4
:104D700011E054CF823031F4E0914602F0914702C5
:104D8000C482D2CF833081F6E0914602F09147028F
:104D9000C682CACFBF92CF92DF92EF92FF920F935B
:104DA0001F93CF93DF93CDB7DEB72F970FB6F8944D
:104DB000DEBF0FBECDBFB82E62E671E0CE01089611
:104DC0000E94D60ECE0108960E940A10CE010896C7
:104DD0000E94DA0FF82E8823D1F010921901CE012B
:104DE00008960E943210CE0108960E94130E2F964C
:104DF0000FB6F894DEBF0FBECDBFDF91CF911F91EC
:104E00000F91FF90EF90DF90CF90BF900895C090EA
:104E10002702D090280262EE77E0C6010E94042C9F
:104E20008E010F5F1F4F892BF1F0B601C8010E9460
:104E3000D60E50E040E0BE01625F7F4F89819A81CB
:104E40000E94F22AEE85FF854081442361F1C8016A
:104E50000E94130EF110C3CF10921901CE010896D3
:104E60000E94B60FBCCF2B2D2150330BC90125E278
:104E7000289FF001299FF00D1124E059FC4F4AE0D2
:104E8000B801828D938D0E94702CF8010190002052
:104E9000E9F73197AF01401B510BB801CE010896DD
:104EA0000E944B0F9CCF6B017C0131E1C31637E2AE
:104EB000D306E104F10434F090E1C92E97E2D92E33
:104EC000E12CF12C84E6C816D104E104F1042CF4A1
:104ED00084E6C82ED12CE12CF12CB701A601CE011D
:104EE00008960E9480232B2D2150330BC90125E207
:104EF000289FF001299FF00D1124E059FC4FD38E1B
:104F0000C28E81E08783FF24F394A1CF2F923F923A
:104F10004F925F926F927F928F929F92AF92BF92C9
:104F2000CF92DF92EF92FF920F931F93CF93DF9375
:104F3000CDB7DEB7A7970FB6F894DEBF0FBECDBFD3
:104F4000282E62E671E0CE014E960E94D60ECE016A
:104F50004E960E940A10CE014E960E94DA0F382E0D
:104F6000882319F110921901CE014E960E94321039
:104F7000CE014E960E94130EA7960FB6F894DEBF90
:104F80000FBECDBFDF91CF911F910F91FF90EF909A
:104F9000DF90CF90BF90AF909F908F907F906F9059
:104FA0005F904F903F902F900895009127021091AD
:104FB000280262EE77E0C8010E94042C892B09F4D4
:104FC00060C1B801CE0148960E94D60E088D198D99
:104FD0000115110509F0C2C188E2482E81E0582E62
:104FE000720145E2822D8150990B9C01429FC001C4
:104FF000439F900D112480599C4F3C01ADE06A0EF7
:10500000711C6C01B1E1CB0ED11CFC013796FDA3E4
:10501000ECA35E01FDE0AF0EB11C9C012B5F3F4F86
:105020003FA32EA3D7010D911D917D01F801808032
:105030009180B401888D998D0E94042C892B09F0F0
:105040005FC0B401CE0101960E940D2CD8011296CA
:105050008C91129713969C91139714962C911497F8
:1050600015963C91F3018083918322833383D6018B
:105070008C9311969C93119712962C9312971396DA
:105080003C9341E0ECA1FDA140833F932F939F937C
:105090008F9383E691E09F938F931F928BE08F9382
:1050A000BF92AF920E942A30B501CE014E960E9467
:1050B000A70F61E078E0CE0101960E940D2CBE01A1
:1050C0006F5F7F4FCE014E960E94A70FF80180813F
:1050D0009181AEA1BFA18D939C93B401CE010196A5
:1050E0000E940D2CBE016F5F7F4FCE014E960E9435
:1050F000A70F0FB6F894DEBF0FBECDBF3324339495
:10510000FCE3EF16F1E0FF0609F08CCFCE014896E4
:105110000E94130E311028CF60912702709128024F
:10512000CE010D960E94D60E50E040E0BE01685EB2
:105130007F4F8D859E850E94F22A4B015C01E88D90
:10514000F98D8081882331F081149104A104B10488
:1051500009F48AC081149104A10421E0B2060CF084
:1051600083C08BE090E00E94CD298C01BF92AF926A
:105170009F928F9283E691E09F938F931F928BE093
:105180008F931F930F930E942A30B801CE014E9641
:105190000E94A70F0FB6F894DEBF0FBECDBF01155A
:1051A000110519F0C8010E94692AA22DA150BB0B5C
:1051B0006D0185E28A9FF0018B9FF00D1124E0596B
:1051C000FC4F85869686A786B08A818A928AA38AB2
:1051D000B48A81E087833F01B5E06B0E711CD20178
:1051E000ED91FD912D0182819381A481B581881675
:1051F0009906AA06BB0629F500811181F3011183E6
:105200000083B801CE0101960E940D2C61E078E088
:10521000CE0101960E940D2CBE016F5F7F4FCE0123
:105220004E960E94A70FB801CE0101960E940D2C48
:10523000BE016F5F7F4FCE014E960E94A70F3324B1
:105240003394E414F50459F631100EC085E28C9DB8
:10525000F0018D9DF00D1124E059FC4F83E699E09B
:105260009683858333243394CE010D960E94130ECA
:1052700031107ACE10921901CE014E960E94B60FCF
:1052800073CE8BE090E00E94CD298C01822D81505D
:10529000990B1C0185E2829DF001839DF00D112484
:1052A000E059FC4FDF011D9613968C9113978F9355
:1052B00012968C9112978F9311968C918F9385856E
:1052C0008F9383E691E09F938F931F928BE08F9350
:1052D0001F930F930E942A30B801CE014E960E9470
:1052E000A70F0FB6F894DEBF0FBECDBF0115110595
:1052F00019F0C8010E94692A85E2829DF001839D10
:10530000F00D1124E059FC4F05811681B801CE0142
:1053100001960E940D2C63E679E0CE0101960E9471
:10532000042C892B09F420CE61E078E0CE010196AF
:105330000E940D2CBE016F5F7F4FCE014E960E94E2
:10534000A70FB801CE0101960E940D2CBE016F5F20
:105350007F4FCE014E960E94A70F06CEF801819195
:105360008F01882309F438CE082E000C990B0E9477
:10537000E22FF80131978083F1CF8FED93E00E9407
:10538000130E85EE93E00E94130E8BEE93E00E94C5
:10539000130E81EF93E00C94130E0F931F93CF9392
:1053A000DF938230910510F482E090E0E0913B04BD
:1053B000F0913C0430E020E0B0E0A0E0309799F4B8
:1053C0002115310509F44AC0281B390B2430310559
:1053D000D8F58A819B816115710589F1FB01938361
:1053E0008283FE0111C040815181028113814817DF
:1053F0005907E0F04817590799F4109761F0129691
:105400000C93129713961C933296CF01DF91CF9194
:105410001F910F91089500933B0410933C04F4CF27
:105420002115310551F04217530738F0A901DB016E
:105430009A01BD01DF01F801C1CFEF01F9CF9093CF
:105440003C0480933B04CDCFFE01E20FF31F819318
:1054500091932250310939832883D7CF2091390481
:1054600030913A04232B41F42091240130912501FD
:1054700030933A0420933904209122013091230182
:105480002115310541F42DB73EB7409126015091C9
:105490002701241B350BE0913904F0913A04E217FF
:1054A000F307A0F42E1B3F0B2817390778F0AC0147
:1054B0004E5F5F4F2417350748F04E0F5F1F509324
:1054C0003A0440933904819391939FCFF0E0E0E058
:1054D0009CCFCF93DF930097E9F0FC0132971382C2
:1054E0001282A0913B04B0913C04ED0130E020E039
:1054F0001097A1F420813181820F931F20913904EC
:1055000030913A042817390709F061C0F0933A0442
:10551000E0933904DF91CF910895EA01CE17DF07B8
:10552000E8F54A815B819E0141155105B1F7E9011A
:10553000FB83EA8349915991C40FD51FEC17FD07EE
:1055400061F4808191810296840F951FE90199830E
:105550008883828193819B838A83F0E0E0E01296C6
:105560008D919C9113970097B9F52D913C911197CE
:10557000CD010296820F931F2091390430913A0495
:105580002817390739F6309751F510923C041092DC
:105590003B04B0933A04A0933904BCCFD383C283B5
:1055A00040815181840F951FC817D90761F44E5F60
:1055B0005F4F88819981480F591F518340838A81A9
:1055C0009B81938382832115310509F0B0CFF0933D
:1055D0003C04E0933B049ECFFD01DC01C0CF13826D
:1055E0001282D7CFB0E0A0E0E8EFFAE20C94EC2D05
:1055F0005C016B017A016115710519F0FB01918362
:105600008083E114F10449F0C7010297839728F0E1
:1056100060E070E0CB019CC05E01E5012196F501E0
:105620001081812F90E00E94FB2B892BA9F71D325E
:1056300009F056C02196F501118101E0E114F10451
:1056400009F4AEC0F0E1EF16F10409F08EC010339A
:1056500041F488818F7D883509F083C019812296B5
:105660000260E0E1EE2EF12C88248A94982CA82C7C
:10567000FFE0BF2E20E060E070E0CB0127010F2C9F
:10568000000C66087708FE0150ED352E310E39E02A
:10569000331538F43FEB310F3A31A0F549EC342E95
:1056A000310E3E141F04BCF52F3FB9F08616970645
:1056B000A806B90670F1A30192010E94AE2D232D18
:1056C00030E050E040E0620F731F841F951F6217A7
:1056D000730784079507E8F021E021961081D3CF66
:1056E0001B3221F4E5012296F501118100E0A6CFDD
:1056F00078E0E72EF12C88248A94982CA82C6FE16E
:10570000B62EB8CF3FE9310F3A3128F439EA332EBB
:10571000C7CF2FEFE2CFC114D10431F02223E9F03B
:105720002197F601D183C08300FF07C09095809533
:10573000709561957F4F8F4F9F4F2F3F49F482E2C5
:1057400090E090933E0480933D046FEF7FEFCB0198
:10575000CDB7DEB7E1E10C94082E01FFE5CF22972B
:10576000E0CF10E3E114F10419F23AE0E316F1049A
:10577000E9F080E1E816F10409F473CFE8E0EE16F1
:10578000F10409F4B8CF6FEF7FEFCB0197010F2C35
:10579000000C440B550B0E94BE2D49015A016ACFE3
:1057A000103309F456CF9AE0E92EF12C89E9882EBE
:1057B000982CA82C89E1B82E5DCFFC018827992769
:1057C000E89421912032E9F3293010F02E30C8F30B
:1057D0002B3241F02D3239F4689404C00E94462CDB
:1057E000820F911D219120532A30C0F31EF4909511
:1057F00081959F4F089591110C948A2C803219F055
:1058000089508550C8F70895FB01DC018D91059002
:1058100080190110D9F3990B0895FB01DC01059063
:105820000D920020E1F70895FC01A081B181AD0146
:10583000109681F03D91FB01019003160110E1F7F4
:10584000C9F7002011F4D00102C01E921196FC018C
:10585000A083B183CA010895BB274A3031F499234C
:1058600022F4BDE2909581959F4F0C94712CBB273B
:105870002A3051F4992342F4BDE2909580957095B9
:1058800061957F4F8F4F9F4F0C944F2C7AE0979FDD
:10589000902D879F802D910D11240895BB27FA012B
:1058A000A62F6217710581059105330B30FB66F059
:1058B000AA27660F771F881F991FAA1FA21710F02B
:1058C000A21B63953850A9F7A05DAA3308F0A95D23
:1058D000A19336F7B111B1931082CA010C948D2CAB
:1058E000BB27FB015527AA27880F991FAA1FA417BA
:1058F00010F0A41B83955051B9F7A05DAA3308F0AE
:10590000A95DA193009779F7B111B1931192CB01E1
:105910000C948D2C992788270895DC01FC01672FB2
:1059200071917723E1F7329704C07C916D93708376
:105930006291AE17BF07C8F30895E89409C097FBBA
:105940003EF490958095709561957F4F8F4F9F4F56
:105950009923A9F0F92F96E9BB279395F69587959A
:1059600077956795B795F111F8CFFAF4BB0F11F45D
:1059700060FF1BC06F5F7F4F8F4F9F4F16C0882304
:1059800011F096E911C0772321F09EE8872F762F3A
:1059900005C0662371F096E8862F70E060E02AF07B
:1059A0009A95660F771F881FDAF7880F9695879567
:1059B00097F908950E94ED2C0C945E2D0E94502DB5
:1059C00038F00E94572D20F0952311F00C94472DAC
:1059D0000C944D2D11240C94922D0E946F2D70F378
:1059E000959FC1F3950F50E0551F629FF001729F84
:1059F000BB27F00DB11D639FAA27F00DB11DAA1F93
:105A0000649F6627B00DA11D661F829F2227B00DDF
:105A1000A11D621F739FB00DA11D621F839FA00D6A
:105A2000611D221F749F3327A00D611D231F849FBA
:105A3000600D211D822F762F6A2F11249F57504011
:105A40009AF0F1F088234AF0EE0FFF1FBB1F661F8C
:105A5000771F881F91505040A9F79E3F510580F055
:105A60000C94472D0C94922D5F3FE4F3983ED4F3B1
:105A7000869577956795B795F795E7959F5FC1F7F9
:105A8000FE2B880F911D9695879597F9089597F9A4
:105A90009F6780E870E060E008959FEF80EC0895D4
:105AA00000240A94161617061806090608950024FD
:105AB0000A9412161306140605060895092E039477
:105AC000000C11F4882352F0BB0F40F4BF2B11F4EB
:105AD00060FF04C06F5F7F4F8F4F9F4F089557FD4A
