:100000000C945F040C9487040C9487040C9487046C
:100010000C9487040C9487040C9487040C94870434
:100020000C9487040C9487040C9487040C94870424
:100030000C9487040C9487040C9487040C94870414
:100040000C9404110C9487040C9474110C944E11AC
:100050000C9487040C9487040C9487040C948704F4
:100060000C94A6110C948704232D2D2D2D2D2D2DB0
:100070002D2D2D2D2D2D2D2D2D2D2D2D2D2D2D2DB0
:100080002D2D2D2D2D2D2D2D2D2D2D2D2D002309FB
:10009000636F6C6F726E616D653A20002309267381
:1000A000747269703A2000230926282A73747269D1
:1000B00070293A20002309706572635F6C69743A95
:1000C00020200023096E756D706978656C733A2085
:1000D000002309666C617368206F6E3A202000234C
:1000E000096379636C655F6D733A20200023096DA5
:1000F0006F64653A202020202020002309636F6C64
:100100006F723A202020202000230973697A655FEE
:100110006F663A20202000230926746869733A200C
:100120002020202000205D202D2D2D2D2D2D2D2D4A
:100130002D2D2D00232D2D2D2D2D2D2D2D2D2D2033
:10014000534C494E464F3A205B2000230021494E34
:1001500056414C49445F494E5055543A0056414C23
:1001600055455F4D495353494E470056414C5545FF
:100170005F4552524F5200415242005241494E4255
:100180004F570050554C534500464C41534800537F
:1001900054454144590044454641554C54002300C0
:1001A000232D2D2D2D2D2D2D2D2D2D2D2D2D2D2D89
:1001B0002D2D2D2D2D2D2D2D2D2D2D2D2D2D2D2D6F
:1001C0002D2D2D2D2D2D2D2D2D2D2D2D2D2D2D2D5F
:1001D0002D2D2D0023204465736372697074696F3F
:1001E0006E202844455343292020202020203A20F7
:1001F00000232043757272656E74205665727369B0
:100200006F6E2028564552292020203A20002320B6
:1002100043757272656E742053746174696F6E20D9
:1002200049442028534944293A2000232D2D2D2DBF
:100230002D2D2D2D2D2D2D2D2D2D2D2D2D2D2D2DEE
:100240002D2D2D2D2D2D2D2D2D2D2D2D2D2D2D2DDE
:100250002D2D2D2D2D2D2D2D2D2D2D2D2D2D002305
:10026000205479706520273E48454C502720206651
:100270006F72206D6F72652064657461696C2E0009
:10028000204020002F002F002320434F4D50494C89
:100290004544204F4E3A2000232056455253494FA3
:1002A0004E20444154453A2031322F352F323032DE
:1002B000330023205265642042796572202020207B
:1002C0006769746875622E636F6D2F6D697A7261EC
:1002D00069746800232D2D2D2D2D2D2D2D2D2D2DC7
:1002E0002D2D2D2D2D2D2D2D2D2D2D2D2D2D2D2D3E
:1002F0002D2D2D2D2D2D2D2D2D2D2D2D2D2D2D2D2E
:100300002D2D2D2D2D2D2D002320534E3A00232051
:100310005549443A002320002320534E495045209C
:10032000763420666F722041726475696E6F0023A7
:100330002D2D2D2D2D2D2D2D2D2D2D2D2D2D2D2DED
:100340002D2D2D2D2D2D2D2D2D2D2D2D2D2D2D2DDD
:100350002D2D2D2D2D2D2D2D2D2D2D2D2D2D2D2DCD
:100360002D2D002323232323484541444552232395
:1003700023232300230953686F77696E673A2000AF
:100380002320537461636B204C6967687420537435
:1003900061727475702053657175656E63650023B5
:1003A000232323235245414459232323232300534A
:1003B00049445F3E5F32340042494E003000310014
:1003C000232D2D2D2D2D2D2D2D2D2D2D2D2D2D2D67
:1003D0002D2D2D2D2D2D2D2D2D2D2D2D2D2D2D2D4D
:1003E0002D2D2D2D2D2D2D2D2D2D2D2D2D2D2D2D3D
:1003F0002D2D2D002300232020204D6178204F75C6
:1004000074707574204C656E6774683A2000232000
:1004100020204D617820534944204C656E677468F4
:100420003A2000232020204D6178204E756D6265B2
:1004300072206F6620546F6B656E733A2000232024
:1004400020204D617820496E707574205374726954
:100450006E67204C656E6774683A20002320202068
:10046000546F6B656E2069732020204944454E54BB
:1004700049464945523A56414C55453A554E4954DC
:10048000532020776865726520554E495453206982
:1004900073206F7074696F6E616C200023202020C0
:1004A000524553504F4E5345533A20204041303A25
:1004B0003132333A4152422020204044363A313AD8
:1004C00042494E2020405349443A323932390023C0
:1004D0002020204558414D504C45533A2020203E85
:1004E00041303A3F2020202020202020203E44364A
:1004F0003A312020202020203E5349443A323932DC
:1005000039002320202000443600232020200053DF
:100510004C5800534C5400534C5000534C4D005316
:100520004C4300534C420023202020002320202055
:100530000023202020436F6D6D616E647320617213
:10054000653A00232020203E203D207374617274A0
:1005500020202040203D2072657370202023203D04
:1005600020636F6D6D656E74202021203D206572C3
:10057000726F7200232020204C65616420636861E3
:1005800072616374657273206172653A0023202082
:1005900020466F726D61743A20203E434D443A56B6
:1005A000414C55453C43523E3C4C463E0023205373
:1005B000657269616C20436F6E74726F6C20496E56
:1005C000737472756374696F6E7300232D2D2D2DF6
:1005D0002D2D2D2D2D2D2D2D2D2D2D2D2D2D2D2D4B
:1005E0002D2D2D2D2D2D2D2D2D2D2D2D2D2D2D2D3B
:1005F0002D2D2D2D2D2D2D2D2D2D2D2D2D2D002362
:10060000004F55545F4F465F52414E474500425997
:1006100054455F53455454494E475F455252003F3D
:100620005F4D495353494E47004E4F4E455F464F2D
:10063000554E44002C00444154415F4C454E4754B4
:10064000485F45525200307800554E4B4E4F574E42
:100650005F434D445F455252004932460049325291
:100660000049325700493242004932530049324171
:1006700000534C494E464F00534C583300534C588E
:100680003200534C583100534C543300534C5432C5
:1006900000534C543100534C503300534C503200F3
:1006A000534C503100534C4D3300534C4D3200539A
:1006B0004C4D3100534C433300534C433200534CA8
:1006C000433100534C423300534C423200534C42AE
:1006D0003100443500443400443300443200413397
:1006E0000041320041310041300052414D0052453D
:1006F000424F4F54003F0048454C50004245455042
:1007000000424C494E4B004445534300564552006D
:100710005349440055494400534E003A00400021DB
:10072000002000FFF9F3EDE7E1DCD7D1CCC7C2BE72
:10073000B9B4B0ACA8A3A09C9894918D8A8683800C
:100740007D7A7774716E6B696664615F5D5A585625
:100750005452504E4C4A4847454342403E3D3B3A36
:1007600039373635333231302E2D2C2B2A29282794
:1007700026252423232221201F1E1E1D1C1C1B1A7C
:100780001A19181817171616151514141313121210
:1007900011111010100F0F0F0E0E0E0D0D0D0C0C71
:1007A0000C0B0B0B0B0A0A0A0A09090909080808AD
:1007B00008080707070707070606060606060605D0
:1007C00005050505050505040404040404040404E2
:1007D00004030303030303030303030303030302E9
:1007E00002020202020202020202020202020202E9
:1007F00002020201010101010101010101010101E6
:1008000001010101010101010101010101010101D8
:1008100001010101010101010101010101010101C8
:1008200000000000000000240027002A0000000053
:1008300000250028002B00000000002300260029CE
:100840000004040404040404040202020202020379
:100850000303030303010204081020408001020483
:100860000810200102040810200000000800020106
:100870000000030407000000000000000000424CDC
:1008800041434B0057484954450056494F4C455445
:1008900000494E4449474F00424C5545004151558F
:1008A0004100475245454E0059454C4C4F57004F6B
:1008B00052414E47450052454400D2125F2A11244E
:1008C0001FBECFEFD8E0DEBFCDBF11E0A0E0B1E0AA
:1008D000E6E1F7E602C005900D92A63DB107D9F713
:1008E00024E0A6EDB1E001C01D92A536B207E1F704
:1008F00014E0CEE5D4E004C02197FE010E941D2F34
:10090000CD35D107C9F70E9478140C947E330C942E
:100910000000CF93DF93A7ECB2E0C0E0DC2FDD0F47
:100920004D2F50E0C817F9F09D91292F30E0E4E0F9
:1009300035952795EA95E1F79F702A3080F4205D80
:100940009A3078F4905D460F571FFA012083E1E05A
:10095000ED0FE60FF72FF11D9083CF5FDFCF295CFE
:10096000EFCF995CF0CF640F751FFB011082DF9110
:10097000CF91089530E020E041E2E1E0F0E0263060
:10098000310514F4F0E0E0E0B901625F7F4FE60F5B
:10099000F71F40935700E491DC01ED93CD012F5FE9
:1009A0003F4F2930310549F70895833081F028F40D
:1009B000813099F08230A9F008958730A9F088300D
:1009C000C9F08430B1F4809180008F7D03C08091A4
:1009D00080008F7780938000089584B58F7784BDE1
:1009E000089584B58F7DFBCF8091B0008F77809381
:1009F000B00008958091B0008F7DF9CFCF93DF9341
:100A0000282F30E0F901E759F74F8491F901EB5AAB
:100A1000F74FD491F901EF5BF74FC491CC23A1F0CC
:100A200081110E94D504EC2FF0E0EE0FFF1FE95C6E
:100A3000F74FA591B491EC91ED2381E090E009F49A
:100A400080E0DF91CF91089580E090E0FACF1F938E
:100A5000CF93DF93282F30E0F901E759F74F8491C6
:100A6000F901EB5AF74FD491F901EF5BF74FC491BD
:100A7000CC23A9F0162F81110E94D504EC2FF0E0B1
:100A8000EE0FFF1FE35DF74FA591B4918FB7F89478
:100A9000EC91111108C0D095DE23DC938FBFDF915C
:100AA000CF911F910895DE2BF8CFCF93DF9390E085
:100AB000FC01EB5AF74F24918F5B974FFC01849117
:100AC0008823D1F090E0880F991FFC01ED5DF74F6E
:100AD000A591B491FC01E35DF74FC591D4916111EB
:100AE0000EC09FB7F8948C91E22FE0958E238C93E3
:100AF0002881E223E8839FBFDF91CF9108958FB7CC
:100B0000F894EC91E22BEC938FBFF6CF8E5080647B
:100B100080937C0080917A00806480937A00809139
:100B20007A0086FDFCCF809178009091790008953D
:100B30003FB7F8948091730290917402A09175026E
:100B4000B091760226B5A89B05C02F3F19F00196FB
:100B5000A11DB11D3FBFBA2FA92F982F8827BC0117
:100B6000CD01620F711D811D911D42E0660F771F3F
:100B7000881F991F4A95D1F708958F929F92AF923F
:100B8000BF92CF92DF92EF92FF924B015C010E94E5
:100B900098056B017C010E9498056C197D098E09EE
:100BA0009F09683E734081059105A8F321E0821AF0
:100BB0009108A108B10888EEC80E83E0D81EE11C98
:100BC000F11C81149104A104B10429F7FF90EF9066
:100BD000DF90CF90BF90AF909F908F9008952FB7E8
:100BE000F89460916F0270917002809171029091FF
:100BF00072022FBF0895089508950895AF92BF928D
:100C0000CF92DF92EF92FF920F931F93CF93DF93D8
:100C10006C017B018B01040F151FEB015E01AE1807
:100C2000BF08C017D10759F06991D601ED91FC9129
:100C30000190F081E02DC6010995892B79F7C50156
:100C4000DF91CF911F910F91FF90EF90DF90CF90A8
:100C5000BF90AF900895FC01538D448D252F30E057
:100C6000842F90E0821B930B541710F0CF960895B9
:100C700001970895FC01918D828D981761F0A28DE6
:100C8000AE0FBF2FB11D5D968C91928D9F5F9F73AC
:100C9000928F90E008958FEF9FEF08950F931F9329
:100CA0000E94EF056093EF027093F0028093F102CF
:100CB0009093F20287EE92E00E943A0697FF1DC0E1
:100CC0000E94EF050091EF021091F0022091F102D5
:100CD0003091F202601B710B820B930B0091EB02BF
:100CE0001091EC022091ED023091EE026017710735
:100CF00082079307F8F28FEF9FEF1F910F910895EE
:100D0000FC01918D828D981731F0828DE80FF11DD5
:100D1000858D90E008958FEF9FEF0895FC01918DF0
:100D2000228D892F90E0805C9F4F821B91098F73E9
:100D30009927089587EE92E00E948E06892B31F064
:100D40006AE070E080E090E00C94BD05089587EEC5
:100D500092E00E948E0621E0892B09F420E0822F88
:100D60000895FC01A48DA80FB92FB11DA35ABF4F40
:100D70002C91848D90E001968F739927848FA6899A
:100D8000B7892C93A089B1898C91837080648C93EE
:100D9000938D848D981306C00288F389E02D80819D
:100DA0008F7D80830895EF92FF920F931F93CF93CF
:100DB000DF93EC0181E0888F9B8D8C8D98131AC096
:100DC000E889F989808185FF15C09FB7F894EE897D
:100DD000FF896083E889F9898081837080648083DA
:100DE0009FBF81E090E0DF91CF911F910F91FF9025
:100DF000EF900895F62E0B8D10E00F5F1F4F0F73CD
:100E00001127E02E8C8D8E110CC00FB607FCFACF87
:100E1000E889F989808185FFF5CFCE010E94B1066E
:100E2000F1CFEB8DEC0FFD2FF11DE35AFF4FF08258
:100E30009FB7F8940B8FEA89FB8980818062CFCFBE
:100E40000F931F93CF93DF938C01D0E0C0E0F801A4
:100E5000EC0FFD1F6491662341F087EE92E00E9443
:100E6000D306892B11F02196F2CFCE01DF91CF91DD
:100E70001F910F910895CF93DF93EC01888D882304
:100E8000B9F0AA89BB89E889F9898C9185FD03C0ED
:100E9000808186FD0DC00FB607FCF7CF8C9185FFD2
:100EA000F2CF808185FFEDCFCE010E94B106E9CF60
:100EB000DF91CF9108958F929F92AF92BF92CF9280
:100EC000DF92EF92FF921F93CF93DF93FC014A01D1
:100ED000AA24BB24C82DC32ED42EE52EFF241C2DFE
:100EE000D22F8085882361F0889E40011124C92D6E
:100EF0008C9D600111241D2D829FD0011124DB2FB8
:100F0000A685E184F2849385A91322C0CB01880FC2
:100F1000991F680F791F6E0D7F1DA385A60FB72F30
:100F2000B11DCC93A485A60FB72FB11D1C93858549
:100F3000680F711DFB01D083DF91CF911F91FF904E
:100F4000EF90DF90CF90BF90AF909F908F900895DB
:100F5000660F771F660F771F6E0D7F1D252F3327B6
:100F600044275527882349F090E0829F7001839F92
:100F7000F00C929FF00C11242F2DA60FB72FB11D4E
:100F80002C93CBCFFF920F931F93CF93DF93EC0162
:100F9000FF24F394F60E28852F1581F109851A8513
:100FA000215041F16F3FE1F430E050E040E06FEF5D
:100FB0007FEF80E090E00E94F72EB901F8014C81AC
:100FC0005D81CF01801B910B84179507B0F44081A0
:100FD000469FC001479F900D112490833196EFCF1B
:100FE0008F2D90E0982F88270197622F70E00E9444
:100FF000E32EE4CF70E060E0E1CFF886DF91CF919F
:101000001F910F91FF900895CF92DF92EF92FF9280
:101010000F931F93CF93DF93CDB7DEB729970FB60A
:10102000F894DEBF0FBECDBF8C01DC0119968D9107
:101030009C91892B09F473C00E949805F801C7841C
:10104000D088E188F2886C157D058E059F0520F417
:101050006787708B818B928BF801C784D088E18879
:10106000F2886C197D098E099F096C3271408105E7
:10107000910510F3F894D80114968D919C911597D1
:101080009A8389831996ED91FC917F01BFEFEB1A4A
:10109000FB0A80818987F80190810388F489E02D1B
:1010A000D80155968C91992309F448C09081982BCA
:1010B00098879081809589238F838F818C8388E0A6
:1010C0008B8358856F8149853B812C8189819A81E9
:1010D000D701508347FD252F3A952083262F39F0DD
:1010E000441F00C000006083000000C0F2CF38E061
:1010F0004D9160830000019761F7D8015496FC93ED
:10110000EE93539749873B832C839A838983789402
:101110000E949805F8016787708B818B928B2996C6
:101120000FB6F894DEBF0FBECDBFDF91CF911F91F8
:101130000F91FF90EF90DF90CF9008959081982BC2
:1011400098879081809589238F838F818E8388E013
:101150008D8358856F8149853D812E8189819A8152
:10116000D701508347FD252F00C000C0208300C059
:1011700000C000C000C000C060830000262F3A9568
:1011800041F0441F000000C000C000C000C000C00B
:10119000E8CF38E04D9100C0608300C0019709F7A7
:1011A000D8015496FC93EE93539749873D832E8341
:1011B000ACCF2091F801260F3327331F21323105A0
:1011C000ECF420919D02FC0190E080E0243069F075
:1011D00082E00895A091F8012191AC0148525E4F40
:1011E000A40FB52FB11D2C930196861798F380910B
:1011F000F801680F6093F80180E0089581E0089598
:1012000010929D0281E080939C021092770261E02F
:1012100082E10E94270561E083E10E942705E9EB56
:10122000F0E080818E7F808380818D7F808388E461
:101230008093B80085E48093BC000895CF93DF933A
:1012400091E09093D7018823B9F0C091B800D09174
:10125000BA008091BC008A7B8093BC0060E082E190
:101260000E94270560E083E10E9427050E94000993
:10127000D093BA00C093B800DF91CF9108958F92B8
:101280009F92AF92BF92CF92DF92EF92FF920F9315
:101290001F93CF93DF93D091C602D13208F0D7C00D
:1012A000182FC091C5020E9498056B017C018091A6
:1012B0009D0281116BC082E080939D0210939C027D
:1012C0008FEF80939B0210929A02D0939902A5EA25
:1012D000B2E0E9E7F2E080E0D81391C01092780222
:1012E00080917802CC0FC82BC0937802809177024E
:1012F000813009F088C0109277020E9498056B0136
:101300007C01809178028093BB0080919F02909134
:10131000A002A091A102B091A202892B8A2B8B2B53
:10132000A1F00E94980500919F021091A0022091C7
:10133000A1023091A2026C197D098E099F0906173E
:1013400017072807390708F442C08091BC0083FDC5
:10135000D8CF85EC8093BC000E9498056B017C017E
:1013600080919D02823009F450C080919B028F3F92
:1013700009F46FC080919B02803209F46CC08091A7
:101380009B02803309F469C084E026C080919F02EB
:101390009091A002A091A102B091A202892B8A2B68
:1013A0008B2B09F484CF0E94980580909F02909027
:1013B000A002A090A102B090A2026C197D098E0932
:1013C0009F0986169706A806B90608F070CF809187
:1013D0009E020E941E0985E01092A4021092C6028D
:1013E0001092A302DF91CF911F910F91FF90EF9088
:1013F000DF90CF90BF90AF909F908F9008959D9178
:1014000091938F5F69CF85EEA5CF80919F029091D8
:10141000A002A091A102B091A202892B8A2B8B2B52
:1014200009F49ECF0E94980500919F021091A0029E
:101430002091A1023091A2026C197D098E099F09A9
:10144000061717072807390708F08ACFC0CF81E0B1
:10145000C3CF80E0C1CF82E0BFCF83E0BDCF08958E
:10146000E091200280911F02E81730F4F0E0EF5D78
:10147000FD4F808190E008958FEF9FEF0895909148
:10148000200280911F022FEF3FEF981748F4E92FB9
:10149000F0E0EF5DFD4F208130E09F5F90932002F0
:1014A000C901089580911F0290912002891B990B18
:1014B0000895CF92DF92EF92FF920F931F93CF93F5
:1014C000DF937C01CB018A012091A302222389F0C2
:1014D000EB016B01C40ED51ECC15DD0569F06991D9
:1014E000D701ED91FC910190F081E02DC7010995A4
:1014F000F3CF642F0E94D908C801DF91CF911F91CB
:101500000F91FF90EF90DF90CF900895CF93DF93EE
:101510001F92CDB7DEB769832091A3022223F9F091
:101520002091C602203258F021E030E0FC013383E4
:10153000228390E080E00F90DF91CF910895809119
:10154000A402E82FF0E0EB55FD4F998190838F5F67
:101550008093A4028093C60281E090E0ECCF61E02A
:10156000CE0101960E94D908F7CF90E080E008955F
:10157000CF93DF93EC01FE0164912196662329F05D
:1015800087EE92E00E94D306F6CFDF91CF910895C7
:101590000F931F93CF93DF938C01C4E6D0E0F80143
:1015A00061918F01CE010E94462E2196CB36D10546
:1015B000B1F787E090E0DF91CF911F910F910895EF
:1015C0000F931F93CF93DF9309E111E0D0E0C0E0C8
:1015D000F80161918F01CE010E94462EF8013197EA
:1015E0008081882371F0C631D10549F460E087E13C
:1015F00090E0DF91CF911F910F910C94462E219690
:10160000E7CFDF91CF911F910F910895FC010190D9
:101610000020E9F73197AF01481B590BBC0187EE59
:1016200092E00C94FE0589E791E00C94060BCF93B1
:10163000DF930E942007EC010E94130B8C0F9D1F6B
:10164000DF91CF910895CF93DF93FC0144815581C1
:101650006081718187EE92E00E94FE05EC010E949C
:10166000130B8C0F9D1FDF91CF9108958F929F9246
:10167000AF92BF920F931F93CF93DF93CDB7DEB797
:10168000A1970FB6F894DEBF0FBECDBF19A24230AE
:1016900008F44AE08E010F5D1F4F842E912CB12C6F
:1016A000A12CA50194010E94642EE62FB901CA0164
:1016B000EA30F4F4E05DD801EE938D01232B242B66
:1016C000252B79F790E080E0109719F0CD010E946A
:1016D000060BA1960FB6F894DEBF0FBECDBFDF910B
:1016E000CF911F910F91BF90AF909F908F900895D1
:1016F000E95CE1CFCF93DF93BC0190E080E04AE06A
:101700000E94360BEC010E94130B8C0F9D1FDF9182
:10171000CF910895CF93DF93682F70E090E080E041
:101720004AE00E94360BEC010E94130B8C0F9D1FA8
:10173000DF91CF910895CF93DF93BC01990F880B70
:10174000990B4AE00E94360BEC010E94130B8C0FA0
:101750009D1FDF91CF910895CF93DF930E94060BD9
:10176000EC010E94130B8C0F9D1FDF91CF91089508
:10177000CF93DF9383E693E00E94170B8FE293E011
:101780000E94170B88E193E00E94170B85E193E01C
:101790000E94170B8EE093E00E94200780E091E00A
:1017A0000E94AC0B88E093E00E9420078BE094E05D
:1017B0000E94230B84ED92E00E94170B82EB92E0D3
:1017C0000E94170B88E992E00E94170B88E892E0CC
:1017D0000E942007CDE1D4E0698170E090E080E0D4
:1017E0004AE00E94360B86E892E00E9420076A8158
:1017F00070E090E080E04AE00E94360B84E892E0DE
:101800000E942007688170E06053784F072E000C1B
:10181000880B990B4AE00E94360B80E892E00E9408
:1018200020076B8170E090E080E04AE00E94360B78
:101830008C810E948A0B8FE592E00E94170B8BE24D
:1018400092E00E94170B8EE092E00E94200789E14F
:1018500091E00E94AC0B81EF91E00E94200787E1AC
:1018600094E00E94230B84ED91E00E94200781E127
:1018700094E00E94230B80EA91E00E94170B8EE90E
:1018800091E0DF91CF910C94170B0F931F93CF939F
:10189000DF93CDB7DEB72C970FB6F894DEBF0FBE3F
:1018A000CDBF8C018BE491E00E94170B84E391E0A3
:1018B0000E942007F801608170E090E080E04AE03B
:1018C0000E94360B85E291E00E94170B87E191E0C0
:1018D0000E942007C8010E947A0B89E091E00E94D3
:1018E000200785E290E00E947A0B8BEF90E00E9447
:1018F0002007F801658576858785908940E10E94FB
:10190000360B0E94130B8DEE90E00E942007F80129
:1019100081850E948A0B8FED90E00E942007F801DC
:10192000828D938D0E947A0B81ED90E00E942007BA
:10193000F801848D90E00E949B0B83EC90E00E9464
:101940002007F80180850E948A0B85EB90E00E94B9
:101950002007F801818D0E948A0B87EA90E00E949F
:101960002007C80103960E947A0B8CE990E00E9440
:101970002007F801838194810E947A0BF801658128
:101980007681CE0101960E94B32C8EE890E00E94F1
:101990002007CE0101960E94AC0B88E690E00E94E1
:1019A000170B2C960FB6F894DEBF0FBECDBFDF919C
:1019B000CF911F910F910895FC0180819181009733
:1019C00011F00C940F2B08950F931F93CF93DF9377
:1019D0008C01EB01FC01808191810097E1F068812D
:1019E000798161157105A9F0428153812C813D8176
:1019F0004217530770F00E94BA308C819D81F80124
:101A0000958384831D821C82DF91CF911F910F915A
:101A100008950E940F2B88819981F801918380831A
:101A20008A819B81938382838C819D81958384832A
:101A3000198218821B821A82E5CF0F931F93CF93CE
:101A4000DF93EC0188819981009759F02A813B81CD
:101A50002617370730F081E0DF91CF911F910F916A
:101A600008958B016F5F7F4F0E94CB2F009759F035
:101A7000998388831B830A832C813D81232B59F70B
:101A8000FC011082E8CF80E0E7CFEF92FF920F9346
:101A90001F93CF93DF93EC017B01FB0101900020AA
:101AA000E9F731978F01061B170BB8010E941D0D36
:101AB00028813981811113C02115310519F0C9011F
:101AC0000E940F2B198218821D821C821B821A828F
:101AD000DF91CF911F910F91FF90EF9008951D839B
:101AE0000C83B701C901DF91CF911F910F91FF9036
:101AF000EF900C94BA30EF92FF920F931F93CF9315
:101B0000DF936115710541F480E0DF91CF911F9162
:101B10000F91FF90EF90089541155105B1F07B01B1
:101B2000EC010C811D81040F151FB8010E941D0DD1
:101B3000882351F3288139818C819D81B701820FDF
:101B4000931F0E94BA301D830C8381E0DECFEF9299
:101B5000FF920F931F93CF93DF93CDB7DEB72897F4
:101B60000FB6F894DEBF0FBECDBF7C01CB014AE0BB
:101B70008E010F5F1F4FB8010E94D22CF801019017
:101B80000020E9F73197AF01401B510BB801C701A5
:101B90000E947B0D28960FB6F894DEBF0FBECDBF16
:101BA000DF91CF911F910F91FF90EF9008956115F4
:101BB000710551F0FB0101900020E9F73197AF0169
:101BC000461B570B0C947B0D80E008950F931F93D9
:101BD000CF93DF93CDB7DEB768970FB6F894DEBF2B
:101BE0000FBECDBF8C016BE671E0CE0101960E9465
:101BF000B32CBE016F5F7F4FC8010E94D70D68965E
:101C00000FB6F894DEBF0FBECDBFDF91CF911F910D
:101C10000F9108950F931F93CF93DF93CDB7DEB746
:101C200068970FB6F894DEBF0FBECDBFE0914702B4
:101C3000F0914802309719F02081211119C08C01D0
:101C40006DE571E0CE0101960E94B32CBE016F5F7D
:101C50007F4FC8010E94D70D81E068960FB6F894B7
:101C6000DEBF0FBECDBFDF91CF911F910F910895C1
:101C700080E0F3CF0F931F93CF93DF9300D0CDB7C6
:101C8000DEB78C0160914502709146020E94D70D2B
:101C90006BE177E0CE0101960E94B32CBE016F5F2D
:101CA0007F4FC8010E94D70D0F900F90DF91CF9109
:101CB0001F910F910895FB014481558160817181CD
:101CC0000C947B0D0F931F93CF93DF9300D01F9243
:101CD000CDB7DEB78C0161E277E0CE0101960E94BC
:101CE000B32CBE016F5F7F4FC8010E94D70DB801B2
:101CF0008FEF93E00E945B0E0F900F900F90DF919B
:101D0000CF911F910F910895EF92FF920F931F9320
:101D1000CF93DF93EC01198218821B821A821D82F5
:101D20001C8261157105E1F08B01FB01019000201F
:101D3000E9F731977F01E61AF70AB7010E941D0DF6
:101D400028813981811113C02115310519F0C9018C
:101D50000E940F2B198218821D821C821B821A82FC
:101D6000DF91CF911F910F91FF90EF900895FD8229
:101D7000EC82B801C901DF91CF911F910F91FF90C3
:101D8000EF900C94BA3085ED8093BC0080919F0257
:101D90009091A002A091A102B091A2020796A11D6C
:101DA000B11D23E0B695A795979587952A95D1F70C
:101DB0002091BC0024FD03C010929D020895409123
:101DC0009F025091A0026091A1027091A202452B46
:101DD000462B472B69F30097A105B10541F02AE294
:101DE0002A95F1F700C00197A109B109E1CF8091CF
:101DF0009E020C941E09AF92BF92DF92EF92FF9267
:101E00000F931F93CF93DF938C0186E190E00E94A4
:101E1000732AEC01D80112964C911297842F90E00E
:101E20001196DC9011971896EC90198218861F86EF
:101E3000188A198A1A8ABC0126E0769567952A9530
:101E4000E1F76E879C0154E0369527955A95E1F7A6
:101E500023702B87969587959695879583708C87A9
:101E600043704D8781E0888383E090E0261711F06E
:101E700084E090E0F12CE89E5001E99EB00CF89EC1
:101E8000B00C1124BD82AC82C5010E94732A9A87CE
:101E90008987009709F45BC0A50170E060E00E94AB
:101EA000B330FB82EA82ED2CF12CFF82EE82898135
:101EB000882341F061E08D2D0E94550560E08D2D55
:101EC0000E942705F701EF5BF74FE491F0E0EE0F7A
:101ED000FF1FE35DF74F859194919C8B8B8BF701EE
:101EE000EB5AF74FE491ED8BF801D483C3838E81D5
:101EF0009F8197FD07C061E00E94550560E08E81DB
:101F00000E94270581E08983D8011396ED91FC9109
:101F10004481558170E060E0818592850E94B330F4
:101F20006FEFF801838194810E94C2070E949A0694
:101F3000D80113968D919C91DF91CF911F910F91B4
:101F4000FF90EF90DF90BF90AF900C9404081D823B
:101F50001C821B821A82A7CF1F93CF93DF93CDB72A
:101F6000DEB7A3970FB6F894DEBF0FBECDBF182F14
:101F70006BE771E0CE0148960E94840E6BE771E03A
:101F8000CE014E960E94840ECE0148960E943A0ED3
:101F9000E12FF0E0EE0FFF1FE35AFD4F80819181AA
:101FA0001B8A1A8A1D8A1C8A1F8A1E8A4AE0BE0161
:101FB0006F5F7F4F0E94162DBE016F5F7F4FCE0176
:101FC00042960E94450DBE016E5E7F4FCE0148963F
:101FD0000E945B0ECE0142960E94DC0C6BE177E022
:101FE000CE0101960E94B32CBE016F5F7F4FCE01E0
:101FF00048960E94D70D67E771E0CE0101960E94D6
:10200000B32CBE016F5F7F4FCE0148960E94D70D63
:10201000CE0148960E94620ECE014E960E94DC0CC4
:10202000CE0148960E94DC0CA3960FB6F894DEBF52
:102030000FBECDBFDF91CF911F910895AF92BF9298
:10204000CF92DF92EF92FF920F931F93CF93DF9384
:10205000CDB7DEB76A970FB6F894DEBF0FBECDBF1F
:1020600087EE92E00E948E06181619060CF057C0F3
:1020700087EE92E00E943A068093440280914402E7
:102080008E3309F09AC081E08093D6016BE771E04E
:10209000CE0101960E94840EBE016F5F7F4F85E0E6
:1020A00094E00E94E40CCE0101960E94DC0C6BE7E8
:1020B00071E0CE0101960E94840E0E944E0697FDAB
:1020C0000FC08A30910561F0898F1A8E41E050E08F
:1020D000BE01675E7F4FCE0101960E947B0DEDCF62
:1020E000BE016F5F7F4F85E094E00E94E40CCE015B
:1020F00001960E94DC0CC0900504D0900604C11427
:10210000D10441F00091090410910A0476010115EF
:102110001105B9F481E080936D021092D6016A96A0
:102120000FB6F894DEBF0FBECDBFDF91CF911F91E8
:102130000F91FF90EF90DF90CF90BF90AF900895F8
:10214000750157018FEFA81AB80AF7018081082E90
:10215000000C990B0E94A12C892B91F701501109B9
:102160000C0D1D1DF8018081082E000C990B0E949A
:10217000A12C892B31F00E151F0518F00150110903
:10218000F1CFA8014F5F5F4F4E195F0950930A04CA
:1021900040930904CE14DF0420F4B701C6010E9465
:1021A000AA30E0910504F091060480910904909111
:1021B0000A04E80FF91F1082ADCF80914402082E67
:1021C000000C990B0E94A12C892B09F049CF6DE4DA
:1021D00071E0CE0101960E94B32C1092D6011092AC
:1021E0006D02CE0101960E94060B6091440287EEBB
:1021F00092E00E94D3060E94130B32CF0E94A706E2
:1022000081110C941E1008951F920F920FB60F9219
:1022100011242F933F938F939F93AF93BF938091FC
:102220006F0290917002A0917102B0917202309190
:102230006E0223E0230F2D3758F50196A11DB11D25
:1022400020936E0280936F0290937002A0937102AC
:10225000B09372028091730290917402A091750202
:10226000B09176020196A11DB11D809373029093E7
:102270007402A0937502B0937602BF91AF919F91C3
:102280008F913F912F910F900FBE0F901F90189537
:1022900026E8230F0296A11DB11DD2CF1F920F92E7
:1022A0000FB60F9211242F933F934F935F936F9329
:1022B0007F938F939F93AF93BF93EF93FF9387EE9B
:1022C00092E00E94B106FF91EF91BF91AF919F9173
:1022D0008F917F916F915F914F913F912F910F90CF
:1022E0000FBE0F901F9018951F920F920FB60F926E
:1022F00011242F938F939F93EF93FF93E091F70215
:10230000F091F8028081E091FD02F091FE0282FDE1
:102310001BC09081809100038F5F8F732091010318
:10232000821741F0E0910003F0E0E951FD4F958FF5
:1023300080930003FF91EF919F918F912F910F90C8
:102340000FBE0F901F9018958081F4CF1F920F92AF
:102350000FB60F9211242F933F934F935F936F9378
:102360007F938F939F93AF93BF93EF93FF9380914E
:10237000B900887F803609F44AC0F0F5883209F444
:10238000A7C018F5803109F49BC0B8F4882309F47C
:10239000F9C0883009F494C0FF91EF91BF91AF91DB
:1023A0009F918F917F916F915F914F913F912F916D
:1023B0000F900FBE0F901F901895883109F488C0B8
:1023C000803251F780939B0214C0803409F49DC081
:1023D00040F48033B9F38833F9F680939B0285EC9F
:1023E000B0C0803509F485C0883509F496C08834BA
:1023F00099F60E94C30ED0CF883909F48CC038F505
:10240000883729F050F4883611F0803729F683E0B8
:1024100080939D0210921A0257C0883809F47BC03D
:10242000803919F0803809F0B7CF80911A028032D4
:1024300008F071C0E0911A0281E08E0F80931A02B9
:102440008091BB00F0E0E650FE4F80833DC0803BB2
:1024500039F0E0F4803A09F479C0883A09F09CCF69
:1024600084E080939D021092F9011092F801E091AE
:102470001D02F0911E0209958091F80181110FC093
:1024800081E08093F8011092D80109C0803C09F4E2
:10249000A6CF883C09F4A3CF883B09F07DCFE0911B
:1024A000F90181E08E0F8093F901F0E0E852FE4FD0
:1024B00080818093BB009091F9018091F80129C03F
:1024C000809178028093BB0085EC8093BC0064CF40
:1024D00090919A0280919902981758F5E0919A028A
:1024E00081E08E0F80939A02F0E0E758FD4F8081E3
:1024F000E9CFE0919A0281E08E0F80939A02809159
:10250000BB00F0E0E758FD4F808390919A028091E4
:1025100099029817C8F285E8D8CFE0919A0281E035
:102520008E0F80939A028091BB00F0E0E758FD4F38
:10253000808380919C0281115CCF81E0809377023F
:1025400084EA8093BC0010929D0226CF85EC809394
:10255000BC0010929D0280911A02803230F4E0910A
:102560001A02F0E0E650FE4F108260911A0270E00D
:10257000E0911B02F0911C028AEF91E00995109204
:102580001A020ACF10929B0234CFFC019081905323
:102590009A3008F090E0818180532AE0929F800D6C
:1025A00011240895CF93DF93E7EEF2E013821282B5
:1025B00088EE93E0A0E0B0E084839583A683B783A0
:1025C00029E531E03183208325EC30E0358724870D
:1025D00024EC30E03787268720EC30E0318B208BED
:1025E00021EC30E0338B228B22EC30E0358B248BD6
:1025F00026EC30E0378B268B118E128E138E148EC4
:10260000E4E8F3E01382128284839583A683B78380
:102610008BE691E0918380838DE891E00E94C51262
:10262000CDE1D4E088838CE0898388E891E00E9442
:10263000C5128A8380E991E00E94C5128B8383E9E9
:1026400091E00E94C5128C8386E991E00E94C51238
:102650008D8369E971E087E194E00E94840E6DE961
:1026600071E081E194E00E94840E68EA71E08BE001
:1026700094E00E94840E6BE771E085E094E00E9494
:10268000840E6BE771E08FEF93E00E94840EE0E927
:10269000F3E091E0908387E08183A2E5A2839783B2
:1026A00070E17087118612868FEF83878487158685
:1026B00016861786108A118A128A138A148A158A36
:1026C000168A178A108E64E6618F48EE53E0538FA6
:1026D000428F148E158E168E178E10A211A212A282
:1026E00013A214A22DE738E036832583B2E0B5A308
:1026F000B8E0B6A3A7A394A775A716A617A680ABA4
:1027000081AB12AA13AA14AA15AA16AA17AA10AE68
:1027100011AE12AE13AE14AE15AE66AF5093D00329
:102720004093CF031092D1031092D2031092D3039F
:102730001092D4031092D5031092D6031092D703AF
:102740001092D8031092D90333A722A7E3E0E093B5
:10275000DA03E9E0E093DB03A093DC039093E10369
:102760007093E2031092E3031092E4038093E50375
:102770008093E6031092E7031092E8031092E903B6
:102780001092EA031092EB031092EC031092ED0307
:102790001092EE031092EF031092F0031092F103E7
:1027A0001092F2036093F3035093F5034093F40304
:1027B0001092F6031092F7031092F8031092F903A7
:1027C0001092FA031092FB031092FC031092FD0387
:1027D0001092FE033093E0032093DF03E9E5F4E079
:1027E00086EB98E09183808380E090E0AFEFB0E0EB
:1027F00082839383A483B583E3E5F4E08FEA98E0D2
:102800009183808380E095E5AFEFB0E0828393838E
:10281000A483B583EDE4F4E088EA98E091838083B3
:1028200080E09FEFAFEFB0E082839383A483B58312
:10283000E7E4F4E082EA98E09183808380E09FEF10
:10284000A0E0B0E082839383A483B583E1E4F4E065
:102850008DE998E0918380838FEF9FEFA0E0B0E057
:1028600082839383A483B583EBE3F4E088E998E063
:10287000918380838FEF90E0A0E0B0E08283938328
:10288000A483B583E5E3F4E081E998E09183808354
:102890008FEF90E0A3E3B0E082839383A483B583BA
:1028A000EFE2F4E08AE898E0918380838FEF90E094
:1028B000DC0182839383A483B583E9E2F4E084E8B6
:1028C00098E0918380838FEF9FEFAFEFB0E082833A
:1028D0009383A483B583E3E2F4E08EE798E09183E9
:1028E00080831282138214821582DF91CF91089522
:1028F000CF93DF93CDB7DEB7C954D1090FB6F894A3
:10290000DEBF0FBECDBF789484B5826084BD84B530
:10291000816084BD85B5826085BD85B5816085BDDA
:1029200080916E00816080936E0010928100809192
:10293000810082608093810080918100816080931A
:102940008100809180008160809380008091B1003F
:1029500084608093B1008091B00081608093B0006A
:1029600080917A00846080937A0080917A008260FE
:1029700080937A0080917A00816080937A008091C0
:102980007A00806880937A001092C10060E08EE047
:102990000E94550560E08FE00E94550560E080E1EF
:1029A0000E94550560E081E10E94550561E082E0EA
:1029B0000E94550561E083E00E94550561E084E0D6
:1029C0000E94550561E085E00E94550561E086E0C2
:1029D0000E94550561E087E00E94550561E088E0AE
:1029E0000E94550561E089E00E94550561E08DE097
:1029F0000E94550560E082E00E94270560E083E0C8
:102A00000E94270560E084E00E94270560E085E0E1
:102A10000E94270560E086E00E94270560E08DE0C7
:102A20000E942705E091F702F091F80282E080838E
:102A3000E091F302F091F4021082E091F502F0913E
:102A4000F60280E180831092FF02E091FB02F09198
:102A5000FC0286E08083E091F902F091FA02808125
:102A600080618083E091F902F091FA0280818860B0
:102A70008083E091F902F091FA028081806880837E
:102A8000E091F902F091FA0280818F7D808382E3E8
:102A900090E0A0E0B0E08093EB029093EC02A09372
:102AA000ED02B093EE021092200210921F021092DB
:102AB000A4021092C6020E9400098BEF95E0909349
:102AC0001E0280931D028CEF95E090931C02809370
:102AD0001B0261E670E08FEF93E00E941D0D61E440
:102AE00070E085E094E00E941D0D0DB71EB7CE0189
:102AF00001960E94BA04DE011196E0E0F1E09E0129
:102B0000265F3F4F8D91982F92959F708F709A30CE
:102B100008F0E7C0905D90838A3008F0E4C0805DE3
:102B2000818332962A173B0769F7109212010FB67C
:102B3000F8941EBF0FBE0DBF9E01285C3F4F269626
:102B40003FAF2EAF26976BE771E0C9010E94840E5C
:102B5000CE0182960E94BA04CFA0D12CF12CE12C98
:102B6000FE2CED2CDC2CCC2488A5C80ED11CE11C3D
:102B7000F11CFE2CED2CDC2CCC2489A5C80ED11C1C
:102B8000E11CF11CFE2CED2CDC2CCC248AA5C80EFB
:102B9000D11CE11CF11C6BE771E0CE018E960E9406
:102BA000840E81E2E4EBF1E0DE01119601900D92DA
:102BB0008A95E1F7F601EF71FF2741E050E04C0FF5
:102BC0005D1FE40FF51F80818EAF1FAE41E050E026
:102BD000BE01625C7F4FCE018E960E947B0D15E098
:102BE000F694E794D794C7941A95D1F7C114D104F9
:102BF000E104F104F9F6BE01625D7F4FCE01C89693
:102C00000E94E40CCE018E960E94DC0CBE01685C32
:102C10007F4F8BE094E00E94E40CCE01C8960E94A6
:102C2000DC0C87E090E00E94732A8C01909367028D
:102C3000809366020E94EF056093680270936902B8
:102C400080936A0290936B02F12CE12CC7010E94E1
:102C50003E2E8F3F09F049C05FEFE51AF50A8AE082
:102C6000E816F10499F7DD24D3945801B4E6EB2E6D
:102C7000F12CC7010E943E2ED5018D935D01BFEF5F
:102C8000EB1AFB0AEBE6EE16F10499F7D8018C91EA
:102C900084508B3F60F184E08C9381E0F801918156
:102CA000913029F081E0818380E1828381E0D80145
:102CB00013969C911397923041F082E013968C9377
:102CC00013978EE114968C9381E0F80195819330EF
:102CD00081F083E0858381E08683C8010E94C80A71
:102CE0000AC0995C18CF895C1BCFD12CBECF80E085
:102CF000D5CF8111F2CFE0916602F0916702808119
:102D0000843011F4DD2009F184E0808381E0818347
:102D100090E1928392E093839CE3948393E0958384
:102D2000868310E000E060E0C8010E94462E0F5F3D
:102D30001F4F0115F4E01F07B1F70E94E00A8091D0
:102D40006602909167020E94C80AA9E1EA2EA1E0FA
:102D5000FA2E10E000E0C8010E943E2ED7018D93AC
:102D60007D01882331F00631110509F0E7C010928A
:102D700030010E94B80B0091660210916702F801C1
:102D800082818093980380E993E00E94FB0ED80132
:102D900014968C918093BD0385EB93E00E94FB0E0B
:102DA000F80186818093E2038AED93E00E94FB0E96
:102DB00010926C0280E893E00E94170B80915904F6
:102DC00090915A049FA78EA780914D0490914E0434
:102DD00099AB88AB80914704909148049BAB8AAB38
:102DE00080913B0490913C049DAB8CAB809123047B
:102DF000909124049FAB8EAB80915B0490915C0416
:102E0000A0915D04B0915E0489839A83AB83BC83F7
:102E100080914F0490915004A0915104B0915204BC
:102E20008D839E83AF83B8878091490490914A0433
:102E3000A0914B04B0914C0489879A87AB87BC87DB
:102E400080913D0490913E04A0913F04B0914004D4
:102E50008D879E87AF87B88B80912504909126043B
:102E6000A0912704B0912804898B9A8BAB8BBC8BE3
:102E700080919803D090BD03D81608F4D82E809185
:102E8000E203D81608F4D82E8E01025D1F4F9E0172
:102E90002F5F3F4F7901D8016D917D918D01CE015A
:102EA00082960E94B32CF7014190519061907190ED
:102EB0007F0184E793E00E942007CE0182960E9462
:102EC000AC0B912C812CC82C8D14D8F5F0E9AF2EC9
:102ED000F3E0BF2ED50118966C91E62FE150FF0B61
:102EE00061508E169F060CF46C2DD50113968D91B2
:102EF0009C9170E0FC01228133816217730720F4FA
:102F0000A30192010E945B070E949A06D5011396C5
:102F10008D919C910E94040862E070E080E090E056
:102F20000E94BD05B5E2AB0EB11CEFEFAE16E3E0BB
:102F3000BE0681F6FFEF8F1A9F0AC5CF0F5F1F4FA6
:102F40000ACF69E170E080E090E00E94BD0526961E
:102F50002EAD3FAD26972017310709F09CCF0E9478
:102F6000EF05609337017093380180933901909396
:102F70003A018FE993E00E94170B8E010E5D1F4FFF
:102F8000AE014F5F5F4F3A0180916D02882309F4D3
:102F9000C6C781E0809332016BE771E08FEF93E069
:102FA0000E94450D80910504909106040E94903086
:102FB00028969FAF8EAF289724969FAF8EAF249709
:102FC0006BE771E085E094E00E94450D28968EAD98
:102FD0009FAD2897892B09F482C761E277E0CE0183
:102FE000C8960E94B32C55245394BE01685C7F4F51
:102FF000CE018E5B9F4F0E94BA2C7C01009709F492
:103000006EC7DC018C91882381F36BE177E0CE0100
:10301000CE960E94B32CC7010E9490302A969FAF93
:103020008EAF2A9722969FAF8EAF2297F12CBE01CA
:10303000625C7F4FCE01805C9F4F0E94BA2C2F2D87
:1030400030E0220F331F2B5B3D4F009729F0F90131
:1030500091838083F394EBCFD9011D921C92E09071
:103060004502F0904602B12C6701CB0CD11CF60151
:103070008081882369F08093440280914402082E65
:10308000000C990B0E948830D6018C93B394ECCF3E
:1030900068E177E0C7010E94AA2C892BA1F46BE7B5
:1030A00071E0C8010E94840EC8010E943A0EC3015B
:1030B0000E94BA046BE074E0C8010E945B0EC80174
:1030C0000E94620E2FC564E177E0C7010E94AA2C1E
:1030D000892B01F56BE771E0C3010E94840EC301E7
:1030E0000E943A0E60E071E0C3010E94D70DC30157
:1030F0000E94620EC3010E94DC0C2A968EAD9FAD29
:103100002A970E940F2B22968EAD9FAD22970E9488
:103110000F2B6BCF60E177E0C7010E94AA2C892BAF
:1031200009F049C06BE771E0C8010E94840EC80134
:103130000E943A0EC8010E940A0E882319F01092CC
:103140003201BDCFE0904702F090480265EF76E093
:10315000C7010E94AA2C892B31F469E171E0C801F2
:103160000E94D70DACCFF70101900020E9F731970D
:10317000EE19FF097897B0F4F701D3019701295EA2
:103180003F4F81918D93882319F02E173F07C9F780
:1031900048E150E0B30189E191E00E94C1300E9412
:1031A000E00ADBCF109232016FEA73E0C3010E94A4
:1031B000B32CB301D4CF6CE077E0C7010E94AA2CF6
:1031C000892B71F46BE771E0C3010E94840EC30187
:1031D0000E943A0E67E174E0C3010E945B0E87CF44
:1031E00067E077E0C7010E94AA2C892B59F46BE7AE
:1031F00071E0C3010E94840EC3010E943A0E61E196
:1032000074E0EACF61E077E0C7010E94AA2C892B25
:1032100009F046C06BE771E0C8010E94840EC80146
:103220000E943A0EC8010E940A0E811188CF809137
:103230004702909148020E94832C6C01990FEE087E
:10324000FF08C0925302D0925402E0925502F092CD
:10325000560250925B020E94EF05609357027093F2
:1032600058028093590290935A0260934F027093D0
:10327000500280935102909352022AE0A301C701A9
:10328000B6010E94F42CF30101900020E9F7319778
:10329000AF0146195709B301C8010E947B0D0FCF3A
:1032A0006CEF76E0C7010E94AA2C892B09F048C078
:1032B0006BE771E0C8010E94840EC8010E943A0EBB
:1032C000C8010E940A0E81113ACFE0904702F090A7
:1032D000480265EF76E0C7010E94AA2C892B39F4D9
:1032E00080915C028823B9F06EEB73E016C06EEB40
:1032F00073E0C7010E94AA2C892B19F450925C023A
:10330000F3CF6CEB73E0C7010E94AA2C892B09F064
:10331000BCC410925C026CEB73E0C3010E94B32C3E
:10332000B301C8010E94D70D6BE177E0C3010E9491
:10333000B32CB301C8010E94D70D68EB73E036CF00
:1033400067EF76E0C7010E94AA2C892B41F065EF58
:1033500076E0C7010E94AA2C892B09F055C10E9472
:10336000B80B8FEF95E00E94170B8BEC95E00E9455
:10337000170B8DEA95E00E94170B8DE895E00E94EF
:10338000170B84E795E00E94170B83E495E00E94F9
:10339000170B81E395E00E94170B8CE295E00E94E9
:1033A000200787EF96E00E94B80A81E297E00E942A
:1033B000B80A80E197E00E94B80A81E297E00E9493
:1033C000B80A8CE097E00E94B80A81E297E00E9478
:1033D000B80A8CEF96E00E94B80A81E297E00E945A
:1033E000B80A87E097E00E94B80A81E297E00E945D
:1033F000B80A81E097E00E94B80A81E297E00E9453
:10340000B80A8EEE96E00E94B80A0E94130B87E27B
:1034100095E00E94200783E295E00E94B80A81E2CD
:1034200097E00E94B80A8FE195E00E94B80A81E215
:1034300097E00E94B80A8BE195E00E94B80A81E209
:1034400097E00E94B80A87E195E00E94B80A81E2FD
:1034500097E00E94B80A83E195E00E94B80A81E2F1
:1034600097E00E94B80A8FE095E00E94B80A81E2D6
:1034700097E00E94B80A0E94130B8AE095E00E9430
:10348000200787EE96E00E94B80A81E297E00E944A
:10349000B80A84EE96E00E94B80A81E297E00E94A2
:1034A000B80A81EE96E00E94B80A81E297E00E9495
:1034B000B80A8EED96E00E94B80A81E297E00E9479
:1034C000B80A8BED96E00E94B80A81E297E00E946C
:1034D000B80A88ED96E00E94B80A81E297E00E945F
:1034E000B80A85ED96E00E94B80A81E297E00E9452
:1034F000B80A82ED96E00E94B80A81E297E00E9445
:10350000B80A87E095E00E94B80A0E94130B82E097
:1035100095E00E9420078DE696E00E94B80A81E2BD
:1035200097E00E94B80A89E696E00E94B80A81E214
:1035300097E00E94B80A85E696E00E94B80A81E208
:1035400097E00E94B80A81E696E00E94B80A81E2FC
:1035500097E00E94B80A8DE596E00E94B80A81E2E1
:1035600097E00E94B80A89E596E00E94B80A0E9496
:10357000130B8FEC94E00E94170B8CE994E00E94EF
:10358000170B8CE594E00E94170B8EE394E00E94E9
:10359000200780E490E00E949B0B83E294E00E946D
:1035A000200785E090E00E949B0B8EE094E00E9453
:1035B000200787E190E00E949B0B86EF93E00E943A
:1035C000200780E690E00E949B0B84EF93E00E942E
:1035D000170B80EC93E00E94170B80E993E00E94A8
:1035E000450C85EB93E00E94450C8AED93E00E9428
:1035F000450C67EF76E0C8010E94B32C6FEA71E0DA
:10360000C3010E94840E73CD6EEE76E0C7010E9466
:10361000AA2C892B39F587EE92E00E943B07E091B6
:10362000F902F091FA0280818F7E8083E091F902A5
:10363000F091FA028081877F8083E091F902F09116
:10364000FA0280818F778083E091F902F091FA028B
:1036500080818F7D808380910103809300030C948F
:1036600000004BCD6AEE76E0C7010E94AA2C892BA0
:10367000B9F46BE771E0C3010E94840EC3010E949C
:103680003A0E80915F0490916004009711F485E6F2
:1036900094E0B801681B790BC3010E94A70D27CDE8
:1036A00067EE76E0C7010E94AA2C892B21F480E006
:1036B0000E94AC0F22CD64EE76E0C7010E94AA2CD6
:1036C000892B11F481E0F4CF61EE76E0C7010E940E
:1036D000AA2C892B11F482E0EBCF6EED76E0C701C6
:1036E0000E94AA2C892B11F483E0E2CF6BED76E0E7
:1036F000C7010E94AA2C892B21F482E00E94A724F2
:10370000FCCC68ED76E0C7010E94AA2C892B11F44D
:1037100083E0F4CF65ED76E0C7010E94AA2C892BE7
:1037200011F484E0EBCF62ED76E0C7010E94AA2C91
:10373000892B11F485E0E2CF6DEC76E0C7010E94A1
:10374000AA2C892B21F481E00E94C525D6CC68ECF7
:1037500076E0C7010E94AA2C892B11F482E0F4CFF5
:1037600063EC76E0C7010E94AA2C892B11F483E058
:10377000EBCF6EEB76E0C7010E94AA2C892B21F4D7
:1037800081E00E943E28B9CC69EB76E0C7010E9437
:10379000AA2C892B11F482E0F4CF64EB76E0C70108
:1037A0000E94AA2C892B11F483E0EBCF6FEA76E01C
:1037B000C7010E94AA2C892B21F481E00E94C82312
:1037C0009CCC6AEA76E0C7010E94AA2C892B11F4EE
:1037D00082E0F4CF65EA76E0C7010E94AA2C892B2B
:1037E00011F483E0EBCF60EA76E0C7010E94AA2CD7
:1037F000892B21F481E00E9424257FCC6BE976E0BF
:10380000C7010E94AA2C892B11F482E0F4CF66E94B
:1038100076E0C7010E94AA2C892B11F483E0EBCF3C
:1038200061E976E0C7010E94AA2C892B21F481E08E
:103830000E94822762CC6CE876E0C7010E94AA2C25
:10384000892B11F482E0F4CF67E876E0C7010E948B
:10385000AA2C892B11F483E0EBCF62E876E0C70154
:103860000E94AA2C892B21F481E00E94682645CC75
:103870006DE776E0C7010E94AA2C892B11F482E043
:10388000F4CF68E776E0C7010E94AA2C892B11F4D7
:1038900083E0EBCF61E776E0C7010E94AA2C892B79
:1038A000A9F46BE771E0C3010E94840EC3010E947A
:1038B0003A0E80E993E00E94450C85EB93E00E946C
:1038C000450C8AED93E00E94450C11CC6DE676E044
:1038D000C7010E94AA2C892B69F56BE771E0C8012A
:1038E0000E94840EC8010E943A0EC8010E940A0E6E
:1038F000811125CCE0904702F090480265EF76E018
:10390000C7010E94AA2C60914202892B79F0C7015D
:103910000E94832C8F3F910531F028F010923201E4
:1039200061E076E043CC80934202682FC8010E9498
:103930009D23C5CB69E676E0C7010E94AA2C892B9E
:1039400021F56BE771E0C8010E94840EC8010E9456
:103950003A0EC8010E940A0E8111F1CBE090470295
:10396000F090480265EF76E0C7010E94AA2C6091B2
:103970004102892BD9F2C7010E94832C8F3F910508
:1039800009F060F680934102D0CF65E676E0C7018A
:103990000E94AA2C892B51F56BE771E0C8010E94A7
:1039A000840EC8010E943A0EC8010E940A0E8111BD
:1039B000C6CBE0904702F090480265EF76E0C70181
:1039C0000E94AA2C60914302892B09F4AFCFC70152
:1039D0000E94832C9FEF980F913128F010923201B2
:1039E0006EE076E0E3CB809343029FCF61E676E022
:1039F000C7010E94AA2C892B09F496C06DE576E0D8
:103A0000C7010E94AA2C892B09F445C169E576E01B
:103A1000C7010E94AA2C892B09F059C06BE771E0FD
:103A2000CE018E960E94840ECE018E960E943A0E92
:103A3000CE018E960E940A0E882349F01092320120
:103A4000CE018E960E94620ECE018E9654CB65EF0B
:103A500076E080914702909148020E94AA2C892B1F
:103A600089F5E12CFF24F3945092A302F092C50251
:103A70001092A4021092C60281E00E943F098111B7
:103A800010C06F2DCE018E960E949D2364E376E0D8
:103A9000C8010E94B32CB801CE018E960E94D70DAA
:103AA000E394F394B0E8FB12DFCF69E276E0E11033
:103AB000C7CFC3010E94B32CB301CE018E960E94E2
:103AC000D70DBECF109232016FE176E0F2CF1092A7
:103AD00032016BE771E0C8010E94840EB701C80192
:103AE0000E94D70D6BE177E0C3010E94B32CB301B4
:103AF000C8010E94D70D69E476E0C3010E94B32C8F
:103B0000B301C8010E94D70D61E277E0C3010E94B2
:103B1000B32CB301C8010E94D70DB8018FEF93E019
:103B20000E945B0EC801E7CA6BE771E0C8010E9402
:103B3000840EC8010E943A0EE0914702F0914802BB
:103B400080818EA781818FA718AAC8010E940A0EC2
:103B50008111F5CAE0904702F090480265EF76E0E7
:103B6000C7010E94AA2C892B71F5CDB6DEB68091D3
:103B70004302282F30E0220F331F2F5F3F4FEDB756
:103B8000FEB7E21BF30B0FB6F894FEBF0FBEEDBFFE
:103B90002DB73EB72F5F3F4F7901B9010E948904CD
:103BA00066E476E0C3010E94B32CB301C8010E9411
:103BB000D70DB701C8010E94D70D0FB6F894DEBE2D
:103BC0000FBECDBE7CCA66E476E0CE018E960E9422
:103BD000AA2C892B09F059C0D7011296FD0101903A
:103BE0000020E9F73197EA1BFB0B30904302832D4D
:103BF00090E0880F991FE817F90709F041C06701A5
:103C000057ECA52E52E0B52E4501D60112968C91A7
:103C10008823A9F0B2E0CB0ED11CF601218022202E
:103C200071F00E944223482E822D0E94422342942A
:103C300040EF4422480ED4014D924D01E6CF8091D1
:103C400042025092A3028093C5021092A4021092E5
:103C5000C6026091410284E893E00E94860AD12C5A
:103C60003D1449F0F50161915F0184E893E00E9401
:103C7000860AD394F5CF81E00E943F09B7016FCA4D
:103C80001092320166E376E091CA10923201C801C7
:103C90000E94E60D14CA2DB63EB66BE771E0C8016E
:103CA0000E94840EC8010E943A0EB09042025092C7
:103CB000A302B092C5021092A4021092C6026091B3
:103CC000410284E893E00E94860A81E00E943F0955
:103CD000A09043020E9498056B017C0180919D0297
:103CE00081116BC0FA2CF0E2FA1510F430E2F32ED9
:103CF00050929D0250929C022FEF20939B021092B3
:103D00009A028FEF8F0D80939902509278028091E2
:103D10007802BB0CB82AB092780280917702813089
:103D200009F085C0109277020E9498054B015C0152
:103D3000809178028093BB0080919F029091A002B5
:103D4000A091A102B091A202892B8A2B8B2BA1F00A
:103D50000E94980520919F023091A0024091A102FB
:103D60005091A202681979098A099B092617370719
:103D70004807590708F442C08091BC0083FDD8CFA2
:103D800035EC3093BC000E9498054B015C0180919A
:103D90009D02813009F44FC080919A028F1510F472
:103DA000F0909A02E9E7F2E0A1E2B2E080E08F153C
:103DB00051F191919D938F5FFACF80919F029091E5
:103DC000A002A091A102B091A202892B8A2B8B2B79
:103DD00009F484CF0E94980520919F023091A0029F
:103DE0004091A1025091A2026C197D098E099F0990
:103DF000261737074807590708F070CF80919E02B1
:103E00000E941E09F12C10922002F0921F02F12C48
:103E1000D0904302FD1488F584E893E00E943F0AA5
:103E2000EF2DF0E0E953FD4F8083F394F1CF45EEA1
:103E30004093BC00A8CF80919F029091A002A091D6
:103E4000A102B091A202892B8A2B8B2B09F49FCF60
:103E50000E94980520919F023091A0024091A102FA
:103E60005091A202681979098A099B092617370718
:103E70004807590708F08BCFC1CF81E00E943F0966
:103E80008D2D90E0880F991F0196ADB7BEB7A81B86
:103E9000B90B0FB6F894BEBF0FBEADBFEDB7FEB7FE
:103EA00031967F01BF018D2D0E94890466E476E082
:103EB000C3010E94B32CB301C8010E94D70DB70102
:103EC000C8010E94D70DC8010E94620EC8010E945D
:103ED000DC0C0FB6F8943EBE0FBE2DBE0EC980910D
:103EE00032018111E1C08FE197E00E94B80A8FEFA3
:103EF00093E00E94230B6BE771E08FEF93E00E9449
:103F0000450D24968EAD9FAD24970E940F2B2896C9
:103F10008EAD9FAD28970E940F2B10926D020E94CC
:103F2000EF05C0903701D0903801E0903901F09052
:103F30003A01C616D706E806F90608F01EC30E9425
:103F4000EF056B5F7F4F8F4F9F4F609337017093EB
:103F500038018093390190933A0180915B02882364
:103F600021F10E94EF05C0905702D0905802E090D6
:103F70005902F0905A024B015C018C189D08AE0862
:103F8000BF08C0905302D0905402E0905502F090C8
:103F90005602C814D904EA04FB0408F088C060E0A3
:103FA0008DE00E94270510925B0286E00E94FE04CD
:103FB00020915C022111A2C060E0892B09F0A7C00A
:103FC00080E9E82E83E0F82E992493949BE2892ED1
:103FD000D7011A968C911A97882371F05C961C92DF
:103FE0005C971D964D915D916D917C915097F70175
:103FF000418B528B638B748BD70119969C911997C7
:1040000091118FC0F701118A128A138A148A8111C3
:104010001286F7018185843029F48285882309F48A
:104020007CC11286D7011896DC90189759966C912E
:1040300070E090E080E00E94432D20E030E048EC0A
:1040400052E40E94232F1B012C016D2D70E090E0A3
:1040500080E00E94432D9B01AC01C201B1010E948E
:10406000802D0E94952F562ED61608F45D2CB12C6B
:10407000A12CC52CD12CAC14BD0408F014C2F7013E
:1040800083819481DC0112962D913C91A216B30696
:1040900038F42189328943895489B5010E945B072C
:1040A000BFEFAB1ABB0AE5CF8DE197E01ECFC09002
:1040B0004F02D0905002E0905102F09052026C19E1
:1040C0007D098E099F096B3F71058105910508F4F3
:1040D0006CCF8DE00E94FE0461E0892B09F060E066
:1040E0008DE00E9427050E94EF0560934F027093B8
:1040F0005002809351029093520257CF209199031E
:104100002250223040F0892B09F05ACF61E086E03E
:104110000E94270555CF2091AC03222309F44CCFF0
:10412000F2CF913009F087C01D964D915D916D9150
:104130007C915097F701418B528B638B748B882352
:1041400009F467CF1286F7018185833009F061CFCA
:10415000828581115DCF0E94EF05D7015D962D917B
:104160003D914D915C919097261737074807590765
:1041700008F4AEC05A96AD90BC90B694A794D12CDA
:10418000C12C0E94EF05F701258D368D478D50A17A
:10419000A21AB30AC40AD50AA6019501260F371F31
:1041A000481F591FAFEFB0E00E94862E228D338D3D
:1041B0003695279550E040E00E94642EE22FD7010B
:1041C0005C968C918111E095D7011D964C911D97BD
:1041D0001E965C911E971F968C91F0E0ED5DF84F56
:1041E000E4912E2F30E0A82FB0E00E94C82EBB270C
:1041F000A92F982F872F2C0133242224A52FB0E03C
:104200000E94C82E5B016C01AA24A228B328C428EE
:10421000D528A42FB0E00E94C82E672F782F892FB1
:104220009927A60EB71EC81ED91EF701A18AB28A09
:10423000C38AD48AEECE923009F085CF882311F05C
:104240001A961C920E94EF05F701258D368D478D39
:1042500050A1621773078407950708F474CF0E9472
:10426000EF05D7015D962D913D914D915C91909711
:10427000261737074807590708F065CF5C968C91D9
:104280005C978823C9F0F701118A128A138A148A6D
:104290008925D7015C968C930E94EF05F701228D4A
:1042A000338D36952795620F731F811D911D658F84
:1042B000768F878F90A347CF1D964D915D916D911D
:1042C0007C915097F701418B528B638B748BE0CFBD
:1042D0000E94EF05D7015D962D913D914D915C9126
:1042E0009097261737074807590708F092CE5C9633
:1042F0008C915C9789255C968C930E94EF05F70161
:10430000228D338D36952795620F731F811D911D68
:10431000658F768F878F90A37CCE0E94EF05D701A3
:104320005D962D913D914D915C9190976217730729
:104330008407950708F0A7C05A96AD90BC90D12C81
:10434000C12C0E94EF05F701258D368D478D50A1B8
:10435000A21AB30AC40AD50AA6019501260F371F6F
:10436000481F591FAFEFB0E00E94862E228D338D7B
:1043700050E040E00E94642E2095822F682D0E941C
:10438000D72E482E35ED482F3403F00111242E0F7F
:104390003F2F311DE22FEE0F2E0F220FE22FF0E004
:1043A0009F01AFEFB0E00E94C82E672F782F892FB2
:1043B00099272FEF30E040E050E0261B370B480BE9
:1043C000590B0E94862EA72EB82EC92EDD245A2CFA
:1043D000AE1BBF0B2FEF30E00E94162F672F782FF8
:1043E000892F99272FEF30E040E050E0261B370B54
:1043F000480B590BAFEFB0E00E94862EBB27A92FC8
:10440000982F872F482F52E04516B9F0541550F0D9
:10441000442029F081E0481699F14A2C40E05524C7
:104420005A940EC0E3E04E1639F1F4E04F12F5CF86
:10443000582E44244A9440E003C0482E4FEF512C9C
:10444000852D90E0B0E0A0E0DC019927882750E0BE
:1044500070E060E0762F652F542F4427840F951F5E
:10446000A61FB71F840D911DA11DB11DF701818BE2
:10447000928BA38BB48BD6CD4A2D44244A94DFCFA4
:10448000412C4FEFDDCF0E94EF05D7015A962D91B9
:104490003C91620F731F811D911DF701658F768F0F
:1044A000878F90A3BFCDF70180858C151D04A1F0E7
:1044B00098F083819481DC0112962D913C91C21673
:1044C000D30630F420E030E0A901B6010E945B077A
:1044D000BFEFCB1ADB0AE7CF81899289A389B48920
:1044E000458956896789708D84179507A607B70790
:1044F00029F09782858B968BA78BB08FD7011B965F
:104500008C911B971C969C911C97891729F01796E4
:104510009C9217971C968C930E94EF05F70121A19E
:1045200032A143A154A1621B730B840B950B693814
:1045300073418105910518F0D70117969C92F701F8
:104540008781882389F017820E94EF05D701919611
:104550006D937D938D939C9394970E949A06F70197
:10456000838194810E940408F5E2EF0EF11C2FEF85
:1045700033E02E153F0509F02BCD0E94EF05C090CA
:104580003301D0903401E0903501F0903601C61629
:10459000D706E806F90610F50E94EF05675E7F4F23
:1045A0008F4F9F4F60933301709334018093350197
:1045B00090933601809165028130C9F140F08230DC
:1045C000F1F1833009F443C01092650207C08EE018
:1045D0000E94860590935E0280935D0280916C023A
:1045E0008823D9F00E94EF05C0906802D09069023C
:1045F000E0906A02F0906B026C197D098E099F09A8
:10460000613177428105910540F080916602909179
:1046100067020E94C80A10926C020E94A7068823B3
:1046200011F40C94C4170E941E100C94C4178FE050
:104630000E9486059093600280935F02CFCF80E155
:104640000E9486059093620280936102C7CF81E148
:104650000E9486059093640280936302BFCFCF933C
:10466000DF93FC012185261751F0EC0181E0828760
:1046700061870E94EF056D8F7E8F8F8F98A3DF91EA
:10468000CF910895982F80ED890F8A3070F08FEBCD
:10469000890F863018F489EC890F08958FE9890F06
:1046A000863010F489EAF8CF80E00895CF93DF9345
:1046B000FC01C081D181209761F08991882349F064
:1046C000082E000C990B0E948830FE0131978083E0
:1046D000F4CFDF91CF910895EF92FF920F931F9344
:1046E000CF93DF93CDB7DEB72E970FB6F894DEBF2A
:1046F0000FBECDBF7C01CB01BA012AE08E010F5F56
:104700001F4FA8010E94DD2CF80101900020E9F75D
:104710003197AF01401B510BB801C7010E947B0DBF
:104720002E960FB6F894DEBF0FBECDBFDF91CF91AE
:104730001F910F91FF90EF900895EF92FF920F93CA
:104740001F93CF93DF9300D000D0CDB7DEB77C01AD
:10475000862F4AE08E010F5F1F4FB80190E00E9444
:10476000D22CF80101900020E9F73197AF01401BEE
:10477000510BB801C7010E947B0D0F900F900F9055
:104780000F90DF91CF911F910F91FF90EF900895BF
:10479000DF92EF92FF920F931F93CF93DF93CDB7EA
:1047A000DEB72E970FB6F894DEBF0FBECDBFE82E52
:1047B0006BE771E0CE0109960E94840ECE01099646
:1047C0000E943A0ECE0109960E940A0ED82E882326
:1047D000C1F010923201CE0109960E94620ECE0104
:1047E00009960E94DC0C2E960FB6F894DEBF0FBE21
:1047F000CDBFDF91CF911F910F91FF90EF90DF9090
:104800000895009147021091480265EF76E0C801D3
:104810000E94AA2C2E2D2150330B7901892B49F1AE
:10482000B801CE0101960E94840ECE0101960E942D
:10483000562385E28E9D90018F9D300D1124C90174
:1048400080579C4F7C0109811A8166E971E0C8019B
:104850000E94AA2C892B79F510E0612FC7010E94D4
:104860002F23612FCE0109960E949D23DD24D3942E
:1048700047C085E2829F8001839F100D112400575D
:104880001C4FF8016185CE0109960E949D23F80115
:1048900081858250833008F09ECF6BE177E0CE01B6
:1048A00001960E94B32CBE016F5F7F4FCE01099627
:1048B0000E94D70D90CF6CEB73E0C8010E94AA2C28
:1048C000892B51F26FE871E0C8010E94AA2C892B54
:1048D00071F169E871E0C8010E94AA2C892B49F1A5
:1048E00063E871E0C8010E94AA2C892B21F16BE7D3
:1048F00071E0C8010E94AA2C14E0892B09F4ADCF05
:10490000CE0101960E94DC0CD11065CF8091470248
:10491000909148020E94832C8C018530910568F0AB
:1049200010923201CE0109960E94E60D54CF11E09B
:1049300094CF12E092CF13E090CFBC01CE01099644
:104940000E94A70D602FC7010E942F2344CFEF9232
:10495000FF921F93CF93DF93CDB7DEB760970FB66B
:10496000F894DEBF0FBECDBF182F6BE771E0CE010C
:104970000B960E94840ECE010B960E943A0ECE0139
:104980000B960E940A0E8823B1F010923201CE01DC
:104990000B960E94620ECE010B960E94DC0C609674
:1049A0000FB6F894DEBF0FBECDBFDF91CF911F9140
:1049B000FF90EF900895E0904702F090480265EF75
:1049C00076E0C7010E94AA2C892B19F5812F0E943D
:1049D000FE04BC01CE010B960E94A70D6BE177E0AF
:1049E000CE0101960E94B32CBE016F5F7F4FCE01B6
:1049F0000B960E94D70D68EB73E0CE0101960E94E2
:104A0000B32CBE016F5F7F4FCE010B960E94D70D76
:104A1000BECF6EEB73E0C7010E94AA2C61E0892B28
:104A200041F06CEB73E0C7010E94AA2C892B29F49A
:104A300060E0812F0E942705C9CF10923201CE017C
:104A40000B960E94E60DA3CFCF92DF92FF920F93B9
:104A50001F93CF93DF93CDB7DEB72E970FB6F894A1
:104A6000DEBF0FBECDBF182F6BE771E0CE010796FA
:104A70000E94840ECE0107960E943A0ECE01079640
:104A80000E940A0EF82E8823C1F010923201CE0146
:104A900007960E94620ECE0107960E94DC0C2E96AD
:104AA0000FB6F894DEBF0FBECDBFDF91CF911F913F
:104AB0000F91FF90DF90CF900895C0904702D09063
:104AC000480265EF76E0C6010E94AA2C892B09F105
:104AD000B601CE0101960E94840E50E040E0BE0176
:104AE000635F7F4F89819A810E94982B062FED8505
:104AF000FE8530813323F9F0CE0101960E94DC0C53
:104B0000F110C5CF10923201CE0107960E94E60D3A
:104B1000BECF212F2150330BC90125E2289FF00180
:104B2000299FF00D1124E057FC4F618DCE010796AF
:104B30000E949D23ACCF462F572FBC01453651050F
:104B400061057105CCF6CE0107960E946C23212FDA
:104B50002150330BC90125E2289FF001299FF00D58
:104B60001124E057FC4F018F053608F004E6018F51
:104B700025E2289FF001299FF00D1124E057FC4FFA
:104B800081E08783FF24F394B7CFCF92DF92EF9237
:104B9000FF920F931F93CF93DF93CDB7DEB72E977E
:104BA0000FB6F894DEBF0FBECDBF182F6BE771E0D4
:104BB000CE0107960E94840ECE0107960E943A0EFF
:104BC000CE0107960E940A0E082F8823C9F0109282
:104BD0003201CE0107960E94620ECE0107960E9416
:104BE000DC0C2E960FB6F894DEBF0FBECDBFDF9162
:104BF000CF911F910F91FF90EF90DF90CF9008958C
:104C0000E0904702F090480265EF76E0C7010E940D
:104C1000AA2C892B01F1B701CE0101960E94840EC6
:104C200050E040E0BE01635F7F4F89819A810E941E
:104C3000982BED85FE852081222319F1CE01019666
:104C40000E94DC0C0111C5CF10923201CE010796F3
:104C50000E94E60DBECF212F2150330BC90125E262
:104C6000289FF001299FF00D1124E057FC4F03808D
:104C7000F481E02D60856150CE0107960E949D234E
:104C8000A8CF6B017C013FEFC316D104E104F1040E
:104C900029F024F0C12CD12C7601CA94B701A601C9
:104CA000CE0107960E946C23212F2150330BC9019E
:104CB00025E2289FF001299FF00D1124E057FC4FB9
:104CC000C3866C2D838194810E94C20701E0B6CF18
:104CD000CF92DF92EF92FF920F931F93CF93DF93C8
:104CE000CDB7DEB72E970FB6F894DEBF0FBECDBF9F
:104CF000082F6BE771E0CE0107960E94840ECE016B
:104D000007960E943A0ECE0107960E940A0E182FAF
:104D10008823C9F010923201CE0107960E94620EDC
:104D2000CE0107960E94DC0C2E960FB6F894DEBFDB
:104D30000FBECDBFDF91CF911F910F91FF90EF90EC
:104D4000DF90CF900895E0904702F090480265EF21
:104D500076E0C7010E94AA2C892B01F1B701CE0190
:104D600001960E94840E50E040E0BE01635F7F4FD9
:104D700089819A810E94982BED85FE85408144238C
:104D8000E9F0CE0101960E94DC0C1111C5CF109202
:104D90003201CE0107960E94E60DBECF0150110BE5
:104DA00085E2809FF001819FF00D1124E057FC4FB8
:104DB0006085CE0107960E949D23AECF6B017C01DA
:104DC0002FEFC216D104E104F10429F024F0C12C24
:104DD000D12C7601CA941C141D041E041F0424F057
:104DE000C12CD12C7601C394B701A601CE01079640
:104DF0000E946C230150110B25E2209FC001219FCE
:104E0000900D1124DC01A057BC4F7D0118968C91A8
:104E10001897C81609F464C01396ED91FC9144816B
:104E2000558170E060E0818592850E94B3300E94D8
:104E30009A06F701838194810E940408D701139692
:104E4000ED90FC90E114F10489F0F70181859285E1
:104E50000E940F2BD70116968D919C9197FD03C050
:104E600060E00E945505C7010E940F2B85E2809FDC
:104E7000F001819FF00D1124E057FC4FC086808126
:104E8000813081F5E0916602F0916702C28225E2ED
:104E9000209FC001219F900D11248C0100571C4FB1
:104EA000C8010E94FB0EFF24F394F0926C020E9452
:104EB000EF05609368027093690280936A02909391
:104EC0006B02F8016185C8010E942F23F8018585D6
:104ED0009685A785B089818B928BA38BB48BF78243
:104EE00011E04FCF823031F4E0916602F091670219
:104EF000C482CDCF833059F6E0916602F09167020B
:104F0000C682C5CFBF92CF92DF92EF92FF920F93EE
:104F10001F93CF93DF93CDB7DEB72F970FB6F894DB
:104F2000DEBF0FBECDBFB82E6BE771E0CE01089695
:104F30000E94840ECE0108960E943A0ECE01089679
:104F40000E940A0EF82E8823D1F010923201CE0171
:104F500008960E94620ECE0108960E94DC0C2F96E5
:104F60000FB6F894DEBF0FBECDBFDF91CF911F917A
:104F70000F91FF90EF90DF90CF90BF900895C09079
:104F80004702D090480265EF76E0C6010E94AA2C45
:104F90008E010F5F1F4F892BF1F0B601C8010E94EF
:104FA000840E50E040E0BE01625F7F4F89819A81AC
:104FB0000E94982BEE85FF854081442361F1C80152
:104FC0000E94DC0CF110C3CF10923201CE01089682
:104FD0000E94E60DBCCF2B2D2150330BC90125E2D9
:104FE000289FF001299FF00D1124E057FC4F4AE063
:104FF000B801828D938D0E94162DF801019000203A
:10500000E9F73197AF01401B510BB801CE0108966B
:105010000E947B0D9CCF6B017C0131E1C31637E20E
:10502000D306E104F10434F090E1C92E97E2D92EC1
:10503000E12CF12C84E6C816D104E104F1042CF42F
:1050400084E6C82ED12CE12CF12CB701A601CE01AB
:1050500008960E946C232B2D2150330BC90125E2A9
:10506000289FF001299FF00D1124E057FC4FD38EAB
:10507000C28E81E08783FF24F394A1CF2F923F92C9
:105080004F925F926F927F928F929F92AF92BF9258
:10509000CF92DF92EF92FF920F931F93CF93DF9304
:1050A000CDB7DEB7A7970FB6F894DEBF0FBECDBF62
:1050B000382E6BE771E0CE014E960E94840ECE0131
:1050C0004E960E943A0ECE014E960E940A0E282E4F
:1050D000882319F110923201CE014E960E94620E81
:1050E000CE014E960E94DC0CA7960FB6F894DEBF58
:1050F0000FBECDBFDF91CF911F910F91FF90EF9029
:10510000DF90CF90BF90AF909F908F907F906F90E7
:105110005F904F903F902F9008950091470210911B
:10512000480265EF76E0C8010E94AA2C892B09F499
:1051300059C1B801CE0148960E94840ECE0148960E
:105140000E94562381E4482E81E0582E320145E228
:10515000832D8150990B9C01429FC001439F900D6C
:10516000112480579C4F7C01ADE0EA0EF11C6C01CC
:10517000B1E1CB0ED11CFC013796FDA3ECA35E017F
:10518000FDE0AF0EB11C9C012B5F3F4F3FA32EA350
:10519000F301019111913F01D8018D909C90B401D0
:1051A000888D998D0E94AA2C892B09F058C0B401D2
:1051B000CE0101960E94B32CF80182819381248153
:1051C0003581D7018C9311969C93119712962C934D
:1051D000129713963C93F601808391832283338345
:1051E000E1E0ACA1BDA1EC933F932F939F938F93EC
:1051F0002CE731E03F932F931F928BE08F93BF9268
:10520000AF920E94D030B501CE014E960E94D70DCC
:105210006BE177E0CE0101960E94B32CBE016F5F77
:105220007F4FCE014E960E94D70DD8018D919C9153
:10523000EEA1FFA191838083B401CE0101960E946B
:10524000B32CBE016F5F7F4FCE014E960E94D70DEB
:105250000FB6F894DEBF0FBECDBF2224239435E5F0
:10526000631631E0730609F093CFCE0148960E9491
:10527000DC0C211031CF6091470270914802CE01C1
:105280000D960E94840E50E040E0BE01685E7F4FA4
:105290008D859E850E94982B6B017C01E88DF98D90
:1052A0008081882331F0C114D104E104F10409F4B0
:1052B0008CC0C114D104E10441E0F4060CF085C0B7
:1052C0008BE090E00E94732A8C01FF92EF92DF92B4
:1052D000CF928CE791E09F938F931F928BE08F93F7
:1052E0001F930F930E94D030B801CE014E960E94BA
:1052F000D70D0FB6F894DEBF0FBECDBF0115110557
:1053000019F0C8010E940F2BA32DA150BB0B8D01DA
:1053100085E28A9FF0018B9FF00D1124E057FC4F2E
:10532000C586D686E786F08AC18AD28AE38AF48A5D
:1053300081E087834F01B5E08B0E911CD201ED9186
:10534000FD912D0182819381A481B581C816D90672
:10535000EA06FB0629F5A080B180F401B182A082A3
:10536000B501CE0101960E94B32C6BE177E0CE012E
:1053700001960E94B32CBE016F5F7F4FCE014E9607
:105380000E94D70DB501CE0101960E94B32CBE013B
:105390006F5F7F4FCE014E960E94D70D222423943B
:1053A000F5E54F16F1E05F0649F621100EC085E2E3
:1053B000809FF001819FF00D1124E057FC4F8DE795
:1053C00098E09683858322242394CE010D960E9433
:1053D000DC0C211081CE10923201CE014E960E943B
:1053E000E60D7ACE8BE090E00E94732A8C01832D2B
:1053F0008150990B7C0185E28E9DF0018F9DF00D0F
:105400001124E057FC4FDF011D9613968C911397E2
:105410008F9312968C9112978F9311968C918F93F4
:1054200085858F938CE791E09F938F931F928BE0FC
:105430008F931F930F930E94D030B801CE014E96E8
:105440000E94D70D0FB6F894DEBF0FBECDBF011579
:10545000110519F0C8010E940F2B85E28E9DF00105
:105460008F9DF00D1124E057FC4F05811681B80186
:10547000CE0101960E94B32C6DE778E0CE01019633
:105480000E94AA2C892B09F427CE6BE177E0CE018C
:1054900001960E94B32CBE016F5F7F4FCE014E96E6
:1054A0000E94D70DB801CE0101960E94B32CBE0117
:1054B0006F5F7F4FCE014E960E94D70D0DCE8FEFBE
:1054C00093E00E94DC0C85E094E00E94DC0C8BE011
:1054D00094E00E94DC0C81E194E00E94DC0C87E106
:1054E00094E00C94DC0C0F931F93CF93DF938230E6
:1054F000910510F482E090E0E0916104F091620483
:1055000030E020E0B0E0A0E0309799F421153105BB
:1055100009F44AC0281B390B24303105D8F58A819B
:105520009B816115710589F1FB0193838283FE01E3
:1055300011C0408151810281138148175907E0F061
:105540004817590799F4109761F012960C93129727
:1055500013961C933296CF01DF91CF911F910F913B
:1055600008950093610410936204F4CF211531056E
:1055700051F04217530738F0A901DB019A01BD0130
:10558000DF01F801C1CFEF01F9CF9093620480935E
:105590006104CDCFFE01E20FF31F8193919322505E
:1055A000310939832883D7CF20915F04309160047B
:1055B000232B41F420913D0130913E013093600452
:1055C00020935F0420913B0130913C01211531056E
:1055D00041F42DB73EB740913F0150914001241B4B
:1055E000350BE0915F04F0916004E217F307A0F43B
:1055F0002E1B3F0B2817390778F0AC014E5F5F4F29
:105600002417350748F04E0F5F1F509360044093F6
:105610005F04819391939FCFF0E0E0E09CCFCF9324
:10562000DF930097E9F0FC01329713821282A09178
:105630006104B0916204ED0130E020E01097A1F424
:1056400020813181820F931F20915F04309160048B
:105650002817390709F061C0F0936004E0935F04F4
:10566000DF91CF910895EA01CE17DF07E8F54A816F
:105670005B819E0141155105B1F7E901FB83EA8386
:1056800049915991C40FD51FEC17FD0761F4808132
:1056900091810296840F951FE90199838883828105
:1056A00093819B838A83F0E0E0E012968D919C9138
:1056B00013970097B9F52D913C911197CD01029662
:1056C000820F931F20915F043091600428173907DF
:1056D00039F6309751F51092620410926104B0933C
:1056E0006004A0935F04BCCFD383C2834081518107
:1056F000840F951FC817D90761F44E5F5F4F8881EB
:105700009981480F591F518340838A819B819383DC
:1057100082832115310509F0B0CFF0936204E09344
:1057200061049ECFFD01DC01C0CF13821282D7CF6E
:10573000B0E0A0E0EEE9FBE20C94922E5C016B017C
:105740007A016115710519F0FB0191838083E114E1
:10575000F10449F0C7010297839728F060E070E0F8
:10576000CB019CC05E01E5012196F5011081812FDE
:1057700090E00E94A12C892BA9F71D3209F056C098
:105780002196F501118101E0E114F10409F4AEC0A4
:10579000F0E1EF16F10409F08EC0103341F4888176
:1057A0008F7D883509F083C0198122960260E0E17F
:1057B000EE2EF12C88248A94982CA82CFFE0BF2E82
:1057C00020E060E070E0CB0127010F2C000C6608A0
:1057D0007708FE0150ED352E310E39E0331538F4DF
:1057E0003FEB310F3A31A0F549EC342E310E3E1427
:1057F0001F04BCF52F3FB9F086169706A806B90618
:1058000070F1A30192010E94542E232D30E050E04C
:1058100040E0620F731F841F951F62177307840790
:105820009507E8F021E021961081D3CF1B3221F4B7
:10583000E5012296F501118100E0A6CF78E0E72E80
:10584000F12C88248A94982CA82C6FE1B62EB8CF1E
:105850003FE9310F3A3128F439EA332EC7CF2FEF21
:10586000E2CFC114D10431F02223E9F02197F601EF
:10587000D183C08300FF07C0909580957095619596
:105880007F4F8F4F9F4F2F3F49F482E290E09093DC
:105890006404809363046FEF7FEFCB01CDB7DEB775
:1058A000E1E10C94AE2E01FFE5CF2297E0CF10E3AB
:1058B000E114F10419F23AE0E316F104E9F080E1B1
:1058C000E816F10409F473CFE8E0EE16F10409F4E8
:1058D000B8CF6FEF7FEFCB0197010F2C000C440B7B
:1058E000550B0E94642E49015A016ACF103309F406
:1058F00056CF9AE0E92EF12C89E9882E982CA82C15
:1059000089E1B82E5DCFFC0188279927E894219181
:105910002032E9F3293010F02E30C8F32B3241F059
:105920002D3239F4689404C00E94EC2C820F911D32
:10593000219120532A30C0F31EF4909581959F4FFA
:10594000089591110C94302D803219F089508550B2
:10595000C8F70895FB01DC018D91059080190110B5
:10596000D9F3990B0895FB01DC0105900D920020FD
:10597000E1F70895FC01A081B181AD01109681F09D
:105980003D91FB01019003160110E1F7C9F70020DA
:1059900011F4D00102C01E921196FC01A083B183C4
:1059A000CA010895BB274A3031F4992322F4BDE29D
:1059B000909581959F4F0C94172DBB272A3051F459
:1059C000992342F4BDE290958095709561957F4F43
:1059D0008F4F9F4F0C94F52C7AE0979F902D879FC7
:1059E000802D910D11240895BB27FA01A62F62176F
:1059F000710581059105330B30FB66F0AA27660F10
:105A0000771F881F991FAA1FA21710F0A21B63956A
:105A10003850A9F7A05DAA3308F0A95DA19336F725
:105A2000B111B1931082CA010C94332DBB27FB0135
:105A30005527AA27880F991FAA1FA41710F0A41B87
:105A400083955051B9F7A05DAA3308F0A95DA193E1
:105A5000009779F7B111B1931192CB010C94332DCA
:105A6000992788270895DC01FC01672F719177231E
:105A7000E1F7329704C07C916D9370836291AE1709
:105A8000BF07C8F30895E89409C097FB3EF49095CA
:105A90008095709561957F4F8F4F9F4F9923A9F007
:105AA000F92F96E9BB279395F69587957795679596
:105AB000B795F111F8CFFAF4BB0F11F460FF1BC0DA
:105AC0006F5F7F4F8F4F9F4F16C0882311F096E96D
:105AD00011C0772321F09EE8872F762F05C066231B
